:020000040000fa
:080000000002040000000000f2
:020000040000fa
:10040000ef5c210080ff2700000188000000000051
:10041000050007000c000700681102000000000042
:100420000040da000000fe004440a9004006200021
:100430000000e0000300320000002000a00188005e
:100440004440a800000006000064210001002000d4
:100450001600370062004000e080480091018800eb
:100460009001ba0062004000e080480091018800dd
:100470009002ba0062004000e08048000002eb00f9
:100480006028e10005003a008301e900070033001d
:10049000038009000059eb00040037006128e100e7
:1004a000010032000082eb00050007009101880086
:1004b0001001ba000200e000e6ff3a00000005006b
:1004c000910188008002780062004000e0804800ce
:1004d0003559ba008301e900080032002559ba00f5
:1004e0008301e900050032000400e000f4ff32005f
:1004f00015d9ba008301e900f1ff3a0000000600b7
:100500008402040000000000881f780002047800c4
:100510001b000700080040004f04780000000600a0
:100520000000fa00881f7800000478003fb99700a7
:10053000ea8157008000780040282000170007005b
:10054000800078000000e000020035000040eb0071
:1005500000f47800010078004f0478000080fa0071
:100560000000060080017800020037008159780001
:100570000201e9000200e000fcff3a000000060072
:100580008001780002003700b15978000201e900cb
:100590000200e000fcff3a00000006006200fa00e2
:1005a000889fbe008a9fbe000004be00020578003e
:1005b0008300780060f92f000f004000b0000700b2
:1005c00088979f0099979f000000eb00a09f9f00d5
:1005d0009a4578000b80fb000000ea00cf04de00a3
:1005e00050c2b30080cf55000200320009047800e9
:1005f000010037000904e9000800e0000b003400a6
:100600001f909700080178008a0078008f9197006a
:100610000300010090979f000000e000930032006b
:100620002f98970000004400a09f9f0009054500f7
:1006300050c2b30080cf5500040032000b04e0002c
:10064000e3ff3a002f989700890037000000eb0085
:10065000809f9f00f0979f00e0979f00d0979f009a
:10066000c0979f00b0979f00c09f9f000900370070
:10067000e05b21000080500000004000215b210071
:10068000e08078004f98970001007000c09f9f00a5
:100690000a05e8001a4478008800fb00e05b2100ae
:1006a0007c000700800078000000e000f0ff3a00c6
:1006b000a0c2b300804f54000e003a00bf889700dc
:1006c0000180e900b08f9f0010007800b09f9f006c
:1006d0000000e00005003d000000ea00b09f9f0020
:1006e0004f9897000020a000c09f9f000a05e800d7
:1006f00010003700b19f9f0009003700bf98970096
:10070000f0ff2700808f5000040032006a08b90013
:100710000000410003004000b09f9f000a05e80070
:100720001a01fb0003fd2f0003004100e90f5000f8
:10073000f2ff3600e0c2b3009a4f1000040032000e
:100740000080eb00909f9f008a0478001c00370017
:100750008a04e800a0c2b300994f100007003a00d5
:10076000bf8897000180e900b08f9f0010007800db
:10077000909f9f008a84e800110037000000eb0082
:10078000909f9f00090037009f989700f0ff270077
:10079000808f5000040032006a08b9000000410058
:1007a00003004000909f9f008904e8001901fb00ae
:1007b00003fd2f0003004100e90f5000f2ff360057
:1007c000194478008800fb00605c210031000700bc
:1007d0000000e00002003a00004478000100370009
:1007e0008904e800a87f9f0080c6b300804f5400b2
:1007f00004003a00994f14000a003a006640500085
:1008000006003700c0c6b300804f540005003a0010
:10081000994f140003003a0065404000a07f9f00fc
:100820008904e8000905e800cbfb2f008f8545000f
:100830001901fb0060f92f000f0040000084e80060
:100840008b01780080007800080078001a0007000b
:100850000000e00005003a008b00780008007800f6
:10086000590107000000e00059ff3d000080eb0047
:100870004f05be004f04be000080fa0000000600d5
:100880000200fa00f1bf9f00010878000080fa0022
:1008900000000600040037000204e00001003a00f6
:1008a000000005000000e80010417800814f510071
:1008b000f9ff3a0000000600889fbe008a1f7800fa
:1008c0000004780001027800824478000305780073
:1008d000e0c6b300804f5100d300320015003c0049
:1008e0006b405000804f5100240032000a003c0051
:1008f00070405000804f51001001320065404000b0
:10090000804f51007400320050c2b300804f51003c
:1009100021013a001d01370040c6b300804f51004d
:100920001b00320065404000804f51001a013a0020
:100930001700370030c7b300804f5100ff0032006e
:1009400007003c0064405000804f510062003200bc
:100950000040e800804f51000f013a00e8003700e6
:1009600050c7b300804f51005b003200634040002d
:10097000804f510008013a00570037009180e9008c
:10098000010a780078009000917178000801370022
:10099000a8609000c0c6b30080cf50000a003a00a3
:1009a0009400780064805000000a78001000be00b7
:1009b0004f89de00cf91de000002be000203780006
:1009c000820378001300370010c7b30080cf5000b7
:1009d00003003200a0c6b30080cf500006003a00ea
:1009e0009400780068805000000a78003002be0051
:1009f0002003be00070037001480e900000a7800d9
:100a00001000780000027800cfa2de000503780015
:100a100086037800049cbe000694be00a860900087
:100a200080c6b30080cf50000e00320020c6b30055
:100a300080cf500005003a000400fb00cf80de00ac
:100a400001017800820178000a00370040c7b30036
:100a500080cf5000030032006640400080cf50003d
:100a600006003a0004007800cf80de000101780023
:100a700082017800009cbe000294be003800be00d7
:100a80002801be00e00f5000e08f5800e00f590031
:100a9000e08f590003003d0078009000d1c2b30000
:100aa0000a003700081090000018a300030032006d
:100ab00078009000b1c2b300040037000008a30022
:100ac000540032007800900001c2b3000175780034
:100ad0000000e8004e003700a8609000c0c6b300d8
:100ae00080cf500007003a009400780064805000e6
:100af000000a78001002be000003eb0086037800b5
:100b00001300370010c7b30080cf5000030032003d
:100b1000a0c6b30080cf500006003a0094007800d1
:100b200068805000000a78003002be002003be003a
:100b3000070037001480e900000a780010007800f0
:100b400000027800050020000600200007002000b9
:100b5000049cbe000694be00a860900080c6b3004e
:100b600080cf50000e00320020c6b30080cf50006e
:100b700005003a000480fb00010020000200200074
:100b8000030020000a00370040c7b30080cf5000a8
:100b9000030032006640400080cf500006003a005b
:100ba0000400780001002000020020000300200063
:100bb000009cbe000294be00081090000038a30004
:100bc000140032003800be002801be00e00f5000c3
:100bd000e08f5800e00f5900e08f59000d003200ff
:100be00080c7b30080cf54000300320080c5b3003b
:100bf00080cf540007003a007800900001c3b30092
:100c0000017578008000e80009f578000080e800b0
:100c1000700498007800900000004500600498007f
:100c20008940780042003700a8609000c0c6b30039
:100c300080cf5000250032000a003c006440500084
:100c400080cf50002800320000c0e80080cf500064
:100c5000140032006840500080cf500022003a005b
:100c60000a00370040c7b30080cf50001e0032009a
:100c70006640400080cf50001b00320069405000a9
:100c800080cf500018003a00060037001480e900b9
:100c9000000a780010007800485c9000084878004e
:100ca000450037001480e900000a7800100278003f
:100cb00068089000cf80de00010178008201780092
:100cc000009abe000292be003b0037001480e9008b
:100cd000000a78001001780068089000cf80de00dc
:100ce0000089be00340037001480e900000a780053
:100cf00010007800680c9000080878002e0037007b
:100d00001180e9008008780010007800cf80de00b4
:100d10000101780082017800009cbe000294be00b0
:100d200078009000000045006004980081c7b3007f
:100d300008007800ee0007001f0037001480e9006b
:100d4000000a7800100078006004980058099000ac
:100d50000200e00002003d009c010700090037008e
:100d60008000eb00a0010700800078000000e00098
:100d7000030032006800900000805000010037003e
:100d800058089000100c98000b0037007800900075
:100d9000027578000600370078009000800045005a
:100da0000904e00001003a0059c2b3008948780004
:100db0000000e800700498000000eb004f05780088
:100dc0004f04be00000006000400fa00889fbe0029
:100dd0008a9fbe008c1f780000047800010678000e
:100de00070089000f8009000010050008808900002
:100df000010050009808900001005000a8089000e1
:100e000001005000b808900001005000c808900090
:100e1000810550000002220090bf9f0000032300c4
:100e2000a0bf9f00081090000028a30018003a00ff
:100e30000b00e000160034008b04780009057800f0
:100e4000e28f5400020036002a0020000200370022
:100e50000900e0000b00340058009000c801900029
:100e60000a017800ee80570003000100500498004a
:100e70000000e00096003200680890000000450085
:100e8000600c98008a8454004240a900ebff3c00ab
:100e9000780190000200e0000b0034005800900040
:100ea000c80190008c0078000300010050049800f5
:100eb0000000e0008600320068089000f800900012
:100ec00001004000600c9800880c90000900e000d0
:100ed0001500340009057800e28f54000200360046
:100ee0002a002000020037000900e0000b00340057
:100ef00058009000c80190000a017800ec8057006b
:100f000003000100500498000000e000700032006f
:100f10006808900000004500600c98008a84540026
:100f20004240a900ebff3c00180990000200e000dd
:100f30000b003400e800900058009000c8019000b9
:100f400003000100500498000000e000600032003f
:100f5000680890009808900001004000600c98001c
:100f6000a80c90000900e000150034000905780085
:100f7000e28f5400020036002a00200002003700f1
:100f80000900e0000b00340058009000c8019000f8
:100f90000a017800ec80570003000100500498001b
:100fa0000000e0004a0032006808900000004500a0
:100fb000600c98008a8454004240a900ebff3c007a
:100fc000380990000200e0000d003400e8009000b5
:100fd000180890008080400058009000c8019000e0
:100fe00003000100500498000000e00038003200c7
:100ff00068089000b808900001004000600c98005c
:10100000c80c90000900e0001500340009057800c4
:10101000e28f5400020036002a0020000200370050
:101020000900e0000b00340058009000c801900057
:101030000a017800ec80570003000100500498007a
:101040000000e00022003200680890000000450027
:10105000600c98008a8454004240a900ebff3c00d9
:10106000081090000028a3001b0032000b00e000d5
:10107000190034008b04780009057800e28f5400d1
:10108000020036002a002000020037000900e000bc
:101090000b00340058009000c80190000a0178004d
:1010a000ee80570003000100500498000000e000ab
:1010b000070032006808900000004500600c9800ae
:1010c0008a8454004240a90003003400eaff37003c
:1010d0000080eb00010037000000eb004f067800b5
:1010e0004f05be004f04be000080fa00000006005d
:1010f000ef02b000889fbe008a9fbe008c9fbe009a
:101100008e1f78008006780000012000b0b79f0095
:1011100092582100c2b79f0080c5b30080cf500015
:101120000e00320083002000b3b79f0084572100d7
:10113000c4b79f007740400080cf500007003200c6
:1011400000012000b0b79f0080c7b30080cf5000df
:1011500002003200a2002000b2b79f003d04be0092
:101160002d05be0040c6b30080cf50000300320002
:101170006540400080cf50000b003a00e00f540063
:10118000e08f5c00e00f5d00e08f5d0006003d0039
:101190006000b8006011b80008045000898458004d
:1011a0000a0559008b855900e00f5400e08f5c0060
:1011b000e00f5d00e08f5d0004003a005d089000e4
:1011c0008e0120000000e0000c003200bfb197004b
:1011d00003027800cfa2de000503780086037800c2
:1011e0000800be000a01be00610307004fb297006d
:1011f00064407800d0df9f007e0120003fb0970060
:1012000000027800cfa2de00050378008603780094
:101210000800be000a01be004e030700230037008d
:10122000bfb0970001047800cfc4de000905780044
:101230008a0578000802be000a03be007fa8970056
:101240008fb097001fb19700afb197004c03070014
:10125000d0b79f00e1b79f00f2b79f0083bf9f0008
:101260000e07e90062fc2f000f0141000e0641004d
:101270000802be000a03be005fb09700efb09700ff
:101280007fb197008fb99700b90307007faa970035
:1012900000005200cfb09700614e78005fb0970019
:1012a000efb097007fb197008fb99700809ebe0086
:1012b0008296be003d00be002d01be00f0af9f0033
:1012c00081b79f0092b79f00a3b79f00e00f500027
:1012d000e08f5800e00f5900e08f59000200340001
:1012e0000e00e000ceff3c00bfb09700e88f50003a
:1012f00010003a000d1090000038a3000d003200dd
:10130000f70f570006003e0062fc2f000f0141005e
:101310008e00410000c3b300914f10000500320061
:101320000e07e90000c3b30063fc2f008f8141006a
:1013300080717f0078011700920e98006d00900078
:1013400063fc2f008f8141008e8041008cfc0700e0
:101350001d0990005d089000800f510006003d00bf
:1013600002005000800e98000d1090000040a10077
:10137000801698000f0037000000e0000d003d00cf
:101380000d10900074006000f00f500009003a004a
:101390007d089000fd009000010050008d08900035
:1013a00001005000020050004240a900010034003a
:1013b000800e98004f0778004f06be004f05be0014
:1013c0004f04be00ef02b10000000600800078006c
:1013d000010037000000e8001004e000fdff3a00c3
:1013e00001005000000006000600370090cf1000fa
:1013f00002003a0000017800040037000000e80015
:101400000201e9000200e000f8ff3a000200780063
:1014100000000600889fbe008a9fbe00010578007c
:101420000100e0000400350008003c000000e0007e
:10143000200032000500370060001000e080180036
:1014400002003b0001f02c001a0037000004be002f
:101450006011b8006b0920000982cf00020039003a
:101460000882cf000441b000694252000e003200f1
:1014700008003b0082817100610164008904d10091
:101480000884d3008b05e8000442e800f9ff3a0025
:10149000050037000804440089844c008b05e900ee
:1014a0000442e900fbff3a00a00007000af0a70091
:1014b00001f0a0004f05be004f04be000000060072
:1014c000889fbe008a9fbe008c1f7800bd00070069
:1014d000c400330003866c006450e1002400320035
:1014e0006420e100270032006150e1002200320058
:1014f0006120e100210032008b854200eb07b10042
:101500000134b800003ab8000804420089844a0057
:10151000013ab8000030b8008880400009014a0054
:1015200004003300000040008180480002014900af
:101530008b05e900c909dd0083017000010032005c
:1015400013002000c814de004814dd004709de0047
:101550001200b200c808de000884700073000700a3
:1015600001f0a1000cf0a70001f0a000a6003700d8
:101570006120e100a80032000801be000200be00a8
:10158000f7ff37006150e100fcff3a00a20037008e
:10159000889fbe008a9fbe008c1f780089000700cc
:1015a0009000330003866c006450e1002e0032008e
:1015b0006420e100330032006150e1002f0032006e
:1015c0006120e1003100320085855500eb07b00055
:1015d000090020000804200005003700080444002a
:1015e00089844c000a0031000603430087834b00c6
:1015f0000001530081815b00f8ff33000203be004d
:101600000800a0000804440089844c00f6ff39005b
:10161000c639dd0083017300010032001300200091
:101620008904d1000884d3000998a3000500320082
:101630000800a7000300a0008904d1000884d3009b
:101640008b05e8008904d1000884d3000001eb0079
:101650000281d2003500070001f0a1000cf0a700c4
:1016600001f0a000680037006420e1006a00320049
:101670000801be000200be00f7ff37006120e10054
:10168000650032006000b800f3ff37000000200062
:1016900001f82700f0ff37000081eb006100370000
:1016a0000001be00c80007000470a70003f0a100fd
:1016b0006509b100160032000d0035006828e10010
:1016c00006003500f0ff2f00f1ff27000300e000c7
:1016d00013003b000100280000000500000040004e
:1016e000818048008502e900fcff3a0008003700cd
:1016f000f88f420002003c008000eb000000050073
:101700008100d1000080d3008502e800fcff3a0090
:101710000300e00002003b0060001000e0801800c1
:10172000000006000001eb003e00370081002000b1
:10173000618055000b003d000b00200061fe2f0072
:101740000100e1001d00340082817100610164002c
:101750008904d1000884d3000000e800faff3a00b1
:10176000710020006100640003007000020060004e
:101770000900320061044400e0844c000988a5009f
:10178000050032008b05e8006808e10002003a001d
:101790008904d1000884d300f20f20000258e10030
:1017a00005003d00c75ddd00f907b20089807500c6
:1017b00008007800000006000bf827008b00780076
:1017c000000005000004be007f0007000003be000b
:1017d0000405be000200be007b000700844f7500b8
:1017e000000006000200be006450e1000500360063
:1017f0006420e100020036000968a30001003a00fd
:101800000800be000160a0004f0678004f05be0032
:101810004f04be0000000600f0ff2f00f1ff27007c
:10182000f9ff3700889fbe008a9fbe008c9fbe00d4
:10183000820578000004be00630007000800be00b7
:101840006420e1000700390002003a00f1ff2700a0
:10185000f0ff2f000160a0001202200022ae8800dd
:10186000550037006120e10003003a000b00a7009b
:1018700001f823005000370001f0a1000200210010
:1018800093642400650007000800be0004003500d2
:10189000b2fd2000930c2400620007000004be008b
:1018a0000005eb000b00a6004f0dde0001f0a100cb
:1018b0000004be0032982f0023ea230000ff070037
:1018c0000001eb0003f023000b00a70003f8230046
:1018d0005700070072ff07000000a7000a00a200df
:1018e000ccfe07000b00e0000300320002002000e5
:1018f00003f023004d00070001f0a2000006be0027
:101900000200200093042400edfe07000801be0041
:1019100047000700809fbe000c00be0022a22a00e4
:10192000d3a72300e6fe07004f01be0040000700da
:101930000004be0001f0a100020020000398230073
:10194000360007000800be00190035000001be0087
:10195000dbfe07000006be00b2c52900e3622300db
:10196000d7fe070022222b00f3942b003000070043
:101970000c01be00d2fe0700e273280083c02300e2
:101980002b0007000c01be00cdfe070042aa2a0072
:10199000a3e22b00260007000c01be00c8fe0700d2
:1019a0000801be00c6fe07000801be0020000700b7
:1019b0000a00a70001f0a2004f06be004f05be00be
:1019c0004f04be0000000600c70ade00f107b200a7
:1019d000f50fb20008003200e1cf420002003200f1
:1019e0000170a00024000500810f7000010032008a
:1019f0000408050044000500810f700002003a0051
:101a0000140005008502e9000000400081c0480084
:101a1000fcff3b000170a000240005001400200022
:101a200060003700040020007900370003f0a200b6
:101a3000889fbe008a9fbe008c1f780061ff070050
:101a400068ff33006450e1004f0032006420e10081
:101a50005200320003826c0007003b000905d000f1
:101a60000306d000820f54000c065d00020039000e
:101a70000200320089017800030678008582550053
:101a800004003d000003fd008103fd008502ea0023
:101a90008b854200840f720002003b006000100042
:101aa000e08018006011b8000005eb007a28e10022
:101ab0000a00390006007800c75ddd00f707b200b4
:101ac000878075002d003700828171000a0178003f
:101ad000610560008180d1000080d3008502e900ab
:101ae000f9ff3b00060440008784480002003b00e9
:101af00060041400e0841c000988a3000700320081
:101b00008a81710082817100610164008904d100c1
:101b10000884d3008b05e800170037000978a3007c
:101b200013003a000b00e000130034008b05e900bd
:101b30000804440089844c000a4474000978a30016
:101b40000d003a000b00e000070034008b05e900af
:101b50000804440089844c0001003a000b00200076
:101b60000978a300f7ff32000001eb000200370004
:101b7000828171000a017800ecfe07000cf0a700da
:101b800001f0a00020ff37006420e10002003a00cd
:101b9000838f6c0020ff33000801be000200be00ee
:101ba00019ff3700889fbe008a9fbe00841f7800ff
:101bb00004ff07004f00780011003300f0ff2f00f2
:101bc000838f6c0006003b00040565000a00a70037
:101bd0000800370009f0a6001000200008003700b8
:101be000820f5400838f5c00030039001000200036
:101bf00001003e000000200009f0a7000000ea00fc
:101c00004f05be004f04be000000e00000000600cb
:101c1000889fbe008a9fbe008c1f78004f26dd0083
:101c2000e8fe0700effe33006120e10043003200d0
:101c30006250e10041003e003e0039006420e100b6
:101c40003c003200058255000f003b000402e80012
:101c500038003a00800f5300818f5b00350034005c
:101c60000800be0003f0a10001f0a60003f0a000f0
:101c70000cf0a7006eff0700e3fe370006034300e9
:101c800087834b000c4646000005530081855b00ae
:101c9000020033000a03be000c00a0000402e900a9
:101ca000f6ff3b00850578000602430087824b0063
:101cb00004003a006000b80009f0a70001f0a0009d
:101cc000d1fe37000002520081825a000704e00072
:101cd000040033000603430087834b008b05e900b3
:101ce000faff3700090578000604be000203be00b3
:101cf0006011b8008dfe0700e00f5200e08f5a001f
:101d00000700350002003c000c08a300040032006c
:101d10000601be0003f0a0000cf0a70044ff07007e
:101d20000a85680001f0a1000af0a70001f0a000f8
:101d3000b5fe37000800be00b3fe370010022000d9
:101d40000cf0a60020ae8800b3fe3700881f780094
:101d5000000478005001be004000be0004004000b6
:101d6000858048000601490087814900009cbe002b
:101d70000294be000400e1000588e1000690e10045
:101d80000798e10002003100680044001008e800f4
:101d90004f047800000006001000fa00889fbe0083
:101da0008a9fbe003004be002005be00c8b79f0059
:101db000d9b79f00eab79f00fbb79f000404540007
:101dc00085845c0006055d0087855d0088bf9f00f7
:101dd00099bf9f00aabf9f00bbbf9f000898be008d
:101de0000a98be008000eb004fb49700dfb4970064
:101df0006fb59700ffb597000440e10005c8e1000a
:101e000006d0e10007d8e1000100310011002000f8
:101e1000108810004f05be004f04be000080fa007d
:101e2000000006001200fa00889fbe008a9fbe00d4
:101e30008c1f78000205be000004be00f4b79f00ae
:101e400085bf9f0096bf9f00a7bf9f000000eb00cb
:101e5000e0b79f00d0b79f00c0b79f00b0b79f000a
:101e6000a0b79f0000067800dfb097006fb0970022
:101e7000000140000000e0000a003d008c00070067
:101e800001003d00120020009200070001003d000b
:101e900012002000970007007c805700abff07006e
:101ea000090037008200070001003d0012002000f9
:101eb0008800070001003d00120020008d0007008f
:101ec0007c805700b4ff07006fb297000400e00069
:101ed0000700350010002000010020006011b8004c
:101ee00008047000898470000a0571008b857100f8
:101ef0000c06e800f0032000800f5600daff3400e3
:101f00000400e00006003d007fb297008fba970002
:101f10001fbb9700afbb97007c8057008bff07006b
:101f20006fa897000000e00004003a002fb497006b
:101f3000bfb497004fb59700dfb597008900070041
:101f40004f0678004f05be004f04be000080fa0027
:101f500000000600881f780018002000881f780005
:101f6000b0ff07008f87e9004f04780000000600eb
:101f7000801feb00abff07008f87e9000000060021
:101f8000889fbe008a9fbe008c1f78006e000700ed
:101f900005003d002f00070007003d003d00070041
:101fa0000006eb00040037003f00070002003d0080
:101fb000300007001c0020006a000700e5ff070052
:101fc0000203be000002be000c00e000010032006f
:101fd000280007000400be000601be004f0678007e
:101fe0004f05be004f04be0000000600889fbe00e3
:101ff0008a9fbe008c1f78005300070003003d003d
:102000001400070006003d0004003700260007000a
:1020100003003d006000b8006011b8001d0007001b
:1020200050000700d2ff07000203be000002be00fe
:102030000c00e000010032000e0007000400be00aa
:102040000601be004f0678004f05be004f04be00db
:10205000000006006000b8006011b80008045000dd
:10206000898458000a0559008b8559001c002000fe
:10207000030037006000b8006011b80005003700a9
:10208000e00f5200e08f5a00e00f5b00e08f5b0032
:102090000000060004025000858258000603590023
:1020a00087835900000006000006eb00f4ff3700ac
:1020b0004f08de0000007100c0b79f0001804000a3
:1020c000b0b79f000001eb00afb097000100e00047
:1020d0000000060002007000b0b79f0001804000c1
:1020e000a0b79f000001eb009fb097000100e00047
:1020f0000000060002007000a0b79f0001804000b1
:102100000fb29700cf20de000100700090b79f0053
:1021100004024200130007004f18de0000027200a4
:1021200084b79f000804440089844c000a054d00d0
:102130008b854d005fb29700efb297007fb3970099
:102140008fbb9700000006000205be000004be0021
:10215000e00f5000e08f5800e00f5900e08f590069
:10216000000006000800be000a01be0000000600d4
:10217000889fbe008a9fbe008c1f78000205be00ab
:102180000004be000006eb00e00f5000e08f580096
:10219000e00f5900e08f590007003d006000b800d3
:1021a0006011b80008045000898458000a055900dd
:1021b0008b8559001c002000e00f5200e08f5a0070
:1021c000e00f5b00e08f5b0002003d000f000700a6
:1021d0000c00a2000800be000a01be0012000700a9
:1021e0000203be000002be000c00e000010032004d
:1021f000060007000400be000601be004f0678007e
:102200004f05be004f04be00000006006000b8008d
:102210006011b8000402500085825800060359007e
:102220008783590000000600889fbe008a9fbe0079
:102230008c9fbe000404b8000506b800890446005f
:1022400060854e000606b8000a054600e0854e008f
:102250000706b8008b054600040eb8008904460046
:102260000a854e00e0854d00050eb8000a054600bf
:102270008b854e00060eb8008b0546000416b8008c
:102280000a0546008b854e000516b8008b054600f2
:10229000041eb8008b0546000800be000a01be00ff
:1022a0004f06be004f05be004f04be0000000600f2
:1022b0000000fa004300200042062000a100200098
:1022c000c0592100cb0007000080fa000000060082
:1022d0000800fa00f6ff0700100798000000eb0066
:1022e000000f7800060037009e0078006400470069
:1022f000808040000040eb00804878001e0fe8001e
:10230000300020009e0f1000f7ff3400e40047006b
:102310001e009000cb000700fcff370000a0fe006d
:102320003400f800881f780008c0b300a8018800b6
:102330004f0478000000fa008500a9000080fa0030
:102340003400f9000080fe00004006000000fa00a2
:10235000a11820009140780080cfb30000c0600039
:102360008ae1b7008ba1a9008a61a800d0ac8000e7
:10237000400c8800d0ac8000300c8800a1182000f0
:102380009140780080cfb30000c060006040b3008f
:102390008ae1b7000080fa00000006000000fa00a1
:1023a000c842a800800c200031000700c842a900e4
:1023b000800c20002e000700c842a800800c2000de
:1023c0002b000700c842a900800c2000280007004d
:1023d000c842a800e06029004e000700f061290013
:1023e0004c000700d0ac800061000700906329001a
:1023f000480007000080fa00000006000000fa0014
:102400001061a900011120009140780000c3b300c1
:1024100000c0700010e1b70011e1a80021112000f8
:1024200091407800f0ccb30000c0600001c2b3005e
:102430000140700012e1b70013a1a9001221a90008
:1024400013e1a80050e42200700888009500a8005d
:10245000810a20009140780080cfb30000c0600066
:102460006040b300a8e0b7000080fa00000006005a
:102470000400fa001007980050072000000f7800b1
:102480009e0090001e0078000088b9001007980098
:1024900005e1a9000000eb00000888000421a90064
:1024a000411020009140780000c3b30000c07000cc
:1024b00004e1b70005e1a8000100370000000000ba
:1024c0009e00900000088000808f5000fbff3e00bf
:1024d00005e1a9000080fa00000006000200fa00f1
:1024e000004f780023c2bf00624060000004e0009b
:1024f000fcff3a001e80fb002011880023c2bf00b1
:10250000624060000004e000fcff3a000080fa0036
:10251000000006000400fa00100798000040eb00dd
:10252000004f78000040eb00004f780007003700b4
:102530001e80fb00800078001e009000008040009c
:1025400010407800e5ff07001e4fe8001e80fb00ea
:10255000800078001e00900000804000104078004d
:102560000004e000f2ff3a000080fa0000000600dc
:102570000c00fa00500798005e009000801f780061
:10258000c0632900801f78000e007800e4f7070080
:10259000e48757000e007800deff07000080fa0095
:1025a000000006000000fa000000eb0000118800a7
:1025b000f00020004011880021e2a8002342a8007a
:1025c0000080fa00000006000000fa000080eb0026
:1025d00060198800c602a800c622a800c642a90049
:1025e000c842a900c662a900c862a9000080fa001a
:1025f000000006000800fa00000f7800110798009c
:1026000022079800330798001e0078009e00900073
:10261000210098001e007800ae00900001087800ac
:102620001e007800be009000110098001e00780087
:10263000ed0007001e0078003b0107000080fa0053
:10264000000006000c00fa00889fbe0010079800ea
:10265000210798000000eb00000f7800cd00370044
:102660001e009000800890001e0078004200dd00ef
:10267000008240001e009000800890001e0078003c
:102680004200dd00008040001001be001e009000ee
:10269000c00290001e009000b00090001e0090004c
:1026a000200090000088b9001e0040004200dd00bc
:1026b000008042001000be000000510081805900df
:1026c000008abe001e009000900890001e00780056
:1026d0004200dd00008240001e0090009008900043
:1026e0001e0078004200dd00008040001001be00a6
:1026f0001e009000d00290001e009000b0009000dc
:102700001e009000200090000088b9001e004000cc
:102710004200dd00008042001000be0000005100b9
:1027200081805900008abe001e0090004001900088
:102730001e009000b00090001e009000200090004d
:102740000088b9001e0040004200dd008002410008
:102750001e009000e00090001e00900030009000ed
:1027600000804000104078000004fb00cfc4de0071
:102770001e007800800078002e009000008040004d
:10278000104078000001fb00cf91de000243b8004a
:1027900003c0b90007027800000242000990b900a6
:1027a0000002420084037800868abe001e0090006a
:1027b000500190001e009000b00090001e0090009c
:1027c000200090000088b9001e0040004200dd009b
:1027d000800241001e009000f00090001e0090005a
:1027e0003000900000804000104078000004fb00a2
:1027f000cfc4de001e007800800078002e0090001c
:1028000000804000104078000001fb00cf91de0006
:102810000243b80003c0b90007027800000242007a
:102820000990b9000002420084037800868abe0045
:102830001e009000800890001e0078004200dd001d
:10284000008240001e009000800890001e0078006a
:102850004200dd00008040001001be001e0090001c
:10286000c00290001e009000b00090001e0090007a
:10287000200090000088b9001e0040004200dd00ea
:10288000008042001000be0002004000838048002b
:10289000008abe001e009000900890001e00780084
:1028a0004200dd00008240001e0090009008900071
:1028b0001e0078004200dd00008040001001be00d4
:1028c0001e009000d00290001e009000b00090000a
:1028d0001e009000200090000088b9001e004000fb
:1028e0004200dd00008042001000be0002004000f7
:1028f00083804800008abe001e009000a00890005f
:102900001e0078004200dd008080400051079800e2
:102910001e009000800890001e0078004200dd003c
:10292000008040001000be00400798004e0090005c
:102930000000e00003003d00ce0090008100ea00ae
:10294000410798001e009000900890001e0078003b
:102950004200dd00008040001000be0030079800fb
:102960003e0190000200e00003003d003e009000a8
:102970000000ea0030079800ce0090003e01900071
:1029800002804000cf80de005e0190000089be0022
:102990001e0fe8001e009000200090009e0f5000c7
:1029a0002fff3c001e009000300090008000e800e7
:1029b0001e009000310098001e009000b0009000b2
:1029c0001e00900010009000808f500003003a001d
:1029d0009e0090000000eb00b00098004f04be0085
:1029e0000080fa00000006000400fa00889fbe0084
:1029f0008a1f7800100798000000eb00000f780095
:102a0000410037001e009000e00090001e0078009a
:102a1000008540001e007800cf80de007dfa0700b0
:102a2000b2fd2000930c2c00a5fa07000004be00a4
:102a30001e00900010007800cf80de0075fa0700bd
:102a40000001be000800be009dfa07000004be00a1
:102a50001e00900010009000cf80de006dfa07008d
:102a60000001be000800be00c9fa07000afb07000b
:102a700002002000e32f240091fa070008fb070062
:102a8000004d78001e009000f00090001e007800bd
:102a9000008540001e007800cf80de005dfa070050
:102aa000b2fd2000930c2c0085fa07000004be0044
:102ab0001e00900010007800cf80de0055fa07005d
:102ac0000001be000800be007dfa07000004be0041
:102ad0001e00900010009000cf80de004dfa07002d
:102ae0000001be000800be00a9fa07000dfb0700a8
:102af00002002000e32f240071fa0700e8fa070023
:102b0000004d78001e0fe8001e009000100090009d
:102b10009e0f5000bbff3c004f0578004f04be00e5
:102b20000080fa00000006000200fa00000f7800a2
:102b30001e007800020007000080fa000000060076
:102b40000200fa00000f78001e00780020009000bc
:102b5000c200dd001e00780000089000010178002e
:102b60008000eb007ff607001e0078002000900038
:102b7000c200dd001e0078001008900001017800fe
:102b80008000eb0077f607001e0078002000900020
:102b9000c200dd001e0078002008900001017800ce
:102ba0008000eb006ff607001e0078001000900018
:102bb000800078001e007800200090000088b90096
:102bc000c200dd001e007800400090000101780086
:102bd0008000eb0063f607001e00780010009000f4
:102be000800078001e007800200090000088b90066
:102bf000c200dd001e007800500090000101780046
:102c00008000eb0057f607009e0078000000eb0004
:0c2c1000b00098000080fa0000000600f0
:020000040000fa
:0200000401f009
:04000800ffff0000f6
:020000040000fa
:0200000401f009
:04000c00fbff0000f6
:020000040000fa
:0200000401f009
:04001000beff00002f
:020000040000fa
:0200000401f009
:040014007fff00006a
:020000040000fa
:0200000401f009
:04001800ffff0000e6
:020000040000fa
:0200000401f009
:04001c001eff0000c3
:020000040000fa
:10000800a0160000a0160000a0160000a016000010
:10001800a0160000a0160000a0160000a016000000
:10002800a0160000a0160000a0160000a0160000f0
:10003800a0160000a0160000a0160000a0160000e0
:100048008e110000a0160000a0160000a0160000e7
:10005800a0160000a0160000a0160000a0160000c0
:10006800a0160000a0160000a0160000a0160000b0
:10007800a0160000a0160000a0160000a0160000a0
:10008800a0160000a0160000a0160000a016000090
:10009800a0160000a0160000a0160000a016000080
:1000a800a0160000a0160000a0160000a016000070
:1000b800a0160000a0160000a0160000a016000060
:1000c800a0160000a0160000a0160000a016000050
:1000d800a0160000a0160000a0160000a016000040
:1000e800a0160000a0160000a0160000a016000030
:1000f800a0160000a0160000a0160000a016000020
:10010800a0160000a0160000a0160000a01600000f
:10011800a0160000a0160000a0160000a0160000ff
:10012800a0160000a0160000a0160000a0160000ef
:10013800a0160000a0160000a0160000a0160000df
:10014800a0160000a0160000a0160000a0160000cf
:10015800a0160000a0160000a0160000a0160000bf
:10016800a0160000a0160000a0160000a0160000af
:10017800a0160000a0160000a0160000a01600009f
:10018800a0160000a0160000a0160000a01600008f
:10019800a0160000a0160000a0160000a01600007f
:1001a800a0160000a0160000a0160000a01600006f
:1001b800a0160000a0160000a0160000a01600005f
:1001c800a0160000a0160000a0160000a01600004f
:1001d800a0160000a0160000a0160000a01600003f
:1001e800a0160000a0160000a0160000a01600002f
:0801f800a0160000a016000093
:020000040000fa
:10020800a0160000a0160000a0160000a01600000e
:10021800a0160000a0160000a0160000a0160000fe
:10022800a0160000a0160000a0160000a0160000ee
:10023800a0160000a0160000a0160000a0160000de
:100248008e110000a0160000a0160000a0160000e5
:10025800a0160000a0160000a0160000a0160000be
:10026800a0160000a0160000a0160000a0160000ae
:10027800a0160000a0160000a0160000a01600009e
:10028800a0160000a0160000a0160000a01600008e
:10029800a0160000a0160000a0160000a01600007e
:1002a800a0160000a0160000a0160000a01600006e
:1002b800a0160000a0160000a0160000a01600005e
:1002c800a0160000a0160000a0160000a01600004e
:1002d800a0160000a0160000a0160000a01600003e
:1002e800a0160000a0160000a0160000a01600002e
:1002f800a0160000a0160000a0160000a01600001e
:10030800a0160000a0160000a0160000a01600000d
:10031800a0160000a0160000a0160000a0160000fd
:10032800a0160000a0160000a0160000a0160000ed
:10033800a0160000a0160000a0160000a0160000dd
:10034800a0160000a0160000a0160000a0160000cd
:10035800a0160000a0160000a0160000a0160000bd
:10036800a0160000a0160000a0160000a0160000ad
:10037800a0160000a0160000a0160000a01600009d
:10038800a0160000a0160000a0160000a01600008d
:10039800a0160000a0160000a0160000a01600007d
:1003a800a0160000a0160000a0160000a01600006d
:1003b800a0160000a0160000a0160000a01600005d
:1003c800a0160000a0160000a0160000a01600004d
:1003d800a0160000a0160000a0160000a01600003d
:1003e800a0160000a0160000a0160000a01600002d
:0803f800a0160000a016000091
:020000040000fa
:102c1c000a0d0000527500006e6e0000696e000017
:102c2c00672e00002e2e00000a0d00000a0d000079
:102c3c00005300007461000072740000696e0000a3
:102c4c0067200000617400002064000075740000af
:102c5c007920000063790000636c0000652000009f
:102c6c003d200000000a00000d000000257500004a
:042c7c002000000034
:020000040000fa
:102c80009a1500001800000002000000a9030a00c5
:102c9000006400000400000000000800400e8000f6
:102ca00014e41400481558001568150000080000c9
:102cb000780d000000000000c415000002000000b4
:102cc00000000000b2150000120000000200000029
:102cd00001000200000400000800100000000000d5
:102ce000202b2d0023300000c61500000800000036
:102cf00002000000686a6c00747a4c00000000005a
:102d0000781500002200000002000000303132007f
:102d1000333435003637380039616200636465004a
:102d20006600300031323300343536003738390030
:102d300041424300444546000000000000000000fe
:020000040000fa
:042d40000000fe0091
:00000001FF
