:020000040000fa
:080000000001040000000000f3
:020000040000fa
:100200000f80200080ff2000000188000000000017
:10021000050007000c000700d601020000000000e6
:100220000040da000000fe004440a9000000200069
:100230000000e0000300320000002000a001880060
:100240004440a80000000600e0202000010020003b
:100250001600370062004000e080480091018800ed
:100260009001ba0062004000e080480091018800df
:100270009002ba0062004000e08048000002eb00fb
:100280006028e10005003a008301e900070033001f
:10029000038009000059eb00040037006128e100e9
:1002a000010032000082eb00050007009101880088
:1002b0001001ba000200e000e6ff3a00000005006d
:1002c000910188008002780062004000e0804800d0
:1002d0003559ba008301e900080032002559ba00f7
:1002e0008301e900050032000400e000f4ff320061
:1002f00015d9ba008301e900f1ff3a0000000600b9
:100300000000fa000000eb0060108800f000200000
:10031000a01088000d42a8000de2a8000f42a8001e
:100320000080fa00000006000200fa00004f78008a
:100330000fc2bf00624060000004e000fcff3a0012
:100340000fc2bf00614060000004e000fcff32000b
:100350001e80fb00801088000fc2bf00624060005a
:100360000004e000fcff3a000fc2bf0061406000e3
:100370000004e000fcff32000080fa0000000600ec
:100380000400fa00100798000000eb00000f78004e
:10039000010037001e0fe8001e0090009e0f1000a5
:1003a000fcff35000080fa00000006000400fa009f
:1003b000cda2a900d2ff070070ff2f0040158800d2
:1003c0000000eb0000158800300020003015880088
:1003d0000000eb0050158800f00020002015880078
:1003e0000000eb0010158800a1e2a800a022a800e0
:1003f000a022a900a0c2bf00614060000004e0008c
:10040000fcff3200001480004200de00204798000c
:0c0410002e409000c4ff0700f4ff3700ee
:020000040000fa
:0200000401f009
:04000000f6ff000007
:020000040000fa
:0200000401f009
:04000400ff7f00007a
:020000040000fa
:0200000401f009
:04001400ffff0000ea
:020000040000fa
:1000080010020000100200001002000010020000a0
:100018001002000010020000100200001002000090
:100028001002000010020000100200001002000080
:100038001002000010020000100200001002000070
:100048001002000010020000100200001002000060
:100058001002000010020000100200001002000050
:100068001002000010020000100200001002000040
:100078001002000010020000100200001002000030
:100088001002000010020000100200001002000020
:100098001002000010020000100200001002000010
:1000a8001002000010020000100200001002000000
:1000b80010020000100200001002000010020000f0
:1000c80010020000100200001002000010020000e0
:1000d80010020000100200001002000010020000d0
:1000e80010020000100200001002000010020000c0
:0800f8001002000010020000dc
:020000040000fa
:10010800100200001002000010020000100200009f
:10011800100200001002000010020000100200008f
:10012800100200001002000010020000100200007f
:10013800100200001002000010020000100200006f
:10014800100200001002000010020000100200005f
:10015800100200001002000010020000100200004f
:10016800100200001002000010020000100200003f
:10017800100200001002000010020000100200002f
:10018800100200001002000010020000100200001f
:10019800100200001002000010020000100200000f
:1001a80010020000100200001002000010020000ff
:1001b80010020000100200001002000010020000ef
:1001c80010020000100200001002000010020000df
:1001d80010020000100200001002000010020000cf
:1001e80010020000100200001002000010020000bf
:0801f8001002000010020000db
:020000040000fa
:04041c0000000000dc
:020000040000fa
:040420000000fe00da
:00000001FF
