:020000040000fa
:080000000401040000000000ef
:020000040000fa
:1002000000000000000000002f8c200080ff200074
:100210000001880000000000050007000c00070036
:1002200026160200000000000040da000000fe0078
:100230004440a900c03620000000e0000300320066
:1002400000002000a00188004440a8000000060033
:100250000024220001002000160037006200400048
:10026000e0804800910188009001ba0062004000df
:10027000e0804800910188009002ba0062004000ce
:10028000e08048000002eb006028e10005003a0031
:100290008301e90007003300038009000059eb00e7
:1002a000040037006128e100010032000082eb0009
:1002b00005000700910188001001ba000200e0006b
:1002c000e6ff3a00000005009101880080027800f6
:1002d00062004000e08048003559ba008301e9001f
:1002e000080032002559ba008301e90005003200f8
:1002f0000400e000f4ff320015d9ba008301e900e0
:10030000f1ff3a0000000600881f78000204780020
:1003100014000700080040004f04780000000600a9
:100320000000fa00881f7800000478003fb99700a9
:10033000ea81570080007800401820001000070074
:10034000800078000000e000020035000040eb0073
:1003500000f47800010078004f0478000080fa0073
:1003600000000600800178000200e0000300320077
:10037000b15978000201e900fdff3a0000000600d3
:100380006200fa00889fbe008a9fbe000004be0083
:1003900002057800830078006a805700ad000700ee
:1003a000f88f9f0089979f000000eb00909f9f00af
:1003b0001a80fb008005fb000000ea00cf04de008d
:1003c0000904780050022000808f550001003a0097
:1003d0000904e9000800e0000c0034000f909700c9
:1003e000080178008a007800ff8997000300010067
:1003f00080979f008080eb000000e00090003200ba
:100400001f98970008004000909f9f000905450035
:1004100050022000808f5500040032000b00e000e5
:10042000e3ff3a009f989700850037000000eb003b
:10043000f0979f00e0979f00d0979f00c0979f0084
:10044000b0979f00a0979f00b09f9f0009003700c2
:10045000408a2000008050000000d000a18a2000c7
:1004600001004000bf98970090807000b19f9f00ee
:100470000a05e8009a00fb00408a20007700070088
:10048000800078000000e000f1ff3a00a0c2b30055
:100490009a4f10000e003a003fb897000080e90024
:1004a000b0bf9f0010007800a09f9f000000e000f8
:1004b00005003d000000ea00a09f9f003f989700c4
:1004c0000020a000b09f9f000a05e800110037003f
:1004d000a19f9f000b003700af989700f0ff270007
:1004e000808f5000060032006a09b9001a00fb0034
:1004f0000200400001fd2f0001004000a09f9f006e
:100500000a05e8001a00fb005c0007000000e0009c
:10051000f1ff3a00e0c2b3009a4f1000030032002e
:100520000080eb00809f9f001c003700a0c2b3003a
:10053000da4f100007003a003fb897000080e9004a
:10054000b0bf9f0010007800809f9f000a05e80060
:10055000120037000000eb00809f9f000b00370067
:100560008f989700f0ff2700808f50000600320020
:100570006a09b9001a00fb000200400001fd2f00cb
:1005800001004000809f9f000a05e8001a00fb0060
:100590003a0007000000e000f1ff3a009a00fb007b
:1005a000a08b20002d0007008040eb000000e00041
:1005b00001003200ba407800817f9f0080c6b300fe
:1005c00080cf500004003a009acf100002003a0099
:1005d00066405000070037008f789700c0c6b30010
:1005e00080cf500005003a009acf100003003a0077
:1005f00065404000807f9f000a05e800a0fb2f00b7
:10060000008447003a01fb0088017800ea80570027
:1006100060f92f000f0040001e0007000000e000fe
:1006200006003a008800780060f92f000f004000b3
:100630009e0107000000e0005dff3d008080eb00b0
:10064000010078004f05be004f04be000080fa0094
:1006500000000600010878000000060090cf10009e
:10066000050032001004e00001003a00000005001f
:10067000d0cf1000fbff3a00000006000003b100dd
:10068000030035009000b10001003c00100005009f
:1006900000000500889fbe008a1f780000047800d3
:1006a0000102780002457800830478000200fb0014
:1006b000cf80de005002b1000180b1003205200081
:1006c000820f5000e08f58006b013e000060010077
:1006d00063013700680137006701370066013700a2
:1006e000650137006401370063013700620137009c
:1006f00061013700600137005f0137005e0137009c
:100700005d0137005c0137005b0137005a0137009b
:10071000590137005801370057013700560137009b
:10072000550137005401370053013700520137009b
:1007300051013700500137004f0137004e0137009b
:100740004d0137004c0137004b0137004a0137009b
:10075000490137004801370047013700460137009b
:10076000450137004401370043013700420137009b
:1007700041013700400137003f0137003e0137009b
:100780003d0137003c013700210137003a013700b5
:100790003901370038013700370137008100370051
:1007a000350137003401370033013700320137009b
:1007b00031013700300137002f0137002e0137009b
:1007c0002d0137002c013700150037001c003700c1
:1007d000290137002801370027013700260137009b
:1007e00017003700240137002301370022013700aa
:1007f00021013700c20037006a003700f5003700da
:100800001d0137001c013700010137001a013700b4
:100810006400370018013700170137006100370006
:100820006e01440012007800808141009480e9004c
:10083000010a78000009e8009149780017013700a3
:1008400028619000c0c6b300804f51000a003a00f2
:100850009400780064805000000a78001000be0008
:100860004f89de00cf91de000002be000203780057
:10087000820378001600370010c7b300804f510084
:1008800003003a00140178006800510005003700a9
:1008900094007800a0c6b300804f510005003a00d4
:1008a00068805000000a78003002be002003be00bd
:1008b000070037000180e900000a78001000780086
:1008c00000027800cfa2de000503780086037800de
:1008d000049cbe000694be00a860900080c6b300d1
:1008e00080cf50000f00320020c6b30080cf5000f0
:1008f00006003a00184078000000fb00cf80de00c0
:1009000001017800820178000a00370040c7b30077
:1009100080cf5000030032006640400080cf50007e
:1009200006003a0018007800cf80de000101780050
:1009300082017800009cbe000294be003800be0018
:100940002801be00e00f5000e08f5800e00f590072
:10095000e08f590004003d006e01440092007800d1
:10096000d0c2b3000c003700081090000018a3009c
:10097000040032006e01440092007800b0c2b3005f
:10098000050037000008a300580032006e01440043
:100990009200780000c2b30080f478000109e800fa
:1009a0005200370028619000c0c6b300804f51004c
:1009b00006003a009400780064805000000a780035
:1009c0001002be006033b8001600370010c7b30035
:1009d000804f510003003a00140178006800510074
:1009e0000500370094007800a0c6b300804f510086
:1009f00005003a0068805000000a78003002be000e
:100a00002003be00070037000180e900000a7800db
:100a10001000780000027800050020000600200089
:100a200007002000049cbe000694be00a860900051
:100a300080c6b30080cf50000f00320020c6b30044
:100a400080cf500006003a00184078000080fb007c
:100a50000100200002002000030020000a003700ef
:100a600040c7b30080cf5000030032006640400012
:100a700080cf500006003a001800780001002000e6
:100a80000200200003002000009cbe000294be0073
:100a9000081090000038a300140032003800be0097
:100aa0002801be00e00f5000e08f5800e00f590011
:100ab000e08f59000d00320080c7b300804f550011
:100ac0000300320080c5b300804f550007003a0094
:100ad0006e0044009000780002c3b30082f47800f6
:100ae0008100e8008af478000108e80078009000ae
:100af00000804400600498008a407800410037007c
:100b0000286090008000fb00c0062000808f50000d
:100b1000230032000a003c0064005000808f500027
:100b20002600320004003c0066005000808f500018
:100b30000b00320021003700a0062000050037001e
:100b400040072000808f50001c0032001b003c003a
:100b500063005000808f50000700320017003700fc
:100b60001480e900000a780010007800485c9000ca
:100b700008487800490037001480e900000a78002e
:100b80001002780068089000cf80de000101780034
:100b900082017800009abe000292be003f0037003a
:100ba0001480e900000a78001001780068089000bd
:100bb000cf80de000089be00380037001480e900d5
:100bc000000a780010007800680c9000080878008f
:100bd000320037001480e900000a78001000780025
:100be000cf80de000101780082017800009cbe0009
:100bf0000294be00780090000080440060049800d9
:100c000081c7b30008007800f60007002300370012
:100c10001480e900000a7800100078006004980051
:100c2000580990000200e00002003d009f0107000b
:100c3000090037008000eb00a30107008000780066
:100c40000000e000030032006800900000805000c7
:100c50000100370058089000100c98000f00370072
:100c60006e0144009200780050c2b30080f1780019
:100c70000109e80009003700ee0044001100780087
:100c8000808144000a4278008008e8000a04e000fd
:100c900001003a0054c2b300844978000000eb0020
:100ca0004f0578004f04be00000006000400fa0063
:100cb000889fbe008a9fbe008c1f780000047800c9
:100cc0000106780070089000f800900001005000c4
:100cd0008808900001005000980890000100500022
:100ce000a808900001005000b808900001005000d2
:100cf000c8089000810550000002220090bf9f00ac
:100d000000032300a0bf9f00081090000028a3004c
:100d100018003a000b00e000160034000b057800c4
:100d20008a047800e20f55000100360029002000f7
:100d30000900e0000c00340058009000c801900049
:100d400009017800ee80570003000100500498006c
:100d50008080eb000000e0009c00320068089000fa
:100d600009004000600c9800090555004240a900a8
:100d7000ebff3c00780190000200e0000c00340022
:100d800058009000c80190008c007800030001001a
:100d9000500498008080eb000000e0008b003200df
:100da00068089000f800900001004000600c980076
:100db000080890000000e0001600340000057800ec
:100dc0008a047800e20f5500010036002900200057
:100dd0000900e0000c00340058009000c8019000a9
:100de00009017800ec8057000300010050049800ce
:100df0008080eb000000e000740032006808900082
:100e000009004000600c9800090555004240a90007
:100e1000ebff3c00180990000200e0000c003400d9
:100e2000e800900058009000c80190000300010005
:100e3000500498008080eb000000e0006300320066
:100e4000680890009808900001004000600c98002d
:100e5000280890000000e00016003400000578002b
:100e60008a047800e20f55000100360029002000b6
:100e70000900e0000c00340058009000c801900008
:100e800009017800ec80570003000100500498002d
:100e90008080eb000000e0004c0032006808900009
:100ea00009004000600c9800090555004240a90067
:100eb000ebff3c00380990000200e0000e00340017
:100ec000e8009000180890008080400058009000d2
:100ed000c801900003000100500498008080eb00de
:100ee0000000e0003900320068089000b808900067
:100ef00001004000600c9800480890000000e000ed
:100f000016003400000578008a047800e20f5500ce
:100f100001003600290020000900e0000c00340028
:100f200058009000c801900009017800ec8057003b
:100f300003000100500498008080eb000000e000f6
:100f4000220032006808900009004000600c980000
:100f5000090555004240a900ebff3c000810900035
:100f60000028a300180032000b00e0001600340037
:100f70000b0578008a047800e20f55000100360066
:100f8000290020000900e0000c0034005800900007
:100f9000c801900009017800ee80570003000100ad
:100fa000500498008080eb000000e0000700320051
:100fb0006808900009004000600c98000905550081
:100fc0004240a900ebff3c008000eb0001007800ec
:100fd0004f0678004f05be004f04be000080fa00a7
:100fe000000006006f02b000889fbe008a9fbe000e
:100ff0008c9fbe008e1f780080067800308920000c
:10100000b0b79f0080c5b30080cf5000020032000f
:1010100022882000b2b79f0083002000c3b79f0042
:10102000f0c6b30080cf50000a0032006940400093
:1010300080cf500005003200a4002000c4b79f00fc
:1010400080c5b30080cf500002003a0000012000ac
:10105000c0b79f008e0120003d04be002d05be00dc
:1010600040c6b30080cf500003003200654040000e
:1010700080cf50000a003a00e00f5400e08f5c007f
:10108000e00f5d00e08f5d0005003d000800be0040
:101090000a01be00950007000205be000004be0064
:1010a000e00f5400e08f5c00e00f5d00e08f5d001a
:1010b00003003a005d0890000000e0000c003200e0
:1010c0007e012000cfb0970001027800cfa2de00a1
:1010d00005037800860378000800be000a01be0000
:1010e000180107003fb2970064407800d0e79f00e6
:1010f0004fb09700cf80de000101780082017800b8
:10110000d0b79f00e1b79f00f2b79f0083bf9f0059
:101110000203be000002be000800be000a01be00bd
:1011200001010700809ebe008296be00e00f5000c5
:10113000e08f5800e00f5900e08f59002200340082
:101140000e00e000200034003d00be002d01be0076
:101150005fb29700efb297007fb397008fbb970005
:10116000fc0007000205be000004be000e07e900f7
:10117000e1fc2f008f804000010647005fb297001e
:10118000efb297007fb397008fbb97000800be00b7
:101190000a01be008c0107001d0010003fb197003e
:1011a000624e7800889ebe008a96be00e00f540012
:1011b000e08f5c00e00f5d00e08f5d000200340016
:1011c0000e00e000e0ff3c00cfb19700e88f510037
:1011d00010003a000d1090000038a3000d003200fe
:1011e000f70f570006003e00e4fc2f000e024200fd
:1011f000e4c07f0000c3b30080cf50000500320080
:101200000e07e90000c3b300e1fc2f008e80400010
:1012100080f07f0078011700920e98006d0090001a
:10122000e3fc2f008f8141008e8041004dfc0700c0
:101230001d0e90005d089000800f560006003d00d6
:101240000c005000800e98000d1090000040a1008e
:10125000801698000f0037000000e0000d003d00f0
:101260000d10900074006000f00f500009003a006b
:101270007d089000fd009000010050008d08900056
:10128000010050000c0750004240a900010034004a
:101290008e0e98004f0778004f06be004f05be0027
:1012a0004f04be006f02b10000000600800078000d
:1012b0001004e000020032005104e000feff3a009a
:1012c00000805000000006000200e000050032002f
:1012d00090cf1000040032000000e8000201e90095
:1012e000fbff3a000000eb00000006006000100069
:1012f000e080180060011900e0811900000006007c
:10130000881f7800000478005001be004000be0035
:101310000000420081804a0002014b0083814b00a3
:10132000009cbe000294be00dc00070003003100f8
:10133000480090000000e800400498004f04780046
:1013400000000600889fbe00000478008004eb00c7
:101350005001be004000be00d00007000100310077
:101360001900200004005000858058000601590033
:1013700087815900009cbe000294be004800900086
:1013800009005000400498004f04be000000060011
:101390001200fa00889fbe008a9fbe008c1f780052
:1013a0000205be000004be00f4b79f0085bf9f0089
:1013b00096bf9f00a7bf9f000000eb00e0b79f0013
:1013c000d0b79f00c0b79f00b0b79f00a0b79f00e5
:1013d0000006eb005fb197006fb097008000d0006f
:1013e0000000e00015003d00e1b79f00010078001b
:1013f0000200e00001003d000000a000ac0007007a
:1014000001003d000000a000af00070001003d000a
:101410000000a000b200070001003d000000a00095
:101420008100070001003d000000a000b20007009d
:101430007c805700b2ff070014003700e1b79f001f
:10144000010078000200e00001003d000000a00063
:101450009700070001003d000000a0009a0007006f
:1014600001003d000000a0009d00070001003d00bc
:101470000000a0006c00070001003d000000a0007b
:101480009d0007007c805700aeff07006fb09700fb
:101490000000e000070035001000200001002000df
:1014a0006011b80008047000898470000a0571009a
:1014b0008b8571000c06e800f0032000800f5600b9
:1014c000c4ff34006fb097000000e00006003d004c
:1014d0007fb297008fba97001fbb9700afbb9700f2
:1014e0007c80570086ff07000802be000a03be008a
:1014f0006fa897000000e00004003a002fb29700a8
:10150000bfb297004fb39700dfb397000400be004f
:101510000601be004f0678004f05be004f04be0016
:101520000080fa0000000600881f780018002000e4
:10153000881f780096ff07008f87e9004f04780026
:1015400000000600801feb0091ff07008f87e90075
:10155000000006000800fa00889fbe008a9fbe00b7
:101560008c1f78006e00070005003d004300070057
:10157000300007000c003d00330007000b0037006f
:10158000e00f5200e08f5a00e00f5b00e08f5b003d
:1015900006003d000400be000601be0053ff070028
:1015a0000205be000004be001c0020002c00070045
:1015b000ddff07000c00e000010032004bff0700d8
:1015c0004f0678004f05be004f04be000080fa00b1
:1015d000000006000800fa00889fbe008a9fbe0037
:1015e0008c1f78004e00070002003d001c00200008
:1015f000220007000f00070001003d001200070055
:1016000017000700cfff07000c00e00001003200c8
:1016100036ff07004f0678004f05be004f04be009e
:101620000080fa000000060090b79f000100d00083
:1016300080b79f00e00f5400e08f5c00e00f5d007a
:10164000e08f5d00000006000800be000a01be0039
:1016500026ff07000205be000004be0000000600d1
:101660000802be000a03be005fb09700efb097000b
:101670007fb197008fb99700000006001bff07009d
:101680000100070000000600b0b79f00c1b79f002f
:10169000d2b79f00e3b79f00000006000400e100fe
:1016a0000588e1000690e1000798e10000000600cf
:1016b000c0b79f000200d000b0b79f00afb0970046
:1016c0000100e00000000600b0b79f000100d0005c
:1016d000a0b79f009fb097000100e0000000060047
:1016e000a0b79f000100d00090b79f008fb0970077
:1016f0000100e0000000060080b79f000804d00051
:101700008984d2000a85d2008b85d2005fb297000f
:10171000efb297007fb397008fbb970000000600e1
:10172000d9ff07000605be000404be000006eb005a
:10173000e00f5000e08f5800e00f5900e08f590093
:1017400000000600889fbe008a9fbe008c9fbe00de
:101750000404b8000506b8008904460060854e0000
:101760000606b8000a054600e0854e000706b800e8
:101770008b054600040eb800890446000a854e0019
:10178000050eb8000a0546008b854e00060eb8000f
:101790008b0546000416b8000a0546008b854e00ee
:1017a0000516b8008b054600041eb8008b054600e0
:1017b0000800be000a01be004f06be004f05be0075
:1017c0004f04be00000006000800fa00889fbe001b
:1017d0008a9fbe00170007000605be000404be0075
:1017e000e00f5200e08f5a00e00f5b00e08f5b00db
:1017f00008003d000400be000601be00bbfe07005d
:101800000205be000004be000f000700b7fe07007f
:10181000080007000802be000a03be000a00070015
:10182000c8ff07004f05be004f04be000080fa004d
:1018300000000600e0b79f00f1b79f0082bf9f0045
:1018400093bf9f00000006006fb09700ffb09700a5
:101850000fb997009fb99700000006000000fa003a
:101860000000eb00b0108800b0002000f0108800ed
:101870001742a90017e2a8001942a8000040eb0097
:1018800040e8b7000040eb0041e8b7000040eb0043
:1018900042e8b7000040eb0044e8b7000040eb002e
:1018a00043e8b7000040eb0045e8b70019e2a800a4
:1018b00018c2bf00f043b20018e2b7008f20a800a2
:1018c0008f00a8000080fa0000000600809fbe0084
:1018d000821f78000000fa008700a9001822a900e2
:1018e0001842a9001862a9001802a90018c2bf0076
:1018f0000080fb0061006000e10f500012003a0020
:1019000044c8bf000080fb0002822000820040002b
:10191000e01080008048780044c8bf000040e80024
:101920007f40600044e8b70050842000e1c1b3006c
:1019300090cf1000edff3e0045c8bf000040e8001a
:1019400045e8b700e9ff37000080fa004f01780052
:101950004f00be0000400600809fbe000000fa005d
:101960008720a90019c2bf000080fb000000d10041
:101970000080fb00610060000000e00010003a0001
:101980004248e2000e00320040c8bf000080fb0069
:1019900001802000010040001080fb00d010880072
:1019a00040c8bf000040e8007f40600040e8b7004a
:1019b00042c8bf000040e90042e8b700e9ff370035
:1019c0000080fa004f00be00004006000200fa004e
:1019d0000000eb00000f780020842000e1c1b3007c
:1019e00090cf100002003e0010002000000f780091
:1019f0001e0078000080fa00000006000000fa00d7
:101a000045c8bf000080fb000080fa00000006000f
:101a10000200fa00004f78008f20a90041c8bf00e3
:101a20000080fb0001802000010040001e4878007b
:101a300041c8bf000040e8007f40600041e8b700b7
:101a400042c8bf000040e80042e8b7008f20a8006d
:101a50008720a8000080fa00000006000200fa00bb
:101a60008f00a90045c8bf000040e90045e8b70065
:101a700043c8bf000080fb0001822000010040003d
:101a8000104f780043c8bf000040e8007f4060006e
:101a900043e8b7008f00a8001e80fb000080fa001a
:101aa000000006000000fa008f00a9000040eb00d3
:101ab00045e8b70044c8bf0043e8b7008f00a8005e
:101ac0000080fa00000006000200fa00004f7800d3
:101ad000114798001e4090000004e0000200320010
:101ae0001e407800caff07000080fa0000000600d0
:101af0000400fa00004f7800114798002247980030
:101b0000334798003e4090000004e000010032009e
:101b1000e4ff0700be40900040c1b300eaff0700a9
:101b2000be4090001e407800e7ff0700be409000d6
:101b30002e409000e4ff0700be4090001e40900041
:101b4000e1ff07001e4090009e4040002e409000a4
:101b500000c04000f440400000c0eb0000c0600046
:101b6000be409000d8ff07000080fa000000060089
:101b70000000fa00d0168000f2c3b300824060007b
:101b8000d4c2bf00614060004600dd0080c070002c
:101b9000d4c2bf000080fb000000d10061406000a3
:101ba0004700dd0000c070000080fb000080fa00ec
:101bb000000006000200fa00004f7800c116800005
:101bc00000fc2f0000806000c0168800d222a9000f
:101bd000d202a900e116800000fc2f000081600005
:101be0009e80fb00f0032000008060000000710078
:101bf000e01688009e80fb0000042000008060004a
:101c00004680de0061416000612d20009140780037
:101c1000e0cfb30000c0600002407000d6e2b70021
:101c20009e80fb0000082000008060004780de00ee
:101c3000614060000041d000612d2000914078009b
:101c4000d0cfb30000c0600002407000d6e2b70001
:101c50000080fa00000006000000fa00d222a8006e
:101c6000d202a800c0168000f1032000010070001d
:101c7000c01688000080fa00000006000c00fa0080
:101c8000004f78006000b800100798002107980006
:101c90006000b80030079800410798000e22a900a4
:101ca0000e42a9000e62a9000e02a9000ec2bf00da
:101cb0000080fb00610060000000e00027003a00a7
:101cc000b648e200100032001e009000ae00900006
:101cd00061004000e08048000001be00120798004b
:101ce00023079800901a260001002000800f510061
:101cf000818f590004003a00cf0107006000b8004e
:101d000010079800210798003e009000ce00900038
:101d100061004000e08048000001be0032079800ea
:101d200043079800904f220011002000800f5100bf
:101d3000818f5900ddff3a00b748e20003003a0006
:101d400010c0b300b7e8b7009b0307006000b800fd
:101d50003007980041079800d4ff370090108000aa
:101d6000204f98000e02a9002e4890000080fb0032
:101d70000080fa00000006000000fa00b6ff07002d
:101d8000d902a900d262a8000080fa000000060073
:101d90000200fa00004f7800114798001e04e0008e
:101da00009003a001e4090000080fb006141600085
:101db000a12c200091407800e0cfb30000c060006b
:101dc00002407000cae2b70010c0b3009e4f10007e
:101dd0000a003a001e4090000080fb006140600055
:101de0000041d000a12c200091407800d0cfb3005a
:101df00000c0600002407000cae2b70020c0b3001b
:101e00009e4f10000a003a001e4090000080fb0028
:101e1000614060004201dd00a12c2000914078006b
:101e2000b0cfb30000c0600002407000cae2b7004b
:101e300030c0b3009e4f10000a003a001e409000d0
:101e40000080fb00614060004301dd00a12c200008
:101e50009140780070cfb30000c060000240700075
:101e6000cae2b7000080fa00000006000800fa008d
:101e7000004f78000040eb00104798006000b80069
:101e80001007980021079800dd02a90011c0b300d7
:101e90001e407800beff0700d4c2bf000080fb00d8
:101ea0004300de000080fb00610060000000e000f5
:101eb00012003a001e009000ae0090006100400049
:101ec000e08048000001be00120798002307980038
:101ed000901a260001002000800f5100818f5900c8
:101ee000edff3a008040eb001e407800a8ff07009d
:101ef0000080eb0030079800210037001cff07002e
:101f0000104798008040eb001e407800a0ff0700bb
:101f10006000b8001007980021079800d4c2bf00e5
:101f20000080fb004300de000080fb0061006000d9
:101f3000e10f50000f003a001e009000ae0090002c
:101f400061004000e08048000001be0012079800d8
:101f500023079800901a260001002000800f5100ee
:101f6000818f5900edff3a00e0ff2f003007980005
:101f7000030037001e4090000080fb0030079800ef
:101f80003e0090000080fa00000006000800fa0001
:101f9000004f7800114798006000b80010079800c3
:101fa00021079800dd02a8001e40780001ff07000d
:101fb00011c0b3001e40900075ff0700d4c2bf00df
:101fc0000080fb004300de000080fb006100600039
:101fd0000000e00013003a001e009000ae009000e8
:101fe00061004000e08048000001be001207980038
:101ff00023079800901a260001002000800f51004e
:10200000818f5900edff3a008040eb001e409000a8
:102010005fff070010ff07000080eb00300798000b
:102020001f0037000cff07008040eb001e409000af
:1020300057ff07006000b8001007980021079800bc
:10204000d4c2bf000080fb004300de000080fb0024
:1020500061006000e10f50000f003a001e00900088
:10206000ae00900061004000e08048000001be002a
:102070001207980023079800901a260001002000fc
:10208000800f5100818f5900edff3a00e0ff2f00d3
:1020900030079800020037000000eb00300798007e
:1020a0003e0090000080fa00000006000000fa00e8
:1020b0000000eb006010880010002000a0108800d5
:1020c0000d42a8000de2a8000f42a8000080fa000f
:1020d000000006000200fa00004f78000fc2bf00a7
:1020e0000080fb000000d1000080fb006100600068
:1020f0000000e000f9ff3a00000000000fc2bf003e
:102100000080fb00610060000000e000fbff320087
:102110001e80fb00801088000fc2bf000080fb0003
:102120000000d1000080fb00610060000000e000c2
:10213000f9ff3a00000000000fc2bf000080fb0062
:10214000610060000000e000fbff32000080fa0048
:10215000000006000400fa00000f78000040eb00c9
:10216000204798000040eb00204798002e40900048
:102170000080fb001e0040001004e0000900320057
:102180002e4090000080fb001e00400010407800b0
:102190001ffe07002e4090000040e80020479800f6
:1021a000f2ff37000080fa00000006000a00fa0083
:1021b000004f78000040eb0046e8b7001e40780072
:1021c0002aff0700200798002e0090000000e00082
:1021d00003003d002e009000400798001f003700cc
:1021e0000000eb00100798009e0090002e00900069
:1021f000808f500012003d001e4078001bff07003a
:10220000300798003e0090000000e00003003d0011
:102210003e00900040079800100037001e0090001c
:1022200061842000010040006e4190000248780067
:102230001e0090000000e80010079800eaff370039
:102240002e00900062842000820040000040eb00dd
:10225000804878002e009000400798004e009000c3
:102260000080fa00000006000600fa00000f780067
:10227000110798000000eb00200798002e00900046
:102280001e0040009080fb002e009000810f500047
:1022900014003d0021c0b30060c0b3003bff070045
:1022a0009e009000000120000088b9008040780066
:1022b0004e40900000c0400021c0b30033ff070033
:1022c0002e0090001e00400021c0b3001040780096
:1022d0002eff07002e0090000000e8002007980065
:1022e000e6ff370021c0b30070c0b30027ff07002e
:1022f0000080fa00000006000400fa0011c0b300dc
:1023000000c1b30021ff07000000e000060032001a
:102310001100200090092a00d3ff0700f00f2000d1
:10232000100798001b00370010c0b3009fff070084
:10233000004f780010c0b3009e4f1000060032001e
:102340001100200090092a00c7ff0700f00f2000ad
:10235000100798000f003700d1cfb30046c8bf0068
:102360000140600046e8b700e0c2bf000080fb000b
:1023700061006000e10f500003003a0046c8bf0052
:102380000014a00046e8b70046c8bf000080fb006c
:10239000100798001e0090000080fa000000060060
:1023a0000400fa008040eb00c0c1b300f7fe070054
:1023b0000000e0000600320011002000500a2a0050
:1023c000a9ff07000000eb00100798001700370076
:1023d0000040eb0075ff0700004f780010c0b3000d
:1023e0009e4f10000600320011002000500a2a0003
:1023f0009dff07000000eb00100798000b0037005e
:10240000e0c2bf000080fb0061006000e10f5000ef
:1024100003003a0046c8bf000044a00046e8b700e9
:1024200046c8bf000080fb00100798001e00900007
:102430000080fa00000006002000fa00d8ff070024
:10244000004f7800808b2000104078009e4f500095
:10245000710032001e80fb00700f98007e08900013
:10246000ef0f5000160032007e089000ef0f500072
:1024700004003c007e0890000000e00008003200ec
:10248000170037007e089000f00f50001000320057
:102490007e089000ff0f500005003200100037004a
:1024a00011002000100b2a006fff070058003700b2
:1024b00011002000200c2a006bff07005400370099
:1024c00011002000300d2a0067ff07005000370080
:1024d00011002000400e2a0063ff07004c00370067
:1024e0000e80e800100f98001e80fb006100600065
:1024f0000000e0000300320040032000200f98009d
:1025000002003700d0022000200f98002e08900013
:10251000801f78001e80fb00620060000000e00069
:102520000300320030032000300f98000200370013
:10253000d0022000300f98003e089000801f7800e5
:102540001e80fb00640060000000e0000300320019
:1025500020032000400f980002003700d002200026
:10256000400f98004e089000801f78001e80fb00ee
:10257000680060000000e00003003200100320004b
:10258000500f980002003700d0022000500f980032
:102590005e089000801f78001e80fb0070006000c5
:1025a0000000e00003003200b0042000600f98003b
:1025b00002003700d0022000600f98006e089000e3
:1025c000801f7800500f2a00801f78001e0890009e
:1025d00053f70700ec8757001e80fb007000600077
:1025e0000000e000070032000e80e800ea00400032
:1025f000b0102a00801f78000100780048f707001b
:102600008f87e9000e80e8001100200016ff070008
:102610001e407800b8e8b7000080fa00000006000d
:102620002800fa00000f78001e00e0006f003a005a
:1026300031ff0700205798000e80e800300f980007
:102640002e5090000080fb00610060000000e00060
:102650000300320070052000400f98000200370090
:10266000d0022000400f98004e089000801f780094
:102670002e5090000080fb00620060000000e0002f
:1026800003003200b0042000500f98000200370011
:10269000d0022000500f98005e089000801f780044
:1026a0002e5090000080fb00640060000000e000fd
:1026b0000300320040032000600f98000200370042
:1026c000d0022000600f98006e089000801f7800f4
:1026d0002e5090000080fb00680060000000e000c9
:1026e0000300320030032000700f98000200370012
:1026f000d0022000700f98007e089000801f7800a4
:102700002e5090000080fb00700060000000e00090
:102710000300320020032000001798000200370059
:10272000d0022000001798000e109000801f780043
:102730002e5090008080fb0000022000008060008e
:102740000000e00003003200100320001017980082
:1027500002003700d0022000101798001e109000d1
:10276000801f78002e5090008080fb000004200025
:10277000008060000000e00003003200f003200051
:102780002017980002003700d00220002017980080
:102790002e109000801f78002e5090000004e00062
:1027a00003003d003005200030179800020037007c
:1027b000d0022000301798003e109000801f780053
:1027c0002e5090000080fb00801f780020112a000e
:1027d000801f78003e089000d1f60700f48757006c
:1027e0000e80e800110020009ffe0700100020006e
:1027f0009e0f100022003a008040eb0050c0b30052
:10280000e2fd07000000e00004003200110020009b
:10281000d0122a0094fe0700470037000040eb006a
:1028200062fe0700200f98002e089000e20f500073
:102830000400320011002000e0132a008afe070085
:102840003d0037008e80e80047c8bf000080fb00d5
:10285000801f780046c8bf000080fb00801f780002
:10286000d0142a00801f780001007800acf6070021
:10287000e68757000e80e800110020007afe07006e
:10288000200020009e0f10002b003a0011c0b30062
:10289000f0c0b300bdfd07000000e00004003200fe
:1028a0001100200030162a006ffe070022003700ba
:1028b00010c0b3003dfe0700200f98002e089000c6
:1028c000e50f5000040032001100200040172a00dc
:1028d00065fe0700180037008e80e8004ac8bf0078
:1028e0000080fb00801f780049c8bf000080fb000b
:1028f000801f780048c8bf000080fb00801f780060
:1029000047c8bf000080fb00801f780046c8bf009a
:102910000080fb00801f780050182a00801f78007c
:10292000010078007ef60700ec8757000e80e80073
:10293000110020004cfe07000080fa000000060095
:102940001800fa000040eb00004f78006000b8006b
:10295000100798002107980067fe07000004e000b8
:10296000fdff3d000040eb00004f780020c0b300a9
:102970009e4f100059003e00e60047001e80fb00fd
:10298000801f7800001a2a00801f7800010078005c
:1029900063f60700e4875700660047008000eb00fd
:1029a00031fe07006000b80010079800210798006a
:1029b0001e019000ae0190000001200001002000e7
:1029c000800f5100818f59000c003c001e009000c8
:1029d00062842000820040000040eb0080487800c4
:1029e0001e009000ae00900061004000e0804800b2
:1029f0001007980021079800edff37009e407800ef
:102a000010c0b30061fd07000000e00004003200c8
:102a100011002000201b2a0013fe070025003700ac
:102a20001e407800e1fd0700605798006e5090004e
:102a30000004e0001c0032006e5090000080fb009b
:102a40000100200010079800210798001e01900047
:102a5000ae019000f000200001002000800f510026
:102a6000818f59000c003c001e0090006284200001
:102a70008200400000c2b300804878001e00900031
:102a8000ae00900061004000e08048001007980010
:102a900021079800edff370011002000608420001e
:102aa000f1fd07000300370011002000301c2a0050
:102ab000edfd0700000000000ffe07000004e0002d
:102ac000fdff3500000000000bfe07000004e000e1
:102ad000fdff3d001e4fe800a4ff37008000eb0023
:102ae000401d2a00e0fd07000080fa0000000600fb
:102af0000600fa000040eb00004f78006000b800cc
:102b000010079800210798008000eb00401d2a0064
:102b1000d5fd0700f8fd07000004e000fdff3500cb
:102b200000000000f4fd07000004e0001d003d006f
:102b30001e4fe80030c0b3009e4f100003003a0063
:102b40007fff07000040eb00004f78001e80fb0075
:102b5000b3fe07006000b800100798002107980036
:102b6000e5fd07000004e0000e003d001e0090009f
:102b7000ae00900061004000e0804800100798001f
:102b8000210798001e019000ae019000801a2600d7
:102b900001002000800f5100818f5900f0ff3a00a2
:102ba000030037001e80fb009dfe0700ddff37009d
:102bb0000080fa00000006000000fa008040eb00f0
:102bc000f0c1b300f1fc07008040eb000040eb00d7
:102bd000eefc07008040eb000040eb00ebfc070040
:102be00021c0b30000c2b300e8fc070021c0b3005d
:102bf0000040eb00e5fc070021c0b3000040eb0003
:102c0000e2fc070021c0b300f0c1b300dffc070005
:102c100021c0b3000040eb00dcfc070021c0b30082
:102c20000040eb00d9fc070013c0b300d2842000a1
:102c300012417800c18420009140780040c0b30068
:102c4000abfb07000080fa00000006003800fa0025
:102c5000881f78006000b800008fbe00de02a80068
:102c600045fc07000040eb00404798004e409000b4
:102c7000e24f500007003e008040eb004e409000c5
:102c800043fc07004e4090000040e8004047980099
:102c9000f6ff37000080eb00401588000000eb00d5
:102ca000501688000000eb0030168800fffc07007b
:102cb000eafa07006000b800008fbe00701a260014
:102cc00001002000be0f1000ae8f180005003c0070
:102cd00010002000010020001e0f40005e974800f9
:102ce000f6ff370066004700011f2a0050179800c2
:102cf00061179800de1090006e119000100009001e
:102d0000b2587800660047008000eb0056fd0700cf
:102d1000660047001100200053fd07006000b80066
:102d2000008fbe00701a260001002000be0f1000a8
:102d3000ae8f180005003c001000200001002000ac
:102d40001e0f40005e974800f6ff37008000eb0042
:102d500010202a0044fd07006000b800008fbe006c
:102d6000701a260001002000be0f1000ae8f180060
:102d700008003c0060fd07000004e000050035008d
:102d800010002000010020001e0f40005e97480048
:102d9000f3ff370058fd07000004e00001003d008c
:102da00053ff07008000eb00d0202a002efd070013
:102db00011002000001f2a002bfd07000040eb003f
:102dc000aefb0700005f98000e5890000080fb00eb
:102dd000201f9800ae189000e98f5000e4013200e7
:102de0002e199000e90f51001e003c002e18900093
:102df000e40f5000ff003200ae189000e48f500046
:102e00000e003c002e199000e10f51004e003200e0
:102e10002e189000e10f500004003c00ae18900006
:102e20000100e00037003200e4ff37002e19900067
:102e3000e20f510094003200e0ff37002e1890009e
:102e4000e70f500058013200ae189000e78f500095
:102e50008e013c002e199000e60f51001a0132003d
:102e6000d6ff37002e189000ef0f500021033200dc
:102e7000ae189000ef8f50000e003c002e1990000d
:102e8000ec0f51005d0232002e189000ec0f500044
:102e900004003c00ae189000ea8f50001802320087
:102ea000c6ff37002e199000ed0f5100cf023200ff
:102eb000c2ff37002e189000f20f5000420332007c
:102ec000ae189000f28f500004003c002e199000c4
:102ed000f00f51009c003200b8ff37002e18900010
:102ee000f30f5000f0033200f00f2000ae189000f6
:102ef000808f5000b1ff3a00c0cbb30075fc0700d3
:102f0000aeff370010c0b3005cfb07000080fb0081
:102f100001002000500f9800610f98005e0890009b
:102f2000ee089000e00f5000e08f580003003a00d8
:102f3000c0cbb30067fc0700a0ff3700c0ccb300d4
:102f400064fc07009dff37000040eb0020679800fd
:102f500010c0b30049fb07000080fb000100200007
:102f6000500f9800610f98005e099000ee099000e4
:102f70001000200001002000800f5100818f5900b7
:102f800003003200c0ccb30052fc07008bff3700b7
:102f90000040eb00404798004e409000e24f500048
:102fa00030003e00ce4090000040eb00f7fb0700f1
:102fb000001f98000e199000e10f41000b00320035
:102fc0000e1890000000e00004003d008e189000f4
:102fd000e28f4000090032001e0037000e199000f9
:102fe0000200e000090032001a0037002e60900055
:102ff0000040e80020679800160037002e6090001f
:103000000040e80020679800120037004e40900012
:1030100066fc0700306798003e6090000080fb006f
:10302000701798007e109000e20f400006003500f7
:10303000fe1090000100e000030035007e119000ba
:103040000200e000030032002e6090000040e80023
:10305000206798004e4090000040e80040479800ec
:10306000cdff37002e6090000004e00003003a001e
:10307000c0cbb30017fc070050ff3700f0cdb30002
:1030800014fc07004dff370010c0b300fbfa070027
:103090000080fb0001002000500f9800610f980095
:1030a0005e099000ee099000200020000100200041
:1030b000800f5100818f590003003200c0ccb30053
:1030c00004fc07003dff37008040eb0050c0b30018
:1030d000aefb07000000e00003003200f0cdb300bb
:1030e000fcfb070035ff37000040eb002ffc07001a
:1030f000201798002e109000e20f500003003200bd
:10310000f0cdb300f3fb07002cff370030c0b30055
:10311000f0fb070046c8bf00eefb070047c8bf0032
:10312000ecfb0700618420009140780047c8bf0095
:1031300000c0400063404000306798003e6090004f
:10314000e4fb07001dff370010c0b300cbfa0700f7
:103150000080fb0001002000500f9800610f9800d4
:103160005e099000ee09900000012000010020009f
:10317000800f5100818f590003003200c0ccb30092
:10318000d4fb07000dff37008040eb00c0c1b30047
:103190007efb07000000e00003003200f0cdb3002a
:1031a000ccfb070005ff37000040eb00fffb0700ea
:1031b000201798002e109000e10f500003003200fd
:1031c000f0cdb300c3fb0700fcfe370010c1b30015
:1031d000c0fb070046c8bf00befb070046c8bf00d3
:1031e00071404000306798003e609000b9fb0700d6
:1031f000f2fe370010c0b300a0fa07000080fb0009
:1032000001002000500f9800610f98005e099000a7
:10321000ee0990004000200001002000800f5100c6
:10322000818f590003003200c0ccb300a9fb070016
:10323000e2fe370011c0b30000c1b30053fb07002a
:103240000000e00003003200f0cdb300a1fb070056
:10325000dafe370010c0b300d4fb070030679800d7
:103260003e609000e14f500003003200f0cdb3000b
:1032700098fb0700d1fe3700d1cfb30046c8bf008e
:103280000140600046e8b700e0c2bf000080fb00dc
:1032900061006000e10f500003003a0046c8bf0023
:1032a0000014a00046e8b70050c0b30089fb070037
:1032b00046c8bf0087fb070046c8bf006540400006
:1032c00084fb0700bdfe37000040eb00404798003c
:1032d0004e409000e44f50000b003e004e409000e6
:1032e0000080fb00618420000104400010c0b30096
:1032f00062fa0700004c78004e4090000040e80061
:1033000040479800f2ff37000040eb00306798001c
:103310000040eb00404798004e409000e44f5000c2
:1033200010003e004e4090000080fb0061842000b1
:1033300001014000a1082a004e4090000080fb00df
:1033400061407800924f10000200320010c0b300bc
:10335000306798004e4090000040e80040479800d9
:10336000edff37003e609000e14f500003003a004f
:10337000c0ccb30057fb070090fe370011c0b3006c
:1033800010c1b30001fb07000000e00003003200a1
:10339000f0cdb3004ffb070088fe3700c0cbb30071
:1033a0004cfb070085fe370010c0b30033fa07005e
:1033b0000080fb0001002000500f9800610f980072
:1033c00010c0b3002dfa07000080fb0001002000b0
:1033d000700f9800011798005e089000ee089000aa
:1033e000e00f5000e08f5800070032005e099000a7
:1033f000ee0990001000200001002000800f510015
:10340000818f590009003a005e089000ee08900094
:1034100067014000e08148007e0890008e10900017
:10342000800f5100818f590003003200c0ccb300df
:1034300028fb070061fe37005e089000ee08900050
:10344000e00f5000e08f580003003a0042c0b30084
:103450002277980002003700c0c0b30020779800a0
:103460008040eb002e709000c8fa07000000e000da
:1034700003003200f0cdb30016fb07004ffe37000b
:10348000c0cbb30013fb07004cfe370010c0b300e5
:10349000faf907000080fb0001002000500f98009f
:1034a000610f980010c0b300f4f907000080fb0022
:1034b00001002000700f9800011798005e0890002e
:1034c000ee089000e00f5000e08f58000e00320030
:1034d0005e099000ee09900010002000010020001d
:1034e000800f5100818f5900070032005e09900063
:1034f000ee0990002000200001002000800f510004
:10350000818f590009003a005e089000ee08900093
:1035100068014000e08148007e0890008e10900015
:10352000800f5100818f590003003200c0ccb300de
:10353000e8fa070021fe3700511e2a005e089000bd
:103540000080400021c0b300104078008ffa0700cf
:103550000000e00003003200f0cdb300ddfa070008
:1035600016fe3700c0cbb300dafa070013fe3700af
:103570000040eb00404798004e409000e44f500060
:103580000b003e004e4090000080fb006184200054
:103590000104400010c0b300b8f90700004c7800e7
:1035a0004e4090000040e80040479800f2ff37008e
:1035b00010c0b300b1f907000080fb00010020003b
:1035c000500f9800610f980010c0b300abf90700ce
:1035d0000080fb0001002000700f98000117980088
:1035e0000040eb00306798000040eb002067980037
:1035f0000040eb00404798004e409000e44f5000e0
:1036000017003e004e4090000080fb0062842000c6
:10361000820040002e60900011404000206798001a
:103620004e4090000080fb006184200001014000ba
:10363000f1082a004e4090000080fb0061407800b5
:10364000924f10000200320010c0b30030679800a3
:103650004e4090000040e80040479800e6ff3700e9
:10366000ae6090002e58900000c0400069404000bd
:10367000206798003e609000e14f50000f0032003c
:103680005e099000ee09900070002000010020000b
:10369000800f5100818f590008003c002e6090007f
:1036a0000081fb00030020007e0890008e10900037
:1036b000820f5000838f580003003200c0ccb3004b
:1036c00084fa0700bdfd3700811e2a005e089000c5
:1036d000008040008040eb00104078002bfa07008b
:1036e0000000e00003003200f0cdb30079fa0700db
:1036f000b2fd3700c0cbb30076fa0700affd37004c
:1037000010c0b3005df907000080fb00010020003d
:10371000500f9800610f98005e099000ee0990002c
:10372000a000200001002000800f5100818f59006f
:1037300003003200c0ccb30066fa07009ffd3700db
:1037400011c0b300f0c0b30010fa07000000e000a1
:1037500003003200f0cdb3005efa070097fd37009a
:1037600010c0b30091fa0700201798002e109000a7
:10377000e50f500003003200f0cdb30055fa07000a
:103780008efd3700b0c0b30052fa07000040eb00d6
:10379000306798000040eb00404798004e40900092
:1037a000e44f500011003e004e4090000080fb00ae
:1037b00062842000820040003e6090001140400082
:1037c000306798004e4090000080fb00618420002c
:1037d00001004000104078003efa07004e40900083
:1037e0000040e80040479800ecff37003e60900042
:1037f0006b40400037fa070070fd370010c0b3007f
:103800001ef907000080fb0001002000500f980007
:10381000610f98002e5890006c404000306798006f
:103820000040eb00404798004e409000ef4f5000a2
:1038300012003e004e4090000080fb006284200099
:103840000204400010c0b3000cf90700004c7800df
:103850004e4090000080fb00628420008200400007
:103860003e60900011404000306798004e4090004c
:103870000040e80040479800ebff370010c0b3005d
:10388000fef807000080fb0001002000700f980088
:10389000011798003e6090000081fb0003002000ab
:1038a0007e0890008e109000820f5000838f580089
:1038b00007003a005e099000ee0990001000200019
:1038c00001002000800f5100818f59000300340057
:1038d000c0ccb300fff9070038fd37000000eb0053
:1038e000201798000040eb00404798004e409000a1
:1038f000ef4f50002d003e002e1090000000e00021
:103900002a003a0021c0b30060c0b3009ff907004d
:10391000800078002e1090000100400020179800d1
:103920005e089000ee089000020120000202b8003c
:103930000001eb000283b900050178000601410097
:10394000030120000388b9000001410082027800d1
:103950004e4090000040420021c0b3008bf90700a8
:10396000800078002e109000010040002017980081
:103970004e4090000080fb00618420000100400068
:1039800021c0b3001040780080f907008000780063
:103990002e10900001004000201798004e4090002b
:1039a0000040e80040479800d0ff370021c0b30036
:1039b00070c0b30075f90700800078002e109000e9
:1039c00001004000201798002e1090000000e00039
:1039d00003003200f0cdb300bef90700f7fc37005a
:1039e000c0cbb300bbf90700f4fc370010c0b30034
:1039f000a2f807000080fb0001002000500f980093
:103a0000610f98002e5890006d404000306798007c
:103a10005e099000ee099000d00020000100200017
:103a2000800f5100818f590003003200c0ccb300d9
:103a3000a8f90700e1fc370031c0b300b0c1b30002
:103a400052f907000000e00003003200f0cdb3009f
:103a5000a0f90700d9fc370030c0b300d3f9070044
:103a6000201798002e109000e50f50000300320040
:103a7000f0cdb30097f90700d0fc3700e0c0b300e9
:103a800094f907000040eb00306798000040eb001d
:103a9000404798004e409000e44f500011003e0017
:103aa0004e4090000080fb006284200082004000b5
:103ab0003e60900011404000306798004e409000fa
:103ac0000080fb006184200001004000104078006d
:103ad00080f907004e4090000040e8004047980001
:103ae000ecff37003e6090006e40400079f907001f
:103af000b2fc370010c0b30060f807000080fb0084
:103b000001002000500f9800610f980010c0b30012
:103b10005af807000080fb0001002000700f980099
:103b2000011798005e089000ee089000e00f50002a
:103b3000e08f5800070032005e099000ee09900007
:103b40001000200001002000800f5100818f5900db
:103b500009003a005e089000ee0890006f014000f6
:103b6000e08148007e0890008e109000800f510088
:103b7000818f590003003200c0ccb30055f9070013
:103b80008efc37002e589000b6e8b7005e08900013
:103b9000ee089000e00f5000e08f580004003a005b
:103ba00011002000e0212a00aff9070003003700d0
:103bb00011002000f0222a00abf90700c0cbb300af
:103bc00044f907007dfc37006000b800500f9800f2
:103bd000610f98000040eb00404798004e40900075
:103be000e84f50000b003e004e4090000080fb006c
:103bf000618420000104400010c0b3001ff80700da
:103c0000004c78004e4090000040e800404798008b
:103c1000f2ff37000040eb00404798004e40900014
:103c2000e74f500011003e004e4090000080fb0026
:103c30006284200002004000104078000081fb00f8
:103c4000030020005e089000ee0890000000410094
:103c500081804900500f9800610f98004e409000fd
:103c60000040e80040479800ecff37005e089000f5
:103c7000ee08900072004000e0804800500f98006d
:103c8000610f98004ec8bf000082fb0005002000b5
:103c90005e099000ee099000f00f20000100200066
:103ca0000000610081806100800f5200818f5a0006
:103cb00003003200c0ccb30006f907003ffc370018
:103cc0000040eb00b7e8b7006000b800500f980064
:103cd000610f98008040eb00f0c1b300abf8070023
:103ce0000000e000060032005e089000ee08900040
:103cf00061004000e0804800500f9800610f98007c
:103d00008040eb0046c8bf00a0f807000000e000bc
:103d1000060032005e089000ee089000610040004e
:103d2000e0804800500f9800610f98008040eb0041
:103d300047c8bf0095f807000000e0000600320009
:103d40005e089000ee08900061004000e0804800ae
:103d5000500f9800610f980021c0b30000c2b3005b
:103d60008af807000000e000060032005e089000bc
:103d7000ee08900061004000e0804800500f98007d
:103d8000610f980021c0b30048c8bf007ff807004a
:103d90000000e000060032005e089000ee0890008f
:103da00061004000e0804800500f9800610f9800cb
:103db00021c0b30049c8bf0074f807000000e0004c
:103dc000060032005e089000ee089000610040009e
:103dd000e0804800500f9800610f980021c0b300a8
:103de000f0c1b30069f807000000e00006003200ef
:103df0005e089000ee08900061004000e0804800fe
:103e0000500f9800610f980021c0b3004ac8bf004e
:103e10005ef807000000e000060032005e08900037
:103e2000ee08900061004000e0804800500f9800cc
:103e3000610f980021c0b3004bc8bf0053f80700c2
:103e40000000e000060032005e089000ee089000de
:103e500061004000e0804800500f9800610f98001a
:103e600013c0b300d284200012417800c184200026
:103e70009140780040c0b3001df707005e08900035
:103e8000ee089000e00f5000e08f580003003a0069
:103e9000c0cbb3008ff80700c8fb3700f0cdb300ec
:103ea0008cf80700c5fb370010c0b30073f707009c
:103eb0000080fb0001002000500f9800610f980067
:103ec0005e099000ee099000300120000100200002
:103ed000800f5100818f590003003200c0ccb30025
:103ee0007cf80700b5fb37006000b800500f980061
:103ef000610f98008040eb0010c2b30023f8070068
:103f00000000e000060032005e089000ee0890001d
:103f100061004000e0804800500f9800610f980059
:103f20000040eb00a1f80700e10f5000060032004e
:103f30005e089000ee08900061004000e0804800bc
:103f4000500f9800610f98006002200000004700a9
:103f5000301f980046c8bf00be1890008048780007
:103f600021c0b30020c2b30008f807000000e00041
:103f7000060032005e089000ee08900061004000ec
:103f8000e0804800500f9800610f980020c0b300f7
:103f900086f80700e10f5000060032005e0890002e
:103fa000ee08900061004000e0804800500f98004b
:103fb000610f98006202200002014700321f980042
:103fc00046c8bf00be1890009040980021c0b300c2
:103fd00010c2b300edf707000000e0000600320059
:103fe0005e089000ee08900061004000e08048000c
:103ff000500f9800610f980020c0b3006bf80700c5
:10400000e10f5000060032005e089000ee089000bc
:1040100061004000e0804800500f9800610f980058
:104020006202200002014700321f980046c8bf000c
:10403000be189000a040980070f607000004e00051
:1040400005003200680220000e04440083f60700d9
:104050003044980004003700610220008e80400048
:1040600000c0eb00b04098005e089000ee089000a1
:10407000e00f5000e08f580003003200f0cdb30095
:1040800014f807004dfb370040c1b30011f80700da
:10409000600220000e004000104078000df807007c
:1040a000600220000e0040001040900009f8070058
:1040b000600220000e0040002040900005f807003c
:1040c000600220000e0040003040900001f8070020
:1040d000610220008e804000600220000e0040003f
:1040e0001040900091404000600220000e0040000f
:1040f0002040900080c04000600220000e00400080
:104100003040900000c0400074404000f1f70700cc
:044110002afb37004f
:020000040000fa
:0200000401f009
:04000000fcff000001
:020000040000fa
:0200000401f009
:04000400ff7f00007a
:020000040000fa
:100008008e2200008e2200008e2200008e22000028
:100018008e2200008e2200008e2200008e22000018
:100028008e2200008e2200008e2200008e22000008
:100038008e2200008e2200008e2200008e220000f8
:100048008e2200008e2200008e2200008e220000e8
:100058008e2200008e2200008e2200008e220000d8
:100068008e2200008e2200008e2200008e220000c8
:100078008e2200008e2200008e2200008e220000b8
:10008800660c0000ac0c00008e2200008e220000de
:100098008e2200008e2200008e2200008e22000098
:1000a8008e2200008e2200008e2200008e22000088
:1000b8008e2200008e2200008e2200008e22000078
:1000c8008e2200008e2200008e2200008e22000068
:1000d8008e2200008e2200008e2200008e22000058
:1000e8008e2200008e2200008e2200008e22000048
:0800f8008e2200008e220000a0
:020000040000fa
:100108008e2200008e2200008e2200008e22000027
:100118008e2200008e2200008e2200008e22000017
:100128008e2200008e2200008e2200008e22000007
:100138008e2200008e2200008e2200008e220000f7
:100148008e2200008e2200008e2200008e220000e7
:100158008e2200008e2200008e2200008e220000d7
:100168008e2200008e2200008e2200008e220000c7
:100178008e2200008e2200008e2200008e220000b7
:10018800660c0000ac0c00008e2200008e220000dd
:100198008e2200008e2200008e2200008e22000097
:1001a8008e2200008e2200008e2200008e22000087
:1001b8008e2200008e2200008e2200008e22000077
:1001c8008e2200008e2200008e2200008e22000067
:1001d8008e2200008e2200008e2200008e22000057
:1001e8008e2200008e2200008e2200008e22000047
:0801f8008e2200008e2200009f
:020000040000fa
:10411400dead0000beef00003eb10000d023000081
:104124007a690000badb0000eeef00004a53000099
:104134005441000020460000414900004c2000008a
:1041440020200000005400005354000041200000cf
:1041540046410000494c00002020000000560000a9
:1041640065680000696300006c650000205300006e
:10417400616600006520000020200000200000008f
:104184005665000068690000636c0000652000004b
:10419400456e0000616200006c6500006420000050
:1041a400004e00006f2000004b6900006c6c0000a2
:1041b4002053000077690000746300006820000049
:1041c400200000005361000066650000206f0000bd
:1041d4006e6c000079200000696e0000205300001e
:1041e4005720000000540000533a0000202500002e
:1041f400632500006325000063250000632500009b
:104204006320000020200000202000002020000067
:10421400005500004e5300004146000045000000d8
:1042240053740000613a0000202500003032000081
:10423400582000002563000025630000256300006a
:10424400256300002563000025630000256300004a
:10425400256300000044000045500000544800005d
:1042640020460000414900004c20000020200000ae
:1042740020200000200000004445000050540000ad
:10428400482000004c4500004e200000464100003c
:10429400494c000000440000657000007468000090
:1042a4003a2000002530000032580000202500008c
:1042b40030320000582000002020000020200000a0
:1042c40000540000454d000050200000464100000d
:1042d400494c000020200000202000002020000085
:1042e40020000000544500004d500000204c000008
:1042f400454e000020460000414900004c200000cb
:1043040020200000005400003a2500003032000054
:1043140058200000253000003258000020250000fd
:1043240030320000582000002530000032580000d0
:1043340020250000303200005800000049640000cd
:10434400656e0000742000004952000051200000f6
:10435400256400003a200000202000002000000016
:104364003c5700007269000074650000204600009c
:10437400616900006c3e0000202000002020000045
:10438400003c00005265000061640000204600000b
:10439400616900006c3e0000202000002020000025
:1043a4002000000044690000616700006e6f000097
:1043b4007374000069630000204d00006f64000006
:1043c400652000000009000008120000131400001a
:1043d4001516000017180000191a0000202000000c
:1043e40020200000202000002020000020200000c9
:1043f40020200000202000002020000000440000b5
:1044040069610000676e00006f730000746900004a
:10441400633f0000005300007461000072740000e8
:10442400696e000067200000757000002e2e0000e9
:104434002e20000020000000527500006e74000061
:10444400696d000065200000446900006167000098
:10445400204f00006666000000520000756e0000e8
:10446400746900006d65000020440000696100006b
:0c447400672000004f6e000020000000d8
:020000040000fa
:10448000b608000004000000020000000100ff0068
:104490000000000000080000820000000000000092
:1044a000a40800001200000002000000202b2d00d4
:1044b000233000000100020000040000080010008a
:1044c00000000000ba080000080000000200000020
:1044d000686a6c00747a4c000000000082080000da
:1044e0002200000002000000303132003334350079
:1044f0003637380039616200636465006600300059
:104500003132330034353600373839004142430008
:0c451000444546000000000000000000d0
:020000040000fa
:04451c000000fe009d
:00000001FF
