:020000040000fa
:080000000401040000000000ef
:020000040000fa
:1002000000000000000000008f87200080ff200019
:100210000001880000000000050007000c00070036
:10022000a0120200000000000040da000000fe0002
:100230004440a900c02720000000e0000300320075
:1002400000002000a00188004440a8000000060033
:1002500060a221000100200016003700620040006b
:10026000e0804800910188009001ba0062004000df
:10027000e0804800910188009002ba0062004000ce
:10028000e08048000002eb006028e10005003a0031
:100290008301e90007003300038009000059eb00e7
:1002a000040037006128e100010032000082eb0009
:1002b00005000700910188001001ba000200e0006b
:1002c000e6ff3a00000005009101880080027800f6
:1002d00062004000e08048003559ba008301e9001f
:1002e000080032002559ba008301e90005003200f8
:1002f0000400e000f4ff320015d9ba008301e900e0
:10030000f1ff3a0000000600881f78000204780020
:1003100014000700080040004f04780000000600a9
:100320000000fa00881f7800000478003fb99700a9
:10033000ea81570080007800401820001000070074
:10034000800078000000e000020035000040eb0073
:1003500000f47800010078004f0478000080fa0073
:1003600000000600800178000200e0000300320077
:10037000b15978000201e900fdff3a0000000600d3
:100380006200fa00889fbe008a9fbe000004be0083
:1003900002057800830078006a805700ad000700ee
:1003a000f88f9f0089979f000000eb00909f9f00af
:1003b0001a80fb008005fb000000ea00cf04de008d
:1003c0000904780050022000808f550001003a0097
:1003d0000904e9000800e0000c0034000f909700c9
:1003e000080178008a007800ff8997000300010067
:1003f00080979f008080eb000000e00090003200ba
:100400001f98970008004000909f9f000905450035
:1004100050022000808f5500040032000b00e000e5
:10042000e3ff3a009f989700850037000000eb003b
:10043000f0979f00e0979f00d0979f00c0979f0084
:10044000b0979f00a0979f00b09f9f0009003700c2
:10045000e0852000008050000000d0004186200090
:1004600001004000bf98970090807000b19f9f00ee
:100470000a05e8009a00fb00e085200077000700ed
:10048000800078000000e000f1ff3a00a0c2b30055
:100490009a4f10000e003a003fb897000080e90024
:1004a000b0bf9f0010007800a09f9f000000e000f8
:1004b00005003d000000ea00a09f9f003f989700c4
:1004c0000020a000b09f9f000a05e800110037003f
:1004d000a19f9f000b003700af989700f0ff270007
:1004e000808f5000060032006a09b9001a00fb0034
:1004f0000200400001fd2f0001004000a09f9f006e
:100500000a05e8001a00fb005c0007000000e0009c
:10051000f1ff3a00e0c2b3009a4f1000030032002e
:100520000080eb00809f9f001c003700a0c2b3003a
:10053000da4f100007003a003fb897000080e9004a
:10054000b0bf9f0010007800809f9f000a05e80060
:10055000120037000000eb00809f9f000b00370067
:100560008f989700f0ff2700808f50000600320020
:100570006a09b9001a00fb000200400001fd2f00cb
:1005800001004000809f9f000a05e8001a00fb0060
:100590003a0007000000e000f1ff3a009a00fb007b
:1005a000008720002d0007008040eb000000e000e5
:1005b00001003200ba407800817f9f0080c6b300fe
:1005c00080cf500004003a009acf100002003a0099
:1005d00066405000070037008f789700c0c6b30010
:1005e00080cf500005003a009acf100003003a0077
:1005f00065404000807f9f000a05e800a0fb2f00b7
:10060000008447003a01fb0088017800ea80570027
:1006100060f92f000f0040001e0007000000e000fe
:1006200006003a008800780060f92f000f004000b3
:100630009e0107000000e0005dff3d008080eb00b0
:10064000010078004f05be004f04be000080fa0094
:1006500000000600010878000000060090cf10009e
:10066000050032001004e00001003a00000005001f
:10067000d0cf1000fbff3a00000006000003b100dd
:10068000030035009000b10001003c00100005009f
:1006900000000500889fbe008a1f780000047800d3
:1006a0000102780002457800830478000200fb0014
:1006b000cf80de005002b1000180b1003205200081
:1006c000820f5000e08f58006b013e000060010077
:1006d00063013700680137006701370066013700a2
:1006e000650137006401370063013700620137009c
:1006f00061013700600137005f0137005e0137009c
:100700005d0137005c0137005b0137005a0137009b
:10071000590137005801370057013700560137009b
:10072000550137005401370053013700520137009b
:1007300051013700500137004f0137004e0137009b
:100740004d0137004c0137004b0137004a0137009b
:10075000490137004801370047013700460137009b
:10076000450137004401370043013700420137009b
:1007700041013700400137003f0137003e0137009b
:100780003d0137003c013700210137003a013700b5
:100790003901370038013700370137008100370051
:1007a000350137003401370033013700320137009b
:1007b00031013700300137002f0137002e0137009b
:1007c0002d0137002c013700150037001c003700c1
:1007d000290137002801370027013700260137009b
:1007e00017003700240137002301370022013700aa
:1007f00021013700c20037006a003700f5003700da
:100800001d0137001c013700010137001a013700b4
:100810006400370018013700170137006100370006
:100820006e01440012007800808141009480e9004c
:10083000010a78000009e8009149780017013700a3
:1008400028619000c0c6b300804f51000a003a00f2
:100850009400780064805000000a78001000be0008
:100860004f89de00cf91de000002be000203780057
:10087000820378001600370010c7b300804f510084
:1008800003003a00140178006800510005003700a9
:1008900094007800a0c6b300804f510005003a00d4
:1008a00068805000000a78003002be002003be00bd
:1008b000070037000180e900000a78001000780086
:1008c00000027800cfa2de000503780086037800de
:1008d000049cbe000694be00a860900080c6b300d1
:1008e00080cf50000f00320020c6b30080cf5000f0
:1008f00006003a00184078000000fb00cf80de00c0
:1009000001017800820178000a00370040c7b30077
:1009100080cf5000030032006640400080cf50007e
:1009200006003a0018007800cf80de000101780050
:1009300082017800009cbe000294be003800be0018
:100940002801be00e00f5000e08f5800e00f590072
:10095000e08f590004003d006e01440092007800d1
:10096000d0c2b3000c003700081090000018a3009c
:10097000040032006e01440092007800b0c2b3005f
:10098000050037000008a300580032006e01440043
:100990009200780000c2b30080f478000109e800fa
:1009a0005200370028619000c0c6b300804f51004c
:1009b00006003a009400780064805000000a780035
:1009c0001002be006033b8001600370010c7b30035
:1009d000804f510003003a00140178006800510074
:1009e0000500370094007800a0c6b300804f510086
:1009f00005003a0068805000000a78003002be000e
:100a00002003be00070037000180e900000a7800db
:100a10001000780000027800050020000600200089
:100a200007002000049cbe000694be00a860900051
:100a300080c6b30080cf50000f00320020c6b30044
:100a400080cf500006003a00184078000080fb007c
:100a50000100200002002000030020000a003700ef
:100a600040c7b30080cf5000030032006640400012
:100a700080cf500006003a001800780001002000e6
:100a80000200200003002000009cbe000294be0073
:100a9000081090000038a300140032003800be0097
:100aa0002801be00e00f5000e08f5800e00f590011
:100ab000e08f59000d00320080c7b300804f550011
:100ac0000300320080c5b300804f550007003a0094
:100ad0006e0044009000780002c3b30082f47800f6
:100ae0008100e8008af478000108e80078009000ae
:100af00000804400600498008a407800410037007c
:100b0000286090008000fb00c0062000808f50000d
:100b1000230032000a003c0064005000808f500027
:100b20002600320004003c0066005000808f500018
:100b30000b00320021003700a0062000050037001e
:100b400040072000808f50001c0032001b003c003a
:100b500063005000808f50000700320017003700fc
:100b60001480e900000a780010007800485c9000ca
:100b700008487800490037001480e900000a78002e
:100b80001002780068089000cf80de000101780034
:100b900082017800009abe000292be003f0037003a
:100ba0001480e900000a78001001780068089000bd
:100bb000cf80de000089be00380037001480e900d5
:100bc000000a780010007800680c9000080878008f
:100bd000320037001480e900000a78001000780025
:100be000cf80de000101780082017800009cbe0009
:100bf0000294be00780090000080440060049800d9
:100c000081c7b30008007800f60007002300370012
:100c10001480e900000a7800100078006004980051
:100c2000580990000200e00002003d009f0107000b
:100c3000090037008000eb00a30107008000780066
:100c40000000e000030032006800900000805000c7
:100c50000100370058089000100c98000f00370072
:100c60006e0144009200780050c2b30080f1780019
:100c70000109e80009003700ee0044001100780087
:100c8000808144000a4278008008e8000a04e000fd
:100c900001003a0054c2b300844978000000eb0020
:100ca0004f0578004f04be00000006000400fa0063
:100cb000889fbe008a9fbe008c1f780000047800c9
:100cc0000106780070089000f800900001005000c4
:100cd0008808900001005000980890000100500022
:100ce000a808900001005000b808900001005000d2
:100cf000c8089000810550000002220090bf9f00ac
:100d000000032300a0bf9f00081090000028a3004c
:100d100018003a000b00e000160034000b057800c4
:100d20008a047800e20f55000100360029002000f7
:100d30000900e0000c00340058009000c801900049
:100d400009017800ee80570003000100500498006c
:100d50008080eb000000e0009c00320068089000fa
:100d600009004000600c9800090555004240a900a8
:100d7000ebff3c00780190000200e0000c00340022
:100d800058009000c80190008c007800030001001a
:100d9000500498008080eb000000e0008b003200df
:100da00068089000f800900001004000600c980076
:100db000080890000000e0001600340000057800ec
:100dc0008a047800e20f5500010036002900200057
:100dd0000900e0000c00340058009000c8019000a9
:100de00009017800ec8057000300010050049800ce
:100df0008080eb000000e000740032006808900082
:100e000009004000600c9800090555004240a90007
:100e1000ebff3c00180990000200e0000c003400d9
:100e2000e800900058009000c80190000300010005
:100e3000500498008080eb000000e0006300320066
:100e4000680890009808900001004000600c98002d
:100e5000280890000000e00016003400000578002b
:100e60008a047800e20f55000100360029002000b6
:100e70000900e0000c00340058009000c801900008
:100e800009017800ec80570003000100500498002d
:100e90008080eb000000e0004c0032006808900009
:100ea00009004000600c9800090555004240a90067
:100eb000ebff3c00380990000200e0000e00340017
:100ec000e8009000180890008080400058009000d2
:100ed000c801900003000100500498008080eb00de
:100ee0000000e0003900320068089000b808900067
:100ef00001004000600c9800480890000000e000ed
:100f000016003400000578008a047800e20f5500ce
:100f100001003600290020000900e0000c00340028
:100f200058009000c801900009017800ec8057003b
:100f300003000100500498008080eb000000e000f6
:100f4000220032006808900009004000600c980000
:100f5000090555004240a900ebff3c000810900035
:100f60000028a300180032000b00e0001600340037
:100f70000b0578008a047800e20f55000100360066
:100f8000290020000900e0000c0034005800900007
:100f9000c801900009017800ee80570003000100ad
:100fa000500498008080eb000000e0000700320051
:100fb0006808900009004000600c98000905550081
:100fc0004240a900ebff3c008000eb0001007800ec
:100fd0004f0678004f05be004f04be000080fa00a7
:100fe000000006006f02b000889fbe008a9fbe000e
:100ff0008c9fbe008e1f780080067800d084200071
:10100000b0b79f0080c5b30080cf5000020032000f
:10101000c2832000b2b79f0083002000c3b79f00a7
:10102000f0c6b30080cf50000a0032006940400093
:1010300080cf500005003200a4002000c4b79f00fc
:1010400080c5b30080cf500002003a0000012000ac
:10105000c0b79f008e0120003d04be002d05be00dc
:1010600040c6b30080cf500003003200654040000e
:1010700080cf50000a003a00e00f5400e08f5c007f
:10108000e00f5d00e08f5d0005003d000800be0040
:101090000a01be00950007000205be000004be0064
:1010a000e00f5400e08f5c00e00f5d00e08f5d001a
:1010b00003003a005d0890000000e0000c003200e0
:1010c0007e012000cfb0970001027800cfa2de00a1
:1010d00005037800860378000800be000a01be0000
:1010e000180107003fb2970064407800d0e79f00e6
:1010f0004fb09700cf80de000101780082017800b8
:10110000d0b79f00e1b79f00f2b79f0083bf9f0059
:101110000203be000002be000800be000a01be00bd
:1011200001010700809ebe008296be00e00f5000c5
:10113000e08f5800e00f5900e08f59002200340082
:101140000e00e000200034003d00be002d01be0076
:101150005fb29700efb297007fb397008fbb970005
:10116000fc0007000205be000004be000e07e900f7
:10117000e1fc2f008f804000010647005fb297001e
:10118000efb297007fb397008fbb97000800be00b7
:101190000a01be008c0107001d0010003fb197003e
:1011a000624e7800889ebe008a96be00e00f540012
:1011b000e08f5c00e00f5d00e08f5d000200340016
:1011c0000e00e000e0ff3c00cfb19700e88f510037
:1011d00010003a000d1090000038a3000d003200fe
:1011e000f70f570006003e00e4fc2f000e024200fd
:1011f000e4c07f0000c3b30080cf50000500320080
:101200000e07e90000c3b300e1fc2f008e80400010
:1012100080f07f0078011700920e98006d0090001a
:10122000e3fc2f008f8141008e8041004dfc0700c0
:101230001d0e90005d089000800f560006003d00d6
:101240000c005000800e98000d1090000040a1008e
:10125000801698000f0037000000e0000d003d00f0
:101260000d10900074006000f00f500009003a006b
:101270007d089000fd009000010050008d08900056
:10128000010050000c0750004240a900010034004a
:101290008e0e98004f0778004f06be004f05be0027
:1012a0004f04be006f02b10000000600800078000d
:1012b0001004e000020032005104e000feff3a009a
:1012c00000805000000006000200e000050032002f
:1012d00090cf1000040032000000e8000201e90095
:1012e000fbff3a000000eb00000006006000100069
:1012f000e080180060011900e0811900000006007c
:10130000881f7800000478005001be004000be0035
:101310000000420081804a0002014b0083814b00a3
:10132000009cbe000294be00dc00070003003100f8
:10133000480090000000e800400498004f04780046
:1013400000000600889fbe00000478008004eb00c7
:101350005001be004000be00d00007000100310077
:101360001900200004005000858058000601590033
:1013700087815900009cbe000294be004800900086
:1013800009005000400498004f04be000000060011
:101390001200fa00889fbe008a9fbe008c1f780052
:1013a0000205be000004be00f4b79f0085bf9f0089
:1013b00096bf9f00a7bf9f000000eb00e0b79f0013
:1013c000d0b79f00c0b79f00b0b79f00a0b79f00e5
:1013d0000006eb005fb197006fb097008000d0006f
:1013e0000000e00015003d00e1b79f00010078001b
:1013f0000200e00001003d000000a000ac0007007a
:1014000001003d000000a000af00070001003d000a
:101410000000a000b200070001003d000000a00095
:101420008100070001003d000000a000b20007009d
:101430007c805700b2ff070014003700e1b79f001f
:10144000010078000200e00001003d000000a00063
:101450009700070001003d000000a0009a0007006f
:1014600001003d000000a0009d00070001003d00bc
:101470000000a0006c00070001003d000000a0007b
:101480009d0007007c805700aeff07006fb09700fb
:101490000000e000070035001000200001002000df
:1014a0006011b80008047000898470000a0571009a
:1014b0008b8571000c06e800f0032000800f5600b9
:1014c000c4ff34006fb097000000e00006003d004c
:1014d0007fb297008fba97001fbb9700afbb9700f2
:1014e0007c80570086ff07000802be000a03be008a
:1014f0006fa897000000e00004003a002fb29700a8
:10150000bfb297004fb39700dfb397000400be004f
:101510000601be004f0678004f05be004f04be0016
:101520000080fa0000000600881f780018002000e4
:10153000881f780096ff07008f87e9004f04780026
:1015400000000600801feb0091ff07008f87e90075
:10155000000006000800fa00889fbe008a9fbe00b7
:101560008c1f78006e00070005003d004300070057
:10157000300007000c003d00330007000b0037006f
:10158000e00f5200e08f5a00e00f5b00e08f5b003d
:1015900006003d000400be000601be0053ff070028
:1015a0000205be000004be001c0020002c00070045
:1015b000ddff07000c00e000010032004bff0700d8
:1015c0004f0678004f05be004f04be000080fa00b1
:1015d000000006000800fa00889fbe008a9fbe0037
:1015e0008c1f78004e00070002003d001c00200008
:1015f000220007000f00070001003d001200070055
:1016000017000700cfff07000c00e00001003200c8
:1016100036ff07004f0678004f05be004f04be009e
:101620000080fa000000060090b79f000100d00083
:1016300080b79f00e00f5400e08f5c00e00f5d007a
:10164000e08f5d00000006000800be000a01be0039
:1016500026ff07000205be000004be0000000600d1
:101660000802be000a03be005fb09700efb097000b
:101670007fb197008fb99700000006001bff07009d
:101680000100070000000600b0b79f00c1b79f002f
:10169000d2b79f00e3b79f00000006000400e100fe
:1016a0000588e1000690e1000798e10000000600cf
:1016b000c0b79f000200d000b0b79f00afb0970046
:1016c0000100e00000000600b0b79f000100d0005c
:1016d000a0b79f009fb097000100e0000000060047
:1016e000a0b79f000100d00090b79f008fb0970077
:1016f0000100e0000000060080b79f000804d00051
:101700008984d2000a85d2008b85d2005fb297000f
:10171000efb297007fb397008fbb970000000600e1
:10172000d9ff07000605be000404be000006eb005a
:10173000e00f5000e08f5800e00f5900e08f590093
:1017400000000600889fbe008a9fbe008c9fbe00de
:101750000404b8000506b8008904460060854e0000
:101760000606b8000a054600e0854e000706b800e8
:101770008b054600040eb800890446000a854e0019
:10178000050eb8000a0546008b854e00060eb8000f
:101790008b0546000416b8000a0546008b854e00ee
:1017a0000516b8008b054600041eb8008b054600e0
:1017b0000800be000a01be004f06be004f05be0075
:1017c0004f04be00000006000800fa00889fbe001b
:1017d0008a9fbe00170007000605be000404be0075
:1017e000e00f5200e08f5a00e00f5b00e08f5b00db
:1017f00008003d000400be000601be00bbfe07005d
:101800000205be000004be000f000700b7fe07007f
:10181000080007000802be000a03be000a00070015
:10182000c8ff07004f05be004f04be000080fa004d
:1018300000000600e0b79f00f1b79f0082bf9f0045
:1018400093bf9f00000006006fb09700ffb09700a5
:101850000fb997009fb99700000006000000fa003a
:10186000d0168000f2c3b30082406000d4c2bf0033
:10187000614060004600dd0080c07000d4c2bf003f
:101880000080fb000000d100614060004700dd00e7
:1018900000c070000080fb000080fa00000006001d
:1018a0000200fa00004f7800c116800000fc2f00f3
:1018b00000806000c0168800d222a900d202a900d0
:1018c000e116800000fc2f00008160009e80fb007c
:1018d000f00320000080600000007100e016880026
:1018e0009e80fb0000042000008060004680de0037
:1018f00061416000612d200091407800e0cfb3008d
:1019000000c0600002407000d6e2b7009e80fb007d
:1019100000082000008060004780de006140600019
:101920000041d000612d200091407800d0cfb3005d
:1019300000c0600002407000d6e2b7000080fa00ec
:10194000000006000000fa00d222a800d202a8007f
:10195000c0168000f103200001007000c01688004e
:101960000080fa00000006000200fa00004f780034
:101970000e22a9000e42a9000e62a9000e02a900c3
:101980000ec2bf000080fb00610060000000e000ac
:10199000fbff320090108000104798000e02a90053
:1019a0001e4090000080fb000080fa00000006004e
:1019b0000000fa00e3ff0700d902a900d262a800e4
:1019c0000080fa00000006000200fa00004f7800d4
:1019d000114798001e04e00009003a001e409000e4
:1019e0000080fb0061416000a12c20009140780044
:1019f000e0cfb30000c0600002407000cae2b70050
:101a000010c0b3009e4f10000a003a001e40900024
:101a10000080fb00614060000041d000a12c20004c
:101a200091407800d0cfb30000c060000240700049
:101a3000cae2b70020c0b3009e4f10000a003a006f
:101a40001e4090000080fb00614060004201dd000c
:101a5000a12c200091407800b0cfb30000c06000fe
:101a600002407000cae2b70030c0b3009e4f1000c1
:101a70000a003a001e4090000080fb0061406000b8
:101a80004301dd00a12c20009140780070cfb3000d
:101a900000c0600002407000cae2b7000080fa0097
:101aa000000006000800fa00004f78000040eb003c
:101ab000104798006000b8001007980021079800b0
:101ac000dd02a90011c0b3001e407800beff070070
:101ad000d4c2bf000080fb004300de000080fb009a
:101ae000610060000000e00012003a001e0090005b
:101af000ae00900061004000e08048000001be00a0
:101b00001207980023079800106a2800110020008f
:101b1000800f5100818f5900edff3a008040eb00ab
:101b20001e407800a8ff07000080eb0030079800f7
:101b30002100370049ff0700104798008040eb0064
:101b40001e407800a0ff07006000b8001007980052
:101b500021079800d4c2bf000080fb004300de00d4
:101b60000080fb0061006000e10f50000f003a00b0
:101b70001e009000ae00900061004000e080480030
:101b80000001be001207980023079800106a280081
:101b900011002000800f5100818f5900edff3a00a5
:101ba000e0ff2f0030079800030037001e40900030
:101bb0000080fb00300798003e0090000080fa0093
:101bc000000006000800fa00004f78001147980056
:101bd0006000b8001007980021079800dd02a800f7
:101be0001e4078002eff070011c0b3001e40900079
:101bf00075ff0700d4c2bf000080fb004300de0079
:101c00000080fb00610060000000e00013003a006b
:101c10001e009000ae00900061004000e08048008f
:101c20000001be001207980023079800106a2800e0
:101c300011002000800f5100818f5900edff3a0004
:101c40008040eb001e4090005fff07003dff070053
:101c50000080eb00300798001f00370039ff0700b5
:101c60008040eb001e40900057ff07006000b80066
:101c70001007980021079800d4c2bf000080fb0025
:101c80004300de000080fb0061006000e10f5000b7
:101c90000f003a001e009000ae009000610040006e
:101ca000e08048000001be0012079800230798005a
:101cb000106a280011002000800f5100818f590008
:101cc000edff3a00e0ff2f003007980002003700d8
:101cd0000000eb00300798003e0090000080fa0002
:101ce000000006000000fa000000eb006010880011
:101cf00070002000a01088000d42a8000de2a8008e
:101d00000f42a8000080fa00000006000600fa005a
:101d1000004f78000fc2bf000080fb000000d10020
:101d20000080fb00610060000000e000f9ff3a0065
:101d3000000000000fc2bf000080fb0061006000d7
:101d40000000e000fbff32001e80fb0080108800d6
:101d50000fc2bf000080fb000000d1000080fb002c
:101d6000610060000000e000f9ff3a0000000000a0
:101d70000fc2bf000080fb00610060000000e000b7
:101d8000fbff32000080fa00000006000400fa00a9
:101d9000000f78000040eb00204798000040eb0067
:101da000204798002e4090000080fb001e0040005d
:101db0001004e000090032002e4090000080fb007b
:101dc0001e00400010407800d0ff07002e40900019
:101dd0000040e80020479800f2ff37000080fa003a
:101de000000006000a00fa00004f78000040eb00f7
:101df00000e8b7001e4078002aff0700200798007f
:101e00002e0090000000e00003003d002e00900036
:101e1000400798001f0037000000eb0010079800f3
:101e20009e0090002e009000808f500012003d0018
:101e30001e4078001bff0700300798003e0090000e
:101e40000000e00003003d003e00900040079800c5
:101e5000100037001e0090000180200001004000ab
:101e60006e419000024878001e0090000000e800db
:101e700010079800eaff37002e0090000280200033
:101e8000820040000040eb00804878002e00900067
:101e9000400798004e0090000080fa000000060005
:101ea0000600fa00000f7800110798000000eb0010
:101eb000200798002e0090001e0040009080fb003c
:101ec0002e009000810f500014003d0021c0b3008f
:101ed00060c0b3003bff07009e009000000120009f
:101ee0000088b900804078004e40900000c040005b
:101ef00021c0b30033ff07002e0090001e004000f9
:101f000021c0b300104078002eff07002e00900083
:101f10000000e80020079800e6ff370021c0b3006a
:101f200070c0b30027ff07000080fa000000060021
:101f30000400fa0011c0b30000c1b30021ff070084
:101f40000000e0000600320011002000708f290020
:101f5000d3ff07000000eb00100798000f003700c8
:101f600010c0b3009fff0700004f780010c0b300ff
:101f70009e4f10000600320011002000708f2900d3
:101f8000c7ff07000000eb001007980003003700b0
:101f900000c8bf000080fb00100798001e009000e2
:101fa0000080fa00000006002800fa00000f780008
:101fb0001e00e0006f003a00ddff07002057980088
:101fc0000e80e800300f98002e5090000080fb003b
:101fd000610060000000e000030032007005200096
:101fe000400f980002003700d0022000400f9800f8
:101ff0004e089000801f78002e5090000080fb005b
:10200000620060000000e00003003200b004200025
:10201000500f980002003700d0022000500f9800a7
:102020005e089000801f78002e5090000080fb001a
:10203000640060000000e000030032004003200064
:10204000600f980002003700d0022000600f980057
:102050006e089000801f78002e5090000080fb00da
:10206000680060000000e000030032003003200040
:10207000700f980002003700d0022000700f980007
:102080007e089000801f78002e5090000080fb009a
:10209000700060000000e000030032002003200018
:1020a0000017980002003700d002200000179800a7
:1020b0000e109000801f78002e5090008080fb0052
:1020c00000022000008060000000e00003003200f9
:1020d000100320001017980002003700d0022000e3
:1020e000101798001e109000801f78002e5090004e
:1020f0008080fb0000042000008060000000e00001
:1021000003003200f003200020179800020037007f
:10211000d0022000201798002e109000801f780019
:102120002e5090000004e00003003d003005200028
:102130003017980002003700d002200030179800b6
:102140003e109000801f78002e5090000080fb0011
:10215000801f780030902900801f78003e08900092
:102160006ff80700f48757000e80e8001100200088
:102170004bff0700100020009e0f100022003a00c5
:102180008040eb0050c0b3008efe07000000e0006e
:102190000400320011002000e091290040ff0700f8
:1021a000470037000040eb000eff0700200f9800ab
:1021b0002e089000e20f50000400320011002000b1
:1021c000f092290036ff07003d0037008e80e800be
:1021d00001c8bf000080fb00801f780000c8bf005e
:1021e0000080fb00801f7800e0932900801f7800aa
:1021f000010078004af80700e68757000e80e800e3
:102200001100200026ff0700200020009e0f100074
:102210002b003a0011c0b300f0c0b30069fe070004
:102220000000e00004003200110020004095290069
:102230001bff07002200370010c0b300e9fe0700b3
:10224000200f98002e089000e50f50000400320087
:10225000110020005096290011ff070018003700d8
:102260008e80e80004c8bf000080fb00801f78005b
:1022700003c8bf000080fb00801f780002c8bf00b9
:102280000080fb00801f780001c8bf000080fb00b9
:10229000801f780000c8bf000080fb00801f78000e
:1022a00060972900801f7800010078001cf8070063
:1022b000ec8757000e80e80011002000f8fe0700b0
:1022c0000080fa00000006001800fa000040eb0051
:1022d000004f78006000b8001007980021079800b0
:1022e00013ff07000004e000fdff3d000040eb008d
:1022f000004f780030c0b3009e4f100059003e00e0
:10230000e60047001e80fb00801f7800109929001e
:10231000801f78000100780001f80700e48757006b
:10232000660047008000eb00ddfe07006000b8009b
:1023300010079800210798001e019000ae01900040
:102340000001200001002000800f5100818f590002
:102350000c003c001e009000028020008200400023
:102360000040eb00804878001e009000ae00900016
:1023700061004000e08048001007980021079800a5
:10238000edff37009e40780010c0b3000dfe07003f
:102390000000e0000400320011002000309a290003
:1023a000bffe0700250037001e4078008dfe0700a5
:1023b000605798006e5090000004e0001c0032004e
:1023c0006e5090000080fb00010020001007980074
:1023d000210798001e019000ae019000f00020003f
:1023e00001002000800f5100818f59000c003c003b
:1023f0001e009000028020008200400000c2b30056
:10240000804878001e009000ae00900061004000ff
:10241000e08048001007980021079800edff370082
:1024200011002000008020009dfe070003003700ff
:1024300011002000409b290099fe070000000000c9
:10244000bbfe07000004e000fdff350000000000b7
:10245000b7fe07000004e000fdff3d001e4fe8004e
:10246000a4ff37008000eb00509c29008cfe070081
:102470000080fa00000006001600fa000040eb00a1
:10248000004f78006000b800100f9800210f9800ee
:102490008000eb00509c290081fe0700a4fe07008d
:1024a0000004e000fdff350000000000a0fe070072
:1024b0000004e0001d003d001e4fe80030c0b300e6
:1024c0009e4f100003003a007fff07000040eb0022
:1024d000004f78001e80fb00b3fe07006000b800cc
:1024e000100f9800210f980091fe07000004e000f3
:1024f0000e003d001e089000ae08900061004000f4
:10250000e0804800100f9800210f98001e099000ed
:10251000ae099000801a260001002000800f5100b3
:10252000818f5900f0ff3a00030037001e80fb0046
:102530009dfe0700ddff37000080fa000000060066
:102540007800fa00881f78006000b800008fbe0095
:102550006000b80020079800310798006000b800bc
:1025600040079800510798000040eb0020cf9800ea
:102570000040eb0030cf98000dfd07000040eb005d
:10258000404f98004e489000e34f500007003e0037
:102590008040eb004e4890000bfd07004e48900035
:1025a0000040e800404f9800f6ff3700cdfd0700df
:1025b0000080eb00401588000000eb0050168800fa
:1025c0000000eb0030168800c6fd0700109e2900b1
:1025d000eefd07006000b800008fbe00f069280023
:1025e00011002000be0f1000ae8f180005003c0047
:1025f00010002000010020001e0f40005e974800e0
:10260000f6ff3700c00420000e004000819f290023
:102610006037980071379800ee3090007e3190005e
:1026200010000900b2587800c00420000e004000dd
:102630008000eb001afe0700c00420000e004000de
:102640001100200016fe07006000b800008fbe00d9
:10265000f069280011002000be0f1000ae8f180096
:1026600005003c0010002000010020001e0f40006b
:102670005e974800f6ff37008000eb0090a029002d
:1026800007fe07006000b800008fbe00f069280058
:1026900011002000be0f1000ae8f180008003c0093
:1026a00023fe07000004e0000500350010002000b4
:1026b000010020001e0f40005e974800f3ff370026
:1026c0001bfe07000004e00001003d006aff070058
:1026d0008000eb0050a12900f1fd0700110020004f
:1026e000809f2900eefd07000040eb009efc0700e4
:1026f00060df98006ed890000080fb00303f9800ab
:10270000be389000e78f5000200132003e39900023
:10271000e70f510014003c003e389000e20f5000db
:1027200089003200be389000e28f500007003c0064
:102730003e3990000200e000220032003e38900056
:10274000e10f500030003200e7ff3700be38900044
:10275000e48f5000ac0032003e399000e60f51008b
:10276000d2003200e0ff37003e389000ea0f500000
:10277000dc013200be389000ea8f500007003c00b8
:102780003e399000e80f5100390132003e38900088
:10279000e90f50006f013200d3ff3700be389000c0
:1027a000ec8f50000e023200f00f20003e399000f6
:1027b000800f5100ccff3a00c0cbb30053fd07009f
:1027c000c9ff370010c0b30067fc07000080fb00a2
:1027d0000100200000379800113798000e3090005b
:1027e0009e309000e00f5000e08f580003003a0048
:1027f000c0cbb30045fd0700bbff3700c0ccb30022
:1028000042fd0700b8ff37000040eb0000ef9800e2
:1028100010c0b30054fc07000080fb000100200042
:1028200000379800113798000e3190009e319000cb
:102830001000200001002000800f5100818f5900fe
:1028400003003200c0ccb30030fd0700a6ff370004
:102850000040eb00404f98004e489000e34f50007e
:1028600030003e00ce4890000040eb00d5fc070051
:10287000103f98001e389000e10f40000b0032001e
:102880009e3890000100e00004003d001e399000d9
:10289000e20f4100090032001e0037001e38900090
:1028a0000000e000090032001a0037000ee8900036
:1028b0000040e80000ef9800160037000ee8900096
:1028c0000040e80000ef9800120037004e489000ea
:1028d00044fd070010ef98001ee890000080fb0008
:1028e000003f98008e389000e28f400006003500cf
:1028f0000e3990000200e000030035000e38900011
:102900000000e000030032000ee890000040e80004
:1029100000ef98004e4890000040e800404f9800bb
:10292000cdff37000ee890000004e00003003a00fd
:10293000c0cbb300f5fc07006bff3700f0cdb30050
:10294000f2fc070068ff370010c0b30006fc070068
:102950000080fb000100200000379800113798002c
:102960000e3190009e3190002000200001002000d8
:10297000800f5100818f590003003200c0ccb3009a
:10298000e2fc070058ff37008040eb0050c0b30066
:102990008cfc07000000e00003003200f0cdb30023
:1029a000dafc070050ff37000040eb000dfd070088
:1029b000503798005e309000e20f50000300320064
:1029c000f0cdb300d1fc070047ff370030c0b300a3
:1029d000cefc070000c8bf00ccfc070001c8bf0048
:1029e000cafc0700018020009140780001c8bf00a8
:1029f00000c040006340400010ef98001ee89000c7
:102a0000c2fc070038ff370010c0b300d6fb070038
:102a10000080fb000100200000379800113798006b
:102a20000e3190009e3190004000200001002000f7
:102a3000800f5100818f590003003200c0ccb300d9
:102a4000b2fc070028ff370011c0b30000c1b3007b
:102a50005cfc07000000e00003003200f0cdb30092
:102a6000aafc070020ff370010c0b300ddfc070000
:102a700010ef98001ee89000e14f50000300320074
:102a8000f0cdb300a1fc070017ff370050c0b30022
:102a90009efc070000c8bf009cfc070000c8bf00e8
:102aa0006540400099fc07000fff37000040eb0035
:102ab000404f98004e489000e44f50000b003e00fd
:102ac0004e4890000080fb0001802000010440007f
:102ad00010c0b300a4fb0700004c78004e489000e3
:102ae0000040e800404f9800f2ff37000040eb0044
:102af00010ef98000040eb00404f98004e489000c7
:102b0000e44f500010003e004e4890000080fb0053
:102b10000180200001014000818e29004e48900074
:102b20000080fb0061407800924f100002003200ec
:102b300010c0b30010ef98004e4890000040e8002d
:102b4000404f9800edff37001ee89000e14f500025
:102b500003003a00c0ccb3006cfc0700e2fe370073
:102b600011c0b30010c1b30016fc07000000e00064
:102b700003003200f0cdb30064fc0700dafe37003a
:102b8000c0cbb30061fc0700d7fe370010c0b30014
:102b900075fb07000080fb00010020000037980053
:102ba0001137980010c0b3006ffb07000080fb00d6
:102bb0000100200020379800313798000e30900037
:102bc0009e309000e00f5000e08f58000700320068
:102bd0000e3190009e319000100020000100200076
:102be000800f5100818f590009003a000e3090008b
:102bf0009e30900067014000e08148002e30900038
:102c0000be309000800f5100818f590003003200c8
:102c1000c0ccb3003dfc0700b3fe37000e3090007f
:102c20009e309000e00f5000e08f580003003a0003
:102c300042c0b30042f7980002003700c0c0b300a2
:102c400040f798008040eb004ef09000ddfb07005d
:102c50000000e00003003200f0cdb3002bfc0700c1
:102c6000a1fe3700c0cbb30028fc07009efe370052
:102c700010c0b3003cfb07000080fb0001002000f7
:102c8000003798001137980010c0b30036fb0700da
:102c90000080fb00010020002037980031379800a9
:102ca0000e3090009e309000e00f5000e08f5800f2
:102cb0000e0032000e3190009e3190001000200076
:102cc00001002000800f5100818f59000700320061
:102cd0000e3190009e319000200020000100200065
:102ce000800f5100818f590009003a000e3090008a
:102cf0009e30900068014000e08148002e30900036
:102d0000be309000800f5100818f590003003200c7
:102d1000c0ccb300fdfb070073fe3700619d2900a6
:102d20000e3090000080400021c0b30010407800b9
:102d3000a4fb07000000e00003003200f0cdb30068
:102d4000f2fb070068fe3700c0cbb300effb0700c3
:102d500065fe37000040eb00404f98004e48900061
:102d6000e44f50000b003e004e4890000080fb00f6
:102d7000018020000104400010c0b300fafa0700ef
:102d8000004c78004e4890000040e800404f98000a
:102d9000f2ff370010c0b300f3fa07000080fb0019
:102da00001002000003798001137980010c0b300d0
:102db000edfa07000080fb0001002000203798009a
:102dc000313798000040eb0010ef98000040eb0016
:102dd00000ef98000040eb00404f98004e489000f4
:102de000e44f500017003e004e4890000080fb006a
:102df00002802000820040000ee890001140400058
:102e000000ef98004e4890000080fb0001802000f9
:102e100001014000d18e29004e4890000080fb0047
:102e200061407800924f10000200320010c0b300e1
:102e300010ef98004e4890000040e800404f980086
:102e4000e6ff37008ee890000ee0900000c04000e2
:102e50006940400000ef98001ee89000e14f5000ec
:102e60000f0032000e3190009e3190007000200063
:102e700001002000800f5100818f590008003c00a4
:102e80000ee890000081fb00030020002e3090002f
:102e9000be309000820f5000838f58000300320034
:102ea000c0ccb30099fb07000ffe3700919d2900ad
:102eb0000e309000008040008040eb001040780011
:102ec00040fb07000000e00003003200f0cdb3003b
:102ed0008efb070004fe3700c0cbb3008bfb07005e
:102ee00001fe370010c0b3009ffa07000080fb000e
:102ef0000100200000379800113798000e31900033
:102f00009e319000a000200001002000800f5100a1
:102f1000818f590003003200c0ccb3007bfb070057
:102f2000f1fd370011c0b300f0c0b30025fb07006e
:102f30000000e00003003200f0cdb30073fb070097
:102f4000e9fd370010c0b300a6fb0700503798001a
:102f50005e309000e50f500003003200f0cdb3006a
:102f60006afb0700e0fd3700b0c0b30067fb070055
:102f70000040eb0010ef98000040eb00404f98003d
:102f80004e489000e44f500011003e004e48900023
:102f90000080fb0002802000820040001ee89000bc
:102fa0001140400010ef98004e4890000080fb0058
:102fb00001802000010040001040780053fb070012
:102fc0004e4890000040e800404f9800ecff37006a
:102fd0001ee890006b4040004cfb0700c2fd37002c
:102fe00010c0b30060fa07000080fb000100200061
:102ff00000379800113798000ee090006c404000b8
:1030000010ef98000040eb00404f98004e489000b1
:10301000ef4f500012003e004e4890000080fb0031
:10302000028020000204400010c0b3004efa0700e6
:10303000004c78004e4890000080fb000280200089
:10304000820040001ee890001140400010ef980000
:103050004e4890000040e800404f9800ebff3700da
:1030600010c0b30040fa07000080fb000100200000
:1030700020379800313798001ee890000081fb004f
:10308000030020002e309000be309000820f5000d0
:10309000838f580007003a000e3190009e31900057
:1030a0001000200001002000800f5100818f590086
:1030b00003003400c0ccb30014fb07008afd3700c6
:1030c0000000eb00503798000040eb00404f9800a4
:1030d0004e489000ef4f50002d003e005e309000b3
:1030e0000000e0002a003a0021c0b30060c0b30035
:1030f000b4fa0700800078005e30900001004000c4
:10310000503798000e3090009e3090000201200051
:103110000202b8000001eb000283b900050178004b
:1031200006014100030120000388b90000014100ad
:10313000820278004e4890000040420021c0b30057
:10314000a0fa0700800078005e3090000100400087
:10315000503798004e4890000080fb00018020000e
:103160000100400021c0b3001040780095fa07002c
:10317000800078005e3090000100400050379800d9
:103180004e4890000040e800404f9800d0ff3700c4
:1031900021c0b30070c0b3008afa07008000780035
:1031a0005e30900001004000503798005e30900083
:1031b0000000e00003003200f0cdb300d3fa0700b6
:1031c00049fd3700c0cbb300d0fa070046fd3700f9
:020000040000fa
:0200000401f009
:04000000fdff000000
:020000040000fa
:0200000401f009
:04000400ff7f00007a
:020000040000fa
:100008006a1a00006a1a00006a1a00006a1a0000d8
:100018006a1a00006a1a00006a1a00006a1a0000c8
:100028006a1a00006a1a00006a1a00006a1a0000b8
:100038006a1a00006a1a00006a1a00006a1a0000a8
:100048006a1a00006a1a00006a1a00006a1a000098
:100058006a1a00006a1a00006a1a00006a1a000088
:100068006a1a00006a1a00006a1a00006a1a000078
:100078006a1a00006a1a00006a1a00006a1a000068
:100088006a1a00006a1a00006a1a00006a1a000058
:100098006a1a00006a1a00006a1a00006a1a000048
:1000a8006a1a00006a1a00006a1a00006a1a000038
:1000b8006a1a00006a1a00006a1a00006a1a000028
:1000c8006a1a00006a1a00006a1a00006a1a000018
:1000d8006a1a00006a1a00006a1a00006a1a000008
:1000e8006a1a00006a1a00006a1a00006a1a0000f8
:0800f8006a1a00006a1a0000f8
:020000040000fa
:100108006a1a00006a1a00006a1a00006a1a0000d7
:100118006a1a00006a1a00006a1a00006a1a0000c7
:100128006a1a00006a1a00006a1a00006a1a0000b7
:100138006a1a00006a1a00006a1a00006a1a0000a7
:100148006a1a00006a1a00006a1a00006a1a000097
:100158006a1a00006a1a00006a1a00006a1a000087
:100168006a1a00006a1a00006a1a00006a1a000077
:100178006a1a00006a1a00006a1a00006a1a000067
:100188006a1a00006a1a00006a1a00006a1a000057
:100198006a1a00006a1a00006a1a00006a1a000047
:1001a8006a1a00006a1a00006a1a00006a1a000037
:1001b8006a1a00006a1a00006a1a00006a1a000027
:1001c8006a1a00006a1a00006a1a00006a1a000017
:1001d8006a1a00006a1a00006a1a00006a1a000007
:1001e8006a1a00006a1a00006a1a00006a1a0000f7
:0801f8006a1a00006a1a0000f7
:020000040000fa
:1031d000dead0000beef00003eb10000d0230000d5
:1031e0007a690000badb0000eeef00004a530000ed
:1031f0005441000020460000414900004c200000de
:103200002020000000530000746100003a200000fc
:103210002530000032580000202500006325000002
:10322000632500006325000063250000632500007e
:103230006325000063250000630000004445000092
:10324000505400004820000046410000494c000056
:10325000202000002020000020200000004400006a
:103260004550000054480000204c0000454e00002e
:1032700020460000414900004c0000004465000069
:1032800070740000683a0000202500003032000011
:103290005820000025300000325800002020000097
:1032a0002020000020000000544500004d50000088
:1032b00020460000414900004c2000002020000072
:1032c000202000002020000000540000454d000098
:1032d000502000004c4500004e20000046410000f8
:1032e000494c00002020000020000000543a00005b
:1032f0002530000032580000202500003032000048
:103300005820000025300000325800002025000021
:1033100030320000582000002530000032580000f4
:1033200000490000646500006e7400002049000040
:103330005251000020250000643a000020200000c7
:1033400020200000003c000057720000697400005b
:103350006520000046610000696c00003e2000000e
:1033600020200000200000003c52000065610000a9
:103370006420000046610000696c00003e200000ef
:1033800020200000202000000044000069610000af
:10339000676e00006f730000746900006320000016
:1033a0004d6f000064650000200000000908000067
:1033b0001213000014150000161700001819000061
:1033c0001a0a00000d4d00006173000074650000d2
:1033d00072200000737400006172000074690000c4
:1033e0006e6700002e2e00002e0a00000d00000067
:1033f00020200000202000002020000020200000cd
:1034000020200000202000002020000020200000bc
:103410000044000069610000676e00006f730000e7
:1034200074690000633f00000053000074610000f5
:1034300072740000696e0000672000007570000063
:0c3440002e2e00002e20000020000000b6
:020000040000fa
:10344c00000800003c000000000000005e080000c6
:10345c001200000002000000202b2d002330000081
:10346c000100020000040000080010000000000031
:10347c00700800000800000002000000686a6c0080
:10348c00747a4c00000000003c0800002200000090
:10349c00020000003031320033343500363738004a
:1034ac0039616200636465006600300031323300bc
:1034bc003435360037383900414243004445460024
:0834cc000000000000000000f8
:020000040000fa
:0434d4000000fe00f6
:00000001FF
