:020000040000fa
:080000000401040000000000ef
:020000040000fa
:100200000000000000000000ef95200080ff2000ab
:100210000001880000000000050007000c00070036
:1002200066110200000000000040da000000fe003d
:100230004440a900800120000000e00003003200db
:1002400000002000a00188004440a8000000060033
:1002500080242100010020001600370062004000c9
:10026000e0804800910188009001ba0062004000df
:10027000e0804800910188009002ba0062004000ce
:10028000e08048000002eb006028e10005003a0031
:100290008301e90007003300038009000059eb00e7
:1002a000040037006128e100010032000082eb0009
:1002b00005000700910188001001ba000200e0006b
:1002c000e6ff3a00000005009101880080027800f6
:1002d00062004000e08048003559ba008301e9001f
:1002e000080032002559ba008301e90005003200f8
:1002f0000400e000f4ff320015d9ba008301e900e0
:10030000f1ff3a0000000600881f78000204780020
:1003100014000700080040004f04780000000600a9
:100320000000fa00881f7800000478003fb99700a9
:10033000ea81570080007800401820001000070074
:10034000800078000000e000020035000040eb0073
:1003500000f47800010078004f0478000080fa0073
:1003600000000600800178000200e0000300320077
:10037000b15978000201e900fdff3a0000000600d3
:100380006200fa00889fbe008a9fbe000004be0083
:1003900002057800830078006a805700ad000700ee
:1003a000f88f9f0089979f000000eb00909f9f00af
:1003b0001a80fb008005fb000000ea00cf04de008d
:1003c0000904780050022000808f550001003a0097
:1003d0000904e9000800e0000c0034000f909700c9
:1003e000080178008a007800ff8997000300010067
:1003f00080979f008080eb000000e00090003200ba
:100400001f98970008004000909f9f000905450035
:1004100050022000808f5500040032000b00e000e5
:10042000e3ff3a009f989700850037000000eb003b
:10043000f0979f00e0979f00d0979f00c0979f0084
:10044000b0979f00a0979f00b09f9f0009003700c2
:10045000c0932000008050000000d00021942000b4
:1004600001004000bf98970090807000b19f9f00ee
:100470000a05e8009a00fb00c093200077000700ff
:10048000800078000000e000f1ff3a00a0c2b30055
:100490009a4f10000e003a003fb897000080e90024
:1004a000b0bf9f0010007800a09f9f000000e000f8
:1004b00005003d000000ea00a09f9f003f989700c4
:1004c0000020a000b09f9f000a05e800110037003f
:1004d000a19f9f000b003700af989700f0ff270007
:1004e000808f5000060032006a09b9001a00fb0034
:1004f0000200400001fd2f0001004000a09f9f006e
:100500000a05e8001a00fb005c0007000000e0009c
:10051000f1ff3a00e0c2b3009a4f1000030032002e
:100520000080eb00809f9f001c003700a0c2b3003a
:10053000da4f100007003a003fb897000080e9004a
:10054000b0bf9f0010007800809f9f000a05e80060
:10055000120037000000eb00809f9f000b00370067
:100560008f989700f0ff2700808f50000600320020
:100570006a09b9001a00fb000200400001fd2f00cb
:1005800001004000809f9f000a05e8001a00fb0060
:100590003a0007000000e000f1ff3a009a00fb007b
:1005a000609520002d0007008040eb000000e00077
:1005b00001003200ba407800817f9f0080c6b300fe
:1005c00080cf500004003a009acf100002003a0099
:1005d00066405000070037008f789700c0c6b30010
:1005e00080cf500005003a009acf100003003a0077
:1005f00065404000807f9f000a05e800a0fb2f00b7
:10060000008447003a01fb0088017800ea80570027
:1006100060f92f000f0040001e0007000000e000fe
:1006200006003a008800780060f92f000f004000b3
:100630009e0107000000e0005dff3d008080eb00b0
:10064000010078004f05be004f04be000080fa0094
:1006500000000600010878000000060090cf10009e
:10066000050032001004e00001003a00000005001f
:10067000d0cf1000fbff3a00000006000003b100dd
:10068000030035009000b10001003c00100005009f
:1006900000000500889fbe008a1f780000047800d3
:1006a0000102780002457800830478000200fb0014
:1006b000cf80de005002b1000180b1003205200081
:1006c000820f5000e08f58006b013e000060010077
:1006d00063013700680137006701370066013700a2
:1006e000650137006401370063013700620137009c
:1006f00061013700600137005f0137005e0137009c
:100700005d0137005c0137005b0137005a0137009b
:10071000590137005801370057013700560137009b
:10072000550137005401370053013700520137009b
:1007300051013700500137004f0137004e0137009b
:100740004d0137004c0137004b0137004a0137009b
:10075000490137004801370047013700460137009b
:10076000450137004401370043013700420137009b
:1007700041013700400137003f0137003e0137009b
:100780003d0137003c013700210137003a013700b5
:100790003901370038013700370137008100370051
:1007a000350137003401370033013700320137009b
:1007b00031013700300137002f0137002e0137009b
:1007c0002d0137002c013700150037001c003700c1
:1007d000290137002801370027013700260137009b
:1007e00017003700240137002301370022013700aa
:1007f00021013700c20037006a003700f5003700da
:100800001d0137001c013700010137001a013700b4
:100810006400370018013700170137006100370006
:100820006e01440012007800808141009480e9004c
:10083000010a78000009e8009149780017013700a3
:1008400028619000c0c6b300804f51000a003a00f2
:100850009400780064805000000a78001000be0008
:100860004f89de00cf91de000002be000203780057
:10087000820378001600370010c7b300804f510084
:1008800003003a00140178006800510005003700a9
:1008900094007800a0c6b300804f510005003a00d4
:1008a00068805000000a78003002be002003be00bd
:1008b000070037000180e900000a78001000780086
:1008c00000027800cfa2de000503780086037800de
:1008d000049cbe000694be00a860900080c6b300d1
:1008e00080cf50000f00320020c6b30080cf5000f0
:1008f00006003a00184078000000fb00cf80de00c0
:1009000001017800820178000a00370040c7b30077
:1009100080cf5000030032006640400080cf50007e
:1009200006003a0018007800cf80de000101780050
:1009300082017800009cbe000294be003800be0018
:100940002801be00e00f5000e08f5800e00f590072
:10095000e08f590004003d006e01440092007800d1
:10096000d0c2b3000c003700081090000018a3009c
:10097000040032006e01440092007800b0c2b3005f
:10098000050037000008a300580032006e01440043
:100990009200780000c2b30080f478000109e800fa
:1009a0005200370028619000c0c6b300804f51004c
:1009b00006003a009400780064805000000a780035
:1009c0001002be006033b8001600370010c7b30035
:1009d000804f510003003a00140178006800510074
:1009e0000500370094007800a0c6b300804f510086
:1009f00005003a0068805000000a78003002be000e
:100a00002003be00070037000180e900000a7800db
:100a10001000780000027800050020000600200089
:100a200007002000049cbe000694be00a860900051
:100a300080c6b30080cf50000f00320020c6b30044
:100a400080cf500006003a00184078000080fb007c
:100a50000100200002002000030020000a003700ef
:100a600040c7b30080cf5000030032006640400012
:100a700080cf500006003a001800780001002000e6
:100a80000200200003002000009cbe000294be0073
:100a9000081090000038a300140032003800be0097
:100aa0002801be00e00f5000e08f5800e00f590011
:100ab000e08f59000d00320080c7b300804f550011
:100ac0000300320080c5b300804f550007003a0094
:100ad0006e0044009000780002c3b30082f47800f6
:100ae0008100e8008af478000108e80078009000ae
:100af00000804400600498008a407800410037007c
:100b0000286090008000fb00c0062000808f50000d
:100b1000230032000a003c0064005000808f500027
:100b20002600320004003c0066005000808f500018
:100b30000b00320021003700a0062000050037001e
:100b400040072000808f50001c0032001b003c003a
:100b500063005000808f50000700320017003700fc
:100b60001480e900000a780010007800485c9000ca
:100b700008487800490037001480e900000a78002e
:100b80001002780068089000cf80de000101780034
:100b900082017800009abe000292be003f0037003a
:100ba0001480e900000a78001001780068089000bd
:100bb000cf80de000089be00380037001480e900d5
:100bc000000a780010007800680c9000080878008f
:100bd000320037001480e900000a78001000780025
:100be000cf80de000101780082017800009cbe0009
:100bf0000294be00780090000080440060049800d9
:100c000081c7b30008007800f60007002300370012
:100c10001480e900000a7800100078006004980051
:100c2000580990000200e00002003d009f0107000b
:100c3000090037008000eb00a30107008000780066
:100c40000000e000030032006800900000805000c7
:100c50000100370058089000100c98000f00370072
:100c60006e0144009200780050c2b30080f1780019
:100c70000109e80009003700ee0044001100780087
:100c8000808144000a4278008008e8000a04e000fd
:100c900001003a0054c2b300844978000000eb0020
:100ca0004f0578004f04be00000006000400fa0063
:100cb000889fbe008a9fbe008c1f780000047800c9
:100cc0000106780070089000f800900001005000c4
:100cd0008808900001005000980890000100500022
:100ce000a808900001005000b808900001005000d2
:100cf000c8089000810550000002220090bf9f00ac
:100d000000032300a0bf9f00081090000028a3004c
:100d100018003a000b00e000160034000b057800c4
:100d20008a047800e20f55000100360029002000f7
:100d30000900e0000c00340058009000c801900049
:100d400009017800ee80570003000100500498006c
:100d50008080eb000000e0009c00320068089000fa
:100d600009004000600c9800090555004240a900a8
:100d7000ebff3c00780190000200e0000c00340022
:100d800058009000c80190008c007800030001001a
:100d9000500498008080eb000000e0008b003200df
:100da00068089000f800900001004000600c980076
:100db000080890000000e0001600340000057800ec
:100dc0008a047800e20f5500010036002900200057
:100dd0000900e0000c00340058009000c8019000a9
:100de00009017800ec8057000300010050049800ce
:100df0008080eb000000e000740032006808900082
:100e000009004000600c9800090555004240a90007
:100e1000ebff3c00180990000200e0000c003400d9
:100e2000e800900058009000c80190000300010005
:100e3000500498008080eb000000e0006300320066
:100e4000680890009808900001004000600c98002d
:100e5000280890000000e00016003400000578002b
:100e60008a047800e20f55000100360029002000b6
:100e70000900e0000c00340058009000c801900008
:100e800009017800ec80570003000100500498002d
:100e90008080eb000000e0004c0032006808900009
:100ea00009004000600c9800090555004240a90067
:100eb000ebff3c00380990000200e0000e00340017
:100ec000e8009000180890008080400058009000d2
:100ed000c801900003000100500498008080eb00de
:100ee0000000e0003900320068089000b808900067
:100ef00001004000600c9800480890000000e000ed
:100f000016003400000578008a047800e20f5500ce
:100f100001003600290020000900e0000c00340028
:100f200058009000c801900009017800ec8057003b
:100f300003000100500498008080eb000000e000f6
:100f4000220032006808900009004000600c980000
:100f5000090555004240a900ebff3c000810900035
:100f60000028a300180032000b00e0001600340037
:100f70000b0578008a047800e20f55000100360066
:100f8000290020000900e0000c0034005800900007
:100f9000c801900009017800ee80570003000100ad
:100fa000500498008080eb000000e0000700320051
:100fb0006808900009004000600c98000905550081
:100fc0004240a900ebff3c008000eb0001007800ec
:100fd0004f0678004f05be004f04be000080fa00a7
:100fe000000006006f02b000889fbe008a9fbe000e
:100ff0008c9fbe008e1f780080067800b092200083
:10100000b0b79f0080c5b30080cf5000020032000f
:10101000a2912000b2b79f0083002000c3b79f00b9
:10102000f0c6b30080cf50000a0032006940400093
:1010300080cf500005003200a4002000c4b79f00fc
:1010400080c5b30080cf500002003a0000012000ac
:10105000c0b79f008e0120003d04be002d05be00dc
:1010600040c6b30080cf500003003200654040000e
:1010700080cf50000a003a00e00f5400e08f5c007f
:10108000e00f5d00e08f5d0005003d000800be0040
:101090000a01be00950007000205be000004be0064
:1010a000e00f5400e08f5c00e00f5d00e08f5d001a
:1010b00003003a005d0890000000e0000c003200e0
:1010c0007e012000cfb0970001027800cfa2de00a1
:1010d00005037800860378000800be000a01be0000
:1010e000180107003fb2970064407800d0e79f00e6
:1010f0004fb09700cf80de000101780082017800b8
:10110000d0b79f00e1b79f00f2b79f0083bf9f0059
:101110000203be000002be000800be000a01be00bd
:1011200001010700809ebe008296be00e00f5000c5
:10113000e08f5800e00f5900e08f59002200340082
:101140000e00e000200034003d00be002d01be0076
:101150005fb29700efb297007fb397008fbb970005
:10116000fc0007000205be000004be000e07e900f7
:10117000e1fc2f008f804000010647005fb297001e
:10118000efb297007fb397008fbb97000800be00b7
:101190000a01be008c0107001d0010003fb197003e
:1011a000624e7800889ebe008a96be00e00f540012
:1011b000e08f5c00e00f5d00e08f5d000200340016
:1011c0000e00e000e0ff3c00cfb19700e88f510037
:1011d00010003a000d1090000038a3000d003200fe
:1011e000f70f570006003e00e4fc2f000e024200fd
:1011f000e4c07f0000c3b30080cf50000500320080
:101200000e07e90000c3b300e1fc2f008e80400010
:1012100080f07f0078011700920e98006d0090001a
:10122000e3fc2f008f8141008e8041004dfc0700c0
:101230001d0e90005d089000800f560006003d00d6
:101240000c005000800e98000d1090000040a1008e
:10125000801698000f0037000000e0000d003d00f0
:101260000d10900074006000f00f500009003a006b
:101270007d089000fd009000010050008d08900056
:10128000010050000c0750004240a900010034004a
:101290008e0e98004f0778004f06be004f05be0027
:1012a0004f04be006f02b10000000600800078000d
:1012b0001004e000020032005104e000feff3a009a
:1012c00000805000000006000200e000050032002f
:1012d00090cf1000040032000000e8000201e90095
:1012e000fbff3a000000eb00000006006000100069
:1012f000e080180060011900e0811900000006007c
:10130000881f7800000478005001be004000be0035
:101310000000420081804a0002014b0083814b00a3
:10132000009cbe000294be00dc00070003003100f8
:10133000480090000000e800400498004f04780046
:1013400000000600889fbe00000478008004eb00c7
:101350005001be004000be00d00007000100310077
:101360001900200004005000858058000601590033
:1013700087815900009cbe000294be004800900086
:1013800009005000400498004f04be000000060011
:101390001200fa00889fbe008a9fbe008c1f780052
:1013a0000205be000004be00f4b79f0085bf9f0089
:1013b00096bf9f00a7bf9f000000eb00e0b79f0013
:1013c000d0b79f00c0b79f00b0b79f00a0b79f00e5
:1013d0000006eb005fb197006fb097008000d0006f
:1013e0000000e00015003d00e1b79f00010078001b
:1013f0000200e00001003d000000a000ac0007007a
:1014000001003d000000a000af00070001003d000a
:101410000000a000b200070001003d000000a00095
:101420008100070001003d000000a000b20007009d
:101430007c805700b2ff070014003700e1b79f001f
:10144000010078000200e00001003d000000a00063
:101450009700070001003d000000a0009a0007006f
:1014600001003d000000a0009d00070001003d00bc
:101470000000a0006c00070001003d000000a0007b
:101480009d0007007c805700aeff07006fb09700fb
:101490000000e000070035001000200001002000df
:1014a0006011b80008047000898470000a0571009a
:1014b0008b8571000c06e800f0032000800f5600b9
:1014c000c4ff34006fb097000000e00006003d004c
:1014d0007fb297008fba97001fbb9700afbb9700f2
:1014e0007c80570086ff07000802be000a03be008a
:1014f0006fa897000000e00004003a002fb29700a8
:10150000bfb297004fb39700dfb397000400be004f
:101510000601be004f0678004f05be004f04be0016
:101520000080fa0000000600881f780018002000e4
:10153000881f780096ff07008f87e9004f04780026
:1015400000000600801feb0091ff07008f87e90075
:10155000000006000800fa00889fbe008a9fbe00b7
:101560008c1f78006e00070005003d004300070057
:10157000300007000c003d00330007000b0037006f
:10158000e00f5200e08f5a00e00f5b00e08f5b003d
:1015900006003d000400be000601be0053ff070028
:1015a0000205be000004be001c0020002c00070045
:1015b000ddff07000c00e000010032004bff0700d8
:1015c0004f0678004f05be004f04be000080fa00b1
:1015d000000006000800fa00889fbe008a9fbe0037
:1015e0008c1f78004e00070002003d001c00200008
:1015f000220007000f00070001003d001200070055
:1016000017000700cfff07000c00e00001003200c8
:1016100036ff07004f0678004f05be004f04be009e
:101620000080fa000000060090b79f000100d00083
:1016300080b79f00e00f5400e08f5c00e00f5d007a
:10164000e08f5d00000006000800be000a01be0039
:1016500026ff07000205be000004be0000000600d1
:101660000802be000a03be005fb09700efb097000b
:101670007fb197008fb99700000006001bff07009d
:101680000100070000000600b0b79f00c1b79f002f
:10169000d2b79f00e3b79f00000006000400e100fe
:1016a0000588e1000690e1000798e10000000600cf
:1016b000c0b79f000200d000b0b79f00afb0970046
:1016c0000100e00000000600b0b79f000100d0005c
:1016d000a0b79f009fb097000100e0000000060047
:1016e000a0b79f000100d00090b79f008fb0970077
:1016f0000100e0000000060080b79f000804d00051
:101700008984d2000a85d2008b85d2005fb297000f
:10171000efb297007fb397008fbb970000000600e1
:10172000d9ff07000605be000404be000006eb005a
:10173000e00f5000e08f5800e00f5900e08f590093
:1017400000000600889fbe008a9fbe008c9fbe00de
:101750000404b8000506b8008904460060854e0000
:101760000606b8000a054600e0854e000706b800e8
:101770008b054600040eb800890446000a854e0019
:10178000050eb8000a0546008b854e00060eb8000f
:101790008b0546000416b8000a0546008b854e00ee
:1017a0000516b8008b054600041eb8008b054600e0
:1017b0000800be000a01be004f06be004f05be0075
:1017c0004f04be00000006000800fa00889fbe001b
:1017d0008a9fbe00170007000605be000404be0075
:1017e000e00f5200e08f5a00e00f5b00e08f5b00db
:1017f00008003d000400be000601be00bbfe07005d
:101800000205be000004be000f000700b7fe07007f
:10181000080007000802be000a03be000a00070015
:10182000c8ff07004f05be004f04be000080fa004d
:1018300000000600e0b79f00f1b79f0082bf9f0045
:1018400093bf9f00000006006fb09700ffb09700a5
:101850000fb997009fb99700000006000000fa003a
:101860000080fa00000006000600fa0006a2a900a7
:101870000682a8006000b800008fbe0006c2bf004c
:101880000080fb004400de000080fb00610060007f
:101890000000e0000c0032001000200001002000d9
:1018a0001e0f40005e974800106a280011002000bb
:1018b000be0f1000ae8f1800f0ff3a00f10f2000ad
:1018c00021079800020037000000eb002007980075
:1018d0002e0090000080fa00000006000000fa00d0
:1018e000de42a800de62a80007e2a900f054200052
:1018f0002010880000202100301088000040eb00fc
:1019000000e2b7000040eb0002e2b700002029002f
:10191000301088000080fa00000006000600fa007f
:101920000662a800000000006000b800008fbe0042
:1019300008c2bf000080fb000000d1000080fb0057
:10194000610060000000e0000c003a001000200080
:10195000010020001e0f40005e974800106a28001a
:1019600011002000be0f1000ae8f1800f0ff3a00eb
:10197000f10f2000210798000300370000c2bf00cc
:101980000080fb00200798002e0090000080fa00e5
:10199000000006000600fa006000b800008fbe00dc
:1019a0000602a80006c2bf000080fb0061006000c4
:1019b0000000e0000c0032001000200001002000b8
:1019c0001e0f40005e974800106a2800110020009a
:1019d000be0f1000ae8f1800f2ff3a00f10f20008a
:1019e00021079800020037000000eb002007980054
:1019f0002e0090000080fa00000006000600fa00a9
:101a00006000b800008fbe000622a80006c2bf001a
:101a10000080fb000000d1000080fb00610060003e
:101a20000000e0000c003200100020000100200047
:101a30001e0f40005e974800106a28001100200029
:101a4000be0f1000ae8f1800f0ff3a00f10f20001b
:101a500021079800020037000000eb0020079800e3
:101a60002e0090000080fa00000006000600fa0038
:101a70000642a8006000b800008fbe0006c2bf008a
:101a80000080fb004200de000080fb00610060007f
:101a90000000e0000c0032001000200001002000d7
:101aa0001e0f40005e974800106a280011002000b9
:101ab000be0f1000ae8f1800f0ff3a00f10f2000ab
:101ac00021079800020037000000eb002007980073
:101ad0002e0090000080fa00000006000800fa00c6
:101ae000004f78001e40780002e2b7006000b800a6
:101af000100798002107980008c2bf000080fb0073
:101b0000610060000000e0000f0032001e00900045
:101b1000ae00900061004000e08048000001be007f
:101b20001207980023079800106a2800110020006f
:101b3000800f5100818f5900efff3a00f00f200015
:101b400030079800020037000000eb0030079800d3
:101b50003e0090000080fa00000006000600fa0037
:101b60006000b800008fbe0009c2bf000080fb000b
:101b70004600de000080fb00610060000000e00025
:101b80000c00320010002000010020001e0f400059
:101b90005e974800106a280011002000be0f100058
:101ba000ae8f1800f0ff3a00f10f200021079800d7
:101bb000020037000000eb00200798002e00900084
:101bc0000080fa00000006000600fa00881f780076
:101bd000000f7800214798002e4090000040e90057
:101be00020479800e14f4000140032001e007800aa
:101bf000000478001e0fe80048ff0700004c780042
:101c000009c2bf000080fb004200de000080fb0034
:101c1000610060000000e000030032000080eb0083
:101c200020079800070037002e4090000004e000d5
:101c3000e9ff32000cff0700e7ff37000000eb0070
:101c4000200798002e0090004f0478000080fa00d2
:101c5000000006000800fa00004f78006000b8009d
:101c60001007980021079800bcff070049ff0700f4
:101c70001e4078000004a00098ff0700b7ff07008f
:101c80006600470021c0b300cfff07006600470091
:101c9000104078000080fb00010020001007980031
:101ca00021079800f0fe070070ff07001e0090005b
:101cb000ae0090000080fa00000006000600fa0066
:101cc000004f78000040eb004ee9b70090c0b30031
:101cd00001e8b7004fc9bf000080fb002007980053
:101ce0002e009000e10f500068003200ae0090001e
:101cf000e18f500004003c002e0190000200e00043
:101d000005003200870037002e009000e20f5000df
:101d10006a003200830037009e80fb0011079800a4
:101d20001e019000e30f51002a0032001e009000b7
:101d3000e30f50000a003c009e009000e18f50002d
:101d4000180032001e019000e10f51001c003c0001
:101d50001e0090000000e0000f003200710037000c
:101d60009e009000f08f50001f0032001e01900076
:101d7000f00f510004003c001e009000ef0f5000d7
:101d80002b003200670037009e009000f18f50005a
:101d90003c003200630037000040eb0000e8b70071
:101da00060003700c0232900801f780010802000c9
:101db0005bf907008f87e90000e8b700590037009a
:101dc00010c0b3004fe9b7000040eb0050e9b70086
:101dd0005400370020c0b3004fe9b7000040eb00cb
:101de00050e9b7004f00370010c0b30000e8b7005b
:101df000401680000074a1000004a20001e8b700b2
:101e0000d4c2bf000080fb004300de000080fb0066
:101e1000610060000000e0004200320001c8bf0025
:101e200001c8b3000140700001e8b7003d00370071
:101e30000040eb00104798001e409000e44f500017
:101e40000d003e001e4090000080fb00128020002c
:101e5000820040001e4090000080fb00c2832000f2
:101e600002004000904878001e4090000040e800ca
:101e700010479800f0ff370050c0b30000e8b700eb
:101e800028003700d1e2a900260037000040eb000f
:101e900050e9b7000040eb004fe9b70010c0b300b5
:101ea00000e8b7001e80fb00118420000100400004
:101eb0001040780001e8b7001a0037005049e200ee
:101ec00002003a001e40780051e9b700009520005a
:101ed00011c0b30090cf100002003a001e407800fd
:101ee00052e9b70050c9bf000040e80050e9b70010
:101ef0000095200021c0b30090cf100009003a00e7
:101f00000040eb0050e9b7000040eb004fe9b7009c
:101f100051c9bf000080fb00128420000200400075
:101f20001e4878000080fa00000006000000fa0059
:101f3000d0168000f2c3b30082406000d4c2bf005c
:101f4000614060004600dd0080c07000d4c2bf0068
:101f50000080fb000000d100614060004700dd0010
:101f600000c070000080fb000080fa000000060046
:101f70000200fa00004f7800c116800000fc2f001c
:101f800000806000c0168800d222a900d202a900f9
:101f9000e116800000fc2f00008160009e80fb00a5
:101fa000f00320000080600000007100e01688004f
:101fb0009e80fb0000042000008060004680de0060
:101fc00061416000612d200091407800e0cfb300b6
:101fd00000c0600002407000d6e2b7009e80fb00a7
:101fe00000082000008060004780de006140600043
:101ff0000041d000612d200091407800d0cfb30087
:1020000000c0600002407000d6e2b7000080fa0015
:10201000000006000000fa00d222a800d202a800a8
:10202000c0168000f103200001007000c016880077
:102030000080fa00000006000400fa000040eb00f7
:10204000004f7800cfc2bf000080fb004500de00db
:102050000080fb00610060000000e00003003a0027
:102060000000eb00100798002c003700dbc2bf0017
:102070000080fb0061006000e10f50000f003a009b
:10208000aaff0700004f7800d1c2a800cdc2a90066
:10209000cfc2bf000080fb004500de000080fb00d7
:1020a000610060000000e000f9ff3a00cdc2a80026
:1020b0001e40780001ff070016003700e294200060
:1020c00092407800014078000080fb0003802000ef
:1020d00003004000104f78008140e800014978007b
:1020e0001e407800a2ff0700d1c2a800cdc2a900ff
:1020f000cfc2bf000080fb004500de000080fb0077
:10210000610060000000e000f9ff3a00c1ff070035
:10211000cdc2a80010002000100798001e009000fb
:102120000080fa00000006000200fa00004f78006c
:102130001e04e00002003a00ca22a8000100370095
:10214000ca42a8000080eb00100888000000eb00e5
:10215000000888008460a9008c60a8000421a90000
:10216000411020009140780000c3b30000c070000f
:1021700004e1b70005e1a8000080fa0000000600b5
:102180000000fa008460a9008c60a900ca22a9009e
:10219000ca42a90005e1a9000080fa00004006003b
:1021a0000000fa00c020a800a3ff07000080fa008a
:1021b000000006000000fa00c020a9000080fa001c
:1021c000000006000000fa00c040a8009aff0700c7
:1021d0000080fa00000006000000fa00c040a900dc
:1021e0000080fa00000006000000fa00ecff070083
:1021f000f4ff0700b109200091407800f0c8b30057
:1022000000c0600001c6b300014070009be0b70051
:1022100085e0a9008de0a8000080fa00000006001b
:102220000000fa007bff0700d902a800cda2a80099
:10223000cdc2a800ecff07000080fa0000000600f5
:102240003600f800809fbe00829fbe00849fbe00c3
:10225000869fbe000000fa0085e0a900c0c0bf0054
:102260000080fb004200de000080fb006100600097
:10227000e10f500006003a00c8c2bf000080fb001a
:10228000610060000000e00001003a00d1e2a90016
:10229000c0c0bf000080fb000000d1000080fb0038
:1022a00061006000e10f500001003a0062ff07008a
:1022b0000080fa004f03be004f02be004f01be0077
:1022c0004f00be003600f900004006000800fa008a
:1022d000d1e2a800cde2a900c602a800c622a8004b
:1022e000c642a800c662a800c682a800c6a2a8006e
:1022f000c6c2a800d262a800c480a800c4a0a800da
:10230000c4c0a800c4e0a8000040eb00004f780063
:10231000f0c0b3009e4f100007003e001e80fb007f
:10232000128420008200400010c4b300804878006e
:102330001e4fe800f6ff37000040eb00004f78002a
:1023400040c0b3009e4f100007003e001e80fb00ff
:10235000c2832000820040000040eb0080487800eb
:102360001e4fe800f6ff37005cfd0700acff0700da
:102370003afd07000080eb00401588006000b800bf
:1023800010079800210798001e019000ae019000f0
:10239000f070220001002000800f5100818f590051
:1023a00007003c001e009000ae009000610040005d
:1023b000e08048001007980021079800f2ff3700de
:1023c00000c9b30023fe0700604798006e409000ec
:1023d000e14f400001003a0040fd07006e409000d0
:1023e0003ce8b700e0c6b3001afe0700604798005b
:1023f0006e409000e14f400001003a0037fd0700b9
:102400006e4090003de8b700a0ceb30011fe07007b
:10241000604798006e409000e14f400001003a0094
:102420002efd07006e4090003ee8b700e0ceb300fe
:1024300008fe0700604798006e409000e14f4000a2
:1024400001003a0025fd07006e4090003fe8b7000c
:1024500080ceb300fffd0700604798006e409000fb
:10246000e14f400001003a001cfd07006e40900063
:0824700040e8b700c1ff37008e
:020000040000fa
:0200000401f009
:04000000fcff000001
:020000040000fa
:0200000401f009
:04000400ff7f00007a
:020000040000fa
:100008009812000098120000981200009812000040
:100018009812000098120000981200009812000030
:10002800981200009812000098120000c0100000fa
:100038009812000098120000981200009812000010
:100048009812000098120000981200009812000000
:100058009812000098120000981200002011000069
:1000680098120000981200009812000098120000e0
:1000780098120000981200009812000098120000d0
:1000880098120000981200009812000098120000c0
:1000980098120000981200009812000098120000b0
:1000a80098120000981200009812000098120000a0
:1000b8009812000098120000981200009812000090
:1000c8009812000098120000981200009812000080
:1000d8009812000098120000981200009812000070
:1000e8009812000098120000981200009812000060
:0800f8009812000098120000ac
:020000040000fa
:10010800981200009812000098120000981200003f
:10011800981200009812000098120000981200002f
:10012800981200009812000098120000c0100000f9
:10013800981200009812000098120000981200000f
:1001480098120000981200009812000098120000ff
:100158009812000098120000981200002011000068
:1001680098120000981200009812000098120000df
:1001780098120000981200009812000098120000cf
:1001880098120000981200009812000098120000bf
:1001980098120000981200009812000098120000af
:1001a800981200009812000098120000981200009f
:1001b800981200009812000098120000981200008f
:1001c800981200009812000098120000981200007f
:1001d800981200009812000098120000981200006f
:1001e800981200009812000098120000981200005f
:0801f8009812000098120000ab
:020000040000fa
:10247800544d00005020000053540000412000003b
:08248800505700005200000053
:020000040000fa
:102490004e090000080000000200000000000000db
:1024a0000000000000000000000800001a01000009
:1024b000000000003c0900001200000002000000c3
:1024c000202b2d002330000001000200000400003a
:1024d000080010000000000056090000080000007d
:1024e00002000000686a6c00747a4c000000000072
:1024f0001a09000022000000020000003031320002
:102500003334350036373800396162006364650062
:102510006600300031323300343536003738390048
:102520004142430044454600000000000000000016
:020000040000fa
:042530000000fe00a9
:00000001FF
