:020000040000fa
:080000000001040000000000f3
:020000040000fa
:10020000cf83200080ff2000000188000000000054
:10021000050007000c000700880402000000000031
:100220000040da000000fe004440a90080052000e4
:100230000000e0000300320000002000a001880060
:100240004440a8000000060000ab20000100200090
:100250001600370062004000e080480091018800ed
:100260009001ba0062004000e080480091018800df
:100270009002ba0062004000e08048000002eb00fb
:100280006028e10005003a008301e900070033001f
:10029000038009000059eb00040037006128e100e9
:1002a000010032000082eb00050007009101880088
:1002b0001001ba000200e000e6ff3a00000005006d
:1002c000910188008002780062004000e0804800d0
:1002d0003559ba008301e900080032002559ba00f7
:1002e0008301e900050032000400e000f4ff320061
:1002f00015d9ba008301e900f1ff3a0000000600b9
:100300000000fa00d0168000f2c3b3008240600003
:10031000d4c2bf00614060004600dd0080c07000b4
:10032000d4c2bf000080fb000000d100614060002b
:100330004700dd0000c070000080fb000080fa0074
:10034000000006000200fa00004f7800c11680008d
:1003500000fc2f0000806000c0168800d222a90097
:10036000d202a900e116800000fc2f00008160008d
:100370009e80fb00f0032000008060000000710000
:10038000e01688009e80fb000004200000806000d2
:100390004680de0061416000612d200091407800c0
:1003a000e0cfb30000c0600002407000d6e2b700aa
:1003b0009e80fb0000082000008060004780de0077
:1003c000614060000041d000612d20009140780024
:1003d000d0cfb30000c0600002407000d6e2b7008a
:1003e0000080fa00000006000000fa00d222a800f7
:1003f000d202a800c0168000f103200001007000a6
:10040000c01688000080fa00000006000200fa0012
:10041000004f78000e22a9000e42a9000e62a9002a
:100420000e02a9000ec2bf000080fb006100600048
:100430000000e000fbff32009010800010479800a1
:100440000e02a9001e4090000080fb000080fa0010
:10045000000006000000fa00e3ff0700d902a9002f
:10046000d262a8000080fa00000006000200fa0034
:10047000004f7800114798001e04e00009003a0080
:100480001e4090000080fb0061416000a12c200014
:1004900091407800e0cfb30000c0600002407000df
:1004a000cae2b70010c0b3009e4f10000a003a0025
:1004b0001e4090000080fb00614060000041d000c1
:1004c000a12c200091407800d0cfb30000c0600084
:1004d00002407000cae2b70020c0b3009e4f100077
:1004e0000a003a001e4090000080fb00614060005e
:1004f0004201dd00a12c200091407800b0cfb30074
:1005000000c0600002407000cae2b7000080fa003c
:10051000000006000800fa00004f78000040eb00e1
:10052000104798006000b800100798002107980055
:10053000dd02a90011c0b3001e407800cbff070008
:10054000d4c2bf000080fb004300de000080fb003f
:10055000610060000000e00012003a001e00900000
:10056000ae00900061004000e08048000001be0045
:100570001207980023079800106a28001100200035
:10058000800f5100818f5900edff3a008040eb0051
:100590001e407800b5ff07000080eb003007980090
:1005a0002100370056ff0700104798008040eb00fd
:1005b0001e407800adff07006000b80010079800eb
:1005c00021079800d4c2bf000080fb004300de007a
:1005d0000080fb0061006000e10f50000f003a0056
:1005e0001e009000ae00900061004000e0804800d6
:1005f0000001be001207980023079800106a280027
:1006000011002000800f5100818f5900edff3a004a
:10061000e0ff2f0030079800030037001e409000d5
:100620000080fb00300798003e0090000080fa0038
:10063000000006000800fa00004f780011479800fb
:100640006000b8001007980021079800dd02a8009c
:100650001e4078003bff070011c0b3001e40900011
:1006600082ff0700d4c2bf000080fb004300de0011
:100670000080fb00610060000000e00013003a0011
:100680001e009000ae00900061004000e080480035
:100690000001be001207980023079800106a280086
:1006a00011002000800f5100818f5900edff3a00aa
:1006b0008040eb001e4090006cff07004aff0700df
:1006c0000080eb00300798001f00370046ff07004e
:1006d0008040eb001e40900064ff07006000b800ff
:1006e0001007980021079800d4c2bf000080fb00cb
:1006f0004300de000080fb0061006000e10f50005d
:100700000f003a001e009000ae0090006100400013
:10071000e08048000001be001207980023079800ff
:10072000106a280011002000800f5100818f5900ad
:10073000edff3a00e0ff2f0030079800020037007d
:100740000000eb00300798003e0090000080fa00a7
:10075000000006000000fa000000eb0060108800b6
:1007600070002000a01088000d42a8000de2a80033
:100770000f42a8000080fa00000006000600fa0000
:10078000004f78000fc2bf000080fb000000d100c6
:100790000080fb00610060000000e000f9ff3a000b
:1007a000000000000fc2bf000080fb00610060007d
:1007b0000000e000fbff32001e80fb00801088007c
:1007c0000fc2bf000080fb000000d1000080fb00d2
:1007d000610060000000e000f9ff3a000000000046
:1007e0000fc2bf000080fb00610060000000e0005d
:1007f000fbff32000080fa00000006000400fa004f
:10080000000f78000040eb00204798000040eb000c
:10081000204798002e4090000080fb001e00400002
:100820001004e000090032002e4090000080fb0020
:100830001e00400010407800d0ff07002e409000be
:100840000040e80020479800f2ff37000080fa00df
:10085000000006000a00fa00004f78000040eb009c
:1008600000e8b7001e4078002aff07002007980024
:100870002e0090000000e00003003d002e009000dc
:10088000400798001f0037000000eb001007980099
:100890009e0090002e009000808f500012003d00be
:1008a0001e4078001bff0700300798003e009000b4
:1008b0000000e00003003d003e009000400798006b
:1008c000100037001e009000018020000100400051
:1008d0006e419000024878001e0090000000e80081
:1008e00010079800eaff37002e00900002802000d9
:1008f000820040000040eb00804878002e0090000d
:10090000400798004e0090000080fa0000000600aa
:100910006200fa00881f78006000b800008fbe00f7
:100920006000b80020079800310798006000b80008
:1009300040079800510798000040eb0020cf980036
:100940000040eb0030cf9800c2fe07008040eb0073
:100950000040eb00c5fe07008040eb0010c0b30074
:10096000c2fe07008040eb0020c0b300bffe0700be
:1009700078ff07000080eb00401588000000eb00c6
:10098000501688000000eb003016880071ff070049
:1009900090a9280099ff07006000b800008fbe00f2
:1009a000f069280011002000be0f1000ae8f180063
:1009b00005003c0010002000010020001e0f400038
:1009c0005e974800f6ff3700000000000040eb0093
:1009d0008efe070040cf98004ec890000080fb00bc
:1009e000003798008e309000e68f5000fd003200f6
:1009f0000e319000e60f510014003c000e309000c4
:100a0000e20f50009e0032008e309000e28f5000c6
:100a100007003c000e3190000200e0003700320079
:100a20000e309000e10f500045003200e7ff370024
:100a30008e309000e48f5000c10032000e319000e3
:100a4000e50f51001d003200e0ff37000e3090002e
:100a5000e90f50008d0132008e309000e98f500078
:100a600007003c000e319000e70f510015013200e5
:100a70000e309000e80f50004b013200d3ff3700da
:100a80008e309000ec8f5000230232000e31900027
:100a9000ec0f510004003c000e309000ea0f5000b3
:100aa000de013200c9ff3700f00f20008e309000c9
:100ab000808f50000e003200c4ff37000040eb0072
:100ac00060d798000040eb0060d798006ed090008f
:100ad000ff4f5000bdff3e006ed0900027ff070083
:100ae0006ed090000040e80060d79800f7ff370014
:100af000c0cbb30021ff0700b4ff370010c0b30024
:100b000042fe07000080fb000100200070279800d3
:100b1000012f98007e2090008e289000e00f50005a
:100b2000e08f580003003a00c0cbb30013ff07006a
:100b3000a6ff3700c0ccb30010ff0700a3ff3700ab
:100b40000040eb0060d7980010c0b3002ffe0700f4
:100b50000080fb000100200070279800012f980002
:100b60007e2190008e2990001000200001002000be
:100b7000800f5100818f590003003200c0ccb300b8
:100b8000fefe070091ff37000040eb00404f980049
:100b90004e489000e24f500030003e00ce4890009a
:100ba0000040eb00a3fe0700602f98006e29900024
:100bb000e10f41000b0032006e2890000000e000c1
:100bc00004003d00ee289000e28f40000900320052
:100bd0001e0037006e2990000200e000090032007c
:100be0001a0037006ed090000040e80060d79800ef
:100bf000160037006ed090000040e80060d79800e3
:100c0000120037004e48900012ff070070d798007e
:100c10007ed090000080fb00502f98005e2890004e
:100c2000e20f400006003500de2890000100e000e1
:100c3000030035005e2990000200e000030032004e
:100c40006ed090000040e80060d798004e489000b9
:100c50000040e800404f9800cdff37006ed0900074
:100c60000004e00003003a00c0cbb300c3fe07005d
:100c700056ff3700f0cdb300c0fe070053ff37002a
:100c800010c0b300e1fd07000080fb000100200060
:100c900070279800012f98007e2190008e299000e7
:100ca0002000200001002000800f5100818f59009a
:100cb00003003200c0ccb300b0fe070043ff370092
:100cc0008040eb0050c0b3005afe07000000e00077
:100cd00003003200f0cdb300a8fe07003bff370051
:100ce0000040eb00dbfe0700402f98004e289000ec
:100cf000e20f500003003200f0cdb3009ffe07006a
:100d000032ff370030c0b3009cfe070000c8bf00b0
:100d10009afe070001c8bf0098fe0700018020006e
:100d20009140780001c8bf0000c04000634040000f
:100d300070d798007ed0900090fe070023ff370008
:100d400010c0b300b1fd07000080fb0001002000cf
:100d500070279800012f98007e2190008e29900026
:100d60004000200001002000800f5100818f5900b9
:100d700003003200c0ccb30080fe070013ff370031
:100d800011c0b30000c1b3002afe07000000e0005c
:100d900003003200f0cdb30078fe07000bff3700f0
:100da00010c0b300abfe070070d798007ed0900053
:100db000e14f500003003200f0cdb3006ffe07009a
:100dc00002ff370050c0b3006cfe070000c8bf0030
:100dd0006afe070000c8bf006540400067fe0700cc
:100de000fafe37000040eb00404f98004e4890005c
:100df000e44f50000b003e004e4890000080fb0086
:100e0000018020000104400010c0b3007ffd0700f6
:100e1000004c78004e4890000040e800404f980099
:100e2000f2ff37000040eb0070d798000040eb0065
:100e3000404f98004e489000e44f500010003e0094
:100e40004e4890000080fb0001802000010140001e
:100e500041a828004e4890000080fb0061407800c7
:100e6000924f10000200320010c0b30070d79800fb
:100e70004e4890000040e800404f9800edff3700da
:100e80007ed09000e14f500003003a00c0ccb30088
:100e90003afe0700cdfe370011c0b30010c1b30009
:100ea000e4fd07000000e00003003200f0cdb300d5
:100eb00032fe0700c5fe3700c0cbb3002ffe07008f
:100ec000c2fe370010c0b30050fd07000080fb00d9
:100ed0000100200070279800012f980010c0b30077
:100ee0004afd07000080fb0001002000102f980041
:100ef000212f98007e2090008e289000e00f500057
:100f0000e08f5800070032007e2190008e2990006b
:100f10001000200001002000800f5100818f590037
:100f200009003a007e2090008e2890006701400062
:100f3000e08148001e289000ae289000800f5100ec
:100f4000818f590003003200c0ccb3000bfe0700b4
:100f50009efe37007e2090008e289000e00f50000b
:100f6000e08f580003003a0042c0b30062df9800ef
:100f700002003700c0c0b30060df98008040eb0083
:100f80006ed89000abfd07000000e00003003200c7
:100f9000f0cdb300f9fd07008cfe3700c0cbb300e5
:100fa000f6fd070089fe370010c0b30017fd0700eb
:100fb0000080fb000100200070279800012f98009e
:100fc00010c0b30011fd07000080fb0001002000ed
:100fd000102f9800212f98007e2090008e289000de
:100fe000e00f5000e08f58000e0032007e2190008c
:100ff0008e2990001000200001002000800f510079
:10100000818f5900070032007e2190008e299000c8
:101010002000200001002000800f5100818f590026
:1010200009003a007e2090008e2890006801400060
:10103000e08148001e289000ae289000800f5100eb
:10104000818f590003003200c0ccb300cbfd0700f4
:101050005efe3700e1a828007e209000008040005e
:1010600021c0b3001040780072fd07000000e000ce
:1010700003003200f0cdb300c0fd070053fe37007f
:10108000c0cbb300bdfd070050fe37000040eb00b1
:10109000404f98004e489000e44f50000b003e0037
:1010a0004e4890000080fb000180200001044000b9
:1010b00010c0b300d5fc0700004c78004e489000eb
:1010c0000040e800404f9800f2ff370010c0b30026
:1010d000cefc07000080fb00010020007027980074
:1010e000012f980010c0b300c8fc07000080fb006f
:1010f00001002000102f9800212f98000040eb00e5
:1011000070d798000040eb0060d798000040eb00db
:10111000404f98004e489000e44f500017003e00aa
:101120004e4890000080fb000280200082004000ba
:101130006ed090001140400060d798004e4890005b
:101140000080fb00018020000101400091a82800e0
:101150004e4890000080fb0061407800924f1000e4
:101160000200320010c0b30070d798004e489000c3
:101170000040e800404f9800e6ff3700eed09000b6
:101180006ec8900000c040006940400060d79800e1
:101190007ed09000e14f50000f0032007e21900081
:1011a0008e2990007000200001002000800f510067
:1011b000818f590008003c006ed090000081fb0038
:1011c000030020001e289000ae289000820f5000df
:1011d000838f580003003200c0ccb30067fd0700c6
:1011e000fafd370011a928007e2090000080400001
:1011f0008040eb00104078000efd07000000e0008a
:1012000003003200f0cdb3005cfd0700effd3700b6
:10121000c0cbb30059fd0700ecfd370010c0b30090
:101220007afc07000080fb00010020007027980076
:10123000012f98007e2190008e299000a0002000b0
:1012400001002000800f5100818f590003003200ff
:10125000c0ccb30049fd0700dcfd370011c0b3006e
:10126000f0c0b300f3fc07000000e0000300320010
:10127000f0cdb30041fd0700d4fd370010c0b3002e
:1012800074fd0700402f98004e289000e50f500095
:1012900003003200f0cdb30038fd0700cbfd37006e
:1012a000b0c0b30035fd07000040eb0070d79800d8
:1012b0000040eb00404f98004e489000e44f500033
:1012c00011003e004e4890000080fb00028020008c
:1012d000820040007ed090001140400070d79800fe
:1012e0004e4890000080fb0001802000010040007b
:1012f0001040780021fd07004e4890000040e800b3
:10130000404f9800ecff37007ed090006b404000cb
:101310001afd0700adfd370010c0b3003bfc07000d
:101320000080fb000100200070279800012f98002a
:101330006ec890006c40400070d798000040eb00f1
:10134000404f98004e489000ef4f500012003e0072
:101350004e4890000080fb00028020000204400004
:1013600010c0b30029fc0700004c78004e489000e4
:101370000080fb0002802000820040007ed09000b0
:101380001140400070d798004e4890000040e8009f
:10139000404f9800ebff370010c0b3001bfc070064
:1013a0000080fb0001002000102f9800212f9800e2
:1013b0007ed090000081fb00030020001e289000da
:1013c000ae289000820f5000838f580007003a002b
:1013d0007e2190008e299000100020000100200046
:1013e000800f5100818f590003003400c0ccb3003e
:1013f000e2fc070075fd37000000eb00402f98006d
:101400000040eb00404f98004e489000ef4f5000d6
:101410002d003e004e2890000000e0002a003a0017
:1014200021c0b30060c0b30082fc070080007800d8
:101430004e28900001004000402f98007e20900030
:101440008e289000020120000202b8000001eb008b
:101450000283b90005017800060141000301200064
:101460000388b90000014100820278004e489000d4
:101470000040420021c0b3006efc070080007800ed
:101480004e28900001004000402f98004e489000e8
:101490000080fb00018020000100400021c0b3005b
:1014a0001040780063fc0700800078004e28900010
:1014b00001004000402f98004e4890000040e80096
:1014c000404f9800d0ff370021c0b30070c0b30078
:1014d00058fc0700800078004e2890000100400072
:1014e000402f98004e2890000000e00003003200da
:1014f000f0cdb300a1fc070034fd3700c0cbb30032
:081500009efc070031fd3700dd
:020000040000fa
:0200000401f009
:04000000fdff000000
:020000040000fa
:0200000401f009
:04000400ff7f00007a
:020000040000fa
:10000800b80a0000b80a0000b80a0000b80a0000e0
:10001800b80a0000b80a0000b80a0000b80a0000d0
:10002800b80a0000b80a0000b80a0000b80a0000c0
:10003800b80a0000b80a0000b80a0000b80a0000b0
:10004800b80a0000b80a0000b80a0000b80a0000a0
:10005800b80a0000b80a0000b80a0000b80a000090
:10006800b80a0000b80a0000b80a0000b80a000080
:10007800b80a0000b80a0000b80a0000b80a000070
:10008800b80a0000b80a0000b80a0000b80a000060
:10009800b80a0000b80a0000b80a0000b80a000050
:1000a800b80a0000b80a0000b80a0000b80a000040
:1000b800b80a0000b80a0000b80a0000b80a000030
:1000c800b80a0000b80a0000b80a0000b80a000020
:1000d800b80a0000b80a0000b80a0000b80a000010
:1000e800b80a0000b80a0000b80a0000b80a000000
:0800f800b80a0000b80a00007c
:020000040000fa
:10010800b80a0000b80a0000b80a0000b80a0000df
:10011800b80a0000b80a0000b80a0000b80a0000cf
:10012800b80a0000b80a0000b80a0000b80a0000bf
:10013800b80a0000b80a0000b80a0000b80a0000af
:10014800b80a0000b80a0000b80a0000b80a00009f
:10015800b80a0000b80a0000b80a0000b80a00008f
:10016800b80a0000b80a0000b80a0000b80a00007f
:10017800b80a0000b80a0000b80a0000b80a00006f
:10018800b80a0000b80a0000b80a0000b80a00005f
:10019800b80a0000b80a0000b80a0000b80a00004f
:1001a800b80a0000b80a0000b80a0000b80a00003f
:1001b800b80a0000b80a0000b80a0000b80a00002f
:1001c800b80a0000b80a0000b80a0000b80a00001f
:1001d800b80a0000b80a0000b80a0000b80a00000f
:1001e800b80a0000b80a0000b80a0000b80a0000ff
:0801f800b80a0000b80a00007b
:020000040000fa
:10150800dead0000beef00003eb10000d0230000b9
:101518007a69000009080000121300001415000081
:1015280016170000181900001a0a00000d4d0000d7
:10153800617300007465000072200000737400007d
:1015480061720000746900006e6700002e2e0000b2
:081558002e0a00000d00000046
:020000040000fa
:10156000000800003c000000000000000000000037
:020000040000fa
:041570000000fe0079
:00000001FF
