:020000040000fa
:080000000401040000000000ef
:020000040000fa
:100200000000000000000000ef89200080ff2000b7
:100210000001880000000000050007000c00070036
:100220006a100200000000000040da000000fe003a
:100230004440a900000220000000e000030032005a
:1002400000002000a00188004440a8000000060033
:100250004014210001002000160037006200400019
:10026000e0804800910188009001ba0062004000df
:10027000e0804800910188009002ba0062004000ce
:10028000e08048000002eb006028e10005003a0031
:100290008301e90007003300038009000059eb00e7
:1002a000040037006128e100010032000082eb0009
:1002b00005000700910188001001ba000200e0006b
:1002c000e6ff3a00000005009101880080027800f6
:1002d00062004000e08048003559ba008301e9001f
:1002e000080032002559ba008301e90005003200f8
:1002f0000400e000f4ff320015d9ba008301e900e0
:10030000f1ff3a0000000600881f78000204780020
:1003100014000700080040004f04780000000600a9
:100320000000fa00881f7800000478003fb99700a9
:10033000ea81570080007800401820001000070074
:10034000800078000000e000020035000040eb0073
:1003500000f47800010078004f0478000080fa0073
:1003600000000600800178000200e0000300320077
:10037000b15978000201e900fdff3a0000000600d3
:100380006200fa00889fbe008a9fbe000004be0083
:1003900002057800830078006a805700ad000700ee
:1003a000f88f9f0089979f000000eb00909f9f00af
:1003b0001a80fb008005fb000000ea00cf04de008d
:1003c0000904780050022000808f550001003a0097
:1003d0000904e9000800e0000c0034000f909700c9
:1003e000080178008a007800ff8997000300010067
:1003f00080979f008080eb000000e00090003200ba
:100400001f98970008004000909f9f000905450035
:1004100050022000808f5500040032000b00e000e5
:10042000e3ff3a009f989700850037000000eb003b
:10043000f0979f00e0979f00d0979f00c0979f0084
:10044000b0979f00a0979f00b09f9f0009003700c2
:10045000c0872000008050000000d00021882000cc
:1004600001004000bf98970090807000b19f9f00ee
:100470000a05e8009a00fb00c0872000770007000b
:10048000800078000000e000f1ff3a00a0c2b30055
:100490009a4f10000e003a003fb897000080e90024
:1004a000b0bf9f0010007800a09f9f000000e000f8
:1004b00005003d000000ea00a09f9f003f989700c4
:1004c0000020a000b09f9f000a05e800110037003f
:1004d000a19f9f000b003700af989700f0ff270007
:1004e000808f5000060032006a09b9001a00fb0034
:1004f0000200400001fd2f0001004000a09f9f006e
:100500000a05e8001a00fb005c0007000000e0009c
:10051000f1ff3a00e0c2b3009a4f1000030032002e
:100520000080eb00809f9f001c003700a0c2b3003a
:10053000da4f100007003a003fb897000080e9004a
:10054000b0bf9f0010007800809f9f000a05e80060
:10055000120037000000eb00809f9f000b00370067
:100560008f989700f0ff2700808f50000600320020
:100570006a09b9001a00fb000200400001fd2f00cb
:1005800001004000809f9f000a05e8001a00fb0060
:100590003a0007000000e000f1ff3a009a00fb007b
:1005a000608920002d0007008040eb000000e00083
:1005b00001003200ba407800817f9f0080c6b300fe
:1005c00080cf500004003a009acf100002003a0099
:1005d00066405000070037008f789700c0c6b30010
:1005e00080cf500005003a009acf100003003a0077
:1005f00065404000807f9f000a05e800a0fb2f00b7
:10060000008447003a01fb0088017800ea80570027
:1006100060f92f000f0040001e0007000000e000fe
:1006200006003a008800780060f92f000f004000b3
:100630009e0107000000e0005dff3d008080eb00b0
:10064000010078004f05be004f04be000080fa0094
:1006500000000600010878000000060090cf10009e
:10066000050032001004e00001003a00000005001f
:10067000d0cf1000fbff3a00000006000003b100dd
:10068000030035009000b10001003c00100005009f
:1006900000000500889fbe008a1f780000047800d3
:1006a0000102780002457800830478000200fb0014
:1006b000cf80de005002b1000180b1003205200081
:1006c000820f5000e08f58006b013e000060010077
:1006d00063013700680137006701370066013700a2
:1006e000650137006401370063013700620137009c
:1006f00061013700600137005f0137005e0137009c
:100700005d0137005c0137005b0137005a0137009b
:10071000590137005801370057013700560137009b
:10072000550137005401370053013700520137009b
:1007300051013700500137004f0137004e0137009b
:100740004d0137004c0137004b0137004a0137009b
:10075000490137004801370047013700460137009b
:10076000450137004401370043013700420137009b
:1007700041013700400137003f0137003e0137009b
:100780003d0137003c013700210137003a013700b5
:100790003901370038013700370137008100370051
:1007a000350137003401370033013700320137009b
:1007b00031013700300137002f0137002e0137009b
:1007c0002d0137002c013700150037001c003700c1
:1007d000290137002801370027013700260137009b
:1007e00017003700240137002301370022013700aa
:1007f00021013700c20037006a003700f5003700da
:100800001d0137001c013700010137001a013700b4
:100810006400370018013700170137006100370006
:100820006e01440012007800808141009480e9004c
:10083000010a78000009e8009149780017013700a3
:1008400028619000c0c6b300804f51000a003a00f2
:100850009400780064805000000a78001000be0008
:100860004f89de00cf91de000002be000203780057
:10087000820378001600370010c7b300804f510084
:1008800003003a00140178006800510005003700a9
:1008900094007800a0c6b300804f510005003a00d4
:1008a00068805000000a78003002be002003be00bd
:1008b000070037000180e900000a78001000780086
:1008c00000027800cfa2de000503780086037800de
:1008d000049cbe000694be00a860900080c6b300d1
:1008e00080cf50000f00320020c6b30080cf5000f0
:1008f00006003a00184078000000fb00cf80de00c0
:1009000001017800820178000a00370040c7b30077
:1009100080cf5000030032006640400080cf50007e
:1009200006003a0018007800cf80de000101780050
:1009300082017800009cbe000294be003800be0018
:100940002801be00e00f5000e08f5800e00f590072
:10095000e08f590004003d006e01440092007800d1
:10096000d0c2b3000c003700081090000018a3009c
:10097000040032006e01440092007800b0c2b3005f
:10098000050037000008a300580032006e01440043
:100990009200780000c2b30080f478000109e800fa
:1009a0005200370028619000c0c6b300804f51004c
:1009b00006003a009400780064805000000a780035
:1009c0001002be006033b8001600370010c7b30035
:1009d000804f510003003a00140178006800510074
:1009e0000500370094007800a0c6b300804f510086
:1009f00005003a0068805000000a78003002be000e
:100a00002003be00070037000180e900000a7800db
:100a10001000780000027800050020000600200089
:100a200007002000049cbe000694be00a860900051
:100a300080c6b30080cf50000f00320020c6b30044
:100a400080cf500006003a00184078000080fb007c
:100a50000100200002002000030020000a003700ef
:100a600040c7b30080cf5000030032006640400012
:100a700080cf500006003a001800780001002000e6
:100a80000200200003002000009cbe000294be0073
:100a9000081090000038a300140032003800be0097
:100aa0002801be00e00f5000e08f5800e00f590011
:100ab000e08f59000d00320080c7b300804f550011
:100ac0000300320080c5b300804f550007003a0094
:100ad0006e0044009000780002c3b30082f47800f6
:100ae0008100e8008af478000108e80078009000ae
:100af00000804400600498008a407800410037007c
:100b0000286090008000fb00c0062000808f50000d
:100b1000230032000a003c0064005000808f500027
:100b20002600320004003c0066005000808f500018
:100b30000b00320021003700a0062000050037001e
:100b400040072000808f50001c0032001b003c003a
:100b500063005000808f50000700320017003700fc
:100b60001480e900000a780010007800485c9000ca
:100b700008487800490037001480e900000a78002e
:100b80001002780068089000cf80de000101780034
:100b900082017800009abe000292be003f0037003a
:100ba0001480e900000a78001001780068089000bd
:100bb000cf80de000089be00380037001480e900d5
:100bc000000a780010007800680c9000080878008f
:100bd000320037001480e900000a78001000780025
:100be000cf80de000101780082017800009cbe0009
:100bf0000294be00780090000080440060049800d9
:100c000081c7b30008007800f60007002300370012
:100c10001480e900000a7800100078006004980051
:100c2000580990000200e00002003d009f0107000b
:100c3000090037008000eb00a30107008000780066
:100c40000000e000030032006800900000805000c7
:100c50000100370058089000100c98000f00370072
:100c60006e0144009200780050c2b30080f1780019
:100c70000109e80009003700ee0044001100780087
:100c8000808144000a4278008008e8000a04e000fd
:100c900001003a0054c2b300844978000000eb0020
:100ca0004f0578004f04be00000006000400fa0063
:100cb000889fbe008a9fbe008c1f780000047800c9
:100cc0000106780070089000f800900001005000c4
:100cd0008808900001005000980890000100500022
:100ce000a808900001005000b808900001005000d2
:100cf000c8089000810550000002220090bf9f00ac
:100d000000032300a0bf9f00081090000028a3004c
:100d100018003a000b00e000160034000b057800c4
:100d20008a047800e20f55000100360029002000f7
:100d30000900e0000c00340058009000c801900049
:100d400009017800ee80570003000100500498006c
:100d50008080eb000000e0009c00320068089000fa
:100d600009004000600c9800090555004240a900a8
:100d7000ebff3c00780190000200e0000c00340022
:100d800058009000c80190008c007800030001001a
:100d9000500498008080eb000000e0008b003200df
:100da00068089000f800900001004000600c980076
:100db000080890000000e0001600340000057800ec
:100dc0008a047800e20f5500010036002900200057
:100dd0000900e0000c00340058009000c8019000a9
:100de00009017800ec8057000300010050049800ce
:100df0008080eb000000e000740032006808900082
:100e000009004000600c9800090555004240a90007
:100e1000ebff3c00180990000200e0000c003400d9
:100e2000e800900058009000c80190000300010005
:100e3000500498008080eb000000e0006300320066
:100e4000680890009808900001004000600c98002d
:100e5000280890000000e00016003400000578002b
:100e60008a047800e20f55000100360029002000b6
:100e70000900e0000c00340058009000c801900008
:100e800009017800ec80570003000100500498002d
:100e90008080eb000000e0004c0032006808900009
:100ea00009004000600c9800090555004240a90067
:100eb000ebff3c00380990000200e0000e00340017
:100ec000e8009000180890008080400058009000d2
:100ed000c801900003000100500498008080eb00de
:100ee0000000e0003900320068089000b808900067
:100ef00001004000600c9800480890000000e000ed
:100f000016003400000578008a047800e20f5500ce
:100f100001003600290020000900e0000c00340028
:100f200058009000c801900009017800ec8057003b
:100f300003000100500498008080eb000000e000f6
:100f4000220032006808900009004000600c980000
:100f5000090555004240a900ebff3c000810900035
:100f60000028a300180032000b00e0001600340037
:100f70000b0578008a047800e20f55000100360066
:100f8000290020000900e0000c0034005800900007
:100f9000c801900009017800ee80570003000100ad
:100fa000500498008080eb000000e0000700320051
:100fb0006808900009004000600c98000905550081
:100fc0004240a900ebff3c008000eb0001007800ec
:100fd0004f0678004f05be004f04be000080fa00a7
:100fe000000006006f02b000889fbe008a9fbe000e
:100ff0008c9fbe008e1f780080067800b08620008f
:10100000b0b79f0080c5b30080cf5000020032000f
:10101000a2852000b2b79f0083002000c3b79f00c5
:10102000f0c6b30080cf50000a0032006940400093
:1010300080cf500005003200a4002000c4b79f00fc
:1010400080c5b30080cf500002003a0000012000ac
:10105000c0b79f008e0120003d04be002d05be00dc
:1010600040c6b30080cf500003003200654040000e
:1010700080cf50000a003a00e00f5400e08f5c007f
:10108000e00f5d00e08f5d0005003d000800be0040
:101090000a01be00950007000205be000004be0064
:1010a000e00f5400e08f5c00e00f5d00e08f5d001a
:1010b00003003a005d0890000000e0000c003200e0
:1010c0007e012000cfb0970001027800cfa2de00a1
:1010d00005037800860378000800be000a01be0000
:1010e000180107003fb2970064407800d0e79f00e6
:1010f0004fb09700cf80de000101780082017800b8
:10110000d0b79f00e1b79f00f2b79f0083bf9f0059
:101110000203be000002be000800be000a01be00bd
:1011200001010700809ebe008296be00e00f5000c5
:10113000e08f5800e00f5900e08f59002200340082
:101140000e00e000200034003d00be002d01be0076
:101150005fb29700efb297007fb397008fbb970005
:10116000fc0007000205be000004be000e07e900f7
:10117000e1fc2f008f804000010647005fb297001e
:10118000efb297007fb397008fbb97000800be00b7
:101190000a01be008c0107001d0010003fb197003e
:1011a000624e7800889ebe008a96be00e00f540012
:1011b000e08f5c00e00f5d00e08f5d000200340016
:1011c0000e00e000e0ff3c00cfb19700e88f510037
:1011d00010003a000d1090000038a3000d003200fe
:1011e000f70f570006003e00e4fc2f000e024200fd
:1011f000e4c07f0000c3b30080cf50000500320080
:101200000e07e90000c3b300e1fc2f008e80400010
:1012100080f07f0078011700920e98006d0090001a
:10122000e3fc2f008f8141008e8041004dfc0700c0
:101230001d0e90005d089000800f560006003d00d6
:101240000c005000800e98000d1090000040a1008e
:10125000801698000f0037000000e0000d003d00f0
:101260000d10900074006000f00f500009003a006b
:101270007d089000fd009000010050008d08900056
:10128000010050000c0750004240a900010034004a
:101290008e0e98004f0778004f06be004f05be0027
:1012a0004f04be006f02b10000000600800078000d
:1012b0001004e000020032005104e000feff3a009a
:1012c00000805000000006000200e000050032002f
:1012d00090cf1000040032000000e8000201e90095
:1012e000fbff3a000000eb00000006006000100069
:1012f000e080180060011900e0811900000006007c
:10130000881f7800000478005001be004000be0035
:101310000000420081804a0002014b0083814b00a3
:10132000009cbe000294be00dc00070003003100f8
:10133000480090000000e800400498004f04780046
:1013400000000600889fbe00000478008004eb00c7
:101350005001be004000be00d00007000100310077
:101360001900200004005000858058000601590033
:1013700087815900009cbe000294be004800900086
:1013800009005000400498004f04be000000060011
:101390001200fa00889fbe008a9fbe008c1f780052
:1013a0000205be000004be00f4b79f0085bf9f0089
:1013b00096bf9f00a7bf9f000000eb00e0b79f0013
:1013c000d0b79f00c0b79f00b0b79f00a0b79f00e5
:1013d0000006eb005fb197006fb097008000d0006f
:1013e0000000e00015003d00e1b79f00010078001b
:1013f0000200e00001003d000000a000ac0007007a
:1014000001003d000000a000af00070001003d000a
:101410000000a000b200070001003d000000a00095
:101420008100070001003d000000a000b20007009d
:101430007c805700b2ff070014003700e1b79f001f
:10144000010078000200e00001003d000000a00063
:101450009700070001003d000000a0009a0007006f
:1014600001003d000000a0009d00070001003d00bc
:101470000000a0006c00070001003d000000a0007b
:101480009d0007007c805700aeff07006fb09700fb
:101490000000e000070035001000200001002000df
:1014a0006011b80008047000898470000a0571009a
:1014b0008b8571000c06e800f0032000800f5600b9
:1014c000c4ff34006fb097000000e00006003d004c
:1014d0007fb297008fba97001fbb9700afbb9700f2
:1014e0007c80570086ff07000802be000a03be008a
:1014f0006fa897000000e00004003a002fb29700a8
:10150000bfb297004fb39700dfb397000400be004f
:101510000601be004f0678004f05be004f04be0016
:101520000080fa0000000600881f780018002000e4
:10153000881f780096ff07008f87e9004f04780026
:1015400000000600801feb0091ff07008f87e90075
:10155000000006000800fa00889fbe008a9fbe00b7
:101560008c1f78006e00070005003d004300070057
:10157000300007000c003d00330007000b0037006f
:10158000e00f5200e08f5a00e00f5b00e08f5b003d
:1015900006003d000400be000601be0053ff070028
:1015a0000205be000004be001c0020002c00070045
:1015b000ddff07000c00e000010032004bff0700d8
:1015c0004f0678004f05be004f04be000080fa00b1
:1015d000000006000800fa00889fbe008a9fbe0037
:1015e0008c1f78004e00070002003d001c00200008
:1015f000220007000f00070001003d001200070055
:1016000017000700cfff07000c00e00001003200c8
:1016100036ff07004f0678004f05be004f04be009e
:101620000080fa000000060090b79f000100d00083
:1016300080b79f00e00f5400e08f5c00e00f5d007a
:10164000e08f5d00000006000800be000a01be0039
:1016500026ff07000205be000004be0000000600d1
:101660000802be000a03be005fb09700efb097000b
:101670007fb197008fb99700000006001bff07009d
:101680000100070000000600b0b79f00c1b79f002f
:10169000d2b79f00e3b79f00000006000400e100fe
:1016a0000588e1000690e1000798e10000000600cf
:1016b000c0b79f000200d000b0b79f00afb0970046
:1016c0000100e00000000600b0b79f000100d0005c
:1016d000a0b79f009fb097000100e0000000060047
:1016e000a0b79f000100d00090b79f008fb0970077
:1016f0000100e0000000060080b79f000804d00051
:101700008984d2000a85d2008b85d2005fb297000f
:10171000efb297007fb397008fbb970000000600e1
:10172000d9ff07000605be000404be000006eb005a
:10173000e00f5000e08f5800e00f5900e08f590093
:1017400000000600889fbe008a9fbe008c9fbe00de
:101750000404b8000506b8008904460060854e0000
:101760000606b8000a054600e0854e000706b800e8
:101770008b054600040eb800890446000a854e0019
:10178000050eb8000a0546008b854e00060eb8000f
:101790008b0546000416b8000a0546008b854e00ee
:1017a0000516b8008b054600041eb8008b054600e0
:1017b0000800be000a01be004f06be004f05be0075
:1017c0004f04be00000006000800fa00889fbe001b
:1017d0008a9fbe00170007000605be000404be0075
:1017e000e00f5200e08f5a00e00f5b00e08f5b00db
:1017f00008003d000400be000601be00bbfe07005d
:101800000205be000004be000f000700b7fe07007f
:10181000080007000802be000a03be000a00070015
:10182000c8ff07004f05be004f04be000080fa004d
:1018300000000600e0b79f00f1b79f0082bf9f0045
:1018400093bf9f00000006006fb09700ffb09700a5
:101850000fb997009fb99700000006003600f80006
:10186000809fbe00829fbe00849fbe00869fbe00f8
:101870000200fa008700a9008f48e200060032004b
:101880000000eb0030088800e01080000080fb00c2
:10189000600c88003c00370018c2bf000080fb00cd
:1018a000610060000000e00037003200e0108000be
:1018b000004f78000000eb00e401070010892000d1
:1018c00051c1b30090cf100009003e0012892000e2
:1018d00092407800014078000080fb0043832000a4
:1018e000030040001e4878008140e800014978006c
:1018f0001089200061c1b30090cf100012003a009f
:101900000040eb00104798001e409000f54f50003b
:101910000d003e001e4090000080fb00e281200090
:10192000820040001e4090000080fb0043832000a6
:1019300003004000904878001e4090000040e800fe
:1019400010479800f0ff370000c0eb009e4f1000da
:101950000a003a0090c8bf000040e80090e8b700d5
:101960000089200051c0b30090cf1000caff36009c
:101970000040eb0091e8b700c7ff37000040eb00e4
:1019800090e8b700c4ff37000080fa004f03be00a4
:101990004f02be004f01be004f00be003600f900ee
:1019a000004006000000fa00dea2a9000000eb00e3
:1019b000b0108800a0002000f010880017e2a800f6
:1019c0001942a80019e2a80018c2bf00f043b200f3
:1019d00018e2b7008f00a8000080fa00000006009f
:1019e0000000fa00d242a9000000eb00800c880041
:1019f0009061a9008cc0a9008de0a9000119200008
:101a00009140780080cfb30000c060006040b30018
:101a100090e1b700f00f2000600888000000eb00a4
:101a2000600c88000111200091407800f0ccb300d8
:101a300000c0600010e1b70011e1a8000080fa00ca
:101a4000000006000a00fa00004f78000040eb009a
:101a50008ee8b70092c8bf000080fb0040079800e6
:101a60004e009000e10f5000af003200ce00900019
:101a7000e18f500004003c004e0190000200e000a5
:101a800005003200c8003700ce019000e28f5100ff
:101a9000b1003200c40037001e4078000081fb0016
:101aa000030020002207980033079800000520005b
:101ab000010020002e019000be019000800f510017
:101ac000818f5900b8003e002e009000be009000ab
:101ad0000060010050003700520037005800370006
:101ae0005c003700b0003700af003700ae003700b1
:101af000ad003700ac003700ab003700aa0037005c
:101b0000a9003700a8003700a7003700a60037005b
:101b1000a5003700a4003700a3003700a20037005b
:101b2000a1003700a00037009f0037009e0037005b
:101b30009d0037009c0037009b0037009a0037005b
:101b40006400370098003700970037009600370090
:101b500045003700490037009300370092003700f6
:101b600091003700900037008f0037008e0037005b
:101b70008d0037008c0037008b0037008a0037005b
:101b8000890037008800370087003700860037005b
:101b9000850037008400370083003700820037005b
:101ba00081003700800037007f0037007e0037005b
:101bb0007d0037007c0037007b0037007a0037005b
:101bc000790037007800370077003700760037005b
:101bd000750037007400370073003700720037005b
:101be00071003700700037006f0037006e0037005b
:101bf0006d0037006c0037006b0037006a0037005b
:101c000069003700680037002100370066003700a0
:101c10002c0037002d0037000040eb0000e8b70033
:101c20006100370040132900801f780010802000d9
:101c3000bbf907008f87e90000e8b7005a003700ba
:101c400010c0b30092e8b7000040eb0093e8b70083
:101c50005500370020c0b30092e8b7000040eb0009
:101c600093e8b7005000370040c0b30092e8b700d7
:101c70000040eb0093e8b7004b00370050c0b300c2
:101c800092e8b7000040eb0093e8b7004600370049
:101c9000d262a9000000eb00100798009e0090009f
:101ca000703e2000808f500004003c001e00900019
:101cb0000000e80010079800f8ff3700d262a80083
:101cc00039003700d262a90037003700d262a8007d
:101cd000350037008f00a9000000eb0010079800c6
:101ce0001e009000f50f50000b003c001e009000fd
:101cf00012802000820040001e009000e38120003e
:101d000003004000904878001e0090000000e800aa
:101d100010079800f2ff370060c1b30000e8b70079
:101d20008f00a800200037000040eb0093e8b700c8
:101d30000040eb0092e8b70010c0b30000e8b70025
:101d40001e80fb00a18420000100400010407800ac
:101d500001e8b700140037009348e20002003a009f
:101d60001e40780094e8b70093c8bf000040e80028
:101d700093e8b7003089200021c0b30090cf100055
:101d800009003a000040eb0093e8b7000040eb0088
:101d900092e8b70094c8bf000080fb00a284200036
:101da000020040001e4878000080fa000000060093
:101db0000000fa00401680000080fb000080fa005e
:101dc000000006000200fa00004f78003116800083
:101dd00000f02f000080600030168800511680004f
:101de00000f02f00808060001e80fb0000807000eb
:101df000501688000080fa00000006000000fa007b
:101e000030168000f10f20000100700030168800ad
:101e10000080fa00000006000400fa000040eb0019
:101e2000004f7800cfc2bf000080fb004500de00fd
:101e30000080fb00610060000000e00003003a0049
:101e40000000eb00100798002e003700cfc2bf0043
:101e50000080fb004600de000080fb0061006000a7
:101e6000e10f50000f003a00d1ff0700004f78004b
:101e7000cb02a800c702a900cfc2bf000080fb00b0
:101e80004500de000080fb00610060000000e00013
:101e9000f9ff3a00c702a8001e407800e9fe0700db
:101ea00016003700e2882000924078000140780058
:101eb0000080fb000380200003004000104f7800ea
:101ec0008140e800014978001e407800bdff07000e
:101ed000cb02a800c702a900cfc2bf000080fb0050
:101ee0004500de000080fb00610060000000e000b3
:101ef000f9ff3a00c1ff0700c702a8001000200048
:101f0000100798001e0090000080fa0000000600f4
:101f10003600f800809fbe00829fbe00849fbe00f6
:101f2000869fbe000000fa0085e0a900c0c0bf0087
:101f30000080fb000000d1000080fb006100600019
:101f4000e10f500003003a00b3ff0700100020002b
:101f50003e0007000080fa004f03be004f02be00a3
:101f60004f01be004f00be003600f90000400600e1
:101f70000000fa00c020a800a7ff07000080fa00b8
:101f8000000006000000fa00c020a9000080fa004e
:101f9000000006000000fa00f5ff0700b10920006c
:101fa00091407800f0c8b30000c0600001c4b300e5
:101fb000014070009be0b70091092000914078003b
:101fc00080cfb30000c060006040b30099e0b7006c
:101fd0008109200091407800f0c8b30000c0600083
:101fe00001c5b3000140700098e0b700010a20006d
:101ff00091407800f0c8b30000c0600001c6b30093
:1020000001407000a0e0b700010a20009140780074
:1020100080cfb30000c060005040b300a0e0b70024
:1020200085e0a9008de0a8000080fa00000006000d
:102030000000fa0071ff0700cdc2a800cda2a800e1
:10204000c702a8000080fa00000006000200fa00a3
:10205000004f78008f48e20012003a000032200062
:10206000600888000000eb003008880084c0a900e8
:102070008cc0a8001021a900011120009140780017
:1020800000c3b30000c0700010e1b70011e1a80068
:102090001e04e00002003a00dc62a80001003700e4
:1020a000dc82a8000080fa00000006000000fa00b0
:1020b00084c0a9008f48e20004003a008cc0a90047
:1020c000dc62a900dc82a90011e1a9000080fa000d
:1020d000004006000600fa000080eb004015880072
:1020e0000080eb0030168800d662a900d262a900f9
:1020f000cdc2a800cda2a800c702a800de62a80039
:10210000de42a800dea2a800de82a800d622a90036
:10211000d222a800d862a900d882a900d8a2a9001a
:10212000dc62a900dc82a800dca2a800c0ff0700d6
:10213000e0c2bf000080fb004200de000080fb0028
:10214000610060000000e000f9ff3a00dca2a90095
:102150006000b800008fbe00f09f260081012000c3
:10216000be0f1000ae8f180005003c0010002000cc
:10217000010020001e0f40005e974800f6ff370068
:10218000dc82a900dc62a800de62a800de42a900b1
:10219000e242a8006000b800008fbe00f09f260059
:1021a00081012000be0f1000ae8f180005003c001a
:1021b00010002000010020001e0f40005e97480024
:1021c000f6ff3700f7fd0700e0c2bf000080fb000c
:1021d0004300de000080fb00610060000000e000c2
:1021e0000c003200d262a80010c0b3008fe8b70024
:1021f000dc62a800dc82a800dca2a80061ff070066
:10220000f7fd070000082000600c8800de42a800ef
:10221000ffff37000040eb008fe8b700de42a80068
:102220005cff07000040eb00404798004e409000e4
:10223000f54f50000a003e004e4090000080fb0029
:10224000e2812000820040000040eb0080487800de
:102250004e4090000040e80040479800f3ff3700f0
:0822600000000000ffff370041
:020000040000fa
:0200000401f009
:04000000f6ff000007
:020000040000fa
:0200000401f009
:04000400ff7f00007a
:020000040000fa
:100008009411000094110000941100009411000054
:100018009411000094110000941100009411000044
:100028009411000094110000941100009411000034
:100038009411000094110000561000009411000063
:100048009411000094110000941100009411000014
:10005800941100009411000094110000880f000012
:1000680094110000941100009411000094110000f4
:1000780094110000941100009411000094110000e4
:100088002e0c00009411000094110000941100003f
:1000980094110000941100009411000094110000c4
:1000a80094110000941100009411000094110000b4
:1000b80094110000941100009411000094110000a4
:1000c8009411000094110000941100009411000094
:1000d8009411000094110000941100009411000084
:1000e8009411000094110000941100009411000074
:0800f8009411000094110000b6
:020000040000fa
:100108009411000094110000941100009411000053
:100118009411000094110000941100009411000043
:100128009411000094110000941100009411000033
:100138009411000094110000561000009411000062
:100148009411000094110000941100009411000013
:10015800941100009411000094110000880f000011
:1001680094110000941100009411000094110000f3
:1001780094110000941100009411000094110000e3
:100188002e0c00009411000094110000941100003e
:1001980094110000941100009411000094110000c3
:1001a80094110000941100009411000094110000b3
:1001b80094110000941100009411000094110000a3
:1001c8009411000094110000941100009411000093
:1001d8009411000094110000941100009411000083
:1001e8009411000094110000941100009411000073
:0801f8009411000094110000b5
:020000040000fa
:10226800426c0000616300006b660000696e00004c
:10227800204200006f61000072640000000000004e
:020000040000fa
:102288008e080000080000000200000000000000a6
:102298000000000000000000000800005a000000d4
:1022a800000000007c08000012000000020000008e
:1022b800202b2d0023300000010002000004000044
:1022c8000800100000000000960800000800000048
:1022d80002000000686a6c00747a4c00000000007c
:1022e8005a080000220000000200000030313200cd
:1022f800333435003637380039616200636465006d
:102308006600300031323300343536003738390052
:102318004142430044454600000000000000000020
:020000040000fa
:042328000000fe00b3
:00000001FF
