:020000040000fa
:08000000181c040000000000c0
:020000040000fa
:100200000000000000000000881f78000204780051
:1002100014000700080040004f04780000000600aa
:100220000000fa00881f7800000478003fb99700aa
:10023000ea8157008000780040102000100007007d
:10024000800078000000e000020035000040eb0074
:1002500000f47800010078004f0478000080fa0074
:1002600000000600800178000200e0000300320078
:10027000b15978000201e900fdff3a0000000600d4
:100280006200fa00889fbe008a9fbe000004be0084
:1002900002057800830078006a805700ad000700ef
:1002a000f88f9f0089979f000000eb00909f9f00b0
:1002b0001a80fb008005fb000000ea00cf04de008e
:1002c0000904780050022000808f550001003a0098
:1002d0000904e9000800e0000c0034000f909700ca
:1002e000080178008a007800ff8997000300010068
:1002f00080979f008080eb000000e00090003200bb
:100300001f98970008004000909f9f000905450036
:1003100050022000808f5500040032000b00e000e6
:10032000e3ff3a009f989700850037000000eb003c
:10033000f0979f00e0979f00d0979f00c0979f0085
:10034000b0979f00a0979f00b09f9f0009003700c3
:10035000e0852000008050000000d0004186200091
:1003600001004000bf98970090807000b19f9f00ef
:100370000a05e8009a00fb00e085200077000700ee
:10038000800078000000e000f1ff3a00a0c2b30056
:100390009a4f10000e003a003fb897000080e90025
:1003a000b0bf9f0010007800a09f9f000000e000f9
:1003b00005003d000000ea00a09f9f003f989700c5
:1003c0000020a000b09f9f000a05e8001100370040
:1003d000a19f9f000b003700af989700f0ff270008
:1003e000808f5000060032006a09b9001a00fb0035
:1003f0000200400001fd2f0001004000a09f9f006f
:100400000a05e8001a00fb005c0007000000e0009d
:10041000f1ff3a00e0c2b3009a4f1000030032002f
:100420000080eb00809f9f001c003700a0c2b3003b
:10043000da4f100007003a003fb897000080e9004b
:10044000b0bf9f0010007800809f9f000a05e80061
:10045000120037000000eb00809f9f000b00370068
:100460008f989700f0ff2700808f50000600320021
:100470006a09b9001a00fb000200400001fd2f00cc
:1004800001004000809f9f000a05e8001a00fb0061
:100490003a0007000000e000f1ff3a009a00fb007c
:1004a000208720002d0007008040eb000000e000c6
:1004b00001003200ba407800817f9f0080c6b300ff
:1004c00080cf500004003a009acf100002003a009a
:1004d00066405000070037008f789700c0c6b30011
:1004e00080cf500005003a009acf100003003a0078
:1004f00065404000807f9f000a05e800a0fb2f00b8
:10050000008447003a01fb0088017800ea80570028
:1005100060f92f000f0040001e0007000000e000ff
:1005200006003a008800780060f92f000f004000b4
:100530009e0107000000e0005dff3d008080eb00b1
:10054000010078004f05be004f04be000080fa0095
:1005500000000600010878000000060090cf10009f
:10056000050032001004e00001003a000000050020
:10057000d0cf1000fbff3a00000006000003b100de
:10058000030035009000b10001003c0010000500a0
:1005900000000500889fbe008a1f780000047800d4
:1005a0000102780002457800830478000200fb0015
:1005b000cf80de005002b1000180b1003205200082
:1005c000820f5000e08f58006b013e000060010078
:1005d00063013700680137006701370066013700a3
:1005e000650137006401370063013700620137009d
:1005f00061013700600137005f0137005e0137009d
:100600005d0137005c0137005b0137005a0137009c
:10061000590137005801370057013700560137009c
:10062000550137005401370053013700520137009c
:1006300051013700500137004f0137004e0137009c
:100640004d0137004c0137004b0137004a0137009c
:10065000490137004801370047013700460137009c
:10066000450137004401370043013700420137009c
:1006700041013700400137003f0137003e0137009c
:100680003d0137003c013700210137003a013700b6
:100690003901370038013700370137008100370052
:1006a000350137003401370033013700320137009c
:1006b00031013700300137002f0137002e0137009c
:1006c0002d0137002c013700150037001c003700c2
:1006d000290137002801370027013700260137009c
:1006e00017003700240137002301370022013700ab
:1006f00021013700c20037006a003700f5003700db
:100700001d0137001c013700010137001a013700b5
:100710006400370018013700170137006100370007
:100720006e01440012007800808141009480e9004d
:10073000010a78000009e8009149780017013700a4
:1007400028619000c0c6b300804f51000a003a00f3
:100750009400780064805000000a78001000be0009
:100760004f89de00cf91de000002be000203780058
:10077000820378001600370010c7b300804f510085
:1007800003003a00140178006800510005003700aa
:1007900094007800a0c6b300804f510005003a00d5
:1007a00068805000000a78003002be002003be00be
:1007b000070037000180e900000a78001000780087
:1007c00000027800cfa2de000503780086037800df
:1007d000049cbe000694be00a860900080c6b300d2
:1007e00080cf50000f00320020c6b30080cf5000f1
:1007f00006003a00184078000000fb00cf80de00c1
:1008000001017800820178000a00370040c7b30078
:1008100080cf5000030032006640400080cf50007f
:1008200006003a0018007800cf80de000101780051
:1008300082017800009cbe000294be003800be0019
:100840002801be00e00f5000e08f5800e00f590073
:10085000e08f590004003d006e01440092007800d2
:10086000d0c2b3000c003700081090000018a3009d
:10087000040032006e01440092007800b0c2b30060
:10088000050037000008a300580032006e01440044
:100890009200780000c2b30080f478000109e800fb
:1008a0005200370028619000c0c6b300804f51004d
:1008b00006003a009400780064805000000a780036
:1008c0001002be006033b8001600370010c7b30036
:1008d000804f510003003a00140178006800510075
:1008e0000500370094007800a0c6b300804f510087
:1008f00005003a0068805000000a78003002be000f
:100900002003be00070037000180e900000a7800dc
:10091000100078000002780005002000060020008a
:1009200007002000049cbe000694be00a860900052
:1009300080c6b30080cf50000f00320020c6b30045
:1009400080cf500006003a00184078000080fb007d
:100950000100200002002000030020000a003700f0
:1009600040c7b30080cf5000030032006640400013
:1009700080cf500006003a001800780001002000e7
:100980000200200003002000009cbe000294be0074
:10099000081090000038a300140032003800be0098
:1009a0002801be00e00f5000e08f5800e00f590012
:1009b000e08f59000d00320080c7b300804f550012
:1009c0000300320080c5b300804f550007003a0095
:1009d0006e0044009000780002c3b30082f47800f7
:1009e0008100e8008af478000108e80078009000af
:1009f00000804400600498008a407800410037007d
:100a0000286090008000fb00c0062000808f50000e
:100a1000230032000a003c0064005000808f500028
:100a20002600320004003c0066005000808f500019
:100a30000b00320021003700a0062000050037001f
:100a400040072000808f50001c0032001b003c003b
:100a500063005000808f50000700320017003700fd
:100a60001480e900000a780010007800485c9000cb
:100a700008487800490037001480e900000a78002f
:100a80001002780068089000cf80de000101780035
:100a900082017800009abe000292be003f0037003b
:100aa0001480e900000a78001001780068089000be
:100ab000cf80de000089be00380037001480e900d6
:100ac000000a780010007800680c90000808780090
:100ad000320037001480e900000a78001000780026
:100ae000cf80de000101780082017800009cbe000a
:100af0000294be00780090000080440060049800da
:100b000081c7b30008007800f60007002300370013
:100b10001480e900000a7800100078006004980052
:100b2000580990000200e00002003d009f0107000c
:100b3000090037008000eb00a30107008000780067
:100b40000000e000030032006800900000805000c8
:100b50000100370058089000100c98000f00370073
:100b60006e0144009200780050c2b30080f178001a
:100b70000109e80009003700ee0044001100780088
:100b8000808144000a4278008008e8000a04e000fe
:100b900001003a0054c2b300844978000000eb0021
:100ba0004f0578004f04be00000006000400fa0064
:100bb000889fbe008a9fbe008c1f780000047800ca
:100bc0000106780070089000f800900001005000c5
:100bd0008808900001005000980890000100500023
:100be000a808900001005000b808900001005000d3
:100bf000c8089000810550000002220090bf9f00ad
:100c000000032300a0bf9f00081090000028a3004d
:100c100018003a000b00e000160034000b057800c5
:100c20008a047800e20f55000100360029002000f8
:100c30000900e0000c00340058009000c80190004a
:100c400009017800ee80570003000100500498006d
:100c50008080eb000000e0009c00320068089000fb
:100c600009004000600c9800090555004240a900a9
:100c7000ebff3c00780190000200e0000c00340023
:100c800058009000c80190008c007800030001001b
:100c9000500498008080eb000000e0008b003200e0
:100ca00068089000f800900001004000600c980077
:100cb000080890000000e0001600340000057800ed
:100cc0008a047800e20f5500010036002900200058
:100cd0000900e0000c00340058009000c8019000aa
:100ce00009017800ec8057000300010050049800cf
:100cf0008080eb000000e000740032006808900083
:100d000009004000600c9800090555004240a90008
:100d1000ebff3c00180990000200e0000c003400da
:100d2000e800900058009000c80190000300010006
:100d3000500498008080eb000000e0006300320067
:100d4000680890009808900001004000600c98002e
:100d5000280890000000e00016003400000578002c
:100d60008a047800e20f55000100360029002000b7
:100d70000900e0000c00340058009000c801900009
:100d800009017800ec80570003000100500498002e
:100d90008080eb000000e0004c003200680890000a
:100da00009004000600c9800090555004240a90068
:100db000ebff3c00380990000200e0000e00340018
:100dc000e8009000180890008080400058009000d3
:100dd000c801900003000100500498008080eb00df
:100de0000000e0003900320068089000b808900068
:100df00001004000600c9800480890000000e000ee
:100e000016003400000578008a047800e20f5500cf
:100e100001003600290020000900e0000c00340029
:100e200058009000c801900009017800ec8057003c
:100e300003000100500498008080eb000000e000f7
:100e4000220032006808900009004000600c980001
:100e5000090555004240a900ebff3c000810900036
:100e60000028a300180032000b00e0001600340038
:100e70000b0578008a047800e20f55000100360067
:100e8000290020000900e0000c0034005800900008
:100e9000c801900009017800ee80570003000100ae
:100ea000500498008080eb000000e0000700320052
:100eb0006808900009004000600c98000905550082
:100ec0004240a900ebff3c008000eb0001007800ed
:100ed0004f0678004f05be004f04be000080fa00a8
:100ee000000006006f02b000889fbe008a9fbe000f
:100ef0008c9fbe008e1f780080067800d084200072
:100f0000b0b79f0080c5b30080cf50000200320010
:100f1000c2832000b2b79f0083002000c3b79f00a8
:100f2000f0c6b30080cf50000a0032006940400094
:100f300080cf500005003200a4002000c4b79f00fd
:100f400080c5b30080cf500002003a0000012000ad
:100f5000c0b79f008e0120003d04be002d05be00dd
:100f600040c6b30080cf500003003200654040000f
:100f700080cf50000a003a00e00f5400e08f5c0080
:100f8000e00f5d00e08f5d0005003d000800be0041
:100f90000a01be00950007000205be000004be0065
:100fa000e00f5400e08f5c00e00f5d00e08f5d001b
:100fb00003003a005d0890000000e0000c003200e1
:100fc0007e012000cfb0970001027800cfa2de00a2
:100fd00005037800860378000800be000a01be0001
:100fe000180107003fb2970064407800d0e79f00e7
:100ff0004fb09700cf80de000101780082017800b9
:10100000d0b79f00e1b79f00f2b79f0083bf9f005a
:101010000203be000002be000800be000a01be00be
:1010200001010700809ebe008296be00e00f5000c6
:10103000e08f5800e00f5900e08f59002200340083
:101040000e00e000200034003d00be002d01be0077
:101050005fb29700efb297007fb397008fbb970006
:10106000fc0007000205be000004be000e07e900f8
:10107000e1fc2f008f804000010647005fb297001f
:10108000efb297007fb397008fbb97000800be00b8
:101090000a01be008c0107001d0010003fb197003f
:1010a000624e7800889ebe008a96be00e00f540013
:1010b000e08f5c00e00f5d00e08f5d000200340017
:1010c0000e00e000e0ff3c00cfb19700e88f510038
:1010d00010003a000d1090000038a3000d003200ff
:1010e000f70f570006003e00e4fc2f000e024200fe
:1010f000e4c07f0000c3b30080cf50000500320081
:101100000e07e90000c3b300e1fc2f008e80400011
:1011100080f07f0078011700920e98006d0090001b
:10112000e3fc2f008f8141008e8041004dfc0700c1
:101130001d0e90005d089000800f560006003d00d7
:101140000c005000800e98000d1090000040a1008f
:10115000801698000f0037000000e0000d003d00f1
:101160000d10900074006000f00f500009003a006c
:101170007d089000fd009000010050008d08900057
:10118000010050000c0750004240a900010034004b
:101190008e0e98004f0778004f06be004f05be0028
:1011a0004f04be006f02b10000000600800078000e
:1011b0001004e000020032005104e000feff3a009b
:1011c00000805000000006000200e0000500320030
:1011d00090cf1000040032000000e8000201e90096
:1011e000fbff3a000000eb0000000600600010006a
:1011f000e080180060011900e0811900000006007d
:10120000881f7800000478005001be004000be0036
:101210000000420081804a0002014b0083814b00a4
:10122000009cbe000294be00dc00070003003100f9
:10123000480090000000e800400498004f04780047
:1012400000000600889fbe00000478008004eb00c8
:101250005001be004000be00d00007000100310078
:101260001900200004005000858058000601590034
:1012700087815900009cbe000294be004800900087
:1012800009005000400498004f04be000000060012
:101290001200fa00889fbe008a9fbe008c1f780053
:1012a0000205be000004be00f4b79f0085bf9f008a
:1012b00096bf9f00a7bf9f000000eb00e0b79f0014
:1012c000d0b79f00c0b79f00b0b79f00a0b79f00e6
:1012d0000006eb005fb197006fb097008000d00070
:1012e0000000e00015003d00e1b79f00010078001c
:1012f0000200e00001003d000000a000ac0007007b
:1013000001003d000000a000af00070001003d000b
:101310000000a000b200070001003d000000a00096
:101320008100070001003d000000a000b20007009e
:101330007c805700b2ff070014003700e1b79f0020
:10134000010078000200e00001003d000000a00064
:101350009700070001003d000000a0009a00070070
:1013600001003d000000a0009d00070001003d00bd
:101370000000a0006c00070001003d000000a0007c
:101380009d0007007c805700aeff07006fb09700fc
:101390000000e000070035001000200001002000e0
:1013a0006011b80008047000898470000a0571009b
:1013b0008b8571000c06e800f0032000800f5600ba
:1013c000c4ff34006fb097000000e00006003d004d
:1013d0007fb297008fba97001fbb9700afbb9700f3
:1013e0007c80570086ff07000802be000a03be008b
:1013f0006fa897000000e00004003a002fb29700a9
:10140000bfb297004fb39700dfb397000400be0050
:101410000601be004f0678004f05be004f04be0017
:101420000080fa0000000600881f780018002000e5
:10143000881f780096ff07008f87e9004f04780027
:1014400000000600801feb0091ff07008f87e90076
:10145000000006000800fa00889fbe008a9fbe00b8
:101460008c1f78006e00070005003d004300070058
:10147000300007000c003d00330007000b00370070
:10148000e00f5200e08f5a00e00f5b00e08f5b003e
:1014900006003d000400be000601be0053ff070029
:1014a0000205be000004be001c0020002c00070046
:1014b000ddff07000c00e000010032004bff0700d9
:1014c0004f0678004f05be004f04be000080fa00b2
:1014d000000006000800fa00889fbe008a9fbe0038
:1014e0008c1f78004e00070002003d001c00200009
:1014f000220007000f00070001003d001200070056
:1015000017000700cfff07000c00e00001003200c9
:1015100036ff07004f0678004f05be004f04be009f
:101520000080fa000000060090b79f000100d00084
:1015300080b79f00e00f5400e08f5c00e00f5d007b
:10154000e08f5d00000006000800be000a01be003a
:1015500026ff07000205be000004be0000000600d2
:101560000802be000a03be005fb09700efb097000c
:101570007fb197008fb99700000006001bff07009e
:101580000100070000000600b0b79f00c1b79f0030
:10159000d2b79f00e3b79f00000006000400e100ff
:1015a0000588e1000690e1000798e10000000600d0
:1015b000c0b79f000200d000b0b79f00afb0970047
:1015c0000100e00000000600b0b79f000100d0005d
:1015d000a0b79f009fb097000100e0000000060048
:1015e000a0b79f000100d00090b79f008fb0970078
:1015f0000100e0000000060080b79f000804d00052
:101600008984d2000a85d2008b85d2005fb2970010
:10161000efb297007fb397008fbb970000000600e2
:10162000d9ff07000605be000404be000006eb005b
:10163000e00f5000e08f5800e00f5900e08f590094
:1016400000000600889fbe008a9fbe008c9fbe00df
:101650000404b8000506b8008904460060854e0001
:101660000606b8000a054600e0854e000706b800e9
:101670008b054600040eb800890446000a854e001a
:10168000050eb8000a0546008b854e00060eb80010
:101690008b0546000416b8000a0546008b854e00ef
:1016a0000516b8008b054600041eb8008b054600e1
:1016b0000800be000a01be004f06be004f05be0076
:1016c0004f04be00000006000800fa00889fbe001c
:1016d0008a9fbe00170007000605be000404be0076
:1016e000e00f5200e08f5a00e00f5b00e08f5b00dc
:1016f00008003d000400be000601be00bbfe07005e
:101700000205be000004be000f000700b7fe070080
:10171000080007000802be000a03be000a00070016
:10172000c8ff07004f05be004f04be000080fa004e
:1017300000000600e0b79f00f1b79f0082bf9f0046
:1017400093bf9f00000006006fb09700ffb09700a6
:101750000fb997009fb99700000006000000fa003b
:10176000d0168000f2c3b30082406000d4c2bf0034
:10177000614060004600dd0080c07000d4c2bf0040
:101780000080fb000000d100614060004700dd00e8
:1017900000c070000080fb000080fa00000006001e
:1017a0000200fa00004f7800c116800000fc2f00f4
:1017b00000806000c0168800d222a900d202a900d1
:1017c000e116800000fc2f00008160009e80fb007d
:1017d000f00320000080600000007100e016880027
:1017e0009e80fb0000042000008060004680de0038
:1017f00061416000612d200091407800e0cfb3008e
:1018000000c0600002407000d6e2b7009e80fb007e
:1018100000082000008060004780de00614060001a
:101820000041d000612d200091407800d0cfb3005e
:1018300000c0600002407000d6e2b7000080fa00ed
:10184000000006000000fa00d222a800d202a80080
:10185000c0168000f103200001007000c01688004f
:101860000080fa00000006000200fa000e22a90023
:101870000e42a9000e62a9000e02a9000ec2bf000e
:101880000080fb00610060000000e000fbff320010
:1018900090108000004f78000e02a9001e80fb000f
:1018a0000080fa00000006000000fa00e5ff0700d3
:1018b000d902a900d262a8000080fa000000060048
:1018c0000200fa00004f7800114798001e04e00063
:1018d00009003a001e4090000080fb00614160005a
:1018e000a12c200091407800e0cfb30000c0600040
:1018f00002407000cae2b70010c0b3009e4f100053
:101900000a003a001e4090000080fb006140600029
:101910000041d000a12c200091407800d0cfb3002e
:1019200000c0600002407000cae2b70020c0b300ef
:101930009e4f10000a003a001e4090000080fb00fd
:10194000614060004201dd00a12c20009140780040
:10195000b0cfb30000c0600002407000cae2b70020
:1019600030c0b3009e4f10000a003a001e409000a5
:101970000080fb00614060004301dd00a12c2000dd
:101980009140780070cfb30000c06000024070004a
:10199000cae2b7000080fa00000006000800fa0062
:1019a000004f78000040eb00104798006000b8003e
:1019b0001007980021079800dd02a90011c0b300ac
:1019c0001e407800beff0700d4c2bf000080fb00ad
:1019d0004300de000080fb00610060000000e000ca
:1019e00012003a001e009000ae009000610040001e
:1019f000e08048000001be0012079800230798000d
:101a0000901a260001002000800f5100818f59009c
:101a1000edff3a008040eb001e407800a8ff070071
:101a20000080eb0030079800210037004bff0700d3
:101a3000104798008040eb001e407800a0ff070090
:101a40006000b8001007980021079800d4c2bf00ba
:101a50000080fb004300de000080fb0061006000ae
:101a6000e10f50000f003a001e009000ae00900001
:101a700061004000e08048000001be0012079800ad
:101a800023079800901a260001002000800f5100c3
:101a9000818f5900edff3a00e0ff2f0030079800da
:101aa000030037001e4090000080fb0030079800c4
:101ab0003e0090000080fa00000006000800fa00d6
:101ac000004f7800114798006000b8001007980098
:101ad00021079800dd02a8001e40780030ff0700b3
:101ae00011c0b3001e40900075ff0700d4c2bf00b4
:101af0000080fb004300de000080fb00610060000e
:101b00000000e00013003a001e009000ae009000bc
:101b100061004000e08048000001be00120798000c
:101b200023079800901a260001002000800f510022
:101b3000818f5900edff3a008040eb001e4090007d
:101b40005fff07003fff07000080eb0030079800b1
:101b50001f0037003bff07008040eb001e40900055
:101b600057ff07006000b800100798002107980091
:101b7000d4c2bf000080fb004300de000080fb00f9
:101b800061006000e10f50000f003a001e0090005d
:101b9000ae00900061004000e08048000001be00ff
:101ba0001207980023079800901a260001002000d1
:101bb000800f5100818f5900edff3a00e0ff2f00a8
:101bc00030079800020037000000eb003007980053
:101bd0003e0090000080fa00000006000000fa00bd
:101be0000000eb006010880010002000a0108800aa
:101bf0000d42a8000de2a8000f42a8000080fa00e4
:101c0000000006000600fa00004f78000fc2bf0077
:101c10000080fb000000d1000080fb00610060003c
:101c20000000e000f9ff3a001e80fb0080108800f1
:101c30000fc2bf000080fb000000d1000080fb004d
:101c4000610060000000e000f9ff3a006000b800a9
:101c500010079800210798001e019000ae01900027
:101c6000f07c200001002000800f5100818f59007e
:101c700007003c001e009000ae0090006100400094
:101c8000e08048001007980021079800f2ff370015
:101c90000080fa00000006000200fa00000f780041
:101ca0000080fa00000006000400fa00000f78002f
:101cb0000040eb00204798000040eb0020479800d0
:101cc0002e4090000080fb001e0040001004e00049
:101cd000090032002e4090000080fb001e004000f2
:101ce00010407800c7ff07002e4090000040e80039
:101cf00020479800f2ff37000080fa00000006003d
:101d00000a00fa00004f78000040eb0000e8b7003e
:101d10001e40780021ff0700200798002e00900049
:101d20000000e00003003d002e00900040079800f6
:101d30001f0037000000eb00100798009e00900085
:101d40002e009000808f500012003d001e40780051
:101d500012ff0700300798003e0090000000e000ee
:101d600003003d003e00900040079800100037003f
:101d70001e00900001802000010040006e41900094
:101d8000024878001e0090000000e800100798004c
:101d9000eaff37002e009000028020008200400001
:101da0000040eb00804878002e009000400798002b
:101db0004e0090000080fa00000006000600fa00c5
:101dc000000f7800110798000000eb002007980032
:101dd0002e0090001e0040009080fb002e0090001e
:101de000810f500014003d0021c0b30060c0b3005b
:101df00032ff07009e009000000120000088b9001b
:101e0000804078004e40900000c0400021c0b300e8
:101e10002aff07002e0090001e00400021c0b300e2
:101e20001040780025ff07002e0090000000e80019
:101e300020079800e6ff370021c0b30070c0b30050
:101e40001eff07000080fa00000006000400fa00f0
:101e5000004f7800f0c2b3009e4f1000080036001b
:101e600090c3b3009e4f100005003e0000cdb300ac
:101e70001e4040000080fb00100798000b00370058
:101e800000c6b3009e4f10000800360060c6b300c5
:101e90009e4f100005003e0090cab3001e40400057
:101ea0000080fb0010079800000037001e00900023
:101eb0000080fa00000006004800fa00881f780041
:101ec0006000b800008fbe000040eb006047980043
:101ed000f077290074ff0700e80047006e4090008b
:101ee0000080fb00801f7800e0782900801f7800c8
:101ef00001007800caf80700e4875700680047002f
:101f000069ff070058fe070040c798004ec09000c8
:101f10003cff07004ec090000080fb003027980077
:101f200060062000be209000808f50000a003c0018
:101f3000100620003e219000800f51000f003d0050
:101f4000be20900002fd2f0002804000e90f5000eb
:101f5000e1ff3e000900370090062000be209000ff
:101f6000808f500071003200100720003e21900049
:101f7000800f510085003200d7ff37003afe07007e
:101f8000504798005e4090001eff0700de40900022
:101f900000c2b30080cf5000cfff32005e409000ff
:101fa000ea4f5000ccff32005e409000ed4f5000f1
:101fb000c9ff32005e409000fb4f5000c6ff320068
:101fc0004ec09000a1ff07000080fb004404dd002c
:101fd0005e4090009dff070008407000ee409000ba
:101fe000b6fe07000000e0000300320090792900ef
:101ff0002dff0700b8ff37006e40900040ff07003c
:1020000050c79800e80047005ec090000080fb00c9
:10201000801f7800b07a2900801f780001007800c6
:102020007ff80700e4875700680047001eff07009d
:102030000040eb0040479800ce4090005ec090000a
:1020400080cf500012003100e80047004e40900061
:102050000080fb0002802000020040001080fb0096
:10206000801f7800f07b2900801f78000100780035
:102070006bf80700e4875700680047000aff070075
:102080004e4090000040e80040479800eaff3700cb
:10209000507c290004ff07000040eb0040479800f7
:1020a000ce4090005ec0900080cf50001c003100f8
:1020b0004e4090000080fb000180200001004000a5
:1020c00042c1b300904f11000f003600e8004700f6
:1020d0004e4090000080fb00028020000200400083
:1020e0001080fb00801f7800a07c2900801f7800f2
:1020f000010078004af80700e487570068004700ad
:10210000e9fe070002003700f07c2900e6fe070028
:102110004e4090000040e80040479800e0ff370044
:10212000307d2900e0fe07006bff3700707d29003d
:10213000ddfe0700ccfd0700504798005e40900090
:10214000b0fe07005e409000fb4f500062ff32007f
:102150005e409000ea4f50005fff32005e4090000a
:10216000ed4f50005cff3200de40900000c2b30033
:1021700080cf500058ff32005e40900001cdb30088
:10218000014040006047980053ff3700107e29004f
:10219000c5fe07004f0478000080fa00000006002a
:1021a0009600fa00881f78006000b800008fbe001b
:1021b000de02a800bcfd07000040eb00404798008d
:1021c0004e409000e24f500007003e008040eb0080
:1021d0004e409000bafd07004e4090000040e800dd
:1021e00040479800f6ff37000080eb00401588005c
:1021f0000000eb00501688000000eb00301688004d
:1022000076fe07006000b800008fbe00f06928006d
:1022100011002000be0f1000ae8f180005003c001a
:1022200010002000010020001e0f40005e974800b3
:10223000f6ff370000000000108029009afe07001a
:1022400089fd070020c798002ec090006dfe070092
:102250002ec090000081fb0003002000e0fb2f0057
:10226000f1ff2f000201400083814800128f980087
:10227000238f980020032000010020001e89900079
:10228000ae899000800f5100818f590009033e00f4
:102290001e889000ae88900000600100e0013700c9
:1022a000040337000303370002033700010337003c
:1022b00000033700ff023700fe023700fd0237003f
:1022c000fc02370085013700fa023700f9023700b7
:1022d000f8023700f7023700f60237004b023700ea
:1022e000f402370022003700f2023700f102370013
:1022f00074023700ef023700ee023700ed023700bc
:10230000ec023700eb023700ea023700e90237003f
:10231000e8023700e7023700e6023700c60137005f
:10232000e40237009a023700e2023700e102370088
:10233000e0023700df02370011023700dd0237000c
:10234000dc023700db023700da023700d90237003f
:10235000d8023700be013700d6023700020037002e
:102360008b003700a5023700d3fe0700b2ff37000d
:10237000908029004cfe07003bfd070030c7980005
:102380003ec090001ffe0700bec0900030c7b300e3
:1023900080cf500004003200bec0900050c7b30090
:1023a00080cf5000a4ff3a00808229003efe070043
:1023b0002dfd070040c79800cec0900010c3b300a9
:1023c00080cf500018003200cec0900020c3b30070
:1023d00080cf500014003200cec0900030c3b30054
:1023e00080cf500010003200cec0900040c3b30038
:1023f00080cf50000c003200cec0900050c3b3001c
:1024000080cf500008003200cec0900060c3b300ff
:1024100080cf500004003200cec0900010c6b30040
:1024200080cf500084ff3a00bec0900030c7b30098
:1024300080cf500029003a00cec0900010c6b300f3
:1024400080cf50000f003200517f29004ec0900015
:102450000080fb00010040008040eb0070c8970046
:1024600096fd07000000e000030032009083290081
:102470000dfe070019003700a08429000afe07009e
:10248000160037000040eb00404798004e40900097
:10249000e54f500011003e00527f29004e40900051
:1024a0000080fb008040eb006240780083fd070065
:1024b0000000e0000300320090832900fafd0700cd
:1024c00002003700a0842900f7fd07004e4090006d
:1024d0000040e80040479800ecff3700bec0900085
:1024e00050c7b30080cf500053ff3a00cec09000d9
:1024f00010c6b30080cf50000f003200b17f29001a
:102500004ec090000080fb00010040008040eb00c6
:1025100070c8970069fd07000000e000030032006a
:1025200090832900e0fd070043ff3700a0842900c5
:10253000ddfd070040ff37000040eb0040479800fa
:102540004e409000e54f50003bff3e00b27f290017
:102550004e4090000080fb008040eb00624078001d
:1025600056fd07000000e0000300320090832900c0
:10257000cdfd070002003700a0842900cafd070036
:102580004e4090000040e80040479800ecff3700c4
:1025900011c0b30000c1b30048fd070010c0b30074
:1025a000d7fd070040c798004ec09000e14f500093
:1025b00003003200f0842900bbfd07006b003700e8
:1025c000e60047006137980000c8bf000080fb00ac
:1025d000610060000000e00003003200720520008e
:1025e0007237980002003700d3022000733798003a
:1025f0007e309000801f780000c8bf000080fb0084
:10260000620060000000e00003003200b10420001e
:10261000013f980002003700d2022000023f9800dc
:102620008e399000831f780000c8bf000080fb0037
:10263000640060000000e00003003200400320005e
:10264000103f980002003700d1022000113f98008f
:102650001e399000821f780000c8bf000080fb0078
:10266000680060000000e000030032003303200037
:10267000233f980002003700d0022000203f98003e
:10268000ae389000811f780000c8bf000080fb00ba
:10269000700060000000e000030032002203200010
:1026a000323f980002003700d3022000333f9800e9
:1026b0003e389000801f780000c8bf008080fb007b
:1026c00000022000008060000000e00003003200f3
:1026d00011032000413f980002003700d202200081
:1026e000423f9800ce399000831f780000c8bf0099
:1026f0008080fb0000042000008060000000e000fb
:1027000003003200f0032000503f98000200370021
:10271000d1022000513f98005e399000821f78005e
:102720000048e20003003d0033052000633f9800ad
:1027300002003700d0022000603f9800ee38900081
:10274000811f780000c8bf000080fb00801f780058
:10275000b0852900801f78006e309000b0f6070029
:10276000f4875700660047004ffd07008040eb00ec
:10277000c0c1b300d1fc07000000e000030032003c
:102780008088290048fd0700abfe37000040eb00c1
:102790005bfd070040c798004ec09000e14f50001d
:1027a000c9013a00e0c2bf000080fb006100600088
:1027b000e10f500003003a0000c8bf000044a00031
:1027c00000e8b70066014700723f980000c8bf00ec
:1027d0000080fb00610060000000e00003003200a8
:1027e000430320000387980002003700d002200036
:1027f000008798008e809000811f780000c8bf007d
:102800000080fb00620060000000e0000300320076
:10281000320320001287980002003700d302200004
:10282000138798001e809000801f780000c8bf00aa
:102830000080fb00640060000000e0000300320044
:10284000210320002187980002003700d2022000d7
:1028500022879800ae819000831f780000c8bf00d7
:102860000080fb00680060000000e0000300320010
:10287000100320003087980002003700d1022000aa
:10288000318798003e819000821f780000c8bf0009
:102890000080fb00700060000000e00003003200d8
:1028a000b30420004387980002003700d0022000c4
:1028b00040879800ce809000811f780050892900c1
:1028c000801f78007e38900055f60700ec8757008f
:1028d00066004700f4fc070057fe3700008b290014
:1028e000f1fc0700600420000e004000218d29004b
:1028f00050879800618798005e819000ee8190007b
:1029000020000900335978000040eb004047980050
:102910004e409000ff4f500022003e006104200016
:102920008e8040004e4090000080fb0000844000fc
:10293000cdfb0700004c7800610420008e80400031
:102940004e4090000080fb00008040001040780066
:10295000acfc0700610420008e8040004e409000d7
:102960000080fb0000804000d1c0b30090cf100079
:1029700008003a00610420008e8040004e40900024
:102980000080fb008080400000c2b30080487800d7
:10299000040037004e4090000040e8004047980097
:1029a000dbff3700308f2900bffc07000040eb0041
:1029b000404798004e409000ff4f500012003e00ec
:1029c00021c0b30060c0b3003cfc070021c0b300cd
:1029d0004e40900039fc0700610420008e804000ca
:1029e0004e4090000080fb000080400021c0b300fa
:1029f0001040780031fc07004e4090000040e80095
:102a000040479800ebff370021c0b30070c0b3000f
:102a10002afc0700b0902900a3fc070006fe37003f
:102a200020912900a0fc070021c0b30080c0b300a2
:102a300022fc070000fe3700509229009afc070094
:102a400021c0b30090c0b3001cfc0700fafd3700a2
:102a50009093290094fc07000040eb004047980049
:102a60004e409000e24f5000f3fd3e00e60047006c
:102a70004e4090000080fb00801f7800e094290009
:102a8000801f780001007800e5f50700e487570013
:102a90006600470084fc0700ce4090000040eb0039
:102aa00006fc0700008f98000e899000e10f41009e
:102ab0000b0032008e8990000300e00004003d000e
:102ac0000e889000e20f4000080032002800370016
:102ad0008e8890000100e0000700320024003700db
:102ae000c095290070fc07002100370030972900ad
:102af0006dfc07001e0037004e40900080fc070070
:102b000040c798004ec090000080fb00708798007e
:102b10007e819000e10f41000d003200fe819000a7
:102b20000300e00004003d007e809000e20f4000c2
:102b30000a0032000c003700fe8090000100e00027
:102b400009003a00b099290057fc07000800370037
:102b5000409a290054fc070005003700b09b29006b
:102b600051fc070002003700009e29004efc0700c0
:102b70004e4090000040e80040479800b8ff370002
:102b8000e09e290048fc07000040eb004047980009
:102b90004e409000e24f5000a7fd3e00ce40900016
:102ba00010c0b300c5fb07004e40900054fc070066
:102bb00040c79800e60047004ec090000080fb0030
:102bc000801f78004e4090000080fb00801f78003e
:102bd00030a02900801f78000100780090f50700e0
:102be000e6875700660047002ffc070000802000a2
:102bf0002dfc070050a229002bfc07004e4090003e
:102c00000040e80040479800e1ff370070a229002b
:102c100025fc070014fb07006f40600040c79800c8
:102c20004ec090000043b000f6fb0700d0a2290080
:102c30001dfc07000cfb07006f40600030c79800c8
:102c40003ec090000043b000eefb070040a3290007
:102c500015fc0700cec0900020c0b30097fb070012
:102c6000cec090003ec0900094fb07004ec0900084
:102c700023fc0700e600470000c8bf000080fb00ff
:102c8000801f78003ec090000080fb00801f78000d
:102c90004ec090000080fb00801f780080a42900b7
:102ca000801f7800010078005df50700e887570075
:102cb00066004700fcfb0700e0c3b300d1fb070040
:102cc0005dfd370070a22900f7fb0700e6fa070058
:102cd0006f40600040c798004ec090000043b000b5
:102ce000c8fb0700d0a22900effb0700defa0700af
:102cf0006f40600030c798003ec090000043b000b5
:102d0000c0fb0700e0a62900e7fb0700d6fa070092
:102d100000ef98000ee89000bafb070050a72900ca
:102d2000e1fb0700cec0900030c0b30063fb07009a
:102d3000cec090003ec0900060fb0700cec0900067
:102d40000ee890005dfb0700e60047000ee89000eb
:102d50000080fb00801f78003ec090000080fb00d8
:102d6000801f78004ec090000080fb00801f78001c
:102d700090a82900801f78000100780028f507003e
:102d8000e887570066004700c7fb07002afd3700a9
:102d900040ab2900c4fb07008040eb0050c0b300eb
:102da00046fb07000040eb00d5fb070000c8bf0052
:102db0000080fb00c800dd0001c8bf000080fb00f0
:102dc0000080700050379800e60047005e319000a8
:102dd000821f780080ae2900801f780001007800f3
:102de0000ff50700e487570066004700aefb0700b9
:102df000b0ae2900acfb07000ffd370030af290053
:102e0000a9fb070011c0b300f0c0b3002bfb070003
:102e100010c0b300bafb070050379800e600470027
:102e2000de319000831f7800e0b02900801f780019
:102e300001007800faf40700e487570066004700b5
:102e400099fb07000040eb00404798004e4090007f
:102e50008080fb005e309000808f500012003d00ab
:102e6000e60047004e4090000080fb0002802000fa
:102e7000020040001080fb00801f7800b0b22900e3
:102e8000801f780001007800e5f40700e487570010
:102e90006600470084fb07004e4090000040e800b9
:102ea00040479800e9ff3700b0ae29007efb0700dd
:102eb000e1fc3700f0b229007bfb07002ec0900038
:102ec00050fb0700dcfc370030b4290076fb07001c
:102ed0000000eb004f0478000080fa0000000600bc
:020000040000fa
:0200000401f009
:04000000fcff000001
:020000040000fa
:0200000401f009
:04000400ff7f00007a
:020000040000fa
:10000800701c0000701c0000701c0000701c0000b8
:10001800701c0000701c0000701c0000701c0000a8
:10002800701c0000701c0000701c0000701c000098
:10003800701c0000701c0000701c0000701c000088
:10004800701c0000701c0000701c0000701c000078
:10005800701c0000701c0000701c0000701c000068
:10006800701c0000701c0000701c0000701c000058
:10007800701c0000701c0000701c0000701c000048
:10008800701c0000701c0000701c0000701c000038
:10009800701c0000701c0000701c0000701c000028
:1000a800701c0000701c0000701c0000701c000018
:1000b800701c0000701c0000701c0000701c000008
:1000c800701c0000701c0000701c0000701c0000f8
:1000d800701c0000701c0000701c0000701c0000e8
:1000e800701c0000701c0000701c0000701c0000d8
:0800f800701c0000701c0000e8
:020000040000fa
:10010800701c0000701c0000701c0000701c0000b7
:10011800701c0000701c0000701c0000701c0000a7
:10012800701c0000701c0000701c0000701c000097
:10013800701c0000701c0000701c0000701c000087
:10014800701c0000701c0000701c0000701c000077
:10015800701c0000701c0000701c0000701c000067
:10016800701c0000701c0000701c0000701c000057
:10017800701c0000701c0000701c0000701c000047
:10018800701c0000701c0000701c0000701c000037
:10019800701c0000701c0000701c0000701c000027
:1001a800701c0000701c0000701c0000701c000017
:1001b800701c0000701c0000701c0000701c000007
:1001c800701c0000701c0000701c0000701c0000f7
:1001d800701c0000701c0000701c0000701c0000e7
:1001e800701c0000701c0000701c0000701c0000d7
:0801f800701c0000701c0000e7
:020000040000fa
:102ee000dead0000beef00003eb10000d0230000c8
:102ef0007a690000badb0000eeef00004a0a000029
:102f00000d0a00000d0a00000d520000617700005c
:102f1000204d00006f640000650000000a0d0000f5
:102f20000a0d000049250000643e00003a20000020
:102f3000000a00000d540000726100006e73000072
:102f40006d6900007420000065720000726f00005f
:102f5000722e0000000a00000d52000065610000a2
:102f600064200000256400002062000079740000e5
:102f7000657300003a0a00000d3c000000250000c7
:102f80003032000058200000003e00000a0d000012
:102f90003c0000002563000020200000003f0000ee
:102fa00020200000003e00000a0d0000000a000082
:102fb0000d490000525100003f0a00000d3e000084
:102fc000000a00000d0a00000d0a00000d53000069
:102fd000746100006e6400006172000064200000f3
:102fe0004d6f000064650000001300001415000020
:102ff0001623000024170000181900001a250000ed
:10300000260a00000d0a00000d3e00003a200000d4
:10301000000a00000d540000687200007573000083
:1030200074650000727300003a20000053610000d4
:1030300066650000202f0000205500006e73000020
:1030400061660000653f00000a0d00003e000000c0
:103050000a0d0000494400003f2000002831000014
:103060002d3600002c610000290a00000d3e0000f2
:10307000000a00000d4300006f6d00006d6100004c
:103080006e64000020650000727200006f72000024
:103090002e0000000a0d00004f4b0000004300000e
:1030a0006f6d00006d20000065720000726f0000ff
:1030b000722e0000000a00000d5300007461000031
:1030c00074750000732000007265000067690000dd
:1030d00073740000657200003a2000003c25000077
:1030e00030320000583e0000205b000025630000e5
:1030f00025630000256300002563000025630000b0
:103100002563000025630000256300005d000000ca
:103110005453000054410000204600004149000083
:103120004c20000054580000000a00000d5400001c
:10313000687200007573000074650000727300000f
:103140003a2000005b250000632500006325000095
:103150006325000063250000635d0000200000007f
:103160000a0d00000a0d0000456e000074650000a5
:103170007220000075700000207400006f200000b5
:1031800033320000206300006861000072610000bb
:103190006374000065720000733a00000a0d0000bd
:1031a0003e00000020200000202000002020000021
:1031b000202000002020000020200000202000000f
:1031c00020200000202000002020000020200000ff
:1031d00020200000202000002020000020200000ef
:1031e00020200000000a00000d0a00000d5700001a
:1031f00072690000746900006e67000020640000be
:103200006174000061200000746f0000204c000019
:1032100043440000000a00000d4400006f6e0000ef
:10322000650000000a0d00004c430000442000002f
:1032300042610000636b00006c6900006768000079
:10324000742000006f6e0000000a00000d4c0000aa
:103250004344000020420000616300006b6c0000ea
:103260006967000068740000206f00006666000057
:10327000000a00000d500000696e00006769000040
:103280006e670000206100006c6c0000207300007d
:103290006c61000076650000730000000a0d0000fc
:1032a000536c0000617600006520000023250000bb
:1032b000643a000020000000436f00006d6d0000c4
:1032c00020450000727200006f7200003a2000007a
:1032d0005458000020540000696d0000656f000024
:1032e0007574000000430000617400006173000009
:1032f000747200006f7000006869000063200000b5
:10330000627500007320000066610000696c0000b7
:1033100075720000653a0000204100004b4e00002d
:1033200020680000656c00006420000068690000ef
:103330006768000000520000657000006c790000b2
:10334000204f00004b000000436f00006d6d000037
:1033500020450000727200006f7200003a200000e9
:103360005258000020540000696d0000656f000095
:1033700075740000004300006f6d00006d200000b8
:1033800045720000726f0000723a00002042000097
:103390007573000020460000616900006c75000034
:1033a000726500002064000075720000696e000004
:1033b0006720000072650000706c0000790000005a
:1033c000556e00006b6e00006f7700006e200000ed
:1033d00052650000706c0000790000000a0d0000ca
:1033e00049640000656e00007469000066790000a1
:1033f000696e000067200000736c000061760000b9
:1034000065730000000a00000d5300006c610000ad
:103410007665000020230000256400002072000073
:10342000657000006c6900006573000020280000d2
:1034300025640000206200007974000065730000bc
:10344000293a0000203c0000003e0000000a000075
:103450000d490000643d0000000a00000d5200000c
:10346000656700003d0000000a0d00005265000085
:1034700061640000696e000067200000636f000057
:103480006e660000696700002e2e00002e0000000e
:103490000a0d0000536c00006176000065200000fa
:1034a0002325000064200000636f00006e660000aa
:1034b0006967000020720000656700006973000002
:1034c000746500007220000025640000206900007f
:1034d000732000003c250000630000000a0d00007e
:1034e000566100006c3d0000000a00000d5700000e
:1034f00072690000746900006e67000020630000bc
:103500006f6e000066690000672e00002e2e00001e
:10351000000a00000d5300006c6100007665000099
:103520002023000025640000206300006f6e00006f
:10353000666900006720000072650000676900008e
:1035400073740000657200002025000064200000f4
:103550007365000074200000746f0000203c0000c0
:10356000256300003e0000000a0d000041760000c7
:103570006572000061670000652000006f66000052
:10358000206c0000617300007420000031300000e6
:1035900030200000646500007074000068200000a6
:1035a0006d6500006173000075720000656d0000bc
:1035b000656e000074730000206f00006e20000034
:1035c000536c000061760000653a000020000000a6
:1035d00025750000000a00000d4400006f6e000019
:1035e000652e0000000a00000d540000656d00000b
:1035f0007065000072610000747500007265000063
:10360000206f00006e200000536c00006176000007
:1036100065200000313a0000200000000a0d000083
:1036200044610000746100002052000065630000e6
:103630006569000076650000642000002825000010
:1036400064200000627900007465000073290000a6
:103650003a2000000025000075200000000a00004c
:103660000d5500006e6b00006e6f0000776e00005d
:10367000206300006f6d00006d6100006e6400004b
:103680003a20000000540000535400004120000084
:1036900046410000494c0000205200005800000044
:020000040000fa
:1036a000700800000200000002000000010000009d
:1036b000000800003c000000000000007a08000044
:1036c00006000000020000000000000000000000f2
:1036d000800800000600000002000000000000005a
:1036e0000000000086080000060000000200000044
:1036f00000000000000000005e0800001200000052
:1037000002000000202b2d002330000001000200e9
:103710000004000008001000000000007208000013
:103720000800000002000000686a6c00747a4c0017
:10373000000000003c080000220000000200000021
:1037400030313200333435003637380039616200a9
:103750006364650066003000313233003435360072
:10376000373839004142430044454600000000001c
:043770000000000055
:020000040000fa
:1037740091018800800078000000eb0015003700fc
:10378400e280400032a0b4009101ba00e28040001f
:1037940032a0b4009102ba00e280400032a0b4002a
:1037a4000002eb00472bde00f507b200602ce100bd
:1037b40004003a000059eb008301e900fdff3e00dc
:1037c400040037006128e100010032000082eb00b0
:1037d400040007001101ba000200e000e8ff3a000b
:1037e400000006003159ba008301e9000c003200e0
:1037f4002159ba008301e900080032000400e00006
:1038040003003a00e280400032a0b400f5ff370024
:1038140011d9ba008301e900faff3a008100e800f7
:0c382400e180400032a0b400000006006b
:020000040000fa
:10383000cf88200080ff20000001880000000000e9
:103840000c00070000b5210001002000c9ff07009f
:10385000000020000000e000020032000000020032
:1038600000000000d0100200000000000040da005c
:103870000000fe004440a900007c20000000e000a1
:103880000300320000002000a00188004440a8008e
:04389000000006002e
:020000040000fa
:10389400cf88200081ff2000010188004440a90056
:1038a400017c20000100e000030032000100200040
:1038b400a10188004440a800000020000000e000ae
:1038c400020032000000020000000000d0100200dc
:0c38d400000000000040da000000fe00d0
:020000040000fa
:0438e0000000fe00e6
:00000001FF
