:020000040000fa
:080000000401040000000000ef
:020000040000fa
:100200008401040000000000cfae200080792200ad
:100210000001880000000000050007000c00070036
:100220000e1b0200000000000040da000000fe008b
:100230004440a900800320000000e00003003200d9
:1002400000002000a00188004440a8000000060033
:10025000c0dd2100010020001600370062004000d0
:10026000e0804800910188009001ba0062004000df
:10027000e0804800910188009002ba0062004000ce
:10028000e08048000002eb006028e10005003a0031
:100290008301e90007003300038009000059eb00e7
:1002a000040037006128e100010032000082eb0009
:1002b00005000700910188001001ba000200e0006b
:1002c000e6ff3a00000005009101880080027800f6
:1002d00062004000e08048003559ba008301e9001f
:1002e000080032002559ba008301e90005003200f8
:1002f0000400e000f4ff320015d9ba008301e900e0
:10030000f1ff3a0000000600881f78000204780020
:1003100014000700080040004f04780000000600a9
:100320000000fa00881f7800000478003fb99700a9
:10033000ea81570080007800401820001000070074
:10034000800078000000e000020035000040eb0073
:1003500000f47800010078004f0478000080fa0073
:1003600000000600800178000200e0000300320077
:10037000b15978000201e900fdff3a0000000600d3
:100380006200fa00889fbe008a9fbe000004be0083
:1003900002057800830078006a805700ad000700ee
:1003a000f88f9f0089979f000000eb00909f9f00af
:1003b0001a80fb008005fb000000ea00cf04de008d
:1003c0000904780050022000808f550001003a0097
:1003d0000904e9000800e0000c0034000f909700c9
:1003e000080178008a007800ff8997000300010067
:1003f00080979f008080eb000000e00090003200ba
:100400001f98970008004000909f9f000905450035
:1004100050022000808f5500040032000b00e000e5
:10042000e3ff3a009f989700850037000000eb003b
:10043000f0979f00e0979f00d0979f00c0979f0084
:10044000b0979f00a0979f00b09f9f0009003700c2
:1004500020ad2000008050000000d00081ad2000c1
:1004600001004000bf98970090807000b19f9f00ee
:100470000a05e8009a00fb0020ad20007700070085
:10048000800078000000e000f1ff3a00a0c2b30055
:100490009a4f10000e003a003fb897000080e90024
:1004a000b0bf9f0010007800a09f9f000000e000f8
:1004b00005003d000000ea00a09f9f003f989700c4
:1004c0000020a000b09f9f000a05e800110037003f
:1004d000a19f9f000b003700af989700f0ff270007
:1004e000808f5000060032006a09b9001a00fb0034
:1004f0000200400001fd2f0001004000a09f9f006e
:100500000a05e8001a00fb005c0007000000e0009c
:10051000f1ff3a00e0c2b3009a4f1000030032002e
:100520000080eb00809f9f001c003700a0c2b3003a
:10053000da4f100007003a003fb897000080e9004a
:10054000b0bf9f0010007800809f9f000a05e80060
:10055000120037000000eb00809f9f000b00370067
:100560008f989700f0ff2700808f50000600320020
:100570006a09b9001a00fb000200400001fd2f00cb
:1005800001004000809f9f000a05e8001a00fb0060
:100590003a0007000000e000f1ff3a009a00fb007b
:1005a00040ae20002d0007008040eb000000e0007e
:1005b00001003200ba407800817f9f0080c6b300fe
:1005c00080cf500004003a009acf100002003a0099
:1005d00066405000070037008f789700c0c6b30010
:1005e00080cf500005003a009acf100003003a0077
:1005f00065404000807f9f000a05e800a0fb2f00b7
:10060000008447003a01fb0088017800ea80570027
:1006100060f92f000f0040001e0007000000e000fe
:1006200006003a008800780060f92f000f004000b3
:100630009e0107000000e0005dff3d008080eb00b0
:10064000010078004f05be004f04be000080fa0094
:1006500000000600010878000000060090cf10009e
:10066000050032001004e00001003a00000005001f
:10067000d0cf1000fbff3a00000006000003b100dd
:10068000030035009000b10001003c00100005009f
:1006900000000500889fbe008a1f780000047800d3
:1006a0000102780002457800830478000200fb0014
:1006b000cf80de005002b1000180b1003205200081
:1006c000820f5000e08f58006b013e000060010077
:1006d00063013700680137006701370066013700a2
:1006e000650137006401370063013700620137009c
:1006f00061013700600137005f0137005e0137009c
:100700005d0137005c0137005b0137005a0137009b
:10071000590137005801370057013700560137009b
:10072000550137005401370053013700520137009b
:1007300051013700500137004f0137004e0137009b
:100740004d0137004c0137004b0137004a0137009b
:10075000490137004801370047013700460137009b
:10076000450137004401370043013700420137009b
:1007700041013700400137003f0137003e0137009b
:100780003d0137003c013700210137003a013700b5
:100790003901370038013700370137008100370051
:1007a000350137003401370033013700320137009b
:1007b00031013700300137002f0137002e0137009b
:1007c0002d0137002c013700150037001c003700c1
:1007d000290137002801370027013700260137009b
:1007e00017003700240137002301370022013700aa
:1007f00021013700c20037006a003700f5003700da
:100800001d0137001c013700010137001a013700b4
:100810006400370018013700170137006100370006
:100820006e01440012007800808141009480e9004c
:10083000010a78000009e8009149780017013700a3
:1008400028619000c0c6b300804f51000a003a00f2
:100850009400780064805000000a78001000be0008
:100860004f89de00cf91de000002be000203780057
:10087000820378001600370010c7b300804f510084
:1008800003003a00140178006800510005003700a9
:1008900094007800a0c6b300804f510005003a00d4
:1008a00068805000000a78003002be002003be00bd
:1008b000070037000180e900000a78001000780086
:1008c00000027800cfa2de000503780086037800de
:1008d000049cbe000694be00a860900080c6b300d1
:1008e00080cf50000f00320020c6b30080cf5000f0
:1008f00006003a00184078000000fb00cf80de00c0
:1009000001017800820178000a00370040c7b30077
:1009100080cf5000030032006640400080cf50007e
:1009200006003a0018007800cf80de000101780050
:1009300082017800009cbe000294be003800be0018
:100940002801be00e00f5000e08f5800e00f590072
:10095000e08f590004003d006e01440092007800d1
:10096000d0c2b3000c003700081090000018a3009c
:10097000040032006e01440092007800b0c2b3005f
:10098000050037000008a300580032006e01440043
:100990009200780000c2b30080f478000109e800fa
:1009a0005200370028619000c0c6b300804f51004c
:1009b00006003a009400780064805000000a780035
:1009c0001002be006033b8001600370010c7b30035
:1009d000804f510003003a00140178006800510074
:1009e0000500370094007800a0c6b300804f510086
:1009f00005003a0068805000000a78003002be000e
:100a00002003be00070037000180e900000a7800db
:100a10001000780000027800050020000600200089
:100a200007002000049cbe000694be00a860900051
:100a300080c6b30080cf50000f00320020c6b30044
:100a400080cf500006003a00184078000080fb007c
:100a50000100200002002000030020000a003700ef
:100a600040c7b30080cf5000030032006640400012
:100a700080cf500006003a001800780001002000e6
:100a80000200200003002000009cbe000294be0073
:100a9000081090000038a300140032003800be0097
:100aa0002801be00e00f5000e08f5800e00f590011
:100ab000e08f59000d00320080c7b300804f550011
:100ac0000300320080c5b300804f550007003a0094
:100ad0006e0044009000780002c3b30082f47800f6
:100ae0008100e8008af478000108e80078009000ae
:100af00000804400600498008a407800410037007c
:100b0000286090008000fb00c0062000808f50000d
:100b1000230032000a003c0064005000808f500027
:100b20002600320004003c0066005000808f500018
:100b30000b00320021003700a0062000050037001e
:100b400040072000808f50001c0032001b003c003a
:100b500063005000808f50000700320017003700fc
:100b60001480e900000a780010007800485c9000ca
:100b700008487800490037001480e900000a78002e
:100b80001002780068089000cf80de000101780034
:100b900082017800009abe000292be003f0037003a
:100ba0001480e900000a78001001780068089000bd
:100bb000cf80de000089be00380037001480e900d5
:100bc000000a780010007800680c9000080878008f
:100bd000320037001480e900000a78001000780025
:100be000cf80de000101780082017800009cbe0009
:100bf0000294be00780090000080440060049800d9
:100c000081c7b30008007800f60007002300370012
:100c10001480e900000a7800100078006004980051
:100c2000580990000200e00002003d009f0107000b
:100c3000090037008000eb00a30107008000780066
:100c40000000e000030032006800900000805000c7
:100c50000100370058089000100c98000f00370072
:100c60006e0144009200780050c2b30080f1780019
:100c70000109e80009003700ee0044001100780087
:100c8000808144000a4278008008e8000a04e000fd
:100c900001003a0054c2b300844978000000eb0020
:100ca0004f0578004f04be00000006000400fa0063
:100cb000889fbe008a9fbe008c1f780000047800c9
:100cc0000106780070089000f800900001005000c4
:100cd0008808900001005000980890000100500022
:100ce000a808900001005000b808900001005000d2
:100cf000c8089000810550000002220090bf9f00ac
:100d000000032300a0bf9f00081090000028a3004c
:100d100018003a000b00e000160034000b057800c4
:100d20008a047800e20f55000100360029002000f7
:100d30000900e0000c00340058009000c801900049
:100d400009017800ee80570003000100500498006c
:100d50008080eb000000e0009c00320068089000fa
:100d600009004000600c9800090555004240a900a8
:100d7000ebff3c00780190000200e0000c00340022
:100d800058009000c80190008c007800030001001a
:100d9000500498008080eb000000e0008b003200df
:100da00068089000f800900001004000600c980076
:100db000080890000000e0001600340000057800ec
:100dc0008a047800e20f5500010036002900200057
:100dd0000900e0000c00340058009000c8019000a9
:100de00009017800ec8057000300010050049800ce
:100df0008080eb000000e000740032006808900082
:100e000009004000600c9800090555004240a90007
:100e1000ebff3c00180990000200e0000c003400d9
:100e2000e800900058009000c80190000300010005
:100e3000500498008080eb000000e0006300320066
:100e4000680890009808900001004000600c98002d
:100e5000280890000000e00016003400000578002b
:100e60008a047800e20f55000100360029002000b6
:100e70000900e0000c00340058009000c801900008
:100e800009017800ec80570003000100500498002d
:100e90008080eb000000e0004c0032006808900009
:100ea00009004000600c9800090555004240a90067
:100eb000ebff3c00380990000200e0000e00340017
:100ec000e8009000180890008080400058009000d2
:100ed000c801900003000100500498008080eb00de
:100ee0000000e0003900320068089000b808900067
:100ef00001004000600c9800480890000000e000ed
:100f000016003400000578008a047800e20f5500ce
:100f100001003600290020000900e0000c00340028
:100f200058009000c801900009017800ec8057003b
:100f300003000100500498008080eb000000e000f6
:100f4000220032006808900009004000600c980000
:100f5000090555004240a900ebff3c000810900035
:100f60000028a300180032000b00e0001600340037
:100f70000b0578008a047800e20f55000100360066
:100f8000290020000900e0000c0034005800900007
:100f9000c801900009017800ee80570003000100ad
:100fa000500498008080eb000000e0000700320051
:100fb0006808900009004000600c98000905550081
:100fc0004240a900ebff3c008000eb0001007800ec
:100fd0004f0678004f05be004f04be000080fa00a7
:100fe000000006006f02b000889fbe008a9fbe000e
:100ff0008c9fbe008e1f78008006780070aa2000ab
:10100000b0b79f0080c5b30080cf5000020032000f
:1010100062a92000b2b79f0083002000c3b79f00e1
:10102000f0c6b30080cf50000a0032006940400093
:1010300080cf500005003200a4002000c4b79f00fc
:1010400080c5b30080cf500002003a0000012000ac
:10105000c0b79f008e0120003d04be002d05be00dc
:1010600040c6b30080cf500003003200654040000e
:1010700080cf50000a003a00e00f5400e08f5c007f
:10108000e00f5d00e08f5d0005003d000800be0040
:101090000a01be00c00107000205be000004be0038
:1010a000e00f5400e08f5c00e00f5d00e08f5d001a
:1010b00003003a005d0890000000e0000c003200e0
:1010c0007e012000cfb0970001027800cfa2de00a1
:1010d00005037800860378000800be000a01be0000
:1010e000430207003fb2970064407800d0e79f00ba
:1010f0004fb09700cf80de000101780082017800b8
:10110000d0b79f00e1b79f00f2b79f0083bf9f0059
:101110000203be000002be000800be000a01be00bd
:101120002c020700809ebe008296be00e00f500099
:10113000e08f5800e00f5900e08f59002200340082
:101140000e00e000200034003d00be002d01be0076
:101150005fb29700efb297007fb397008fbb970005
:10116000270207000205be000004be000e07e900ca
:10117000e1fc2f008f804000010647005fb297001e
:10118000efb297007fb397008fbb97000800be00b7
:101190000a01be00b70207001d0010003fb1970012
:1011a000624e7800889ebe008a96be00e00f540012
:1011b000e08f5c00e00f5d00e08f5d000200340016
:1011c0000e00e000e0ff3c00cfb19700e88f510037
:1011d00010003a000d1090000038a3000d003200fe
:1011e000f70f570006003e00e4fc2f000e024200fd
:1011f000e4c07f0000c3b30080cf50000500320080
:101200000e07e90000c3b300e1fc2f008e80400010
:1012100080f07f0078011700920e98006d0090001a
:10122000e3fc2f008f8141008e8041004dfc0700c0
:101230001d0e90005d089000800f560006003d00d6
:101240000c005000800e98000d1090000040a1008e
:10125000801698000f0037000000e0000d003d00f0
:101260000d10900074006000f00f500009003a006b
:101270007d089000fd009000010050008d08900056
:10128000010050000c0750004240a900010034004a
:101290008e0e98004f0778004f06be004f05be0027
:1012a0004f04be006f02b10000000600800078000d
:1012b0001004e000020032005104e000feff3a009a
:1012c00000805000000006000200e000050032002f
:1012d00090cf1000040032000000e8000201e90095
:1012e000fbff3a000000eb0000000600889fbe00f4
:1012f0008a9fbe00010578000100e000040035006f
:1013000008003c000000e00020003200050037002b
:1013100060001000e080180002003b0001f02c008b
:101320001a0037000004be006011b8006b092000ed
:101330000982cf00020039000882cf000441b000ca
:10134000694252000e00320008003b0082817100a9
:10135000610164008904d1000884d3008b05e80092
:101360000442e800f9ff3a00050037000804440091
:1013700089844c008b05e9000442e900fbff3a0038
:10138000b20007000af0a70001f0a0004f05be0060
:101390004f04be000000060003f0a200889fbe00bc
:1013a0008a9fbe008c1f7800ce000700d500330056
:1013b0006450e1004f0032006420e100520032002e
:1013c00003826c0007003b000905d0000306d00033
:1013d000820f54000c065d0002003900020032004a
:1013e00089017800030678008582550004003d00dd
:1013f0000003fd008103fd008502ea008b854200a9
:10140000840f720002003b0060001000e0801800b2
:101410006011b8000005eb007a28e1000a003900ed
:1014200006007800c75ddd00f707b2008780750011
:101430002d003700828171000a017800610560008b
:101440008180d1000080d3008502e900f9ff3b00d4
:10145000060440008784480002003b00600414003a
:10146000e0841c000988a300070032008a81710013
:1014700082817100610164008904d1000884d30075
:101480008b05e800170037000978a30013003a0025
:101490000b00e000130034008b05e9000804440051
:1014a00089844c000a4474000978a3000d003a00b6
:1014b0000b00e000070034008b05e900080444003d
:1014c00089844c0001003a000b0020000978a30039
:1014d000f7ff32000001eb0002003700828171004b
:1014e0000a017800590007000cf0a70001f0a000e5
:1014f0008d0037006420e10002003a00838f6c0009
:101500008d0033000801be000200be0086003700d7
:10151000889fbe008a9fbe008c1f78007100070064
:101520007800330003866c006450e1002400320030
:101530006420e100270032006150e1002200320007
:101540006120e100210032008b854200eb07b100f1
:101550000134b800003ab8000804420089844a0007
:10156000013ab8000030b8008880400009014a0004
:10157000040033000000400081804800020149005f
:101580008b05e900c909dd0083017000010032000c
:1015900013002000c814de004814dd004709de00f7
:1015a0001200b200c808de0008847000270007009f
:1015b00001f0a1000cf0a70001f0a0005a003700d4
:1015c0006120e1005c0032000801be000200be00a4
:1015d000f7ff37006150e100fcff3a00560037008a
:1015e0000001be00570007000470a70003f0a1002f
:1015f00003f8a30013003a006509b100100032009f
:10160000090035006928e1000200350001002800ca
:101610000000050000004000818048008502e900cc
:10162000fcff3a0000000600f88f4200050035007c
:101630008100d1000080d3008502e800fcff3a0061
:10164000000006008000eb00000005008100200083
:10165000618055000b003d000b00200061fe2f0053
:101660000100e1001d00340082817100610164000d
:101670008904d1000884d3000000e800faff3a0092
:10168000710020006100640003007000020060002f
:101690000900320061044400e0844c000988a50080
:1016a000050032008b05e8006808e10002003a00fe
:1016b0008904d1000884d300f20f20000258e10011
:1016c00005003d00c75ddd00f907b20089807500a7
:1016d00008007800000006000bf827008b00780057
:1016e000000005000004be00160007000003be0055
:1016f0000405be000200be0012000700844f750002
:10170000000006000200be006450e1000500360043
:101710006420e100020036000968a30001003a00dd
:101720000800be000160a0004f0678004f05be0013
:101730004f04be0000000600f0ff2f00f1ff27005d
:10174000f9ff3700c70ade00f107b200f50fb2005b
:1017500008003200e1cf4200020032000170a00018
:1017600024000500810f700001003200040805000c
:1017700044000500810f700002003a0014000500cb
:101780008502e9000000400081c04800fcff3b00ea
:101790000170a0002400050060001000e080180027
:1017a00060011900e081190000000600881f780020
:1017b000000478005001be004000be00000042005e
:1017c00081804a0002014b0083814b00009cbe00d7
:1017d0000294be00dc0007000300310048009000c6
:1017e0000000e800400498004f0478000000060064
:1017f000889fbe00000478008004eb005001be000a
:101800004000be00d0000700010031001900200098
:101810000400500085805800060159008781590056
:10182000009cbe000294be004800900009005000d9
:10183000400498004f04be00000006001200fa00a9
:10184000889fbe008a9fbe008c1f78000205be00e4
:101850000004be00f4b79f0085bf9f0096bf9f00a5
:10186000a7bf9f000000eb00e0b79f00d0b79f002c
:10187000c0b79f00b0b79f00a0b79f000006eb0065
:101880005fb197006fb097008000d0000000e000cb
:1018900015003d00e1b79f00010078000200e00064
:1018a00001003d000000a000ac00070001003d0069
:1018b0000000a000af00070001003d000000a000f4
:1018c000b200070001003d000000a00081000700f9
:1018d00001003d000000a000b20007007c8057001e
:1018e000b2ff070014003700e1b79f000100780045
:1018f0000200e00001003d000000a000970007008a
:1019000001003d000000a0009a00070001003d001a
:101910000000a0009d00070001003d000000a000a5
:101920006c00070001003d000000a0009d000700c2
:101930007c805700aeff07006fb097000000e0000a
:101940000700350010002000010020006011b800e1
:1019500008047000898470000a0571008b8571008d
:101960000c06e800f0032000800f5600c4ff34008e
:101970006fb097000000e00006003d007fb29700c6
:101980008fba97001fbb9700afbb97007c805700b2
:1019900086ff07000802be000a03be006fa897007a
:1019a0000000e00004003a002fb29700bfb2970099
:1019b0004fb39700dfb397000400be000601be00de
:1019c0004f0678004f05be004f04be000080fa00ad
:1019d00000000600881f780018002000881f78008b
:1019e00096ff07008f87e9004f047800000006008b
:1019f000801feb0091ff07008f87e90000000600c1
:101a00000800fa00889fbe008a9fbe008c1f7800e5
:101a10006e00070005003d0043000700300007008e
:101a20000c003d00330007000b003700e00f5200b0
:101a3000e08f5a00e00f5b00e08f5b0006003d0086
:101a40000400be000601be0053ff07000205be00f1
:101a50000004be001c0020002c000700ddff070072
:101a60000c00e000010032004bff07004f06780039
:101a70004f05be004f04be000080fa0000000600c3
:101a80000800fa00889fbe008a9fbe008c1f780065
:101a90004e00070002003d001c002000220007004d
:101aa0000f00070001003d001200070017000700ab
:101ab000cfff07000c00e0000100320036ff0700f6
:101ac0004f0678004f05be004f04be000080fa00ac
:101ad0000000060090b79f000100d00080b79f0073
:101ae000e00f5400e08f5c00e00f5d00e08f5d00d0
:101af000000006000800be000a01be0026ff070025
:101b00000205be000004be00000006000802be0080
:101b10000a03be005fb09700efb097007fb1970057
:101b20008fb99700000006001bff070001000700a7
:101b300000000600b0b79f00c1b79f00d2b79f005a
:101b4000e3b79f00000006000400e1000588e10003
:101b50000690e1000798e10000000600c0b79f0072
:101b60000200d000b0b79f00afb097000100e000c6
:101b700000000600b0b79f000100d000a0b79f0092
:101b80009fb097000100e00000000600a0b79f0092
:101b90000100d00090b79f008fb097000100e000d7
:101ba0000000060080b79f000804d0008984d2009e
:101bb0000a85d2008b85d2005fb29700efb2970002
:101bc0007fb397008fbb970000000600d9ff070086
:101bd0000605be000404be000006eb00e00f500046
:101be000e08f5800e00f5900e08f59000000060018
:101bf000889fbe008a9fbe008c9fbe000404b80070
:101c00000506b8008904460060854e000606b80047
:101c10000a054600e0854e000706b8008b05460021
:101c2000040eb800890446000a854e00050eb8006f
:101c30000a0546008b854e00060eb8008b0546004f
:101c40000416b8000a0546008b854e000516b8003c
:101c50008b054600041eb8008b0546000800be0038
:101c60000a01be004f06be004f05be004f04be0075
:101c7000000006000800fa00889fbe008a9fbe0090
:101c8000170007000605be000404be00e00f520066
:101c9000e08f5a00e00f5b00e08f5b0008003d0022
:101ca0000400be000601be00bbfe07000205be0028
:101cb0000004be000f000700b7fe07000800070081
:101cc0000802be000a03be000a000700c8ff0700a2
:101cd0004f05be004f04be000080fa000000060061
:101ce000e0b79f00f1b79f0082bf9f0093bf9f00a6
:101cf000000006006fb09700ffb097000fb9970083
:101d00009fb99700000006000600fa0006a2a9008d
:101d10000682a8006000b800008fbe0006c2bf00a7
:101d20000080fb004400de000080fb0061006000da
:101d30000000e0000c003200100020000100200034
:101d40001e0f40005e974800106a28001100200016
:101d5000be0f1000ae8f1800f0ff3a00f10f200008
:101d600021079800020037000000eb0020079800d0
:101d70002e0090000080fa00000006000000fa002b
:101d8000de42a800de62a80007e2a900f0542000ad
:101d90002010880000202100301088000040eb0057
:101da00000e2b7000040eb0002e2b700002029008b
:101db000301088000000eb000080fa0000000600f0
:101dc0000600fa000662a800000000006000b800eb
:101dd000008fbe0008c2bf000080fb000000d100e1
:101de0000080fb00610060000000e0000c003a0091
:101df00010002000010020001e0f40005e974800e8
:101e0000106a280011002000be0f1000ae8f1800cd
:101e1000f0ff3a00f10f200021079800030037007f
:101e200000c2bf000080fb00200798002e00900039
:101e30000080fa00000006000600fa006000b8000a
:101e4000008fbe000602a80006c2bf000080fb0093
:101e5000610060000000e0000c0032001000200073
:101e6000010020001e0f40005e974800106a280005
:101e700011002000be0f1000ae8f1800f2ff3a00d4
:101e8000f10f200021079800020037000000eb004e
:101e9000200798002e0090000080fa000000060045
:101ea0000600fa006000b800008fbe000622a800fd
:101eb00006c2bf000080fb000000d1000080fb00d4
:101ec000610060000000e0000c0032001000200003
:101ed000010020001e0f40005e974800106a280095
:101ee00011002000be0f1000ae8f1800f0ff3a0066
:101ef000f10f200021079800020037000000eb00de
:101f0000200798002e0090000080fa0000000600d4
:101f10000600fa000642a8006000b800008fbe006c
:101f200006c2bf000080fb004200de000080fb0014
:101f3000610060000000e0000c0032001000200092
:101f4000010020001e0f40005e974800106a280024
:101f500011002000be0f1000ae8f1800f0ff3a00f5
:101f6000f10f200021079800020037000000eb006d
:101f7000200798002e0090000080fa000000060064
:101f80000800fa00004f78001e40780002e2b70017
:101f90006000b800100798002107980008c2bf0031
:101fa0000080fb00610060000000e0000f003200d4
:101fb0001e009000ae00900061004000e0804800ec
:101fc0000001be001207980023079800106a28003d
:101fd00011002000800f5100818f5900efff3a005f
:101fe000f00f200030079800020037000000eb00df
:101ff000300798003e0090000080fa0000000600c4
:102000000600fa006000b800008fbe0009c2bf00e1
:102010000080fb004600de000080fb0061006000e5
:102020000000e0000c003200100020000100200041
:102030001e0f40005e974800106a28001100200023
:10204000be0f1000ae8f1800f0ff3a00f10f200015
:1020500021079800020037000000eb0020079800dd
:102060002e0090000080fa00000006000600fa0032
:10207000881f7800000f7800214798002e409000bc
:102080000040e90020479800e14f40001400320072
:102090001e007800000478001e0fe80048ff0700cb
:1020a000004c780009c2bf000080fb004200de0047
:1020b0000080fb00610060000000e00003003200cf
:1020c0000080eb0020079800070037002e409000aa
:1020d0000004e000e9ff32000bff0700e7ff3700d4
:1020e0000000eb00200798002e0090004f047800bd
:1020f0000080fa00000006000800fa00004f780097
:102100006000b8001007980021079800bcff070086
:1021100049ff07001e4078000004a00098ff070058
:10212000b7ff07006600470021c0b300cfff0700dc
:1021300066004700104078000080fb00010020008e
:102140001007980021079800effe070070ff0700b6
:102150001e009000ae0090000080fa000000060013
:102160000a00fa00004f78000040eb00b8eab70020
:10217000b9cabf000080fb00400798004e009000e5
:10218000e20f5000e4013200ce009000e28f5000d8
:1021900007003c004e0190000200e00012003200f7
:1021a000ce019000e18f5100cf0132000e023700c6
:1021b0004e009000e70f5000fe013200ce0090006c
:1021c000e78f500004003c004e019000e60f5100e4
:1021d000e601320004023700ce019000e88f510082
:1021e000fb013200000237001e4078000081fb0036
:1021f000030020002207980033079800c005200044
:10220000010020002e019000be019000800f5100bf
:10221000818f5900f4013e002e009000be00900016
:10222000006001005c0037005e003700640037008a
:102230006800370085003700eb013700ea013700fe
:10224000e9013700e8013700e7013700e601370010
:10225000e501370080003700e3013700e201370075
:102260004e0137003e013700df013700de01370045
:102270007c00370082003700880037008e0037006e
:10228000a2003700a8003700ae003700b4003700c6
:10229000d5013700c8003700d3013700d20137001d
:1022a0005b0037005f003700cf013700ce013700f9
:1022b000880037008e003700b0003700b6003700c6
:1022c000c9013700c8013700c7013700c601370010
:1022d000c5013700c4013700c3013700c201370010
:1022e000c1013700c0013700bf013700f3003700dc
:1022f000f4003700f5003700f6003700f70037002c
:10230000f8003700f9003700fa003700fb0037000b
:10231000fc003700fd003700fe003700ff003700eb
:1023200000013700010137000201370003013700c7
:102330001f0137002301370045013700aa0137008c
:10234000a9013700a8013700a7013700a60137000f
:102350002a00370038003700a30137002200370079
:10236000a1013700a00137009f0137009e0137000f
:102370009d0137009c0137009b0137009a0137000f
:10238000990137009801370097013700960137000f
:1023900095013700940137000040eb001ce8b700be
:1023a0009101370000dc2900801f7800d0812000d7
:1023b000dbf707008f87e9001ce8b7008a013700c8
:1023c00010c0b300b9eab7000040eb00baeab700aa
:1023d0008501370020c0b300b9eab7000040eb0028
:1023e000baeab7008001370080c0b300b9eab7008d
:1023f0000040eb00baeab7007b01370060c0b300d1
:10240000b9eab7000040eb00baeab700760137003e
:1024100040c0b300b9eab7000040eb00baeab70029
:102420007101370050c0b300b9eab7000040eb00bb
:10243000baeab7006c01370070c0b300b9eab70060
:102440000040eb00baeab700670137000040eb003c
:10245000bf0107006401370010c0b300bc010700d2
:1024600061013700e902a900bdcabf00e1cfb30096
:1024700001406000bdeab7006c0307005a01370055
:10248000e8e2a900bdcabf00d1cfb300014060009f
:10249000bdeab7006503070053013700e8c2a90091
:1024a000bdcabf00b1cfb30001406000bdeab700b4
:1024b0005e0307004c013700d082a900bdcabf00ef
:1024c00071cfb30001406000bdeab70057030700b9
:1024d00045013700d062a900bdcabf00f1ceb300ec
:1024e00001406000bdeab700500307003e0137001d
:1024f000d042a900bdcabf00f1cdb30001406000c9
:10250000bdeab7004903070037013700bdcabf0065
:102510000080fb00610060000000e00032013a0032
:10252000e902a80030013700bdcabf000080fb00ef
:10253000620060000000e0002b013a00e8e2a80021
:1025400029013700bdcabf000080fb0064006000a5
:102550000000e00024013a00e8c2a8002201370090
:10256000bdcabf000080fb00680060000000e00002
:102570001d013a00d082a8001b013700bdcabf0070
:102580000080fb00700060000000e00016013a00cf
:10259000d062a80014013700bdcabf008080fb00d4
:1025a00000022000008060000000e0000e013a0000
:1025b000d042a8000c013700a901070010c0b300e9
:1025c0001ce8b7000040eb001de8b700e9c2bf00ff
:1025d0000080fb0061006000e10f500003003a0042
:1025e0001dc8bf000004a0001de8b700e8c2bf007e
:1025f0000080fb004700de000080fb00e10f500080
:1026000003003a001dc8bf000014a0001de8b70079
:10261000e8c2bf000080fb004600de000080fb0037
:1026200061006000e10f500003003a001dc8bf00c8
:102630000024a0001de8b700d0c2bf000080fb004e
:102640004400de000080fb0061006000e10f5000ec
:1026500003003a001dc8bf000034a0001de8b70009
:10266000d0c2bf000080fb004300de000080fb0002
:1026700061006000e10f500003003a001dc8bf0078
:102680000044a0001de8b700d0c2bf000080fb00de
:102690004200de000080fb0061006000e10f50009e
:1026a00004003a001dc8bf0001c2b3000140700021
:1026b0001de8b70065010700cb003700e2e2a90082
:1026c000c9003700e2c2a900c7003700c5c2a9008f
:1026d000c5003700c5e2a900c3003700d702a90032
:1026e000c1003700d722a900bf003700d742a90098
:1026f000bd003700d762a900bb003700e2e2a800a6
:10270000b9003700e2c2a800b7003700c5c2a80070
:10271000b5003700c5e2a800b3003700d702a80013
:10272000b1003700d722a800af003700d742a80079
:10273000ad003700d762a800ab00370048010700a2
:1027400010c0b3001ce8b7000040eb001de8b70064
:10275000330307001de8b7003c010700a200370063
:102760003f01070010c0b3001ce8b7000040eb00b9
:102770001de8b700d5c2bf000080fb004700de00a7
:102780000080fb000000e00002003a0010c0b3002f
:102790001de8b7002d0107009300370010c0b300fb
:1027a0001ce8b700bccabf001de8b7008e003700a8
:1027b00010c0b3001ce8b700bdcabf001de8b700d9
:1027c000890037000040eb001047980000c1b300bb
:1027d0001ce8b7000040eb00104798001e40900036
:1027e000e74f500080003e001e4090000080fb003c
:1027f0000000d0000180200001004000100078009f
:10280000100798001e4090000080fb000000d000e0
:10281000d2812000820040001e0090004800de00af
:10282000804878001e4090000080fb000000d0002f
:10283000e381200003004000ae4090000148780092
:102840001e4090000040e80010479800e3ff37006a
:10285000a0c0b3001ce8b7009240800012079800a7
:102860001e0090004800de001de8b7002e409000da
:102870001ee8b700b1408000110798001e009000cc
:102880004800de001fe8b7002e40900020e8b700a7
:10289000a1408000110798001e0090004800de0053
:1028a00021e8b7002e40900022e8b700c140800028
:1028b000110798001e0090004800de0023e8b700d2
:1028c0002e40900024e8b700d14080001107980006
:1028d0001e0090004800de0025e8b7002e40900062
:1028e00026e8b700400037000040eb00baeab70026
:1028f0000040eb00b9eab70010c0b3001ce8b70015
:102900001e80fb00818520000100400010407800ff
:102910001de8b70034003700ba4ae20002003a006e
:102920001e407800bbeab700bacabf000040e8000a
:10293000baeab700a0ab200021c0b30090cf1000ce
:1029400029003a000040eb00baeab7000040eb0073
:10295000b9eab700bbcabf000080fb008285200037
:10296000020040001e4878001f003700a2ab200084
:1029700092407800014078000080fb0083862000b0
:10298000030040001e4878008140e80001497800bb
:10299000a0ab200061c0b30090cf100012003a003d
:1029a0000040eb00baeab7000040eb00b9eab7001c
:1029b0000d0037001e407800de0207000040eb00eb
:1029c000baeab7000040eb00b9eab70006003700ea
:1029d0001e407800560207000040eb00baeab7003c
:1029e0000040eb00b9eab7000080fa0000000600e2
:1029f0000000fa00a01680000080fb000080fa00b2
:102a0000000006000200fa00004f780091168000d6
:102a100000f02f000080600090168800b116800042
:102a200000f02f00808060001e80fb00008070009e
:102a3000b01688000080fa00000006000000fa00ce
:102a400090168000f10f20000100700090168800a1
:102a50000080fa00000006000400fa000040eb00cd
:102a6000004f7800c2c2bf000080fb004600de00bd
:102a70000080fb00610060000000e00003003a00fd
:102a80000000eb00100798002e003700e0c2bf00e6
:102a90000080fb000000d1000080fb0061006000ae
:102aa000e10f50000f003a00d1ff0700004f7800ff
:102ab000e202a800de02a900c2c2bf000080fb0043
:102ac0004600de000080fb00610060000000e000c6
:102ad000f9ff3a00de02a8001e407800a0fd0700c2
:102ae0001600370082ab2000924078000140780049
:102af0000080fb00c381200003004000104f7800dd
:102b00008140e800014978001e407800bdff0700c1
:102b1000e202a800de02a900c2c2bf000080fb00e2
:102b20004600de000080fb00610060000000e00065
:102b3000f9ff3a00c1ff0700de02a80010002000e4
:102b4000100798001e0090000080fa0000000600a8
:102b50000200fa00004f78001e04e00002003a0074
:102b6000d022a80001003700e9e2a80010002000f0
:102b70000056880000712200100888000000eb0059
:102b8000000888008460a9008c60a8000421a900c6
:102b9000411020009140780000c3b30000c07000d5
:102ba00004e1b70005e1a8000080fa00000006007b
:102bb0000000fa0040062000600888000000eb00da
:102bc0003008880084c0a9008cc0a8001021a9008a
:102bd000011120009140780000c3b30000c07000d4
:102be00010e1b70011e1a800e302a8000080fa009c
:102bf00000000600801f78000000fa008460a90031
:102c0000005680000000e90000568800c00ae2007b
:102c100004003a00d022a900e9e2a90005e1a900d8
:102c20008c60a9000080fa004f0078000040060088
:102c30000000fa0084c0a9008cc0a900e302a9002a
:102c400011e1a9000080fa00004006000000fa002f
:102c5000c2c0a80080ff07000080fa000000060044
:102c60000000fa00c2c0a9000080fa0000000600bf
:102c70000000fa00f5ff070091092000914078005c
:102c800080cfb30000c060006040b30099e0b7009f
:102c90008109200091407800f0c8b30000c06000b6
:102ca00001c5b3000140700098e0b700b1092000f1
:102cb00091407800f0c8b30000c0600001c4b300c8
:102cc000014070009be0b70091092000914078001e
:102cd000f0c8b30000c0600001c2b3000140700042
:102ce00099e0b70085e0a9008de0a8000080fa0017
:102cf000000006000000fa0050ff0700de22a800d6
:102d0000c0c2a800de02a800d9ff07000080fa00b8
:102d1000000006003600f800809fbe00829fbe00c3
:102d2000849fbe00869fbe000000fa0085e0a900d7
:102d3000c2c0bf000080fb004600de000080fb0038
:102d400061006000e10f500002003a0042ff0700fe
:102d500097ff07000080fa004f03be004f02be003d
:102d60004f01be004f00be003600f90000400600d3
:102d70000000fa000000eb00001588000000eb00e6
:102d8000101588000000eb0020158800a0c2bf00cd
:102d90007f406000a0e2b700a042a900112a2000f5
:102da00091407800c0cfb30000c06000a1e2b7003e
:102db000a3c2bf007f406000a3e2b700c0002000b4
:102dc000301588000000eb0050158800a5c2bf0038
:102dd000f041b300a5e2b700412a200091407800fd
:102de00000ccb30000c060000024a000a4e2b70043
:102df000a222a900a202a9008560a9008d60a900f5
:102e0000a022a900a1e2a8000080fa0000000600ac
:102e10000200fa00004f78001e80fb003015880089
:102e20000040eb00104798001e409000e94f500012
:102e300004003e001e4090000040e800104798004b
:102e4000f9ff37000080fa00000006000400fa00d5
:102e5000a022a8006000b800008fbe00300620004d
:102e600001002000be0f1000ae8f180005003c00ce
:102e700010002000010020001e0f40005e97480057
:102e8000f6ff3700a022a900a0c2bf000080fb000f
:102e9000610060000000e000fbff320000148000d1
:102ea000010020000080fa00000006001200fa0075
:102eb000000f780012079800230798003407980045
:102ec000450798001e007800cf80de0007f9070054
:102ed00070079800010f98001e00e00007003d00f9
:102ee00002002000037824007e0090008e089000ed
:102ef0002af9070070079800010f98001e01900042
:102f0000ae0190007e0090008e08900080f90700ce
:102f10003e019000ce01900020f907005007980074
:102f2000610798005e009000ee009000acf9070089
:102f30000080fa00000006000a00fa00004f780046
:102f40001e80fb00610060000000e0000300320012
:102f5000100020001007980002003700e1ff2f004a
:102f6000110798002e40900061416000312e200032
:102f700091407800e0cfb30000c0600002407000d4
:102f8000e3e2b7001e80fb00620060000000e0008a
:102f900003003200110020002107980002003700d2
:102fa000e0ff2f0020079800ce40900061c0600035
:102fb0004601dd00712d200091407800f0cbb30078
:102fc00000c0600002407000d7e2b7001e80fb0026
:102fd000640060000000e0000300320010002000e8
:102fe0003007980002003700e1ff2f0031079800fa
:102ff000ee40900061c060004201dd00512c2000d5
:1030000091407800b0cfb30000c060000240700073
:10301000c5e2b7001e80fb00680060000000e00011
:103020000300320010002000400798000200370023
:10303000e1ff2f00410798008e48900061c06000ba
:103040000041d000512c200091407800d0cfb30037
:1030500000c0600002407000c5e2b7000080fa00c6
:10306000000006000c00fa00004f78006000b80075
:103070006011b800100798002107980032079800e7
:10308000430798000040eb00204f98002e48900026
:10309000ef4f50001e003e009e80fb002e48900027
:1030a0000081fb00000120000008b8000000410082
:1030b0000000d00061932000010040001000780063
:1030c0000002780005002000060020000700200014
:1030d0001e009000ae0090003e019000ce019000d6
:1030e0000000420081804a0002014b0083814b00b6
:1030f00010079800210798003207980043079800ae
:103100002e4890000040e800204f9800dfff370075
:103110001e009000ae0090003e019000ce01900095
:10312000440020008301d1000281d3008180d300bc
:103130000080d3000402e900faff3a000080fa00a0
:10314000000006000000fa00e9c2bf000080fb009a
:10315000610060000000e0002f003a00e8c2bf00fc
:103160000080fb004700de000080fb000000e00064
:1031700029003a00e8c2bf000080fb004600de00e4
:103180000080fb00610060000000e00022003a00c7
:10319000d0c2bf000080fb004400de000080fb00c6
:1031a000610060000000e0001b003a00d0c2bf00d8
:1031b0000080fb004300de000080fb006100600037
:1031c0000000e00014003a00d0c2bf000080fb0005
:1031d0004200de000080fb00610060000000e000b3
:1031e0000d003a00d0c2bf000080fb000000d100fb
:1031f0000080fb00610060000000e00006003a0073
:10320000e9c2bf000080fb004700de000080fb0039
:103210000000e00002003200d7c2a8000100370021
:10322000d7c2a9000080fa00000006000000fa00e2
:10323000bd4ae20002003200c522a80001003700aa
:10324000c522a900bdcabf000080fb00610060006c
:103250000000e00001003200e902a900bdcabf0081
:103260000080fb00620060000000e000010032000e
:10327000e8e2a900bdcabf000080fb006400600056
:103280000000e00001003200e8c2a900bdcabf0092
:103290000080fb00680060000000e00001003200d8
:1032a000d082a900bdcabf000080fb007000600092
:1032b0000000e00001003200d062a900bdcabf00da
:1032c0008080fb0000022000008060000000e00021
:1032d00001003200d042a9000080fa000000060080
:1032e0000000fa00d5c2bf000080fb004700de00ee
:1032f0000080fb000000e0000b003200e902a900a2
:10330000e8e2a900e8c2a900d082a900d062a90021
:10331000d042a90000ccb300d1ab2000914078008e
:1033200000c06000bdeab7000080fa00000006009f
:103330000200fa00004f78001e80fb006100600070
:103340000000e00002003200e2e2a80001003700c5
:10335000e2e2a9001e80fb00620060000000e000c5
:1033600002003200e2c2a80001003700e2c2a90058
:103370001e80fb00640060000000e00002003200dc
:10338000c5c2a80001003700c5c2a9001e80fb000d
:10339000680060000000e00002003200c5e2a80002
:1033a00001003700c5e2a9001e80fb00700060002c
:1033b0000000e00002003200d702a8000100370040
:1033c000d702a9001e80fb0001022000010060005e
:1033d0000000e00002003200d722a8000100370000
:1033e000d722a9001e80fb0001042000010060001c
:1033f0000000e00002003200d742a80001003700c0
:10340000d742a9001e04e00002003d00d762a800d8
:1034100001003700d762a9000080fa000000060012
:103420000200fa000040eb00004f7800e2c2bf004b
:103430000080fb004700de000080fb00e10f500031
:1034400001003a001e04a000e2c2bf000080fb00a1
:103450004600de000080fb0061006000e10f5000cc
:1034600001003a001e14a000c5c2bf000080fb008e
:103470004600de000080fb0061006000e10f5000ac
:1034800001003a001e24a000c5c2bf000080fb005e
:103490004700de000080fb00e10f500001003a0011
:1034a0001e34a000d7c2bf000080fb006100600096
:1034b000e10f500001003a001e44a000d7c2bf0037
:1034c0000080fb000000d1000080fb006100600074
:1034d000e10f500002003a0000c2b3001e4f70001e
:1034e000d7c2bf000080fb004200de000080fb006e
:1034f00061006000e10f500002003a0000c4b30018
:103500001e4f7000d7c2bf000080fb004300de00ea
:103510000080fb0061006000e10f500002003a00f3
:1035200000c8b3001e4f70001e80fb000080fa0030
:10353000000006000200fa00004f7800be4ae200d8
:1035400002003a00b6ff0700cfeab7001e04e00011
:1035500002003a00cfcabf0075ff07001e40780086
:10356000beeab7000040eb00bfeab7000080fa00f7
:10357000000006000000fa00be4ae200250032000a
:10358000d04ae20004003200d0cabf000040e90087
:10359000d0eab7001f003700a0c0b300d0eab700e0
:1035a000bfcabf000040e800bfeab700f0ab200090
:1035b00041c0b30090cf100002003a000040eb0081
:1035c000bfeab700e0ab200011c0b30090cf1000fd
:1035d00006003a00c0dc2900f1ab200091407800e1
:1035e0008180fb0060c0780051ff0700e0ab200045
:1035f00021c0b30090cf100006003a0000dd290082
:10360000f1ab2000914078008180fb0060c0780021
:1036100047ff07000080fa00000006001800fa00cb
:10362000881f78000040eb00104798000040eb0036
:10363000204798000040eb00bdeab7000040eb00d7
:10364000beeab700d022a900e9e2a900cc22a90075
:10365000e5e2a900e902a900e8e2a900e8c2a900a0
:10366000d082a900d062a900d042a900e502a90039
:10367000e4e2a900e4c2a900cc82a900cc62a900be
:10368000cc42a900d3e2a800e2e2a900e2c2a9006c
:10369000c5c2a900c5e2a900d702a900d722a90086
:1036a000d742a900d762a900dee2a900dec2a900c4
:1036b000c1c2a900c1e2a900d302a900d322a90076
:1036c000d342a900d362a900df02a900d3c2a90096
:1036d000c142a900c122a900e302a900d7c2a900e2
:1036e000c542a900c522a900d1c2a900d1a2a90042
:1036f000cdc2a900cda2a900e302a800d7c2a800ac
:10370000c542a800c522a800d782a800d382a9007c
:10371000c0e2a80077fd070095fd070097f90700b4
:10372000e302a900d7c2a900c542a900c522a90089
:103730006800470041dd2900200f9800310f9800f4
:103740002e089000be08900007000900315878004c
:103750000040eb00004f780072c0b3009e4f110094
:1037600018003e00e80047001e80fb00008040007b
:1037700010407800f0fd07006000b80020079800b6
:10378000310798002e019000be01900070a923001f
:1037900001002000800f5100818f590007003c007c
:1037a0002e009000be00900061004000e0804800c4
:1037b0002007980031079800f2ff37001e4fe800fd
:1037c000e5ff37006000b800200798003107980037
:1037d0002e019000be019000706d2d0001002000b0
:1037e000800f5100818f590007003c002e0090008f
:1037f000be00900061004000e08048002007980073
:1038000031079800f2ff3700c4e2a900c0e2a90026
:10381000e302a900d7c2a900c542a900c522a90098
:103820000040eb00004f780050c0b3009e4f1000e6
:1038300007003e001e80fb008286200082004000c0
:103840000040eb00804878001e4fe800f6ff37008c
:103850000040eb00004f7800f0c0b3009e4f100016
:1038600007003e001e80fb00828520008200400091
:103870000040eb00804878001e4fe800f6ff37005c
:103880000040eb000057980000c0eb0059e8b7007b
:103890002cfe070092fe070036ff0700e0c9b300c8
:1038a00015fa0700105798001e509000e14f400095
:1038b0000b003a000e509000e94f500004003e000b
:1038c0000e5090000040e8000057980002003700ba
:1038d00000c0eb00bceab70028f90700040037007d
:1038e0000040eb00005798001e509000bceab70063
:1038f0000040eb00004f7800a1c0b3009ecf100045
:1039000012003e001e80fb0042ac2000020040007e
:10391000104078003efd07009e80fb002e40900086
:103920000081fb00000120000008b80000004100f9
:103930000000d000619320000104400043fd070017
:10394000000c78001e4fe800ebff37002e4090007f
:103950000040e800204798002e409000ef4f5000b4
:10396000020036000040eb0020479800a0c0b300e2
:1039700027fd070035fd070080408800b0c0b30078
:1039800023fd070031fd070054f9270035fc230013
:10399000929b25005313240044fd070090408800ab
:1039a000c0c0b3001afd070028fd070054f9270026
:1039b00035fc2300929b2500531324003bfd070098
:1039c000a04088000040eb00004f780072c0b300b8
:1039d0009e4f11000e003e001e80fb000000d00034
:1039e00001802000010440001e4078009dfd07007a
:1039f000542a2a0015542c00f25e2d00e30e2400f8
:103a00002afd0700000c78001e4fe800efff37008a
:103a100080c0b30093fd0700b4e42900f5532c00e7
:103a2000d2762c00930e240020fd0700b0408800c1
:103a300090c0b3008bfd0700542a2a0015542c00b7
:103a4000f25e2d00e30e240018fd0700c040880040
:103a5000a0c0b30083fd0700542a2a0015542c008f
:103a6000f25e2d00e30e240010fd0700d040880018
:103a70002e4090000004e00085ff3a009085200071
:103a800000c1eb00904f110081ff32000040eb00bd
:103a9000004f780050c0b3009e4f10007cff3e00e6
:103aa00058c8bf008080fb001e80fb00828620007b
:103ab000020040001080fb000088b9006200200076
:103ac000110009000200d800000178000100780010
:103ad00059c8bf008080fb00800220000088b90028
:103ae00000004100100f98001e80fb000000d00075
:103af00002802000820040001e089000910f1000fc
:103b0000160036001e4090008080fb001e80fb00e7
:103b10000088de00610060000000e0000800320064
:103b20009e80fb00100020008100dd00bdcabf00a8
:103b300001407000bdeab700bcfd07000e00370071
:103b40009e80fb00100020008100dd001e409000e0
:103b50000140700010479800070037009e80fb006e
:103b6000100020000100dd0080c0ea001e4090002f
:103b700001406000104798001e4fe800c5ff370065
:020000040000fa
:0200000401f009
:04000000e2fb00001f
:020000040000fa
:0200000401f009
:04000400ff7f00007a
:020000040000fa
:10000800381e0000381e0000381e0000381e000090
:10001800381e0000381e0000381e0000381e000080
:10002800381e0000381e0000381e0000fa150000b7
:10003800381e0000381e000018160000381e000088
:10004800381e0000381e0000381e0000381e000050
:10005800381e0000381e0000381e00008a160000f6
:10006800381e0000381e0000381e0000381e000030
:10007800381e0000381e0000381e0000381e000020
:10008800381e0000381e0000381e0000381e000010
:10009800381e0000381e0000381e0000381e000000
:1000a800381e0000381e0000381e0000381e0000f0
:1000b800381e0000381e0000381e0000381e0000e0
:1000c800381e0000381e0000381e0000381e0000d0
:1000d800381e0000381e0000381e0000381e0000c0
:1000e800381e0000381e0000381e0000381e0000b0
:0800f800381e0000381e000054
:020000040000fa
:10010800381e0000381e0000381e0000381e00008f
:10011800381e0000381e0000381e0000381e00007f
:10012800381e0000381e0000381e0000fa150000b6
:10013800381e0000381e000018160000381e000087
:10014800381e0000381e0000381e0000381e00004f
:10015800381e0000381e0000381e00008a160000f5
:10016800381e0000381e0000381e0000381e00002f
:10017800381e0000381e0000381e0000381e00001f
:10018800381e0000381e0000381e0000381e00000f
:10019800381e0000381e0000381e0000381e0000ff
:1001a800381e0000381e0000381e0000381e0000ef
:1001b800381e0000381e0000381e0000381e0000df
:1001c800381e0000381e0000381e0000381e0000cf
:1001d800381e0000381e0000381e0000381e0000bf
:1001e800381e0000381e0000381e0000381e0000af
:0801f800381e0000381e000053
:020000040000fa
:103b800050570000522000004d5200004b20000012
:103b90005448000052000000c00300003003000041
:103ba00030c000000cc0000001020000040800004a
:083bb000040200000100000006
:020000040000fa
:103bb800b80a00001a00000002000000000000001f
:103bc80000ff0000000000000000000009080700d6
:103bd8000602030004050e000f0d0000000000009f
:103be800000800009602000000000000d20a000051
:103bf8001200000002000000202b2d0023300000de
:103c0800010002000004000008001000000000008d
:103c1800e40a00000800000002000000686a6c0066
:103c2800747a4c0000000000960a00002200000090
:103c380002000000303132003334350036373800a6
:103c48003961620063646500660030003132330018
:103c58003435360037383900414243004445460080
:083c6800000000000000000054
:020000040000fa
:043c70000000fe0052
:00000001FF
