:020000040000fa
:080000000401040000000000ef
:020000040000fa
:100200000000000000000000af8f200080ff2000f1
:100210000001880000000000050007000c00070036
:10022000f8230200000000000040da000000fe0099
:100230004440a900003f20000000e000030032001d
:1002400000002000a00188004440a8000000060033
:1002500060b4230001002000160037006200400057
:10026000e0804800910188009001ba0062004000df
:10027000e0804800910188009002ba0062004000ce
:10028000e08048000002eb006028e10005003a0031
:100290008301e90007003300038009000059eb00e7
:1002a000040037006128e100010032000082eb0009
:1002b00005000700910188001001ba000200e0006b
:1002c000e6ff3a00000005009101880080027800f6
:1002d00062004000e08048003559ba008301e9001f
:1002e000080032002559ba008301e90005003200f8
:1002f0000400e000f4ff320015d9ba008301e900e0
:10030000f1ff3a0000000600800178000200e000e2
:1003100003003200b15978000201e900fdff3a0004
:1003200000000600881f780002047800f6ff07002e
:10033000080040004f047800000006000000fa00aa
:10034000881f7800000478003fb99700ea815700c1
:100350008000780020192000090007008000780044
:100360000000e000020035000040eb0000f47800df
:10037000010078004f0478000080fa0000000600b9
:100380006200fa00889fbe008a9fbe000004be0083
:1003900002057800830078006a805700ad000700ee
:1003a000f88f9f0089979f000000eb00909f9f00af
:1003b0001a80fb008005fb000000ea00cf04de008d
:1003c0000904780050022000808f550001003a0097
:1003d0000904e9000800e0000c0034000f909700c9
:1003e000080178008a007800ff8997000300010067
:1003f00080979f008080eb000000e00090003200ba
:100400001f98970008004000909f9f000905450035
:1004100050022000808f5500040032000b00e000e5
:10042000e3ff3a009f989700850037000000eb003b
:10043000f0979f00e0979f00d0979f00c0979f0084
:10044000b0979f00a0979f00b09f9f0009003700c2
:10045000608a2000008050000000d000c18a200087
:1004600001004000bf98970090807000b19f9f00ee
:100470000a05e8009a00fb00608a20007700070068
:10048000800078000000e000f1ff3a00a0c2b30055
:100490009a4f10000e003a003fb897000080e90024
:1004a000b0bf9f0010007800a09f9f000000e000f8
:1004b00005003d000000ea00a09f9f003f989700c4
:1004c0000020a000b09f9f000a05e800110037003f
:1004d000a19f9f000b003700af989700f0ff270007
:1004e000808f5000060032006a09b9001a00fb0034
:1004f0000200400001fd2f0001004000a09f9f006e
:100500000a05e8001a00fb005c0007000000e0009c
:10051000f1ff3a00e0c2b3009a4f1000030032002e
:100520000080eb00809f9f001c003700a0c2b3003a
:10053000da4f100007003a003fb897000080e9004a
:10054000b0bf9f0010007800809f9f000a05e80060
:10055000120037000000eb00809f9f000b00370067
:100560008f989700f0ff2700808f50000600320020
:100570006a09b9001a00fb000200400001fd2f00cb
:1005800001004000809f9f000a05e8001a00fb0060
:100590003a0007000000e000f1ff3a009a00fb007b
:1005a000008f20002d0007008040eb000000e000dd
:1005b00001003200ba407800817f9f0080c6b300fe
:1005c00080cf500004003a009acf100002003a0099
:1005d00066405000070037008f789700c0c6b30010
:1005e00080cf500005003a009acf100003003a0077
:1005f00065404000807f9f000a05e800a0fb2f00b7
:10060000008447003a01fb0088017800ea80570027
:1006100060f92f000f0040001e0007000000e000fe
:1006200006003a008800780060f92f000f004000b3
:10063000bf0107000000e0005dff3d008080eb008f
:10064000010078004f05be004f04be000080fa0094
:1006500000000600010878000000060090cf10009e
:10066000050032001004e00001003a00000005001f
:10067000d0cf1000fbff3a00000006000003b100dd
:10068000030035009000b10001003c00100005009f
:1006900000000500889fbe008a1f780000047800d3
:1006a0000102780002457800830478000200fb0014
:1006b000cf80de005002b1000180b1003205200081
:1006c000820f5000e08f58008c013e000060010056
:1006d000840137008901370088013700870137001e
:1006e0008601370085013700840137008301370018
:1006f0008201370081013700800137007f01370018
:100700007e0137007d0137007c0137007b01370017
:100710007a01370079013700780137007701370017
:100720007601370075013700740137007301370017
:100730007201370071013700700137006f01370017
:10074000ed0037006d0137006c0137006b01370099
:10075000e9003700e8003700e7003700670137009d
:100760006601370065013700640137006301370017
:100770006201370061013700600137005f01370017
:100780005e0137005d013700420137005b01370031
:100790005a013700590137005801370080003700ef
:1007a0005601370055013700540137005301370017
:1007b0005201370051013700500137004f01370017
:1007c000cd0037004d013700150037001c00370001
:1007d000c9003700c8003700c7003700470137009d
:1007e0001700370045013700440137004301370047
:1007f00042013700e3003700690037001601370077
:100800003e0137003d013700220137003b01370030
:1008100063003700390137003801370060003700c6
:100820006e01440012007800808141009480e9004c
:10083000010a78000009e800914978003801370082
:10084000a8609000c0c6b30080cf50000a003a00f4
:100850009400780064805000000a78001000be0008
:100860004f89de00cf91de000002be000203780057
:10087000820378001500370010c7b30080cf500006
:1008800002003a00140178000400370014017800d7
:10089000a0c6b30080cf500005003a0068005100a8
:1008a000000a78003002be002003be0007003700b7
:1008b0000280e900000a7800100078000002780049
:1008c000cfa2de000503780086037800049cbe00fa
:1008d0000694be00a860900080c6b30080cf500090
:1008e0000f00320020c6b30080cf500006003a004f
:1008f000184078000000fb00cf80de000101780086
:10090000820178000a00370040c7b30080cf500052
:10091000030032006640400080cf500006003a00dd
:1009200018007800cf80de00010178008201780095
:10093000009cbe000294be003800be002801be002c
:10094000e00f5000e08f5800e00f5900e08f590091
:1009500004003d006e01440092007800d0c2b30054
:100960000c003700081090000018a30004003200ab
:100970006e01440092007800b0c2b3000500370059
:100980000008a300570032006e0144009200780076
:1009900000c2b30080f478000109e800510037007c
:1009a000a8609000c0c6b30080cf500006003a0097
:1009b0009400780064805000000a78001002be00a5
:1009c0006033b8001500370010c7b30080cf500067
:1009d00002003a0014017800040037001401780086
:1009e000a0c6b30080cf500005003a006800510057
:1009f000000a78003002be002003be000700370066
:100a00000280e900000a78001000780000027800f7
:100a1000050020000600200007002000049cbe0006
:100a20000694be00a860900080c6b30080cf50003e
:100a30000f00320020c6b30080cf500006003a00fd
:100a4000184078000080fb00010020000200200018
:100a5000030020000a00370040c7b30080cf5000d9
:100a6000030032006640400080cf500006003a008c
:100a70001800780001002000020020000300200080
:100a8000009cbe000294be00081090000038a30035
:100a9000140032003800be002801be00e00f5000f4
:100aa000e08f5800e00f5900e08f59000d00320030
:100ab00080c7b300804f55000300320080c5b300eb
:100ac000804f550007003a006e0044009000780007
:100ad00002c3b30082f478008100e8008af4780051
:100ae0000108e8007800900000804400600498004d
:100af0008a407800640037001401780068005100d3
:100b0000000a78005001be004000be00009cbe00fc
:100b10000294be00380090000000e00004003d0098
:100b20006e01440092007800d0c2b3000c00370080
:100b3000081090000018a300040032006e01440069
:100b400092007800b0c2b300050037000008a3008f
:100b5000050032006e0144009200780000c2b3002c
:100b600080f478000109e8007800900000804400db
:100b7000600498008a407800080078003a01070075
:100b800067003700286090008000fb00c00620004e
:100b9000808f5000230032000a003c0064005000a7
:100ba000808f50002600320004003c006600500098
:100bb000808f50000b00320021003700a00620007b
:100bc0000500370040072000808f50001c003200d5
:100bd0001b003c0063005000808f50000700320073
:100be000170037001480e900000a78001000780030
:100bf000485c900008487800490037001480e900fc
:100c0000000a78001002780068089000cf80de00ab
:100c10000101780082017800009abe000292be00b5
:100c20003f0037001480e900000a780010017800c6
:100c300068089000cf80de000089be0038003700d1
:100c40001480e900000a780010007800680c900019
:100c500008087800320037001480e900000a7800a4
:100c600010007800cf80de0001017800820178005a
:100c7000009cbe000294be007800900000804400fa
:100c80006004980081c7b300080078004d03070096
:100c9000230037001480e900000a78001000780073
:100ca00060049800580990000200e00002003d0036
:100cb000f6030700090037008000eb00fa03070085
:100cc000800078000000e00003003200680090001f
:100cd000008050000100370058089000100c980068
:100ce0000f0037006e0144009200780050c2b3003c
:100cf00080f178000109e80009003700ee004400a7
:100d000011007800808144000a4278008008e800e1
:100d10000a04e00001003a0054c2b300844978009c
:100d20000000eb004f0578004f04be0000000600f5
:100d30000400fa00889fbe008a9fbe008c1f7800c6
:100d4000000478000106780070089000f800900018
:100d500001005000880890000100500098089000a1
:100d600001005000a808900001005000b808900051
:100d700001005000c80890008105500000022200c8
:100d800090bf9f0000032300a0bf9f0008109000a9
:100d90000028a30018003a000b00e0001600340001
:100da0000b0578008a047800e20f55000100360038
:100db000290020000900e0000c00340058009000d9
:100dc000c801900009017800ee805700030001007f
:100dd000500498008080eb000000e0009c0032008e
:100de0006808900009004000600c98000905550053
:100df0004240a900ebff3c00780190000200e000b7
:100e00000c00340058009000c80190008c0078005d
:100e100003000100500498008080eb000000e00017
:100e20008b00320068089000f8009000010040003c
:100e3000600c9800080890000000e00016003400e4
:100e4000000578008a047800e20f550001003600a2
:100e5000290020000900e0000c0034005800900038
:100e6000c801900009017800ec80570003000100e0
:100e7000500498008080eb000000e0007400320015
:100e80006808900009004000600c980009055500b2
:100e90004240a900ebff3c00180990000200e0006e
:100ea0000c003400e800900058009000c801900049
:100eb00003000100500498008080eb000000e00077
:100ec000630032006808900098089000010040001c
:100ed000600c9800280890000000e0001600340024
:100ee000000578008a047800e20f55000100360002
:100ef000290020000900e0000c0034005800900098
:100f0000c801900009017800ec805700030001003f
:100f1000500498008080eb000000e0004c0032009c
:100f20006808900009004000600c98000905550011
:100f30004240a900ebff3c00380990000200e000ad
:100f40000e003400e80090001808900080804000f7
:100f500058009000c8019000030001005004980060
:100f60008080eb000000e00039003200680890004b
:100f7000b808900001004000600c980048089000fc
:100f80000000e00016003400000578008a047800b4
:100f9000e20f550001003600290020000900e000a2
:100fa0000c00340058009000c8019000090178003e
:100fb000ec80570003000100500498008080eb0093
:100fc0000000e000220032006808900009004000a4
:100fd000600c9800090555004240a900ebff3c0059
:100fe000081090000028a300180032000b00e00059
:100ff000160034000b0578008a047800e20f5500d3
:1010000001003600290020000900e0000c00340037
:1010100058009000c801900009017800ee80570048
:1010200003000100500498008080eb000000e00005
:10103000070032006808900009004000600c98002a
:10104000090555004240a900ebff3c008000eb0081
:10105000010078004f0678004f05be004f04be0027
:101060000080fa0000000600ef04b000889fbe0078
:101070008a9fbe008c9fbe008e1f7800c0af9f006d
:10108000a1df9f0060fa2f000f004000e0af9f003b
:10109000cfaa97005503be004502be0084af9f0053
:1010a00095af9f00a6af9f00b7af9f0010c6b300db
:1010b00080cf50001600320010c4b30080cf500023
:1010c000130032004fab9700560890000000e0007c
:1010d00003003d0060002000500b98000c0037001a
:1010e0000000e0000a003a0070c6b300afdb9700d2
:1010f00080cf53000300320070c4b30080cf530090
:1011000003003a0010002000cfa89700d0089800f4
:10111000cfa89700e2fc2f0002804700eb020700f7
:1011200080017800e20f500014003a00cfa9970028
:10113000e3009000300020009009980010c6b30032
:101140002fda9700804f52000a00320064404000be
:10115000804f5200070032000040e800804f5200ec
:1011600004003200e28b20000040e800804f520073
:1011700017003a00228c2000150037000000e00024
:1011800018003400cfaa9700e5009000300020003e
:10119000900a980010c6b3002fdb9700804f5300d1
:1011a0000a00320064404000804f530007003200c4
:1011b0000040e800804f530004003200628c2000a1
:1011c0000040e800804f530001003a00a28c20004c
:1011d000b258780002007800b05878009048780043
:1011e000f201370014c6b300afdb970084cf530081
:1011f0000300320010c4b30080cf530010003a0047
:101200004fa89700ec0040001101780000c3b30024
:10121000005978008208e80080c7b300afd8970073
:1012200084cf50000100320080c5b300004978002f
:101230004fa99700720090000080e80070019800ac
:101240000300e00003003a008006eb00fda79f00ca
:10125000d001370011c6b300afd9970081cf51003c
:101260000300320010c4b30080cf5100ad003a003b
:10127000ee8c20002fda9700814f520001003200df
:10128000fe8d2000cfaa9700550890008006e80048
:101290000000e00001003d001d0220000d06e800f6
:1012a0004fab97003604be002605be006022b80092
:1012b0006033b8000fa897009fa897002fa9970048
:1012c000bfa99700d70507000000e00001003d001e
:1012d0000bf0a20088af9f0099af9f00aaaf9f00bc
:1012e000bbaf9f007fa0970064005000f0a79f0055
:1012f000efab9700805beb00e7af9f003f0037004c
:10130000c20120000300200001fd2f0001804700e2
:101310009c0207000faa97009faa97002fab970087
:10132000bfab9700f4af9f0085b79f0096b79f00b3
:10133000a7b79f000400be000601be00be0507005f
:101340000004be000005be00670656004240a9002a
:101350000c003400a50407000002be000203be001a
:101360007fa897008fb097001fb19700afb197008b
:10137000dd05070080af9f0091af9f00a2af9f00e7
:10138000b3af9f00efaa9700e7824200e5af9f004e
:1013900070002000e00f5400e08f5c000d0034006e
:1013a000600020006fab97006f636500e6af9f00a1
:1013b000cc5bdd004455de000a857300c4ddde0031
:1013c000e00f5500e08f5d00020034000000e900ee
:1013d000f4ff3b000000e90005003300efa8970090
:1013e0008060eb00e1af9f000000e900fbff3b00e5
:1013f0006fa9970067014100e2af9f000c00e00079
:10140000090034006022b8006033b8000fa89700cc
:101410009fa897002fa99700bfa99700b4050700c0
:101420000000e000b6ff3c00efa9970064fa2f002f
:101430000f024200048051000006e90075fa2f00f7
:1014400085824700e5af9f008d0f560001003d00eb
:101450008c0678000d00e0002b0035008c8f5600c4
:1014600005003d006fab970066c07e00f2c0b30080
:10147000e74f500001003c000041eb008d00e90007
:10148000efab970067c07800824f500006003a002b
:101490008d06e9008100e900efa9970063c078009c
:1014a000824f5000faff3200ef4f510004003a0023
:1014b0006faa970064c078000040e80000f278004e
:1014c0000100e00007003d00efaa97008502e90057
:1014d000e5af9f008d06e8007fa097006400400004
:1014e000f0a79f008d00e900070033006fab970065
:1014f00066c078000000fb006e40780000f37800c2
:101500008100e900f9ff3b00cfab9700570890003e
:101510000000e0001f013d000d00e900d00b980025
:101520001c0137000fac97009fac97002fad9700c0
:10153000bfad97006022b8006033b8000800be005d
:101540000a01be00370507000000e00005003d006d
:101550000bf0a20088af9f0099af9f00aaaf9f0039
:10156000bbaf9f007fa09700725927000280b9008f
:10157000026a28001300200062050700e400500002
:10158000f1a79f001d003b0063801000c1ff2f00ea
:10159000010460000800ea00f0a79f008004eb004f
:1015a0000800e000470034000808a3000e003200e5
:1015b0006848b80002802000020040003002be00ef
:1015c0002003be000fa897009fa897002fa997009f
:1015d000bfa997005a05070080af9f0091af9f00f9
:1015e000a2af9f00b3af9f000884d1008904e80038
:1015f0000800e000ecff3c00320037000100e00092
:10160000300034006022b8000600200007ff2300ed
:10161000b4b79f00c5b79f00d6b79f00e7b79f003c
:10162000c0ff2f0000806000f0a79f00000478003a
:101630008004eb00160034000808a30010003200fc
:101640006848b80005802000050040003002be0058
:101650002003be003fb09700cfb097005fb1970066
:10166000efb19700360507000002be000203be007e
:10167000b4b79f00c5b79f00d6b79f00e7b79f00dc
:101680000884d1008904e8000800e000eaff3c007b
:101690003fb29700cfb297005fb39700efb39700c8
:1016a0000fa897009fa897002fa99700bfa99700a0
:1016b000d103070080af9f0091af9f00a2af9f00b2
:1016c000b3af9f004fab9700d608900060c6b30041
:1016d000afdb970080cf53000400320066874000e4
:1016e00060c4b30080cf530003003a007fa097008e
:1016f000008040006a074000f30f570001003400eb
:101700003e01200000c3b300efa897008058780086
:10171000e1af9f003a0037000800be000a01be009a
:10172000c50407000006be00f0b79f0081bf9f0000
:10173000680757004240a9000e003400ab030700c1
:101740000002be000203be000800be000a01be0087
:10175000e50407006022b80046782d0077192400c0
:10176000f704070080af9f0091af9f00a2af9f00da
:10177000b3af9f00efa99700e8814100e3af9f005e
:1017800088002000e00f5600e08f5e00110034005a
:1017900078002000a2002000030020007fb0970006
:1017a0008fb89700ed0107006faa970005c3b3003b
:1017b00005624100e4af9f00f0b79f0081bf9f002a
:1017c000e00f5000e08f5800020034000804e900e8
:1017d000f0ff3b000804e9000600330000c3b3003b
:1017e000efab970080637800e7af9f000804e90043
:1017f000faff3b006fa8970068004000e0af9f0031
:101800000e00e0000b0034000fac97009fac970077
:101810002fad9700bfad97006022b8006033b800cd
:101820000800be000a01be00b10407000000e0008d
:10183000b9ff3c00efa8970062fa2f000f014100aa
:10184000028050000007e90073fa2f0083814700ef
:10185000e3af9f007fa0970067004000f0a79f00c4
:1018600001c3b30093cf10000a003a000e07e9004d
:101870007fa097000000e900f0a79f006faa9700e3
:101880000402e800e4af9f0014427800814f520048
:10189000f6ff3200cfaa9700d508900060c6b300cb
:1018a0002fdb9700804f53000300320060c4b30069
:1018b000804f530004003a007fa097000080400052
:1018c0008006e8000a0037008001eb0050c6b30034
:1018d000afdb970080cf53000300320050c4b30049
:1018e00080cf530001003a0013002000838640009f
:1018f0008d0f570001003d008e0678000d00e000be
:10190000240035008e8f560006003d006fa897001a
:10191000e0c07e0092c3b30040c3b30080cf50004c
:1019200001003c0002c3b3008d00e900efa997005d
:1019300063c07800824f500006003a008d06e9002f
:101940008100e9006faa970064c07800824f5000c0
:10195000faff320090c3b300804f510004003a00f8
:10196000efaa970065c078000040e80080f2780098
:101970000100e00007003d006fab97000603e9009f
:10198000e6af9f008d06e8007fa097000000e8000a
:10199000f0a79f007fa297008d0178006fa99700a4
:1019a000afd897004fa89700830107004f07780032
:1019b0004f06be004f05be004f04be00ef04b1004d
:1019c000000006006f02b000889fbe008a9fbe0024
:1019d0008c9fbe008e1f7800800678005089200002
:1019e000b0b79f0080c5b30080cf50000200320026
:1019f00042882000b2b79f0083002000c3b79f0039
:101a0000f0c6b30080cf50000a00320069404000a9
:101a100080cf500005003200a4002000c4b79f0012
:101a200080c5b30080cf500002003a0000012000c2
:101a3000c0b79f008e0120003d04be002d05be00f2
:101a400040c6b30080cf5000030032006540400024
:101a500080cf50000a003a00e00f5400e08f5c0095
:101a6000e00f5d00e08f5d0005003d000800be0056
:101a70000a01be00a70407000205be000004be0064
:101a8000e00f5400e08f5c00e00f5d00e08f5d0030
:101a900003003a005d0890000000e0000c003200f6
:101aa0007e012000cfb0970001027800cfa2de00b7
:101ab00005037800860378000800be000a01be0016
:101ac0002a0507003fb2970064407800d0e79f00e6
:101ad0004fb09700cf80de000101780082017800ce
:101ae000d0b79f00e1b79f00f2b79f0083bf9f0070
:101af0000203be000002be000800be000a01be00d4
:101b000013050700809ebe008296be00e00f5000c5
:101b1000e08f5800e00f5900e08f59002200340098
:101b20000e00e000200034003d00be002d01be008c
:101b30005fb29700efb297007fb397008fbb97001b
:101b40000e0507000205be000004be000e07e900f6
:101b5000e1fc2f008f804000010647005fb2970034
:101b6000efb297007fb397008fbb97000800be00cd
:101b70000a01be009e0507001d0010003fb197003e
:101b8000624e7800889ebe008a96be00e00f540028
:101b9000e08f5c00e00f5d00e08f5d00020034002c
:101ba0000e00e000e0ff3c00cfb19700e88f51004d
:101bb00010003a000d1090000038a3000d00320014
:101bc000f70f570006003e00e4fc2f000e02420013
:101bd000e4c07f0000c3b30080cf50000500320096
:101be0000e07e90000c3b300e1fc2f008e80400027
:101bf00080f07f0078011700920e98006d00900031
:101c0000e3fc2f008f8141008e804100bef9070068
:101c10001d0e90005d089000800f560006003d00ec
:101c20000c005000800e98000d1090000040a100a4
:101c3000801698000f0037000000e0000d003d0006
:101c40000d10900074006000f00f500009003a0081
:101c50007d089000fd009000010050008d0890006c
:101c6000010050000c0750004240a9000100340060
:101c70008e0e98004f0778004f06be004f05be003d
:101c80004f04be006f02b100000006008000780023
:101c90001004e000020032005104e000feff3a00b0
:101ca00000805000000006000200e0000500320045
:101cb00090cf1000040032000000e8000201e900ab
:101cc000fbff3a000000eb0000000600889fbe000a
:101cd0008004780001047800310090000000d000fa
:101ce0004501de00f07f2000800f510010003a0017
:101cf000800ceb00310090006f00600008003a009b
:101d0000210090000000e00005003a001100900062
:101d10000000e00002003a001100e0000200320082
:101d200020002000150037001000200013003700ad
:101d30000200e00005003c0001007800cf01070030
:101d4000000178000000e0000a003c00380090002c
:101d5000f10028000100600001fe23000100700076
:101d60003004980020c02f00800c41000080eb0060
:101d700002003700800ceb000000eb004f04be00b7
:101d800000000600881f78008a9fbe0000047800cb
:101d90000205be00300190000200d000c500de0048
:101da000f07f2000808f50000c003a006f0061002f
:101db00008003a00280090000000e00005003a000a
:101dc000180090000000e00002003a001800e00057
:101dd0001c003200200020005d0037000100e00000
:101de00006003a0008007800a4010700800078008f
:101df0000000eb000100e00055003c006108b90064
:101e00000a0540008b854800e07f2000800f5500c8
:101e1000e08f5d000d003400380090006022b800b3
:101e20000600200007ff2f000000e000030035003f
:101e30006022b8000600200007ff2700049cbe00b7
:101e40000694be001000200041003700b80090004a
:101e5000e00f5500e08f5d0005003400f000280021
:101e600000806000c450dd000100700036003700c3
:101e700000002800808260006f8060000040a000a9
:101e80003004980061055500e0855d00c0fc2f001e
:101e9000f1ff2f00800f5500818f5d0006003d008f
:101ea000350498000000eb0020049800100498000e
:101eb000000ceb00260037000a027800f00f450006
:101ec0000b003c0018009000000c780028009000e7
:101ed0001004980038009000200498000000eb00e7
:101ee0003004980070024200f00f4200f5ff340009
:101ef0000402ea0012003200180178000411de002a
:101f0000f0011200180090008300dd00010c710048
:101f10000400de00280190008310dd000100700045
:101f2000100498000411de00380090008301dd00e9
:101f300003017100220498000400de0030049800c0
:101f40003800900005007000300498000080eb001d
:101f50004f05be004f047800000006000400fa00a0
:101f6000889fbe008a9fbe008c9fbe0080bf9f00de
:101f700091bf9f000206be00e20207000001be0002
:101f80000004be000c00be00be0407000fb997009d
:101f90009fb9970000055100818559000800be00d7
:101fa0000a01be004f06be004f05be004f04be0032
:101fb0000080fa00000006000a00fa00889fbe00b8
:101fc0008a9fbe008c9fbe00000478000145780007
:101fd0008205780083047800040678000300e0009e
:101fe00002003c00190020008b8f200060c6b30067
:101ff000804f55000e00320060c4b300804f550082
:102000000b00320070c6b300804f55000300320051
:1020100070c4b300804f550083003a00e40f4600bf
:102020008100350058089000800f56007e003d006a
:102030000c06e80060c6b300804f55001000320067
:1020400060c4b300804f55000d00320008109000ae
:102050000038a30004003a0058089000808f540014
:1020600001003d00590c9800580890000c005000e9
:10207000500c980002003b000000eb00500c980050
:102080000c00e00027003c00f2014400130178003e
:102090006800900001c3b300017079000201e800fc
:1020a00082097800580890000000e00003003c001e
:1020b000081090000038a30004003200e8009000ef
:1020c000e0c2b300807079008209e8000c00ea00e9
:1020d000d8089000808f500001003d000106ea0002
:1020e0000c00ea00200c98000c804000500c980076
:1020f000890f500001003d008004780068009000c6
:102100009808900001004000390c980009017800ff
:102110008b0078007cf807005808900009005000f8
:102120001a003700e8009000180890008c8f5400c7
:1021300018003d0000804000090178008b00780005
:1021400071f807001808900009014000120c98006f
:1021500009005600200c9800580890000000e0008c
:1021600003003c00081090000038a3000600320075
:10217000e8009000e0c2b300807079003808900059
:102180000000e800300c980058089000400c9800bf
:10219000a3003700008040000c0178008b0078001d
:1021a00059f80700180890000c004000100c980027
:1021b0008c845400580890000000e00003003c00ac
:1021c000081090000038a30006003200f20144001d
:1021d0009300780068019000e0c2b30000f178003d
:1021e0008109e80058089000890f500001003d0067
:1021f000800478006800900098089000010040007a
:102200008c804500090178003ff80700180890000d
:1022100009004000100c9800580890000900500078
:10222000200c98007e00370070c6b300804f550028
:102230000300320070c4b300804f550014003a0010
:1022400058089000808f540004003d000810900052
:102250000038a30001003a00590c9800580890007b
:102260000000e900500c980002003b000000eb0069
:10227000500c980051c6b30070c6b300804f550093
:102280000100320051c4b300014578000900370055
:1022900010c6b300804f550002003a000ac7b300d1
:1022a0000400370010c4b300804f550001003a000d
:1022b0000ac5b300f20144001301780068009000e1
:1022c0003b7079000201e80082097800580890000c
:1022d0000000e00003003c00081090000038a3005c
:1022e00004003200e8009000e0c2b3008070790082
:1022f0008209e800580890000000e0001000340057
:102300008904e900890f500001003d008004780035
:1023100068009000980890000100400009017800d2
:102320008b007800f8f707001808900009004000bb
:10233000100c98005808900009005000200c9800dc
:10234000e800900018089000808540008a5d7800c1
:102350008b06e8000c00e00004003500b0c2b300ba
:10236000804d78008d05780004003700d0c2b3009e
:10237000804d78008d0578000c06ea008004eb00a3
:102380000c00e00009003400a10020000c007800df
:102390008d0007007681540001f17f00000678006f
:1023a0008904e8000000e000f7ff3c00e18f5400e2
:1023b00009003c0050c6b300804f550003003200b6
:1023c00050c4b300804f550003003a0000c3b3006f
:1023d000805e78008d0578000900e00002003a0078
:1023e00000c3b300805d78000900e00007003400fe
:1023f0008904e900f680540061c07f0002c3b30085
:10240000825d40000900e000f9ff3c006800900098
:10241000980890000100400000805500300c9800a2
:102420000810900074006000f00f50000e003a0099
:10243000780090009808900001004000a8089000e3
:1024400001004000b808900001004000c80890005a
:102450008100400078089000808f500002003d000d
:1024600001005000000c98004f06be004f05be0052
:102470004f04be000080fa00000006000002780051
:1024800030009000010028000103600015002000ca
:102490006f0060003002980008003a0024009000ad
:1024a0000000e00005003a00140090000000e00089
:1024b00002003a001400e0003e00320034009000b8
:1024c0000000e0000b003a00240090003002980069
:1024d0001400900020029800140078001002980068
:1024e000000aeb00f0825200340090000000e0008f
:1024f000f5ff320034009000ef0f500014003e0052
:102500008001d000a40090004f08de00808171009f
:10251000330298008100d000140190004f10de00bb
:1025200080807000210298000201d00094007800a1
:102530004f08de000001710012029800010ad0006d
:102540008502e90003007800ef8f5100ecff3600b0
:10255000b4019000ff8f5100130036001401d10028
:1025600014009000cf00dd00010a71000000d100ce
:10257000a40090004f09dd000200700010029800d6
:102580008100d1004f18dd0080807000210298008a
:102590000300d100300298008502e8008001780035
:1025a000ff0f5000edff3e00340090006f00600010
:1025b000300298003400900006007000300298004d
:1025c0000500780000000600010178000002780094
:1025d000110009000200d8000002fd000491b900ba
:1025e000820250000400be00000006004f89de0099
:1025f000820178005a0037002800fa00889fbe0048
:102600008a9fbe008c9fbe0003866b008b00070074
:102610006400e100440032006408e1004a00320036
:102620006100e100460032006108e100490032002b
:10263000ec0647006000b8003d02be003d03be004e
:10264000f48657006011b8003d04be003d05be0091
:102650007d0320000b0037000000a0008d06e9007c
:10266000130032000402420085824a0006034b0038
:1026700087834b0000004000818048000201490030
:10268000838149000802520089825a000a035b00d4
:102690008b835b00f0ff3b000802420089824a0006
:1026a0000a034b008b834b008d06e900edff3a00d7
:1026b0008482720086827200f707b20087827200fd
:1026c00001003200150020001e0490003e0b900017
:1026d00006035400e63fb0000368a3000700320081
:1026e0000000a7000500a0008301d1000281d300f3
:1026f0008180d3000080d3000603e8008301d1006d
:102700000281d3008180d3000080d3000002eb005f
:102710000482d2006200070003f0a1000cf0a700c1
:1027200003f0a00059003700640247006408e1008c
:10273000530032003400be003401be00f6ff370003
:102740006108e1004e0032006011b8006000b8007e
:10275000f1ff370003ff270002002000fbff3700d6
:10276000889fbe00830478000300e0002c00350041
:1027700003003c0000827000040271002600320059
:1027800036432000c50020008383cf000a003900b3
:102790000541b1008283cf00070039000541b10037
:1027a0008183cf00040039000541b1008083cf0050
:1027b000010039000541b10085c353006022b80013
:1027c000120032000a003b00848272006102600045
:1027d0008301d1000281d3008180d3000080d30027
:1027e0000603e8008743e800f7ff3a0007003700d8
:1027f00000004000818048000201490083814900b7
:102800000603e9008743e900f9ff3a0024000700c6
:1028100009f0a70003f0a0004f04be00000006006e
:1028200060001000e080180060011900e0811900cc
:10283000d3ff3b00033e2c00f7ff3700680447003e
:102840000294be000094be00fc0447008694be00c3
:102850008494be00090078003d000700080078005d
:102860003b00070099007800814f70000b003b008f
:102870000800be005d0007004f00b10003003700f4
:10288000f3ff2700f2ff2f006110b9004f06be00d2
:102890004f05be004f04be000080fa000000060095
:1028a0001800200057002000080453000d003d00d0
:1028b0000600200097fc2f000740e1001e003400b6
:1028c00084827200610260008301d1000281d30022
:1028d0008180d3000080d3000804e800f8ff3a00ac
:1028e00047002000610460000504740004046400d3
:1028f0000d00320061004000e080480060014900a6
:10290000e081490003b8a500070032000603e80093
:102910006538e10004003a008301d1000281d30050
:102920008180d3000080d300f87f20000830e100d0
:1029300003003500080378006000b8006011b8009b
:102940004433dd00f300b200830173000000060091
:10295000800078005002be005003be004439de0003
:10296000f700b200f37f200003016100090032008c
:102970000218e10016003a0085017200830173001d
:10298000838173000008200015003a0040002000f9
:102990001300370085017200830173008381730087
:1029a00005003a0004a8be0006a8be0010002000e2
:1029b0000b0037000201e9000402420085824a0050
:1029c00006034b0087834b000748a300f9ff320042
:1029d0000740a00004a8be0006a8be0020002000fa
:1029e000800098009200980000000600e4824000f9
:1029f0001078a30007003200640240001178a300a1
:102a00003400be001401be00040032000330a700f1
:102a1000000006003500be001501be000330a00016
:102a2000000006008f1fd1001c0207008f87e900fd
:102a30000000e000000006001400fa00889fbe00bd
:102a40008a9fbe008c9fbe000004be000205be002f
:102a5000680047000a90be000890be00bcff070057
:102a60000070a7000bf0a100304320009e029000f0
:102a700080825200b0fe2f000028e10011003d00ce
:102a8000b0fc2f000028e100150034001e09900062
:102a90008e0890007e0090000501b0000201d10078
:102aa0008180d3000080d3008502e800fbff3a005c
:102ab0000b00e00075ff3b0060001000e080180094
:102ac00072ff3700f0ff2f00f1ff27000b00e0003e
:102ad0006eff3b0001002800000020006bff370064
:102ae0006000b80069ff370007f0a2001402370049
:102af000809feb00e90107008f87e9000000e000fc
:102b000000000600839f68000100e00002003d0015
:102b100060001000e08018000300e00002003d00ab
:102b200060011100e0811900820207004f00e000ff
:102b300002003b0060001000e0801800000006006a
:102b40002800fa00889fbe008a9fbe008c9fbe00ae
:102b500003866b0039ff07000028a30064003a00d9
:102b60000128a30067003a000008a30062003a00b1
:102b70000108a30065003a001e009000be08900006
:102b800081064000ed3fb100f4805700ee01900057
:102b9000111ab8008e099000311bb8009e099000f0
:102ba000311cb800511db800f485570046000700dd
:102bb000fe0190003a0007008b85e8003e00070008
:102bc0008e09900040000700ee01900034000700dd
:102bd0008b85e800380007008e0990004000070050
:102be0009e0990001b18b800890440000a8548001f
:102bf000fe019000340007008b85e80038000700d4
:102c0000ee019000300007008e0990001b18b800fc
:102c1000890440000a8548000a98a30008003a0089
:102c20000402420085824a0006034b0087834b0062
:102c300008044c0089844c000a054d008d06e9000b
:102c400084827200850273004c3add0085027200b6
:102c50000100320015002000443ade001400b200ea
:102c60004538de00cb45dd000b007000c540de00be
:102c7000cb4ddd008b8070004549de00cb55dd007b
:102c80000b017100c551de000d03780004ff070041
:102c900003f0a1000cf0a70003f0a000fbfe37003a
:102ca0001b18b8008502400006834800e0834b00f3
:102cb00060044c00070037001b18b80006034000f2
:102cc00087834800faff37001b18b80087034000cd
:102cd00008844800e0844c0060054d0000000600b8
:102ce0001b18b8000804400089844800faff370028
:102cf0000108a300e2fe3a005800be005801be00e1
:102d0000e3ff37000008a300ddfe3a000904780065
:102d1000f9ff370060001000e08018006001190022
:102d2000e081190000000600881f78000004780088
:102d30005001be004000be000000420081804a00f9
:102d400002014b0083814b00009cbe000294be0038
:102d5000dc00070003003100480090000000e8009c
:102d6000400498004f04780000000600889fbe00d1
:102d7000000478008004eb005001be004000be005b
:102d8000d0000700010031001900200004005000ad
:102d9000858058000601590087815900009cbe00bb
:102da0000294be00480090000900500040049800c2
:102db0004f04be00000006001200fa00889fbe000b
:102dc0008a9fbe008c1f78000205be000004be0072
:102dd000f4b79f0085bf9f0096bf9f00a7bf9f00cd
:102de0000000eb00e0b79f00d0b79f00c0b79f0086
:102df000b0b79f00a0b79f000006eb005fb197003f
:102e00006fb097008000d0000000e00015003d008a
:102e1000e1b79f00010078000200e00001003d00e2
:102e20000000a000ac00070001003d000000a00071
:102e3000af00070001003d000000a000b200070045
:102e400001003d000000a0008100070001003d00de
:102e50000000a000b20007007c805700b2ff07000e
:102e600014003700e1b79f00010078000200e00085
:102e700001003d000000a0009700070001003d0098
:102e80000000a0009a00070001003d000000a00023
:102e90009d00070001003d000000a0006c0007003d
:102ea00001003d000000a0009d0007007c8057004d
:102eb000aeff07006fb097000000e000070035008c
:102ec00010002000010020006011b800080470000c
:102ed000898470000a0571008b8571000c06e8007a
:102ee000f0032000800f5600c4ff34006fb097003d
:102ef0000000e00006003d007fb297008fba970007
:102f00001fbb9700afbb97007c80570086ff070070
:102f10000802be000a03be006fa897000000e00090
:102f200004003a002fb29700bfb297004fb397004a
:102f3000dfb397000400be000601be004f06780014
:102f40004f05be004f04be000080fa0000000600de
:102f5000881f780018002000881f780096ff07005f
:102f60008f87e9004f04780000000600801feb0007
:102f700091ff07008f87e900000006000800fa00b3
:102f8000889fbe008a9fbe008c1f78006e000700dd
:102f900005003d0043000700300007000c003d0025
:102fa000330007000b003700e00f5200e08f5a009b
:102fb000e00f5b00e08f5b0006003d000400be00f8
:102fc0000601be0053ff07000205be000004be005c
:102fd0001c0020002c000700ddff07000c00e000b3
:102fe000010032004bff07004f0678004f05be007e
:102ff0004f04be000080fa00000006000800fa003e
:10300000889fbe008a9fbe008c1f78004e0007007c
:1030100002003d001c002000220007000f000700f6
:1030200001003d001200070017000700cfff070056
:103030000c00e0000100320036ff07004f06780068
:103040004f05be004f04be000080fa0000000600dd
:1030500090b79f000100d00080b79f00e00f5400a0
:10306000e08f5c00e00f5d00e08f5d000000060077
:103070000800be000a01be0026ff07000205be00d0
:103080000004be00000006000802be000a03be00e5
:103090005fb09700efb097007fb197008fb99700ae
:1030a000000006001bff07000100070000000600eb
:1030b000b0b79f00c1b79f00d2b79f00e3b79f0092
:1030c000000006000400e1000588e1000690e10030
:1030d0000798e10000000600c0b79f000200d00082
:1030e000b0b79f00afb097000100e00000000600fd
:1030f000b0b79f000100d000a0b79f009fb097001d
:103100000100e00000000600a0b79f000100d00011
:1031100090b79f008fb097000100e000000006000c
:1031200080b79f000804d0008984d2000a85d200ad
:103130008b85d2005fb29700efb297007fb3970004
:103140008fbb970000000600d9ff07000605be00f0
:103150000404be000006eb00e00f5000e08f5800b2
:10316000e00f5900e08f590000000600889fbe0064
:103170008a9fbe008c9fbe000404b8000506b800fc
:103180008904460060854e000606b8000a05460020
:10319000e0854e000706b8008b054600040eb80017
:1031a000890446000a854e00050eb8000a0546004f
:1031b0008b854e00060eb8008b0546000416b8003d
:1031c0000a0546008b854e000516b8008b054600a3
:1031d000041eb8008b0546000800be000a01be00b0
:1031e0004f06be004f05be004f04be0000000600a3
:1031f0000800fa00889fbe008a9fbe0017000700e3
:103200000605be000404be00e00f5200e08f5a0025
:10321000e00f5b00e08f5b0008003d000400be0093
:103220000601be00bbfe07000205be000004be0092
:103230000f000700b7fe0700080007000802be00e5
:103240000a03be000a000700c8ff07004f05be00c2
:103250004f04be000080fa0000000600e0b79f00a7
:10326000f1b79f0082bf9f0093bf9f000000060040
:103270006fb09700ffb097000fb997009fb9970004
:1032800000000600020ab900001bb9000200b800e5
:10329000810042008100430000000600889fbe00bc
:1032a0008a9fbe008c9fbe000404be000605be00bf
:1032b000809fbe00829fbe00ae000700040678001b
:1032c0000800be000a01be00aa00070084067800bc
:1032d0004f03be004f02be008d4f76007fb09700b7
:1032e00013003300f0ff2f008b8f6b0006003b00b4
:1032f0000d0666000c00a7000a00370007f0a600c4
:10330000100020000a003700880f5200898f5a00f1
:103310008a0f5b008b8f5b000300390010002000d8
:1033200001003e000000200007f0a7000000ea00b6
:103330004f06be004f05be004f04be000000060051
:103340002800fa00889fbe008a9fbe008c9fbe00a6
:1033500007067800878669000c003b0003047800ac
:103360008704780008f0a10009f0a100840f500044
:10337000858f5800860f5900890f5c0003003300c9
:103380000cf0a20001003a000cf0a1002bfd070098
:103390006400e1005f003200780147006408e1004a
:1033a000610032006c014700748557003200be0096
:1033b0001201be003a04be001a05be001e039000b2
:1033c000be0a90008503530006003d000004fd0086
:1033d0008104fd000205fd008305fd008703ea006e
:1033e000050378000df8a300040032006004140007
:1033f000e0841c0060051d00e0851d006022b8000f
:103400007d0320000d38e1008006eb000b00390041
:103410004433dd00f300b20083017300390037004c
:10342000848272000d027800e10664008b85d10071
:103430000a85d3008984d3000884d3008703e90078
:10344000f7ff3b0008004000898048000a0149005e
:103450008b81490004003b0060001000e0801800f0
:1034600060011900e08119000358a300090032002f
:103470008d82720084827200610260008301d1003b
:103480000281d3008180d3000080d3000603e800ce
:103490001b0037000348a30017003a000600e000b5
:1034a000170034000603e9000d00a30000004800e7
:1034b0008180480002014900838149000348a3003c
:1034c0000f003a000600e000090034000603e9009e
:1034d00000004000818048000201490083814900ca
:1034e00001003a000003eb000348a300f5ff32009f
:1034f0006022b80002003700848272006182660098
:10350000e7fc070003f0a1000cf0a70003f0a00007
:10351000defc3700640147006408e10002003a0065
:103520000df8a300d6fc3a003200be001201be0026
:10353000d6fc37006022b800060220000000d00050
:103540008180d2000482d2008582d2000000a000d7
:103550000202520083825a0003003b000202420032
:1035600083824a000000a1000603e900f3ff3a004d
:103570000000060005ff27000582610007003200f9
:103580000428e100010032002400050006000700c5
:1035900001003a004400050004080500020007008d
:1035a000f9ff3a00140005006f826100810270008b
:1035b0008502710085027200000006000000fa001a
:1035c000d0168000f2c3b30082406000d4c2bf00b6
:1035d000614060004600dd0080c07000d4c2bf00c2
:1035e0000080fb000000d100614060004700dd006a
:1035f00000c070000080fb000080fa0000000600a0
:103600000200fa00004f7800c116800000fc2f0075
:1036100000806000c0168800d222a900d202a90052
:10362000e116800000fc2f00008160009e80fb00fe
:10363000f00320000080600000007100e0168800a8
:103640009e80fb0000042000008060004680de00b9
:1036500061416000612d200091407800e0cfb3000f
:1036600000c0600002407000d6e2b7009e80fb0000
:1036700000082000008060004780de00614060009c
:103680000041d000612d200091407800d0cfb300e0
:1036900000c0600002407000d6e2b7000080fa006f
:1036a000000006000000fa00d222a800d202a80002
:1036b000c0168000f103200001007000c0168800d1
:1036c0000080fa00000006000e00fa00004f7800ab
:1036d0006000b80010079800210798000e22a9008a
:1036e0000e42a9000e62a9000e02a90061030700a4
:1036f0000ec2bf000080fb00610060000000e0001f
:103700000b003a00cfc2bf000080fb004700de0084
:103710000080fb000000e000030032000080eb00ae
:10372000600798000800370052030700f0ff3700d9
:1037300090108000204f98000e02a9002e489000a3
:103740000080fb00600798006e0090000080fa0087
:10375000000006000000fa00d2ff0700d902a9000d
:10376000d242a8000080fa00000006000200fa0021
:10377000004f7800114798001e04e00009003a004d
:103780001e4090000080fb0061416000a12c2000e1
:1037900091407800e0cfb30000c0600002407000ac
:1037a000cae2b70010c0b3009e4f10000a003a00f2
:1037b0001e4090000080fb00614060000041d0008e
:1037c000a12c200091407800d0cfb30000c0600051
:1037d00002407000cae2b70020c0b3009e4f100044
:1037e0000a003a001e4090000080fb00614060002b
:1037f0004201dd00a12c200091407800b0cfb30041
:1038000000c0600002407000cae2b70030c0b300e0
:103810009e4f10000a003a001e4090000080fb00fe
:10382000614060004401dd00a12c2000914078003f
:10383000f0ceb30000c0600002407000cae2b700e2
:1038400040c0b3009e4f10000a003a001e40900096
:103850000080fb00614060004601dd00a12c2000db
:1038600091407800f0cbb30000c0600002407000cf
:10387000cae2b70050c0b3009e4f100007003a00e4
:103880001e4090000080fb00c700dd00cac2bf00e0
:103890000074a10001407000cae2b7000080fa0085
:1038a000000006000800fa00004f78000040eb001e
:1038b000104798006000b800100798002107980092
:1038c000dd02a90011c0b3001e407800a7ff070069
:1038d000d4c2bf000080fb004200de000080fb007d
:1038e000610060000000e00013003a001e0090003c
:1038f000ae00900061004000e08048000001be0082
:103900001207980023079800901a26000100200053
:10391000800f5100818f5900edff3a008040eb008d
:103920001e40780091ff0700e202a8000080eb0033
:10393000300798002300370020ff07001047980049
:103940008040eb001e40780088ff07006000b80050
:103950001007980021079800d4c2bf000080fb0028
:103960004200de000080fb0061006000e10f5000bb
:1039700010003a001e009000ae0090006100400070
:10398000e08048000001be0012079800230798005d
:10399000901a260001002000800f5100818f5900ed
:1039a000edff3a00e202a800e0ff2f003007980088
:1039b00004003700e202a9001e4090000080fb00d6
:1039c000300798003e0090000080fa0000000600da
:1039d0000800fa00004f7800114798006000b80016
:1039e0001007980021079800dd02a8001e4078000b
:1039f00003ff070011c0b3001e4090005bff0700eb
:103a0000d4c2bf000080fb004200de000080fb004b
:103a1000610060000000e00014003a001e00900009
:103a2000ae00900061004000e08048000001be0050
:103a30001207980023079800901a26000100200022
:103a4000800f5100818f5900edff3a008040eb005c
:103a50001e40900045ff070012ff0700e202a80089
:103a60000080eb0030079800210037000dff0700b1
:103a70008040eb001e4090003cff07006000b80053
:103a80001007980021079800d4c2bf000080fb00f7
:103a90004200de000080fb0061006000e10f50008a
:103aa00010003a001e009000ae009000610040003f
:103ab000e08048000001be0012079800230798002c
:103ac000901a260001002000800f5100818f5900bc
:103ad000edff3a00e202a800e0ff2f003007980057
:103ae00003003700e202a9000000eb003007980055
:103af0003e0090000080fa00000006000000fa007e
:103b000040062000600888000000eb0030088800b4
:103b100084c0a9008cc0a8001021a90001112000b8
:103b20009140780000c3b30000c0700010e1b700fe
:103b300011e1a800e222a8000080fa0000000600bf
:103b40000000fa0084c0a9008cc0a900e222a900ec
:103b500011e1a9000080fa00004006000000fa0010
:103b60000040eb00b8e8b700405d25001008880071
:103b70000000eb00000888008460a9008c60a800a9
:103b80000421a900411020009140780000c3b30037
:103b900000c0700004e1b70005e1a8000080fa0051
:103ba00000000600801f78000000fa008460a90071
:103bb0008c60a90005e1a90010c0b300b8e8b70007
:103bc0000080fa004f007800004006000000fa0074
:103bd0000000eb006010880010002000a01088009a
:103be0000d42a8000de2a8000f42a8000080fa00d4
:103bf000000006000200fa00004f78000fc2bf006c
:103c00000080fb000000d1000080fb00610060002c
:103c10000000e000f9ff3a00000000000fc2bf0002
:103c20000080fb00610060000000e000fbff32004c
:103c30001e80fb00801088000fc2bf000080fb00c8
:103c40000000d1000080fb00610060000000e00087
:103c5000f9ff3a00000000000fc2bf000080fb0027
:103c6000610060000000e000fbff32000080fa000d
:103c7000000006000a00fa00004f78000040eb0048
:103c800048e8b7001e40780006ff070020079800ac
:103c90002e0090000000e00003003d002e00900088
:103ca000400798001f0037000000eb001007980045
:103cb0009e0090002e009000808f500012003d006a
:103cc0001e407800f7fe0700300798003e00900085
:103cd0000000e00003003d003e0090004007980017
:103ce000100037001e009000818420000100400079
:103cf0006e419000024878001e0090000000e8002d
:103d000010079800eaff37002e0090008284200000
:103d1000820040000040eb00804878002e009000b8
:103d2000400798004e0090000080fa000000060056
:103d30000600fa00000f7800110798000000eb0061
:103d4000200798002e0090001e0040009080fb008d
:103d50002e009000810f500014003d0021c0b300e0
:103d600060c0b3001aff07009e0090000001200011
:103d70000088b900804078004e40900000c04000ac
:103d800021c0b30012ff07002e0090001e0040006b
:103d900021c0b300104078000dff07002e009000f6
:103da0000000e80020079800e6ff370021c0b300bc
:103db00070c0b30006ff07000080fa000000060094
:103dc0000200fa0011c0b30070c2b30000ff070088
:103dd0000000e00005003200f0cdb30085ff0700d1
:103de0000080eb00000f78000d00370010c0b3001a
:103df000a0ff0700e10f500005003200f0cdb30036
:103e00007cff07000080eb00000f78000400370003
:103e100048c8bf000080fb0061006000000f780010
:103e20001e0078000080fa00000006000600fa007c
:103e3000000f780021479800ae4090000040eb0052
:103e4000e3fe0700200798002e009000e10f4000dd
:103e500004003a004200200031962b001e0078003a
:103e600029f107002e009000e20f400004003a0004
:103e70004200200081962b001e00780022f10700ee
:103e80002e0090000000e0000d003a002e4090004f
:103e900078ff07000000e00005003a004200200023
:103ea000d1962b001e00780017f1070004003700a0
:103eb0004200200021972b001e00780012f107001d
:103ec0000080fa00000006001a00fa00881f78003f
:103ed000000f7800100020009e0f10001d003a0017
:103ee0008e80e80070972b00801f7800010078001a
:103ef00012f107008f87e9000e80e8008000eb00d8
:103f00008bff07008e80e80080982b00801f7800d0
:103f10000100780009f107008f87e9000e80e800b2
:103f200041c0b300c1ff07000e80e80066004000fa
:103f300031c0b300bdff07000e80e8006c004000f8
:103f400051c0b300b9ff07000e80e8001100200047
:103f500077ff07001e00e00022003a008040eb00df
:103f600050c0b3009afe07000000e00004003200d9
:103f70001100200090992b006dff0700de00370034
:103f80000040eb003bff0700300f98003e08900018
:103f9000e20f50000400320011002000a09a2b0014
:103fa00063ff0700d40037008e80e80049c8bf00d7
:103fb0000080fb00801f780048c8bf000080fb0025
:103fc000801f7800909b2b00801f780001007800f4
:103fd000daf00700e68757000e80e80011002000a5
:103fe00053ff0700200020009e0f100062003a00df
:103ff00011c0b300f0c0b30075fe07000000e00080
:104000000400320011002000f09c2b0048ff070044
:10401000b900370010c0b30016ff0700400f98002a
:104020004e089000e50f50000400320011002000ff
:10403000009e2b003eff0700af0037008e80e80097
:104040004cc8bf000080fb00801f78004bc8bf0039
:104050000080fb00801f78004ac8bf000080fb0082
:10406000801f780049c8bf000080fb00801f7800d7
:1040700048c8bf000080fb00801f7800109f2b0005
:10408000801f780001007800acf00700ec87570033
:104090000e80e8008000eb0025ff070031c0b30070
:1040a000f0c0b3004afe07000000e0000400320048
:1040b00011002000c0a02b001dff07008e0037005c
:1040c00030c0b300ebfe0700400f98004e08900090
:1040d000e10f5000040032001100200090a12b00dd
:1040e00013ff07008400370048c8bf000080fb00b2
:1040f000300f980041c0b300f0c0b30034fe070099
:104100000000e0000400320011002000a0a22b00fb
:1041100007ff07007800370040c0b300d5fe070056
:10412000400f98004e089000e10f5000040032004c
:104130001100200070a32b00fdfe07006e00370069
:104140008e80e80048c8bf000080fb00801f780018
:104150003e089000801f780080a42b00801f78000c
:104160000100780075f00700e68757000e80e80030
:1041700011002000eefe0700300020009e0f10000e
:104180005d003a0031c0b30050c4b30010fe070018
:104190000000e000040032008000eb00d0a52b00fe
:1041a000e3fe07005400370030c0b300b1fe070043
:1041b000400f98004e089000ea0f500004003200b3
:1041c0008000eb0080a62b00d9fe07004a003700d4
:1041d0000e84e8004ac8bf000080fb00c800dd0074
:1041e0004bc8bf000080fb0000807000cf80de0065
:1041f000fef807006022b80006002400f70824003b
:10420000fdf80700809fbe00829fbe0048c8bf0027
:104210000080fb00c800dd0049c8bf000080fb0033
:1042200000807000cf80de00f0f807006022b80048
:1042300006002400f7082400eff80700809fbe0066
:10424000829fbe0060a72b00801f780008007800c6
:104250003af00700f28757000e80e8008000eb007c
:10426000b3fe07000e84e8004ec8bf000080fb00cc
:10427000c800dd004fc8bf000080fb000080700058
:10428000cf80de00d9f807006022b80006002400c5
:10429000f7082400d8f80700809fbe00829fbe0068
:1042a0004cc8bf000080fb00c800dd004dc8bf0047
:1042b0000080fb0000807000cf80de00cbf807009c
:1042c0006022b80006002400f7082400caf807009e
:1042d000809fbe00829fbe0060a72b00801f7800d9
:1042e0000800780015f00700f28757000e80e800fc
:1042f000110020008efe07004f0478000080fa00b5
:10430000000006000600fa000040eb00004f7800b5
:104310006000b80010079800210798008000eb00ab
:1043200070a82b0082fe0700a5fe07000000e00039
:10433000fdff3a0000000000a1fe07000000e000c1
:104340001f0032001e4fe80040c0b3009e4f100017
:1043500005003a008000eb0070a82b0074fe0700f7
:104360000040eb00004f78001e80fb00d6fe0700e7
:104370006000b800100798002107980090fe070021
:104380000000e0000e0032001e009000ae00900021
:1043900061004000e0804800100798002107980065
:1043a0001e019000ae019000803821000100200025
:1043b000800f5100818f5900f0ff3a000300370051
:1043c0001e80fb00c0fe0700dbff37000080fa0004
:1043d000000006000600fa00004f78001147980020
:1043e000224798003347980010c0b300b6fc07007e
:1043f000404798004e4090009e4f5000030032000e
:10440000c0ccb300fbfd070018003700ae409000a1
:104410003e4090006efd07000000e0000300320007
:10442000f0cdb300f3fd0700100037002e409000e0
:1044300010fe0700e10f500003003200f0cdb30082
:10444000ecfd0700090037001e409000e9fd070061
:1044500048c8bf00e7fd07001e409000818420008f
:104460009140780001404000e2fd07000080fa0022
:10447000000006000000fa00808b200011c0b3008d
:1044800090cf10004a003a000040eb00b8e8b700b7
:1044900021c0b300f0c1b3004dfd070021c0b3003f
:1044a0000040eb004afd070021c0b3000040eb00d4
:1044b00047fd070021c0b30000c2b30044fd070060
:1044c00021c0b3000040eb0041fd070021c0b30054
:1044d0000040eb003efd070011c0b300f0c1b30087
:1044e0003bfd070011c0b3000040eb0038fd0700a2
:1044f00011c0b3004dc8bf0035fd070011c0b300a7
:1045000000c2b30032fd070011c0b3000040eb0051
:104510002ffd070011c0b3000040eb002cfd070089
:104520008040eb00f0c1b30029fd07008040eb00a4
:104530000040eb0026fd07008040eb000040eb0050
:1045400023fd07008040eb0000c2b30020fd070000
:104550008040eb000040eb001dfd07008040eb00b9
:104560000040eb001afd070031c0b30030c1b300ba
:1045700017fd070031c0b30040c1b30014fd0700b0
:1045800031c0b30050c1b30011fd070031c0b3000a
:1045900060c1b3000efd070031c0b30030c2b300ec
:1045a0000bfd070031c0b30040c2b30008fd070097
:1045b0000080fa00000006000800fa00004f7800b2
:1045c0000040eb00604798006e4090009e4f500006
:1045d00028003100e222a8006000b800100798000f
:1045e000210798001e019000ae019000f0522700b4
:1045f00001002000800f5100818f590007003c000e
:104600001e009000ae00900061004000e080480075
:104610001007980021079800f2ff3700e222a90056
:104620006000b80010079800210798001e01900054
:10463000ae019000f0342c0001002000800f5100ea
:10464000818f590007003c001e009000ae009000d2
:1046500061004000e08048001007980021079800a2
:10466000f2ff37006e4090000040e800604798007d
:10467000d5ff37006000b8001007980021079800a8
:104680001e019000ae019000f0692800110020008a
:10469000800f5100818f590007003c001e009000e0
:1046a000ae00900061004000e080480010079800d4
:1046b00021079800f2ff37000080fa000000060092
:1046c0000800fa00004f78009e4078000040eb00a0
:1046d000bffc0700300798003e009000e20f40004a
:1046e0001f0035003e0090000000e000040035008f
:1046f0003e0090000000e000040032001800370087
:104700001000200010079800170037001e407800a6
:1047100058fd0700104798001e4090000080fb00e5
:10472000200798002e009000e20f4000090035009d
:104730002e0090000000e000060035002e009000e2
:104740000000e00003003a000000eb0010079800b2
:104750000500370010002000100798000200370005
:104760000000eb00100798001e0090000080fa0087
:10477000000006000200fa000040eb00004f780045
:1047800050c0b3009e4f100017003e00e0942b0075
:104790009e80fb0060c07800c9ff07000004e000b5
:1047a0000f003200e202a8000040eb001047980022
:1047b0001e409000e34f500009003e00e1942b00a2
:1047c0001e80fb00614078000040e8007aff07008f
:1047d0001e4090000040e80010479800f4ff3700aa
:1047e0001e4fe800e6ff37000080fa0000000600d8
:1047f0003c00fa00881f78006000b800008fbe00ff
:10480000de02a800cde2a8000080eb004015880081
:104810000000eb00501688000010200030168800c1
:104820000040eb00404798004e409000e54f50009c
:1048300007003e008040eb004e409000cbfb07009d
:104840004e4090000040e80040479800f6ff3700d7
:10485000e222a800e202a800de22a900de02a900ee
:10486000bcfb07006000b800008fbe00f0352e00d2
:1048700061012000be0f1000ae8f180005003c0043
:1048800010002000010020001e0f40005e9748002d
:10489000f6ff3700e222a900e202a900b5ff0700f7
:1048a0006000b800008fbe00f0e12400010020008d
:1048b000be0f1000ae8f180005003c001200200053
:1048c000030020001e0f41005e974900f6ff3700ed
:1048d0006600470081982b006017980071179800b8
:1048e000ee1190007e10900010000900b059780081
:1048f000660047008000eb000dfd070066004700e2
:10490000110020000afd07006000b800008fbe0003
:10491000701a260001002000be0f1000ae8f180094
:1049200005003c0012002000030020001e0f410083
:104930005e974900f6ff37008000eb0030ac2b009b
:10494000fbfc07006000b800008fbe00701a260054
:1049500001002000be0f1000ae8f180008003c00c0
:1049600017fd07000000e00005003a0010002000dd
:10497000010020001e0f40005e974800f3ff370043
:104980000ffd07000000e000010032005dfe07009f
:10499000e222a900cfc2bf000080fb004700de007a
:1049a0000080fb000000e000060032008000eb0009
:1049b000f0ac2b00defc07001100200000ae2b0045
:1049c000dbfc0700e222a900e202a800cfc2bf0080
:1049d0000080fb004700de000080fb000000e000dc
:1049e000260032006000b800008fbe00f0342c00ba
:1049f00001002000be0f1000ae8f180005003c0023
:104a000012002000030020001e0f41005e974900a5
:104a1000f6ff3700e2c2bf000080fb000000d100bb
:104a20000080fb00610060000080ea0061406000df
:104a30000041d000212e200091407800d0cfb3005b
:104a400000c0600002407000e2e2b700e2c2bf00b6
:104a50000080fb00610060000080ea0061416000ae
:104a6000212e200091407800e0cfb30000c060000c
:104a700002407000e2e2b700d4ff3700e222a90052
:104a8000e202a90051fc07008000eb0010af2b00f0
:104a9000a7fc07001100200080982b00a4fc070051
:104aa00016fc07000040eb0007fb0700005f9800c2
:104ab000cfc2bf000080fb004700de000080fb008b
:104ac0000000e000370032008000eb0020b02b0037
:104ad00097fc07001100200080982b0094fc070031
:104ae000e222a900e202a800cfc2bf000080fb00c2
:104af0004700de000080fb000000e00026003200de
:104b00006000b800008fbe00f0342c0001002000cf
:104b1000be0f1000ae8f180005003c0010002000f2
:104b2000010020001e0f40005e974800f6ff37008e
:104b3000e2c2bf000080fb000000d1000080fb004b
:104b4000610060000080ea00614060000041d00028
:104b5000212e200091407800d0cfb30000c060002b
:104b600002407000e2e2b700e2c2bf000080fb003a
:104b7000610060000080ea0061416000212e200099
:104b800091407800e0cfb30000c0600002407000a8
:104b9000e2e2b700d4ff37008000eb0030b12b0019
:104ba00063fc07000e5890000081fb00030020000a
:104bb000321f9800431f9800f00f200001002000d2
:104bc0003e199000ce199000800f5100818f59003e
:104bd000b3ff3e003e189000ce1890000060010028
:104be00002013700110137005f013700acff3700c9
:104bf0008d023700aaff3700f10237002803370083
:104c0000620337004004370000053700a4ff370077
:104c100072053700eb053700a1ff3700410637006a
:104c2000800137009eff370075063700bc0737004c
:104c30009bff3700960437008c01370098ff370040
:104c40009e08370096ff3700da08370094ff3700d8
:104c50007a01370092ff37007e01370090ff37005e
:104c6000ba043700110937008dff37004d093700ae
:104c70008bff3700280237008201370088ff37009a
:104c8000cf0137000d063700b0033700f0033700bf
:104c90007903370082ff370081ff370080ff37003c
:104ca0007fff37007eff37007dff37007cff370036
:104cb0007bff37007aff370079ff370078ff370036
:104cc00077ff370076ff370075ff370074ff370036
:104cd00073ff370072ff370071ff370070ff370036
:104ce0006fff37006eff37006dff37006cff370036
:104cf0006bff37006aff370069ff370068ff370036
:104d000067ff370066ff370065ff370064ff370035
:104d100063ff370062ff370061ff370060ff370035
:104d20005fff37005eff37005dff37005cff370035
:104d30005bff37005aff370059ff370058ff370035
:104d400057ff370056ff370055ff370054ff370035
:104d500053ff370052ff370051ff370050ff370035
:104d60004fff37004eff37004dff37004cff370035
:104d70004bff37004aff370049ff370048ff370035
:104d800047ff370046ff370045ff370044ff370035
:104d900043ff370042ff370041ff370040ff370035
:104da0003fff37003eff37003dff37003cff370035
:104db0003bff37003aff370039ff370038ff370035
:104dc00037ff370036ff370035ff370034ff370035
:104dd00033ff370032ff370031ff370030ff370035
:104de0002fff37002eff37002dff37002cff370035
:104df0002bff37002aff370029ff370028ff370035
:104e000027ff370026ff370025ff370024ff370034
:104e100023ff370022ff370021ff370020ff370034
:104e20001fff37001eff37001dff37001cff370034
:104e30001bff37001aff370019ff370018ff370034
:104e400017ff370016ff370015ff370014ff370034
:104e500013ff370012ff370011ff370010ff370034
:104e60000fff37000eff37000dff37000cff370034
:104e70000bff37000aff370009ff370008ff370034
:104e800007ff370006ff370005ff370004ff370034
:104e900003ff370002ff370001ff370000ff370034
:104ea000fffe3700fefe3700fdfe3700fcfe370038
:104eb000fbfe3700fafe3700f9fe3700f8fe370038
:104ec000f7fe3700f6fe3700f5fe3700f4fe370038
:104ed000f3fe3700f2fe3700f1fe3700f0fe370038
:104ee000effe3700eefe3700edfe3700ecfe370038
:104ef000ebfe3700eafe3700e9fe3700e8fe370038
:104f0000e7fe3700e6fe3700e5fe3700e4fe370037
:104f1000e3fe3700e2fe3700e1fe3700e0fe370037
:104f2000dffe3700defe3700ddfe3700dcfe370037
:104f3000dbfe3700dafe3700d9fe3700d8fe370037
:104f4000d7fe3700d6fe3700d5fe3700d4fe370037
:104f5000d3fe3700d2fe3700d1fe3700d0fe370037
:104f6000cffe3700cefe3700cdfe3700ccfe370037
:104f7000cbfe3700cafe3700c9fe3700c8fe370037
:104f8000c7fe3700c6fe3700c5fe3700c4fe370037
:104f9000c3fe3700c2fe3700c1fe3700c0fe370037
:104fa000bffe3700befe3700bdfe3700bcfe370037
:104fb000bbfe3700bafe3700b9fe3700b8fe370037
:104fc000b7fe3700b6fe3700b5fe3700b4fe370037
:104fd000b3fe3700b2fe3700b1fe370000003700e5
:104fe000c0cbb30003fb0700adfe370010c0b30019
:104ff000b5f90700cf80de00500f9800610f9800d0
:105000005e089000ee089000e00f5000e08f58001e
:1050100003003a00c0cbb300f6fa0700a0fe370049
:10502000c0ccb300f3fa07009dfe37000040eb0050
:105030002067980010c0b300a3f90700cf80de00fe
:10504000500f9800610f98005e099000ee099000e3
:105050001000200001002000800f5100818f5900b6
:1050600003003200c0ccb300e2fa07008cfe370028
:105070000040eb00404798004e409000e54f500044
:1050800030003e00ce4090000040eb0050fa070098
:10509000101f98009e189000e18f40000b00320016
:1050a0001e1990000200e00004003d009e199000cf
:1050b000e28f4100090032001e0037001e189000e8
:1050c0000000e000090032001a0037002e60900056
:1050d0000040e80020679800160037002e6090001e
:1050e0000040e80020679800120037004e40900012
:1050f000e0fa0700306798003e6090000080fb00f7
:10510000001f98008e189000e28f400006003500c6
:105110000e1990000200e000030035008e19900087
:105120000300e000030032002e6090000040e80021
:10513000206798004e4090000040e80040479800eb
:10514000cdff37002e6090000004e00003003a001d
:10515000c0cbb300a7fa070051fe3700f0cdb30073
:10516000a4fa07004efe370010c0b30056f907003e
:10517000cf80de00500f9800610f98005e0990000c
:10518000ee0990002000200001002000800f510057
:10519000818f590003003200c0ccb30095fa07009c
:1051a0003ffe37008040eb0050c0b30008fa070014
:1051b0000000e00003003200f0cdb3008dfa0700dc
:1051c00037fe37000040eb00aafa070020179800ce
:1051d0002e109000e20f500003003200f0cdb3001b
:1051e00084fa07002efe370030c0b30081fa0700b2
:1051f00048c8bf007ffa070049c8bf007dfa070012
:10520000818420009140780049c8bf0000c0400060
:1052100063404000306798003e60900075fa0700d8
:105220001ffe3700c3c1b30032c0b30011c1b300c9
:1052300000c1b30067fc070019fe370033c4b30098
:1052400032c0b300d1c1b300c0c1b30061fc0700dc
:1052500013fe370063c4b30042c0b300f1c1b30012
:10526000e0c1b3005bfc07000dfe370023c4b300b0
:1052700032c0b30071c1b30060c1b30055fc070078
:1052800007fe370010c0b3000ff90700cf80de0023
:10529000500f9800610f98005e099000ee09900091
:1052a0006002200001002000800f5100818f590012
:1052b00003003200c0ccb3004efa0700f8fd3700ff
:1052c00031c0b30020c0b300c1f907000000e00006
:1052d00003003200f0cdb30046fa0700f0fd3700be
:1052e00031c0b3000040eb00b9f907000000e00056
:1052f00003003200f0cdb3003efa0700e8fd3700ae
:1053000030c0b3005bfa0700e10f50000300320029
:10531000f0cdb30037fa0700e1fd370048c8bf0001
:105320000080fb0001002000500f9800610f9800e2
:1053300031c0b30020c0b300a5f907000000e000b1
:1053400003003200f0cdb3002afa0700d4fd370085
:1053500031c0b30010c0b3009df907000000e000a9
:1053600003003200f0cdb30022fa0700ccfd370075
:1053700030c0b3003ffa0700e10f500003003200d5
:10538000f0cdb3001bfa0700c5fd370070c2b300b3
:1053900018fa07002e58900016fa070048c8bf00f8
:1053a00014fa070081842000914078002e58900064
:1053b00000c040007042b0000efa0700b8fd370090
:1053c00010c0b300c0f80700cf80de00500f980077
:1053d000610f980010c0b300bbf80700cf80de005b
:1053e000700f98000117980010c0b300b6f80700be
:1053f000306798005e099000ee0990007e089000ea
:105400008e10900002004000838048000001be0022
:105410008202b0000380b000f00f200001002000e5
:1054200000016100818161003e6090000080fb000e
:1054300001002000800f5100818f590003003200cd
:10544000c0ccb300ebf9070095fd370031c0b300c5
:1054500030c0b3005ef907000000e0000300320036
:10546000f0cdb300e3f907008dfd370031c0b30084
:105470000040eb0056f907000000e0000300320096
:10548000f0cdb300dbf9070085fd370031c0b30074
:105490002e5890004ef907000000e0000300320093
:1054a000f0cdb300d3f907007dfd370031c0b30064
:1054b00030c0b30046f907000000e00003003200ee
:1054c000f0cdb300cbf9070075fd370031c0b30054
:1054d00010c0b3003ef907000000e00003003200f6
:1054e000f0cdb300c3f907006dfd370031c0b30044
:1054f0006e58900036f907000000e000030032000b
:10550000f0cdb300bbf9070065fd3700c0cbb30099
:10551000b8f9070062fd370010c0b3006af8070051
:10552000cf80de00500f9800610f980010c0b300cc
:1055300065f80700cf80de00700f98000117980013
:105540005e089000ee089000e00f5000e08f5800d9
:10555000070032005e099000ee0990001000200064
:1055600001002000800f5100818f59000e003a0089
:105570005e089000ee0890000001be005202b000ec
:105580000380b000f00f2000010020000001610046
:10559000818161007e0890008e109000800f510084
:1055a000818f590003003200c0ccb30091f907008d
:1055b0003bfd37005e089000ee089000e00f5000c1
:1055c000e08f580007003a0041c0b300a0c4b30008
:1055d000fff80700cf80de00500f9800610f9800a1
:1055e0000600370041c0b30090c4b300f8f80700cc
:1055f000cf80de00500f9800610f98005e08900089
:10560000ee089000e00f5000e08f580003003200d9
:10561000f0cdb30077f9070021fd3700c0cbb30010
:1056200074f907001efd370010c0b30026f807000c
:10563000cf80de00500f9800610f98005e09900047
:10564000ee0990004000200001002000800f510072
:10565000818f590003003200c0ccb30065f9070008
:105660000ffd37006000b800500f9800610f9800e0
:1056700041c0b30000c1b300d5f807000000e0004e
:1056800003003200f0cdb3005af9070004fd3700e3
:1056900040c0b30077f90700e10f5000030032006b
:1056a000f0cdb30053f90700fdfc370048c8bf0038
:1056b0000080fb0001002000500f9800610f98004f
:1056c00031c0b30000c1b300c1f807000000e00022
:1056d00003003200f0cdb30046f90700f0fc3700bc
:1056e00030c0b30063f90700e10f5000030032003f
:1056f000f0cdb3003ff90700e9fc370048c8bf0010
:105700000080fb00610060000000e0000800320043
:105710005e089000ee0890000204200003002000c4
:105720000200700083807000500f9800610f980095
:1057300011c0b30070c2b300a5f807000000e0007c
:1057400003003200f0cdb3002af90700d4fc370083
:1057500010c0b30047f90700e10f5000030032000a
:10576000f0cdb30023f90700cdfc370048c8bf00d7
:105770000080fb00610060000000e00008003200d3
:105780005e089000ee089000020820000300200050
:105790000200700083807000500f9800610f980025
:1057a00050c0b30013f907002e58900011f90700fc
:1057b0002e589000654040000ef90700b8fc3700f5
:1057c0000040eb00404798004e409000e44f5000ee
:1057d0000b003e004e4090000080fb0081842000c2
:1057e0000104400010c0b300b7f70700004c780078
:1057f0004e4090000040e80040479800f2ff37001c
:105800000040eb00306798000040eb0040479800f4
:105810004e409000e44f500010003e004e4090007b
:105820000080fb00838420000301400041952b0091
:105830004e4090000080fb0061407800924f1000c5
:105840000200320010c0b300306798004e40900054
:105850000040e80040479800edff37003e609000b0
:10586000e14f500003003a00c0ccb300e1f807005c
:105870008bfc370041c0b30010c1b30054f80700df
:105880000000e00003003200f0cdb300d9f80700bb
:1058900083fc3700c0cbb300d6f8070080fc37008c
:1058a00010c0b30088f70700cf80de00500f9800cb
:1058b000610f980010c0b30083f70700cf80de00af
:1058c000700f9800011798005e089000ee08900095
:1058d000e00f5000e08f5800070032005e09900092
:1058e000ee0990001000200001002000800f510000
:1058f000818f59000d003a005e089000ee0890007c
:1059000067014000e0814800f00f20000100200006
:1059100000016100818161007e0890008e1090007e
:10592000800f5100818f590003003200c0ccb300ba
:10593000b0f807005afc37005e089000ee089000af
:10594000e00f5000e08f580003003a0040c0b30061
:105950004077980002003700c1c0b300417798003b
:1059600031c0b3004e70900019f807000000e0004d
:1059700003003200f0cdb3009ef8070048fc37006a
:10598000c0cbb3009bf8070045fc370010c0b30044
:105990004df70700cf80de00500f9800610f980090
:1059a00010c0b30048f70700cf80de00700f9800ea
:1059b000011798005e089000ee089000e00f50007c
:1059c000e08f58000e0032005e099000ee09900052
:1059d0001000200001002000800f5100818f59002d
:1059e000070032005e099000ee09900020002000c0
:1059f00001002000800f5100818f59000d003a00f6
:105a00005e089000ee08900068014000e0814800c8
:105a1000f00f200001002000000161008181610081
:105a20007e0890008e109000800f5100818f5900e9
:105a300003003200c0ccb3006ef8070018fc37003a
:105a400081a92b005e0890000080400021c0b300b7
:105a500010407800def707000000e000030032008d
:105a6000f0cdb30063f807000dfc3700c0cbb300e6
:105a700060f807000afc370010c0b30012f70700f7
:105a8000cf80de00500f9800610f980010c0b30067
:105a90000df70700cf80de00700f98000117980007
:105aa0005e089000ee089000e00f5000e08f580074
:105ab000070032005e099000ee09900010002000ff
:105ac00001002000800f5100818f59000e003a0024
:105ad0005e089000ee0890000001be00c202b00017
:105ae0000380b000f00f20000100200000016100e1
:105af000818161007e0890008e109000800f51001f
:105b0000818f590003003200c0ccb30039f8070080
:105b1000e3fb3700b1a92b005e0890000080400035
:105b200051c0b30010407800a9f707000000e00062
:105b300003003200f0cdb3002ef80700d8fb370089
:105b4000c0cbb3002bf80700d5fb370010c0b30063
:105b5000ddf60700cf80de00500f9800610f98003f
:105b600010c0b300d8f60700cf80de00700f980099
:105b7000011798005e089000ee089000e00f5000ba
:105b8000e08f58000e0032005e099000ee09900090
:105b90001000200001002000800f5100818f59006b
:105ba000070032005e099000ee09900020002000fe
:105bb00001002000800f5100818f59000e003a0033
:105bc0005e089000ee0890000001be00a202b00046
:105bd0000380b000f00f20000100200000016100f0
:105be000818161007e0890008e109000800f51002e
:105bf000818f590003003200c0ccb300fdf70700cd
:105c0000a7fb370031c0b300c0c4b30070f7070072
:105c10000000e00003003200f0cdb300f5f707000c
:105c20009ffb370031c0b3002e58900068f7070083
:105c30000000e00003003200f0cdb300edf70700f4
:105c400097fb3700c0cbb300eaf7070094fb37009f
:105c500010c0b3009cf60700cf80de00500f980004
:105c6000610f980010c0b30097f60700cf80de00e8
:105c7000700f9800011798005e089000ee089000e1
:105c80000001be00b202b0000380b000f00f20009f
:105c90000100200000016100818161007e08900008
:105ca0008e109000800f5100818f59000300320048
:105cb000c0ccb300cff7070079fb370031c0b30089
:105cc000e0c4b30042f707000000e0000300320028
