:020000040000fa
:08000000a4150400000000003b
:020000040000fa
:100200000000000000000000881f78000204780051
:1002100014000700080040004f04780000000600aa
:100220000000fa00881f7800000478003fb99700aa
:10023000ea8157008000780040102000100007007d
:10024000800078000000e000020035000040eb0074
:1002500000f47800010078004f0478000080fa0074
:1002600000000600800178000200e0000300320078
:10027000b15978000201e900fdff3a0000000600d4
:100280006200fa00889fbe008a9fbe000004be0084
:1002900002057800830078006a805700ad000700ef
:1002a000f88f9f0089979f000000eb00909f9f00b0
:1002b0001a80fb008005fb000000ea00cf04de008e
:1002c0000904780050022000808f550001003a0098
:1002d0000904e9000800e0000c0034000f909700ca
:1002e000080178008a007800ff8997000300010068
:1002f00080979f008080eb000000e00090003200bb
:100300001f98970008004000909f9f000905450036
:1003100050022000808f5500040032000b00e000e6
:10032000e3ff3a009f989700850037000000eb003c
:10033000f0979f00e0979f00d0979f00c0979f0085
:10034000b0979f00a0979f00b09f9f0009003700c3
:1003500000902000008050000000d000619020003c
:1003600001004000bf98970090807000b19f9f00ef
:100370000a05e8009a00fb000090200077000700c3
:10038000800078000000e000f1ff3a00a0c2b30056
:100390009a4f10000e003a003fb897000080e90025
:1003a000b0bf9f0010007800a09f9f000000e000f9
:1003b00005003d000000ea00a09f9f003f989700c5
:1003c0000020a000b09f9f000a05e8001100370040
:1003d000a19f9f000b003700af989700f0ff270008
:1003e000808f5000060032006a09b9001a00fb0035
:1003f0000200400001fd2f0001004000a09f9f006f
:100400000a05e8001a00fb005c0007000000e0009d
:10041000f1ff3a00e0c2b3009a4f1000030032002f
:100420000080eb00809f9f001c003700a0c2b3003b
:10043000da4f100007003a003fb897000080e9004b
:10044000b0bf9f0010007800809f9f000a05e80061
:10045000120037000000eb00809f9f000b00370068
:100460008f989700f0ff2700808f50000600320021
:100470006a09b9001a00fb000200400001fd2f00cc
:1004800001004000809f9f000a05e8001a00fb0061
:100490003a0007000000e000f1ff3a009a00fb007c
:1004a000609120002d0007008040eb000000e0007c
:1004b00001003200ba407800817f9f0080c6b300ff
:1004c00080cf500004003a009acf100002003a009a
:1004d00066405000070037008f789700c0c6b30011
:1004e00080cf500005003a009acf100003003a0078
:1004f00065404000807f9f000a05e800a0fb2f00b8
:10050000008447003a01fb0088017800ea80570028
:1005100060f92f000f0040001e0007000000e000ff
:1005200006003a008800780060f92f000f004000b4
:100530009e0107000000e0005dff3d008080eb00b1
:10054000010078004f05be004f04be000080fa0095
:1005500000000600010878000000060090cf10009f
:10056000050032001004e00001003a000000050020
:10057000d0cf1000fbff3a00000006000003b100de
:10058000030035009000b10001003c0010000500a0
:1005900000000500889fbe008a1f780000047800d4
:1005a0000102780002457800830478000200fb0015
:1005b000cf80de005002b1000180b1003205200082
:1005c000820f5000e08f58006b013e000060010078
:1005d00063013700680137006701370066013700a3
:1005e000650137006401370063013700620137009d
:1005f00061013700600137005f0137005e0137009d
:100600005d0137005c0137005b0137005a0137009c
:10061000590137005801370057013700560137009c
:10062000550137005401370053013700520137009c
:1006300051013700500137004f0137004e0137009c
:100640004d0137004c0137004b0137004a0137009c
:10065000490137004801370047013700460137009c
:10066000450137004401370043013700420137009c
:1006700041013700400137003f0137003e0137009c
:100680003d0137003c013700210137003a013700b6
:100690003901370038013700370137008100370052
:1006a000350137003401370033013700320137009c
:1006b00031013700300137002f0137002e0137009c
:1006c0002d0137002c013700150037001c003700c2
:1006d000290137002801370027013700260137009c
:1006e00017003700240137002301370022013700ab
:1006f00021013700c20037006a003700f5003700db
:100700001d0137001c013700010137001a013700b5
:100710006400370018013700170137006100370007
:100720006e01440012007800808141009480e9004d
:10073000010a78000009e8009149780017013700a4
:1007400028619000c0c6b300804f51000a003a00f3
:100750009400780064805000000a78001000be0009
:100760004f89de00cf91de000002be000203780058
:10077000820378001600370010c7b300804f510085
:1007800003003a00140178006800510005003700aa
:1007900094007800a0c6b300804f510005003a00d5
:1007a00068805000000a78003002be002003be00be
:1007b000070037000180e900000a78001000780087
:1007c00000027800cfa2de000503780086037800df
:1007d000049cbe000694be00a860900080c6b300d2
:1007e00080cf50000f00320020c6b30080cf5000f1
:1007f00006003a00184078000000fb00cf80de00c1
:1008000001017800820178000a00370040c7b30078
:1008100080cf5000030032006640400080cf50007f
:1008200006003a0018007800cf80de000101780051
:1008300082017800009cbe000294be003800be0019
:100840002801be00e00f5000e08f5800e00f590073
:10085000e08f590004003d006e01440092007800d2
:10086000d0c2b3000c003700081090000018a3009d
:10087000040032006e01440092007800b0c2b30060
:10088000050037000008a300580032006e01440044
:100890009200780000c2b30080f478000109e800fb
:1008a0005200370028619000c0c6b300804f51004d
:1008b00006003a009400780064805000000a780036
:1008c0001002be006033b8001600370010c7b30036
:1008d000804f510003003a00140178006800510075
:1008e0000500370094007800a0c6b300804f510087
:1008f00005003a0068805000000a78003002be000f
:100900002003be00070037000180e900000a7800dc
:10091000100078000002780005002000060020008a
:1009200007002000049cbe000694be00a860900052
:1009300080c6b30080cf50000f00320020c6b30045
:1009400080cf500006003a00184078000080fb007d
:100950000100200002002000030020000a003700f0
:1009600040c7b30080cf5000030032006640400013
:1009700080cf500006003a001800780001002000e7
:100980000200200003002000009cbe000294be0074
:10099000081090000038a300140032003800be0098
:1009a0002801be00e00f5000e08f5800e00f590012
:1009b000e08f59000d00320080c7b300804f550012
:1009c0000300320080c5b300804f550007003a0095
:1009d0006e0044009000780002c3b30082f47800f7
:1009e0008100e8008af478000108e80078009000af
:1009f00000804400600498008a407800410037007d
:100a0000286090008000fb00c0062000808f50000e
:100a1000230032000a003c0064005000808f500028
:100a20002600320004003c0066005000808f500019
:100a30000b00320021003700a0062000050037001f
:100a400040072000808f50001c0032001b003c003b
:100a500063005000808f50000700320017003700fd
:100a60001480e900000a780010007800485c9000cb
:100a700008487800490037001480e900000a78002f
:100a80001002780068089000cf80de000101780035
:100a900082017800009abe000292be003f0037003b
:100aa0001480e900000a78001001780068089000be
:100ab000cf80de000089be00380037001480e900d6
:100ac000000a780010007800680c90000808780090
:100ad000320037001480e900000a78001000780026
:100ae000cf80de000101780082017800009cbe000a
:100af0000294be00780090000080440060049800da
:100b000081c7b30008007800f60007002300370013
:100b10001480e900000a7800100078006004980052
:100b2000580990000200e00002003d009f0107000c
:100b3000090037008000eb00a30107008000780067
:100b40000000e000030032006800900000805000c8
:100b50000100370058089000100c98000f00370073
:100b60006e0144009200780050c2b30080f178001a
:100b70000109e80009003700ee0044001100780088
:100b8000808144000a4278008008e8000a04e000fe
:100b900001003a0054c2b300844978000000eb0021
:100ba0004f0578004f04be00000006000400fa0064
:100bb000889fbe008a9fbe008c1f780000047800ca
:100bc0000106780070089000f800900001005000c5
:100bd0008808900001005000980890000100500023
:100be000a808900001005000b808900001005000d3
:100bf000c8089000810550000002220090bf9f00ad
:100c000000032300a0bf9f00081090000028a3004d
:100c100018003a000b00e000160034000b057800c5
:100c20008a047800e20f55000100360029002000f8
:100c30000900e0000c00340058009000c80190004a
:100c400009017800ee80570003000100500498006d
:100c50008080eb000000e0009c00320068089000fb
:100c600009004000600c9800090555004240a900a9
:100c7000ebff3c00780190000200e0000c00340023
:100c800058009000c80190008c007800030001001b
:100c9000500498008080eb000000e0008b003200e0
:100ca00068089000f800900001004000600c980077
:100cb000080890000000e0001600340000057800ed
:100cc0008a047800e20f5500010036002900200058
:100cd0000900e0000c00340058009000c8019000aa
:100ce00009017800ec8057000300010050049800cf
:100cf0008080eb000000e000740032006808900083
:100d000009004000600c9800090555004240a90008
:100d1000ebff3c00180990000200e0000c003400da
:100d2000e800900058009000c80190000300010006
:100d3000500498008080eb000000e0006300320067
:100d4000680890009808900001004000600c98002e
:100d5000280890000000e00016003400000578002c
:100d60008a047800e20f55000100360029002000b7
:100d70000900e0000c00340058009000c801900009
:100d800009017800ec80570003000100500498002e
:100d90008080eb000000e0004c003200680890000a
:100da00009004000600c9800090555004240a90068
:100db000ebff3c00380990000200e0000e00340018
:100dc000e8009000180890008080400058009000d3
:100dd000c801900003000100500498008080eb00df
:100de0000000e0003900320068089000b808900068
:100df00001004000600c9800480890000000e000ee
:100e000016003400000578008a047800e20f5500cf
:100e100001003600290020000900e0000c00340029
:100e200058009000c801900009017800ec8057003c
:100e300003000100500498008080eb000000e000f7
:100e4000220032006808900009004000600c980001
:100e5000090555004240a900ebff3c000810900036
:100e60000028a300180032000b00e0001600340038
:100e70000b0578008a047800e20f55000100360067
:100e8000290020000900e0000c0034005800900008
:100e9000c801900009017800ee80570003000100ae
:100ea000500498008080eb000000e0000700320052
:100eb0006808900009004000600c98000905550082
:100ec0004240a900ebff3c008000eb0001007800ed
:100ed0004f0678004f05be004f04be000080fa00a8
:100ee000000006006f02b000889fbe008a9fbe000f
:100ef0008c9fbe008e1f780080067800f08e200048
:100f0000b0b79f0080c5b30080cf50000200320010
:100f1000e28d2000b2b79f0083002000c3b79f007e
:100f2000f0c6b30080cf50000a0032006940400094
:100f300080cf500005003200a4002000c4b79f00fd
:100f400080c5b30080cf500002003a0000012000ad
:100f5000c0b79f008e0120003d04be002d05be00dd
:100f600040c6b30080cf500003003200654040000f
:100f700080cf50000a003a00e00f5400e08f5c0080
:100f8000e00f5d00e08f5d0005003d000800be0041
:100f90000a01be00950007000205be000004be0065
:100fa000e00f5400e08f5c00e00f5d00e08f5d001b
:100fb00003003a005d0890000000e0000c003200e1
:100fc0007e012000cfb0970001027800cfa2de00a2
:100fd00005037800860378000800be000a01be0001
:100fe000180107003fb2970064407800d0e79f00e7
:100ff0004fb09700cf80de000101780082017800b9
:10100000d0b79f00e1b79f00f2b79f0083bf9f005a
:101010000203be000002be000800be000a01be00be
:1010200001010700809ebe008296be00e00f5000c6
:10103000e08f5800e00f5900e08f59002200340083
:101040000e00e000200034003d00be002d01be0077
:101050005fb29700efb297007fb397008fbb970006
:10106000fc0007000205be000004be000e07e900f8
:10107000e1fc2f008f804000010647005fb297001f
:10108000efb297007fb397008fbb97000800be00b8
:101090000a01be008c0107001d0010003fb197003f
:1010a000624e7800889ebe008a96be00e00f540013
:1010b000e08f5c00e00f5d00e08f5d000200340017
:1010c0000e00e000e0ff3c00cfb19700e88f510038
:1010d00010003a000d1090000038a3000d003200ff
:1010e000f70f570006003e00e4fc2f000e024200fe
:1010f000e4c07f0000c3b30080cf50000500320081
:101100000e07e90000c3b300e1fc2f008e80400011
:1011100080f07f0078011700920e98006d0090001b
:10112000e3fc2f008f8141008e8041004dfc0700c1
:101130001d0e90005d089000800f560006003d00d7
:101140000c005000800e98000d1090000040a1008f
:10115000801698000f0037000000e0000d003d00f1
:101160000d10900074006000f00f500009003a006c
:101170007d089000fd009000010050008d08900057
:10118000010050000c0750004240a900010034004b
:101190008e0e98004f0778004f06be004f05be0028
:1011a0004f04be006f02b10000000600800078000e
:1011b0001004e000020032005104e000feff3a009b
:1011c00000805000000006000200e0000500320030
:1011d00090cf1000040032000000e8000201e90096
:1011e000fbff3a000000eb0000000600600010006a
:1011f000e080180060011900e0811900000006007d
:10120000881f7800000478005001be004000be0036
:101210000000420081804a0002014b0083814b00a4
:10122000009cbe000294be00dc00070003003100f9
:10123000480090000000e800400498004f04780047
:1012400000000600889fbe00000478008004eb00c8
:101250005001be004000be00d00007000100310078
:101260001900200004005000858058000601590034
:1012700087815900009cbe000294be004800900087
:1012800009005000400498004f04be000000060012
:101290001200fa00889fbe008a9fbe008c1f780053
:1012a0000205be000004be00f4b79f0085bf9f008a
:1012b00096bf9f00a7bf9f000000eb00e0b79f0014
:1012c000d0b79f00c0b79f00b0b79f00a0b79f00e6
:1012d0000006eb005fb197006fb097008000d00070
:1012e0000000e00015003d00e1b79f00010078001c
:1012f0000200e00001003d000000a000ac0007007b
:1013000001003d000000a000af00070001003d000b
:101310000000a000b200070001003d000000a00096
:101320008100070001003d000000a000b20007009e
:101330007c805700b2ff070014003700e1b79f0020
:10134000010078000200e00001003d000000a00064
:101350009700070001003d000000a0009a00070070
:1013600001003d000000a0009d00070001003d00bd
:101370000000a0006c00070001003d000000a0007c
:101380009d0007007c805700aeff07006fb09700fc
:101390000000e000070035001000200001002000e0
:1013a0006011b80008047000898470000a0571009b
:1013b0008b8571000c06e800f0032000800f5600ba
:1013c000c4ff34006fb097000000e00006003d004d
:1013d0007fb297008fba97001fbb9700afbb9700f3
:1013e0007c80570086ff07000802be000a03be008b
:1013f0006fa897000000e00004003a002fb29700a9
:10140000bfb297004fb39700dfb397000400be0050
:101410000601be004f0678004f05be004f04be0017
:101420000080fa0000000600881f780018002000e5
:10143000881f780096ff07008f87e9004f04780027
:1014400000000600801feb0091ff07008f87e90076
:10145000000006000800fa00889fbe008a9fbe00b8
:101460008c1f78006e00070005003d004300070058
:10147000300007000c003d00330007000b00370070
:10148000e00f5200e08f5a00e00f5b00e08f5b003e
:1014900006003d000400be000601be0053ff070029
:1014a0000205be000004be001c0020002c00070046
:1014b000ddff07000c00e000010032004bff0700d9
:1014c0004f0678004f05be004f04be000080fa00b2
:1014d000000006000800fa00889fbe008a9fbe0038
:1014e0008c1f78004e00070002003d001c00200009
:1014f000220007000f00070001003d001200070056
:1015000017000700cfff07000c00e00001003200c9
:1015100036ff07004f0678004f05be004f04be009f
:101520000080fa000000060090b79f000100d00084
:1015300080b79f00e00f5400e08f5c00e00f5d007b
:10154000e08f5d00000006000800be000a01be003a
:1015500026ff07000205be000004be0000000600d2
:101560000802be000a03be005fb09700efb097000c
:101570007fb197008fb99700000006001bff07009e
:101580000100070000000600b0b79f00c1b79f0030
:10159000d2b79f00e3b79f00000006000400e100ff
:1015a0000588e1000690e1000798e10000000600d0
:1015b000c0b79f000200d000b0b79f00afb0970047
:1015c0000100e00000000600b0b79f000100d0005d
:1015d000a0b79f009fb097000100e0000000060048
:1015e000a0b79f000100d00090b79f008fb0970078
:1015f0000100e0000000060080b79f000804d00052
:101600008984d2000a85d2008b85d2005fb2970010
:10161000efb297007fb397008fbb970000000600e2
:10162000d9ff07000605be000404be000006eb005b
:10163000e00f5000e08f5800e00f5900e08f590094
:1016400000000600889fbe008a9fbe008c9fbe00df
:101650000404b8000506b8008904460060854e0001
:101660000606b8000a054600e0854e000706b800e9
:101670008b054600040eb800890446000a854e001a
:10168000050eb8000a0546008b854e00060eb80010
:101690008b0546000416b8000a0546008b854e00ef
:1016a0000516b8008b054600041eb8008b054600e1
:1016b0000800be000a01be004f06be004f05be0076
:1016c0004f04be00000006000800fa00889fbe001c
:1016d0008a9fbe00170007000605be000404be0076
:1016e000e00f5200e08f5a00e00f5b00e08f5b00dc
:1016f00008003d000400be000601be00bbfe07005e
:101700000205be000004be000f000700b7fe070080
:10171000080007000802be000a03be000a00070016
:10172000c8ff07004f05be004f04be000080fa004e
:1017300000000600e0b79f00f1b79f0082bf9f0046
:1017400093bf9f00000006006fb09700ffb09700a6
:101750000fb997009fb99700000006000000fa003b
:101760000000eb0060108800b0002000a01088008e
:101770000d42a8000de2a8000f42a8000040eb00b7
:1017800040e8b7000040eb0041e8b7000040eb0044
:1017900042e8b7000040eb0044e8b7000040eb002f
:1017a00043e8b7000040eb0045e8b7000fe2a800af
:1017b0000ec2bf00f043b2000ee2b7008d40a80099
:1017c0008d20a8000000eb00b0108800b0002000c1
:1017d000f01088001742a90017e2a8001942a800db
:1017e0000040eb0086e8b7000040eb0087e8b70058
:1017f0000040eb0088e8b7000040eb008ae8b70043
:101800000040eb0089e8b7000040eb008be8b70030
:1018100019e2a80018c2bf00f043b20018e2b700f6
:101820008f20a8008f00a8000080fa0000000600aa
:10183000809fbe00821f78000000fa008520a9006a
:101840000e22a9000e42a9000e62a9000e02a900f4
:101850000ec2bf000080fb0061006000e10f50007d
:1018600012003a0044c8bf000080fb000282200042
:1018700082004000901080008048780044c8bf007b
:101880000040e8007f40600044e8b700508420003a
:10189000e1c1b30090cf1000edff3e0045c8bf008e
:1018a0000040e80045e8b700e9ff37000080fa0093
:1018b0004f0178004f00be0000400600809fbe0030
:1018c0000000fa008540a9000fc2bf000080fb00a5
:1018d0000000d1000080fb00610060000000e0001b
:1018e00010003a004248e2000e00320040c8bf003b
:1018f0000080fb0001802000010040001080fb0000
:101900008010880040c8bf000040e8007f406000b1
:1019100040e8b70042c8bf000040e90042e8b70015
:10192000e9ff37000080fa004f00be0000400600cb
:101930000200fa000000eb00000f78002084200075
:10194000e1c1b30090cf100002003e001000200063
:10195000000f78001e0078000080fa0000000600ea
:101960000000fa0045c8bf000080fb000080fa00bc
:10197000000006000200fa00004f78008d40a90028
:1019800041c8bf000080fb00018020000100400032
:101990001e48780041c8bf000040e8007f4060005a
:1019a00041e8b70042c8bf000040e80042e8b70085
:1019b0008d40a8008540a8000080fa0000000600c5
:1019c0000200fa008d20a90045c8bf000040e900d0
:1019d00045e8b70043c8bf000080fb00018220003b
:1019e00001004000104f780043c8bf000040e800ed
:1019f0007f40600043e8b7008d20a8001e80fb00f8
:101a00000080fa00000006000000fa008d20a90006
:101a10000040eb0045e8b70044c8bf0043e8b7000a
:101a20008d20a8000080fa0000000600809fbe0004
:101a3000821f78000000fa008700a9001822a90080
:101a40001842a9001862a9001802a90018c2bf0014
:101a50000080fb0061006000e10f500012003a00be
:101a60008ac8bf000080fb00628620008200400020
:101a7000e0108000804878008ac8bf000040e8007d
:101a80007f4060008ae8b700b0882000e1c1b30061
:101a900090cf1000edff3e008bc8bf000040e80073
:101aa0008be8b700e9ff37000080fa004f017800ab
:101ab0004f00be0000400600809fbe000000fa00fc
:101ac0008720a90019c2bf000080fb000000d100e0
:101ad0000080fb00610060000000e00010003a00a0
:101ae0008848e2000e00320086c8bf000080fb007c
:101af00061842000010040001080fb00d0108800ad
:101b000086c8bf000040e8007f40600086e8b7005c
:101b100088c8bf000040e90088e8b700e9ff370047
:101b20000080fa004f00be00004006000200fa00ec
:101b30000000eb00000f780080882000e1c1b300b6
:101b400090cf100002003e0010002000000f78002f
:101b50001e0078000080fa00000006000000fa0075
:101b60008bc8bf000080fb000080fa000000060068
:101b70000200fa00004f78008f20a90087c8bf003c
:101b80000080fb0061842000010040001e487800b6
:101b900087c8bf000040e8007f40600087e8b700ca
:101ba00088c8bf000040e80088e8b7008f20a80080
:101bb0008720a8000080fa00000006000200fa005a
:101bc0008f00a9008bc8bf000040e9008be8b70078
:101bd00089c8bf000080fb00618620000100400032
:101be000104f780089c8bf000040e8007f406000c7
:101bf00089e8b7008f00a8001e80fb000080fa0073
:101c0000000006000000fa008f00a9000040eb0071
:101c10008be8b7008ac8bf0089e8b7008f00a8002a
:101c20000080fa00000006000200fa00004f780071
:101c3000114798001e4090000004e00003003a00a5
:101c40001e4078004bff0700020037001e4078005e
:101c5000c7ff07000080fa00000006000400fa0039
:101c6000004f7800114798002247980033479800aa
:101c70003e4090000004e00002003a0062ff0700ce
:101c800001003700dfff0700be40900040c1b300f5
:101c9000e5ff0700be4090001e407800e2ff07000d
:101ca000be4090002e409000dfff0700be40900035
:101cb0001e409000dcff07001e4090009e40400048
:101cc0002e40900000c04000f440400000c0eb00f7
:101cd00000c06000be409000d3ff07000080fa0003
:101ce000000006000600fa0006a2a9000682a8006d
:101cf0006000b800008fbe0006c2bf000080fb007d
:101d00004400de000080fb00610060000000e00095
:101d10000c00320010002000010020001e0f4000c7
:101d20005e974800106a280011002000be0f1000c6
:101d3000ae8f1800f0ff3a00f10f20002107980045
:101d4000020037000000eb00200798002e009000f2
:101d50000080fa00000006000000fa00de42a80041
:101d6000de62a80007e2a900f054200020108800dd
:101d700000202100301088000040eb0000e2b70096
:101d80000040eb0002e2b70000202900301088007c
:101d90000000eb000080fa00000006000600fa00d8
:101da0000662a800000000006000b800008fbe00be
:101db00008c2bf000080fb000000d1000080fb00d3
:101dc000610060000000e0000c003a0010002000fc
:101dd000010020001e0f40005e974800106a280096
:101de00011002000be0f1000ae8f1800f0ff3a0067
:101df000f10f2000210798000300370000c2bf0048
:101e00000080fb00200798002e0090000080fa0060
:101e1000000006000600fa006000b800008fbe0057
:101e20000602a80006c2bf000080fb00610060003f
:101e30000000e0000c003200100020000100200033
:101e40001e0f40005e974800106a28001100200015
:101e5000be0f1000ae8f1800f2ff3a00f10f200005
:101e600021079800020037000000eb0020079800cf
:101e70002e0090000080fa00000006000600fa0024
:101e80006000b800008fbe000622a80006c2bf0096
:101e90000080fb000000d1000080fb0061006000ba
:101ea0000000e0000c0032001000200001002000c3
:101eb0001e0f40005e974800106a280011002000a5
:101ec000be0f1000ae8f1800f0ff3a00f10f200097
:101ed00021079800020037000000eb00200798005f
:101ee0002e0090000080fa00000006000600fa00b4
:101ef0000642a8006000b800008fbe0006c2bf0006
:101f00000080fb004200de000080fb0061006000fa
:101f10000000e0000c003200100020000100200052
:101f20001e0f40005e974800106a28001100200034
:101f3000be0f1000ae8f1800f0ff3a00f10f200026
:101f400021079800020037000000eb0020079800ee
:101f50002e0090000080fa00000006000800fa0041
:101f6000004f78001e40780002e2b7006000b80021
:101f7000100798002107980008c2bf000080fb00ee
:101f8000610060000000e0000f0032001e009000c1
:101f9000ae00900061004000e08048000001be00fb
:101fa0001207980023079800106a280011002000eb
:101fb000800f5100818f5900efff3a00f00f200091
:101fc00030079800020037000000eb00300798004f
:101fd0003e0090000080fa00000006000600fa00b3
:101fe0006000b800008fbe0009c2bf000080fb0087
:101ff0004600de000080fb00610060000000e000a1
:102000000c00320010002000010020001e0f4000d4
:102010005e974800106a280011002000be0f1000d3
:10202000ae8f1800f0ff3a00f10f20002107980052
:10203000020037000000eb00200798002e009000ff
:102040000080fa00000006000600fa00881f7800f1
:10205000000f7800214798002e4090000040e900d2
:1020600020479800e14f4000140032001e00780025
:10207000000478001e0fe80048ff0700004c7800bd
:1020800009c2bf000080fb004200de000080fb00b0
:10209000610060000000e000030032000080eb00ff
:1020a00020079800070037002e4090000004e00051
:1020b000e9ff32000bff0700e7ff37000000eb00ed
:1020c000200798002e0090004f0478000080fa004e
:1020d000000006000800fa00004f78006000b80019
:1020e0001007980021079800bcff070049ff070070
:1020f0001e4078000004a00098ff0700b7ff07000b
:102100006600470021c0b300cfff0700660047000c
:10211000104078000080fb000100200010079800ac
:1021200021079800effe070070ff07001e009000d7
:10213000ae0090000080fa00000006000a00fa00dd
:10214000004f78000040eb0012e9b70090c0b300e8
:102150008de8b70013c9bf000080fb00400798005e
:102160004e009000e20f5000cb003200ce009000f5
:10217000e28f500007003c004e0190000200e0009a
:1021800009003200ce019000e18f5100b60032000c
:10219000d5003700ce00900064805000e10f500061
:1021a000d1003e00890037001e4078000081fb000e
:1021b00003002000120798002307980070022000f7
:1021c000010020001e019000ae019000800f510020
:1021d000818f5900c4003e001e009000ae009000a8
:1021e0000060010027003700290037002f0037006a
:1021f00033003700bc003700bb003700ba0037009f
:10220000b9003700b8003700b7003700b600370014
:10221000b5003700b4003700b3003700b200370014
:1022200035003700b0003700af003700ae00370090
:10223000ad003700ac003700ab003700aa00370014
:10224000a9003700a8003700a7003700a600370014
:10225000a5003700a4003700a3003700a200370014
:102260003a0037003e003700420037004c0037008c
:102270009d0037009c0037009b0037009a00370014
:10228000140037000040eb008ce8b70096003700e0
:10229000204d2900801f7800d0882000e0f707003b
:1022a0008f87e9008ce8b7008f00370010c0b300bb
:1022b00013e9b7000040eb0014e9b7008a003700cb
:1022c00020c0b30013e9b7000040eb0014e9b700e9
:1022d0008500370010c0b3008ce8b700c8c2bf004b
:1022e0000080fb000000d1006140600000c0ea00f7
:1022f0008de8b7007c0037000040eb0010479800e5
:102300001e409000e44f50000d003e001e40900023
:102310000080fb00d2882000820040001e40900018
:102320000080fb00838c2000030040009048780070
:102330001e4090000040e80010479800f0ff370072
:1023400050c0b3008ce8b7006700370040c0b3004e
:1023500013e9b7000040eb0014e9b7006200370052
:1023600050c0b30013e9b7000040eb0014e9b70018
:102370005d00370010c0b3008ce8b70078fd07009f
:102380000004e000030032008dfd07008de8b70077
:102390005500370000c0eb008de8b7005200370051
:1023a00010c0b3008ce8b700ecfd07000004e000ab
:1023b0000300320001fe07008de8b7004a00370035
:1023c00000c0eb008de8b700470037001449e20079
:1023d00002003a001e40780015e9b70014c9bf009a
:1023e0000040e80014e9b7004091200021c0b3008c
:1023f00090cf10003c003a000040eb0014e9b70019
:102400000041eb00624798003091200043c0b300c8
:1024100090cf11000200320010c0b3006047980056
:102420003091200041c0b30090cf100003003a006b
:1024300032c0b300724798000200370043c0b300b7
:1024400073479800ee4190001e41780051912000a2
:10245000914078007e40900000fe07000040eb00b5
:1024600013e9b700200037000040eb0014e9b70083
:102470000040eb0013e9b70010c0b3008ce8b700d0
:102480001e80fb00d18c200001004000104078002d
:102490008de8b700140037001449e20002003a004a
:1024a0001e40780015e9b70014c9bf000040e800dd
:1024b00014e9b7004091200021c0b30090cf100074
:1024c00009003a000040eb0014e9b7000040eb00bf
:1024d00013e9b70015c9bf000080fb00d28c2000b3
:1024e000020040001e4878000080fa00000006004c
:1024f0000000fa00d0168000f2c3b30082406000f2
:10250000d4c2bf00614060004600dd0080c07000a2
:10251000d4c2bf000080fb000000d1006140600019
:102520004700dd0000c070000080fb000080fa0062
:10253000000006000200fa00004f7800c11680007b
:1025400000fc2f0000806000c0168800d222a90085
:10255000d202a900e116800000fc2f00008160007b
:102560009e80fb00f00320000080600000007100ee
:10257000e01688009e80fb000004200000806000c0
:102580004680de0061416000612d200091407800ae
:10259000e0cfb30000c0600002407000d6e2b70098
:1025a0009e80fb0000082000008060004780de0065
:1025b000614060000041d000612d20009140780012
:1025c000d0cfb30000c0600002407000d6e2b70078
:1025d0000080fa00000006000000fa00d222a800e5
:1025e000d202a800c0168000f10320000100700094
:1025f000c01688000080fa00000006000400fa00ff
:102600000040eb00004f7800c8c2bf000080fb0014
:10261000610060000000e00003003a000000eb00f1
:102620001007980028003700dbc2bf000080fb00c5
:1026300061006000e10f50000d003a00acff0700a0
:10264000004f7800d642a800d242a900c8c2bf00fd
:102650000080fb00610060000000e000fbff3a002a
:10266000d242a8001e407800b4fe070014003700d4
:102670002291200092407800014078000080fb0009
:10268000c388200003004000104f78008140e8001c
:10269000014978001e407800a6ff0700d642a80036
:1026a000d242a900c8c2bf000080fb0061006000e8
:1026b0000000e000fbff3a00c7ff0700d242a8007d
:1026c00010002000100798001e0090000080fa0003
:1026d000000006000000fa00c040a800c7ff070085
:1026e0000080fa00000006000000fa00c040a900c7
:1026f0000080fa00000006000000fa00f5ff070065
:102700008de0a800910920009140780080cfb300af
:1027100000c060006040b30099e0b700810920006c
:1027200091407800f0c8b30000c0600001c5b3005c
:102730000140700098e0b700010a20009140780045
:10274000f0c8b30000c0600001c6b30001407000d3
:10275000a0e0b700010a20009140780080cfb300cc
:1027600000c060005040b300a0e0b700b1092000f5
:1027700091407800f0c8b30000c0600001c4b3000d
:10278000014070009be0b700910920009140780063
:10279000f0c8b30000c0600001c2b3000140700087
:1027a00099e0b7000080fa00000006000000fa007f
:1027b00089ff0700d902a800c602a800d242a800db
:1027c000cdff07000080fa00000006003600f80088
:1027d000809fbe00829fbe00849fbe00869fbe0079
:1027e0000000fa0085e0a900c0c0bf000080fb0027
:1027f0004200de000080fb0061006000e10f50003d
:1028000001003a007dff07000080fa004f03be0080
:102810004f02be004f01be004f00be003600f9005f
:10282000004006000800fa000080eb004015880018
:1028300049fd0700ddff0700c602a800c622a80068
:10284000c6fb07000040eb00004f7800f0c0b3006b
:102850009e4f100007003e001e80fb00d28c20001f
:102860008200400010c4b300804878001e4fe8008a
:10287000f6ff37000040eb00004f780040c0b30087
:102880009e4f100007003e001e80fb00828c20003f
:10289000820040000040eb00804878001e4fe800b6
:1028a000f6ff3700000000006000b8001007980035
:1028b000210798001e019000ae019000f0702200e8
:1028c00001002000800f5100818f590007003c005b
:1028d0001e009000ae00900061004000e0804800c3
:1028e0001007980021079800f2ff370000c9b300d5
:1028f000f8fd0700604798006e409000e14f4000ef
:1029000001003a0014fd07006e409000c8e8b700cf
:10291000e0c6b300effd0700604798006e409000ee
:10292000e14f400001003a000bfd07006e409000af
:10293000c9e8b700a0ceb300e6fd070060479800e5
:102940006e409000e14f400001003a0002fd070098
:102950006e409000cae8b700e0ceb300ddfd07008e
:10296000604798006e409000e14f400001003a003f
:10297000f9fc07006e409000cbe8b70080ceb300b2
:10298000d4fd0700604798006e409000e14f400082
:1029900001003a00f0fc07006e409000cce8b70060
:0429a000c1ff37003c
:020000040000fa
:0200000401f009
:04000000fcff000001
:020000040000fa
:0200000401f009
:04000400ff7f00007a
:020000040000fa
:10000800fc150000fc150000fc150000fc150000a4
:10001800fc150000fc150000fc150000fc15000094
:10002800fc150000fc150000fc150000fc15000084
:10003800fc150000fc150000fc150000fc15000074
:10004800fc150000180c00005e0c0000fc150000f8
:10005800fc150000fc150000fc150000e61300006c
:10006800fc150000fc150000fc150000fc15000044
:10007800fc150000fc150000fc150000fc15000034
:10008800160d00005c0d0000fc150000fc150000ba
:10009800fc150000fc150000fc150000fc15000014
:1000a800fc150000fc150000fc150000fc15000004
:1000b800fc150000fc150000fc150000fc150000f4
:1000c800fc150000fc150000fc150000fc150000e4
:1000d800fc150000fc150000fc150000fc150000d4
:1000e800fc150000fc150000fc150000fc150000c4
:0800f800fc150000fc150000de
:020000040000fa
:10010800fc150000fc150000fc150000fc150000a3
:10011800fc150000fc150000fc150000fc15000093
:10012800fc150000fc150000fc150000fc15000083
:10013800fc150000fc150000fc150000fc15000073
:10014800fc150000180c00005e0c0000fc150000f7
:10015800fc150000fc150000fc150000e61300006b
:10016800fc150000fc150000fc150000fc15000043
:10017800fc150000fc150000fc150000fc15000033
:10018800160d00005c0d0000fc150000fc150000b9
:10019800fc150000fc150000fc150000fc15000013
:1001a800fc150000fc150000fc150000fc15000003
:1001b800fc150000fc150000fc150000fc150000f3
:1001c800fc150000fc150000fc150000fc150000e3
:1001d800fc150000fc150000fc150000fc150000d3
:1001e800fc150000fc150000fc150000fc150000c3
:0801f800fc150000fc150000dd
:020000040000fa
:1029a400544d00005020000053540000410000002a
:020000040000fa
:1029b40012090000040000000200000000000000f2
:1029c4000000000000080000de000000000000001d
:1029d4001e090000060000000200000000000000c4
:1029e40000000000240900000600000002000000ae
:1029f40000000000000000002a090000060000009a
:102a040002000000000000000000000000090000b7
:102a14001200000002000000202b2d0023300000d3
:102a24000100020000040000080010000000000083
:102a3400160900000800000002000000686a6c002b
:102a4400747a4c0000000000de0800002200000040
:102a5400020000003031320033343500363738009c
:102a6400396162006364650066003000313233000e
:102a74003435360037383900414243004445460076
:082a840000000000000000004a
:020000040000fa
:102a8c0091018800800078000000eb0015003700f1
:102a9c00e280400032a0b4009101ba00e280400014
:102aac0032a0b4009102ba00e280400032a0b4001f
:102abc000002eb00472bde00f507b200602ce100b2
:102acc0004003a000059eb008301e900fdff3e00d1
:102adc00040037006128e100010032000082eb00a5
:102aec00040007001101ba000200e000e8ff3a0000
:102afc00000006003159ba008301e9000c003200d5
:102b0c002159ba008301e900080032000400e000fa
:102b1c0003003a00e280400032a0b400f5ff370019
:102b2c0011d9ba008301e900faff3a008100e800ec
:0c2b3c00e180400032a0b4000000060060
:020000040000fa
:102b48000f93200080ff2000000188000000000093
:102b58000c000700a04d210001002000c9ff07005c
:102b6800000020000000e000020032000000020027
:102b78000000000012140200000000000040da000b
:102b88000000fe004440a900000120000000e00011
:102b98000300320000002000a00188004440a80083
:042ba8000000060023
:020000040000fa
:102bac000f93200081ff2000010188004440a90000
:102bbc00010120000100e0000300320001002000b0
:102bcc00a10188004440a800000020000000e000a3
:102bdc00020032000000020000000000121402008b
:0c2bec00000000000040da000000fe00c5
:020000040000fa
:042bf8000000fe00db
:00000001FF
