:020000040000fa
:080000000401040000000000ef
:020000040000fa
:1002000084010400000000004fb720008079220024
:100210000001880000000000050007000c00070036
:1002200032160200000000000040da000000fe006c
:100230004440a900800120000000e00003003200db
:1002400000002000a00188004440a8000000060033
:1002500020bd210001002000160037006200400090
:10026000e0804800910188009001ba0062004000df
:10027000e0804800910188009002ba0062004000ce
:10028000e08048000002eb006028e10005003a0031
:100290008301e90007003300038009000059eb00e7
:1002a000040037006128e100010032000082eb0009
:1002b00005000700910188001001ba000200e0006b
:1002c000e6ff3a00000005009101880080027800f6
:1002d00062004000e08048003559ba008301e9001f
:1002e000080032002559ba008301e90005003200f8
:1002f0000400e000f4ff320015d9ba008301e900e0
:10030000f1ff3a0000000600881f78000204780020
:1003100014000700080040004f04780000000600a9
:100320000000fa00881f7800000478003fb99700a9
:10033000ea81570080007800401820001000070074
:10034000800078000000e000020035000040eb0073
:1003500000f47800010078004f0478000080fa0073
:1003600000000600800178000200e0000300320077
:10037000b15978000201e900fdff3a0000000600d3
:100380006200fa00889fbe008a9fbe000004be0083
:1003900002057800830078006a805700ad000700ee
:1003a000f88f9f0089979f000000eb00909f9f00af
:1003b0001a80fb008005fb000000ea00cf04de008d
:1003c0000904780050022000808f550001003a0097
:1003d0000904e9000800e0000c0034000f909700c9
:1003e000080178008a007800ff8997000300010067
:1003f00080979f008080eb000000e00090003200ba
:100400001f98970008004000909f9f000905450035
:1004100050022000808f5500040032000b00e000e5
:10042000e3ff3a009f989700850037000000eb003b
:10043000f0979f00e0979f00d0979f00c0979f0084
:10044000b0979f00a0979f00b09f9f0009003700c2
:10045000e0b42000008050000000d00041b5200032
:1004600001004000bf98970090807000b19f9f00ee
:100470000a05e8009a00fb00e0b4200077000700be
:10048000800078000000e000f1ff3a00a0c2b30055
:100490009a4f10000e003a003fb897000080e90024
:1004a000b0bf9f0010007800a09f9f000000e000f8
:1004b00005003d000000ea00a09f9f003f989700c4
:1004c0000020a000b09f9f000a05e800110037003f
:1004d000a19f9f000b003700af989700f0ff270007
:1004e000808f5000060032006a09b9001a00fb0034
:1004f0000200400001fd2f0001004000a09f9f006e
:100500000a05e8001a00fb005c0007000000e0009c
:10051000f1ff3a00e0c2b3009a4f1000030032002e
:100520000080eb00809f9f001c003700a0c2b3003a
:10053000da4f100007003a003fb897000080e9004a
:10054000b0bf9f0010007800809f9f000a05e80060
:10055000120037000000eb00809f9f000b00370067
:100560008f989700f0ff2700808f50000600320020
:100570006a09b9001a00fb000200400001fd2f00cb
:1005800001004000809f9f000a05e8001a00fb0060
:100590003a0007000000e000f1ff3a009a00fb007b
:1005a000c0b620002d0007008040eb000000e000f6
:1005b00001003200ba407800817f9f0080c6b300fe
:1005c00080cf500004003a009acf100002003a0099
:1005d00066405000070037008f789700c0c6b30010
:1005e00080cf500005003a009acf100003003a0077
:1005f00065404000807f9f000a05e800a0fb2f00b7
:10060000008447003a01fb0088017800ea80570027
:1006100060f92f000f0040001e0007000000e000fe
:1006200006003a008800780060f92f000f004000b3
:100630009e0107000000e0005dff3d008080eb00b0
:10064000010078004f05be004f04be000080fa0094
:1006500000000600010878000000060090cf10009e
:10066000050032001004e00001003a00000005001f
:10067000d0cf1000fbff3a00000006000003b100dd
:10068000030035009000b10001003c00100005009f
:1006900000000500889fbe008a1f780000047800d3
:1006a0000102780002457800830478000200fb0014
:1006b000cf80de005002b1000180b1003205200081
:1006c000820f5000e08f58006b013e000060010077
:1006d00063013700680137006701370066013700a2
:1006e000650137006401370063013700620137009c
:1006f00061013700600137005f0137005e0137009c
:100700005d0137005c0137005b0137005a0137009b
:10071000590137005801370057013700560137009b
:10072000550137005401370053013700520137009b
:1007300051013700500137004f0137004e0137009b
:100740004d0137004c0137004b0137004a0137009b
:10075000490137004801370047013700460137009b
:10076000450137004401370043013700420137009b
:1007700041013700400137003f0137003e0137009b
:100780003d0137003c013700210137003a013700b5
:100790003901370038013700370137008100370051
:1007a000350137003401370033013700320137009b
:1007b00031013700300137002f0137002e0137009b
:1007c0002d0137002c013700150037001c003700c1
:1007d000290137002801370027013700260137009b
:1007e00017003700240137002301370022013700aa
:1007f00021013700c20037006a003700f5003700da
:100800001d0137001c013700010137001a013700b4
:100810006400370018013700170137006100370006
:100820006e01440012007800808141009480e9004c
:10083000010a78000009e8009149780017013700a3
:1008400028619000c0c6b300804f51000a003a00f2
:100850009400780064805000000a78001000be0008
:100860004f89de00cf91de000002be000203780057
:10087000820378001600370010c7b300804f510084
:1008800003003a00140178006800510005003700a9
:1008900094007800a0c6b300804f510005003a00d4
:1008a00068805000000a78003002be002003be00bd
:1008b000070037000180e900000a78001000780086
:1008c00000027800cfa2de000503780086037800de
:1008d000049cbe000694be00a860900080c6b300d1
:1008e00080cf50000f00320020c6b30080cf5000f0
:1008f00006003a00184078000000fb00cf80de00c0
:1009000001017800820178000a00370040c7b30077
:1009100080cf5000030032006640400080cf50007e
:1009200006003a0018007800cf80de000101780050
:1009300082017800009cbe000294be003800be0018
:100940002801be00e00f5000e08f5800e00f590072
:10095000e08f590004003d006e01440092007800d1
:10096000d0c2b3000c003700081090000018a3009c
:10097000040032006e01440092007800b0c2b3005f
:10098000050037000008a300580032006e01440043
:100990009200780000c2b30080f478000109e800fa
:1009a0005200370028619000c0c6b300804f51004c
:1009b00006003a009400780064805000000a780035
:1009c0001002be006033b8001600370010c7b30035
:1009d000804f510003003a00140178006800510074
:1009e0000500370094007800a0c6b300804f510086
:1009f00005003a0068805000000a78003002be000e
:100a00002003be00070037000180e900000a7800db
:100a10001000780000027800050020000600200089
:100a200007002000049cbe000694be00a860900051
:100a300080c6b30080cf50000f00320020c6b30044
:100a400080cf500006003a00184078000080fb007c
:100a50000100200002002000030020000a003700ef
:100a600040c7b30080cf5000030032006640400012
:100a700080cf500006003a001800780001002000e6
:100a80000200200003002000009cbe000294be0073
:100a9000081090000038a300140032003800be0097
:100aa0002801be00e00f5000e08f5800e00f590011
:100ab000e08f59000d00320080c7b300804f550011
:100ac0000300320080c5b300804f550007003a0094
:100ad0006e0044009000780002c3b30082f47800f6
:100ae0008100e8008af478000108e80078009000ae
:100af00000804400600498008a407800410037007c
:100b0000286090008000fb00c0062000808f50000d
:100b1000230032000a003c0064005000808f500027
:100b20002600320004003c0066005000808f500018
:100b30000b00320021003700a0062000050037001e
:100b400040072000808f50001c0032001b003c003a
:100b500063005000808f50000700320017003700fc
:100b60001480e900000a780010007800485c9000ca
:100b700008487800490037001480e900000a78002e
:100b80001002780068089000cf80de000101780034
:100b900082017800009abe000292be003f0037003a
:100ba0001480e900000a78001001780068089000bd
:100bb000cf80de000089be00380037001480e900d5
:100bc000000a780010007800680c9000080878008f
:100bd000320037001480e900000a78001000780025
:100be000cf80de000101780082017800009cbe0009
:100bf0000294be00780090000080440060049800d9
:100c000081c7b30008007800f60007002300370012
:100c10001480e900000a7800100078006004980051
:100c2000580990000200e00002003d009f0107000b
:100c3000090037008000eb00a30107008000780066
:100c40000000e000030032006800900000805000c7
:100c50000100370058089000100c98000f00370072
:100c60006e0144009200780050c2b30080f1780019
:100c70000109e80009003700ee0044001100780087
:100c8000808144000a4278008008e8000a04e000fd
:100c900001003a0054c2b300844978000000eb0020
:100ca0004f0578004f04be00000006000400fa0063
:100cb000889fbe008a9fbe008c1f780000047800c9
:100cc0000106780070089000f800900001005000c4
:100cd0008808900001005000980890000100500022
:100ce000a808900001005000b808900001005000d2
:100cf000c8089000810550000002220090bf9f00ac
:100d000000032300a0bf9f00081090000028a3004c
:100d100018003a000b00e000160034000b057800c4
:100d20008a047800e20f55000100360029002000f7
:100d30000900e0000c00340058009000c801900049
:100d400009017800ee80570003000100500498006c
:100d50008080eb000000e0009c00320068089000fa
:100d600009004000600c9800090555004240a900a8
:100d7000ebff3c00780190000200e0000c00340022
:100d800058009000c80190008c007800030001001a
:100d9000500498008080eb000000e0008b003200df
:100da00068089000f800900001004000600c980076
:100db000080890000000e0001600340000057800ec
:100dc0008a047800e20f5500010036002900200057
:100dd0000900e0000c00340058009000c8019000a9
:100de00009017800ec8057000300010050049800ce
:100df0008080eb000000e000740032006808900082
:100e000009004000600c9800090555004240a90007
:100e1000ebff3c00180990000200e0000c003400d9
:100e2000e800900058009000c80190000300010005
:100e3000500498008080eb000000e0006300320066
:100e4000680890009808900001004000600c98002d
:100e5000280890000000e00016003400000578002b
:100e60008a047800e20f55000100360029002000b6
:100e70000900e0000c00340058009000c801900008
:100e800009017800ec80570003000100500498002d
:100e90008080eb000000e0004c0032006808900009
:100ea00009004000600c9800090555004240a90067
:100eb000ebff3c00380990000200e0000e00340017
:100ec000e8009000180890008080400058009000d2
:100ed000c801900003000100500498008080eb00de
:100ee0000000e0003900320068089000b808900067
:100ef00001004000600c9800480890000000e000ed
:100f000016003400000578008a047800e20f5500ce
:100f100001003600290020000900e0000c00340028
:100f200058009000c801900009017800ec8057003b
:100f300003000100500498008080eb000000e000f6
:100f4000220032006808900009004000600c980000
:100f5000090555004240a900ebff3c000810900035
:100f60000028a300180032000b00e0001600340037
:100f70000b0578008a047800e20f55000100360066
:100f8000290020000900e0000c0034005800900007
:100f9000c801900009017800ee80570003000100ad
:100fa000500498008080eb000000e0000700320051
:100fb0006808900009004000600c98000905550081
:100fc0004240a900ebff3c008000eb0001007800ec
:100fd0004f0678004f05be004f04be000080fa00a7
:100fe000000006006f02b000889fbe008a9fbe000e
:100ff0008c9fbe008e1f780080067800d0b3200042
:10100000b0b79f0080c5b30080cf5000020032000f
:10101000c2b22000b2b79f0083002000c3b79f0078
:10102000f0c6b30080cf50000a0032006940400093
:1010300080cf500005003200a4002000c4b79f00fc
:1010400080c5b30080cf500002003a0000012000ac
:10105000c0b79f008e0120003d04be002d05be00dc
:1010600040c6b30080cf500003003200654040000e
:1010700080cf50000a003a00e00f5400e08f5c007f
:10108000e00f5d00e08f5d0005003d000800be0040
:101090000a01be00950007000205be000004be0064
:1010a000e00f5400e08f5c00e00f5d00e08f5d001a
:1010b00003003a005d0890000000e0000c003200e0
:1010c0007e012000cfb0970001027800cfa2de00a1
:1010d00005037800860378000800be000a01be0000
:1010e000180107003fb2970064407800d0e79f00e6
:1010f0004fb09700cf80de000101780082017800b8
:10110000d0b79f00e1b79f00f2b79f0083bf9f0059
:101110000203be000002be000800be000a01be00bd
:1011200001010700809ebe008296be00e00f5000c5
:10113000e08f5800e00f5900e08f59002200340082
:101140000e00e000200034003d00be002d01be0076
:101150005fb29700efb297007fb397008fbb970005
:10116000fc0007000205be000004be000e07e900f7
:10117000e1fc2f008f804000010647005fb297001e
:10118000efb297007fb397008fbb97000800be00b7
:101190000a01be008c0107001d0010003fb197003e
:1011a000624e7800889ebe008a96be00e00f540012
:1011b000e08f5c00e00f5d00e08f5d000200340016
:1011c0000e00e000e0ff3c00cfb19700e88f510037
:1011d00010003a000d1090000038a3000d003200fe
:1011e000f70f570006003e00e4fc2f000e024200fd
:1011f000e4c07f0000c3b30080cf50000500320080
:101200000e07e90000c3b300e1fc2f008e80400010
:1012100080f07f0078011700920e98006d0090001a
:10122000e3fc2f008f8141008e8041004dfc0700c0
:101230001d0e90005d089000800f560006003d00d6
:101240000c005000800e98000d1090000040a1008e
:10125000801698000f0037000000e0000d003d00f0
:101260000d10900074006000f00f500009003a006b
:101270007d089000fd009000010050008d08900056
:10128000010050000c0750004240a900010034004a
:101290008e0e98004f0778004f06be004f05be0027
:1012a0004f04be006f02b10000000600800078000d
:1012b0001004e000020032005104e000feff3a009a
:1012c00000805000000006000200e000050032002f
:1012d00090cf1000040032000000e8000201e90095
:1012e000fbff3a000000eb00000006006000100069
:1012f000e080180060011900e0811900000006007c
:10130000881f7800000478005001be004000be0035
:101310000000420081804a0002014b0083814b00a3
:10132000009cbe000294be00dc00070003003100f8
:10133000480090000000e800400498004f04780046
:1013400000000600889fbe00000478008004eb00c7
:101350005001be004000be00d00007000100310077
:101360001900200004005000858058000601590033
:1013700087815900009cbe000294be004800900086
:1013800009005000400498004f04be000000060011
:101390001200fa00889fbe008a9fbe008c1f780052
:1013a0000205be000004be00f4b79f0085bf9f0089
:1013b00096bf9f00a7bf9f000000eb00e0b79f0013
:1013c000d0b79f00c0b79f00b0b79f00a0b79f00e5
:1013d0000006eb005fb197006fb097008000d0006f
:1013e0000000e00015003d00e1b79f00010078001b
:1013f0000200e00001003d000000a000ac0007007a
:1014000001003d000000a000af00070001003d000a
:101410000000a000b200070001003d000000a00095
:101420008100070001003d000000a000b20007009d
:101430007c805700b2ff070014003700e1b79f001f
:10144000010078000200e00001003d000000a00063
:101450009700070001003d000000a0009a0007006f
:1014600001003d000000a0009d00070001003d00bc
:101470000000a0006c00070001003d000000a0007b
:101480009d0007007c805700aeff07006fb09700fb
:101490000000e000070035001000200001002000df
:1014a0006011b80008047000898470000a0571009a
:1014b0008b8571000c06e800f0032000800f5600b9
:1014c000c4ff34006fb097000000e00006003d004c
:1014d0007fb297008fba97001fbb9700afbb9700f2
:1014e0007c80570086ff07000802be000a03be008a
:1014f0006fa897000000e00004003a002fb29700a8
:10150000bfb297004fb39700dfb397000400be004f
:101510000601be004f0678004f05be004f04be0016
:101520000080fa0000000600881f780018002000e4
:10153000881f780096ff07008f87e9004f04780026
:1015400000000600801feb0091ff07008f87e90075
:10155000000006000800fa00889fbe008a9fbe00b7
:101560008c1f78006e00070005003d004300070057
:10157000300007000c003d00330007000b0037006f
:10158000e00f5200e08f5a00e00f5b00e08f5b003d
:1015900006003d000400be000601be0053ff070028
:1015a0000205be000004be001c0020002c00070045
:1015b000ddff07000c00e000010032004bff0700d8
:1015c0004f0678004f05be004f04be000080fa00b1
:1015d000000006000800fa00889fbe008a9fbe0037
:1015e0008c1f78004e00070002003d001c00200008
:1015f000220007000f00070001003d001200070055
:1016000017000700cfff07000c00e00001003200c8
:1016100036ff07004f0678004f05be004f04be009e
:101620000080fa000000060090b79f000100d00083
:1016300080b79f00e00f5400e08f5c00e00f5d007a
:10164000e08f5d00000006000800be000a01be0039
:1016500026ff07000205be000004be0000000600d1
:101660000802be000a03be005fb09700efb097000b
:101670007fb197008fb99700000006001bff07009d
:101680000100070000000600b0b79f00c1b79f002f
:10169000d2b79f00e3b79f00000006000400e100fe
:1016a0000588e1000690e1000798e10000000600cf
:1016b000c0b79f000200d000b0b79f00afb0970046
:1016c0000100e00000000600b0b79f000100d0005c
:1016d000a0b79f009fb097000100e0000000060047
:1016e000a0b79f000100d00090b79f008fb0970077
:1016f0000100e0000000060080b79f000804d00051
:101700008984d2000a85d2008b85d2005fb297000f
:10171000efb297007fb397008fbb970000000600e1
:10172000d9ff07000605be000404be000006eb005a
:10173000e00f5000e08f5800e00f5900e08f590093
:1017400000000600889fbe008a9fbe008c9fbe00de
:101750000404b8000506b8008904460060854e0000
:101760000606b8000a054600e0854e000706b800e8
:101770008b054600040eb800890446000a854e0019
:10178000050eb8000a0546008b854e00060eb8000f
:101790008b0546000416b8000a0546008b854e00ee
:1017a0000516b8008b054600041eb8008b054600e0
:1017b0000800be000a01be004f06be004f05be0075
:1017c0004f04be00000006000800fa00889fbe001b
:1017d0008a9fbe00170007000605be000404be0075
:1017e000e00f5200e08f5a00e00f5b00e08f5b00db
:1017f00008003d000400be000601be00bbfe07005d
:101800000205be000004be000f000700b7fe07007f
:10181000080007000802be000a03be000a00070015
:10182000c8ff07004f05be004f04be000080fa004d
:1018300000000600e0b79f00f1b79f0082bf9f0045
:1018400093bf9f00000006006fb09700ffb09700a5
:101850000fb997009fb997000000060000017800bb
:1018600084c1bf0066006000e60f50000200320035
:10187000120c8800010c88000000060000017800ae
:101880008ac1bf0066006000e60f5000020032000f
:10189000420c8800310c880000000600000178002e
:1018a00090c1bf0066006000e60f500002003200e9
:1018b000720c8800610c88000000060000017800ae
:1018c00096c1bf0066006000e60f500002003200c3
:1018d000a20c8800910c880000000600000178002e
:1018e0009cc1bf0066006000e60f5000020032009d
:1018f000d20c8800c10c88000000060000017800ae
:10190000a2c1bf0066006000e60f50000200320076
:10191000020d8800f10c880000000600000178002c
:10192000a8c1bf0066006000e60f50000200320050
:10193000320d8800210d88000000060000017800ab
:10194000aec1bf0066006000e60f5000020032002a
:10195000620d8800510d880000000600000278002a
:1019600080cfb3008461b600010c8800120c88009f
:10197000240c8800000006000002780080cfb3002d
:101980008a61b600310c8800420c8800540c880033
:10199000000006000002780080cfb3009061b6001e
:1019a000610c8800720c8800840c8800000006001e
:1019b0000002780080cfb3009661b600910c8800d9
:1019c000a20c8800b40c8800000006000002780019
:1019d00080cfb3009c61b600c10c8800d20c880097
:1019e000e40c8800000006000002780080cfb300fd
:1019f000a261b600f10c8800020d8800140d880069
:101a0000000006000002780080cfb300a861b60095
:101a1000210d8800320d8800440d8800000006006a
:101a20000002780080cfb300ae61b600510d88008f
:101a3000620d8800740d8800000006000621ef008a
:101a400061088800800888001061a9000000060075
:101a50008440a900e74160005109200091407800ce
:101a600082cfb30082c0600083c070008000fd00a0
:101a700095e0b7008000fd000000d10064406000e8
:101a8000c1082000914078000124a10080c07000ae
:101a9000010078008ce0b7000000060084a0a900d7
:101aa000e7416000c419dd00610920009140780021
:101ab000f2c8b30082c0600083c070008000fd00e7
:101ac00096e0b7008000fd004200dd000042b20059
:101ad000c1082000914078000154a10080c070002e
:101ae000010078008ce0b700000006008660a900c5
:101af000e7416000c419dd00d10920009140780061
:101b0000f2c8b30082c0600083c070008000fd0096
:101b10009de0b7008000fd0068406000e108200003
:101b2000914078000134a10080c07000010078006d
:101b30008ee0b700000006008680a900e741600043
:101b4000e10920009140780082cfb30082c060009c
:101b500083c070008000fd009ee0b7008000fd00a3
:101b60000040d00070406000e10820009140780003
:101b70000144a10080c07000010078008ee0b70031
:101b8000000006008800a900e7416000410a20002b
:101b90009140780082cfb30082c0600083c07000a3
:101ba0008000fd00a4e0b7008000fd006800600038
:101bb0004300de0001092000914078000104a100eb
:101bc00080c070000100780090e0b70000000600bf
:101bd0008820a900e7416000c419dd00410a200007
:101be00091407800f2c8b30082c0600083c07000ea
:101bf0008000fd00a4e0b7008000fd004200de0090
:101c00006240600001092000914078000114a100a9
:101c100080c070000100780090e0b700000006006e
:101c20008840a900e7416000510a200091407800f7
:101c300082cfb30082c0600083c070008000fd00ce
:101c4000a5e0b7008000fd000000d1006440600006
:101c500001092000914078000124a10080c070009b
:101c60000100780090e0b700000006008860a9003d
:101c7000e7416000c419dd00510a2000914078005e
:101c8000f2c8b30082c0600083c070008000fd0015
:101c9000a5e0b7008000fd00684060000109200059
:101ca000914078000134a10080c0700001007800ec
:101cb00090e0b7000000060084c0a900e741600082
:101cc000710920009140780082cfb30082c060008b
:101cd00083c070008000fd0097e0b7008000fd0029
:101ce0004300dd000044b200c108200091407800ac
:101cf0000164a10080c07000010078008ce0b70092
:101d0000000006000021ef0011088800200888006c
:101d1000000006000200fa00004f78001e80fb0061
:101d200060004000e70f500012003e009e80fb0064
:101d3000600020000008b8004318200003014000a4
:101d40009e80fb00600020000008b80043182000bf
:101d50000300400010007800650970009e80fb00c1
:101d6000e0ff2f008100dd00901680000100600080
:101d7000901688000080fa00000006000200fa00b9
:101d8000004f78001e80fb0060004000e70f50000d
:101d900012003e009e80fb00600020000008b8009a
:101da00043182000030140009e80fb0060002000db
:101db0000008b800431820008300400080ff2f0077
:101dc000110960009e80fb00100020008100dd00f2
:101dd0009016800001007000901688000080fa00c4
:101de000000006000400fa00004f78001e80fb008f
:101df00060004000e70f500007003e001e80fb001f
:101e00000000d00001802000010040001000780098
:101e100010079800020037000080eb0010079800c0
:101e20001e0090000080fa00000006000400fa0086
:101e3000004f7800110798001e80fb0060004000f2
:101e4000e70f50000a003e009e009000908621009f
:101e5000808f500006003e001e80fb000000d00076
:101e600001802000010040009e00900001087800e1
:101e70000080fa00000006003600f800809fbe00d7
:101e8000829fbe00849fbe00869fbe000000fa00b5
:101e90000040800051ea200001004000319c2000f9
:101ea0006efe07008440a9000080fa004f03be00c8
:101eb0004f02be004f01be004f00be003600f900c9
:101ec000004006003600f800809fbe00829fbe00e2
:101ed000849fbe00869fbe000000fa001040800074
:101ee00091802200010040007132220063fe070051
:101ef00084a0a9000080fa004f03be004f02be007c
:101f00004f01be004f00be003600f9000040060041
:101f10003600f800809fbe00829fbe00849fbe00f6
:101f2000869fbe000000fa0020408000d1162400e9
:101f300001004000b1c8230058fe07008660a900d8
:101f40000080fa004f03be004f02be004f01be00ea
:101f50004f00be003600f900004006003600f800d1
:101f6000809fbe00829fbe00849fbe00869fbe00f1
:101f70000000fa003040800011ad25000100400053
:101f8000f15e25004dfe07008680a9000080fa0062
:101f90004f03be004f02be004f01be004f00be0007
:101fa0003600f900004006003600f800809fbe00b1
:101fb000829fbe00849fbe00869fbe000000fa0084
:101fc00040408000514327000100400031f52600c9
:101fd00042fe07008800a9000080fa004f03be00ff
:101fe0004f02be004f01be004f00be003600f90098
:101ff000004006003600f800809fbe00829fbe00b1
:10200000849fbe00869fbe000000fa005040800002
:1020100091d9280001004000718b280037fe07008d
:102020008820a9000080fa004f03be004f02be00c6
:102030004f01be004f00be003600f9000040060010
:102040003600f800809fbe00829fbe00849fbe00c5
:10205000869fbe000000fa0060408000d16f2a0019
:1020600001004000b1212a002cfe07008840a90091
:102070000080fa004f03be004f02be004f01be00b9
:102080004f00be003600f900004006003600f800a0
:10209000809fbe00829fbe00849fbe00869fbe00c0
:1020a0000000fa007040800011062c000100400082
:1020b000f1b72b0021fe07008860a9000080fa001c
:1020c0004f03be004f02be004f01be004f00be00d6
:1020d0003600f900004006000000fa00329c2000a3
:1020e000b1d4210000ff2d001cfe07007232220037
:1020f000f16a230000ff2d001ffe0700b2c8230075
:102100003101250000ff2d0022fe0700f25e2500b0
:102110007197260000ff2d0025fe070032f52600ee
:10212000b12d280000ff2d0028fe0700728b28002b
:10213000f1c3290000ff2d002bfe0700b2212a0069
:10214000315a2b0000ff2d002efe0700f2b72b00a6
:1021500071f02c0000ff2d0031fe070060ea200026
:102160000040880060ea20001040880060ea2000fb
:102170002040880060ea20003040880060ea2000ab
:102180004040880060ea20005040880060ea20005b
:102190006040880060ea200070408800716d2d006a
:1021a000d0f82d0025fe07000080eb0028fe070078
:1021b0000080eb0039fe07000080eb004bfe0700bb
:1021c0000080eb005cfe07000080eb006dfe070066
:1021d0000080eb007efe07000080eb0090fe070011
:1021e0000080eb00a1fe070070ff2f00b2fe070089
:1021f0000080fa00000006000000fa0000c8b300ea
:1022000011e8b70000c8b30012e8b70000c8b30077
:1022100013e8b70000c8b30014e8b70000c8b30063
:1022200015e8b70000c8b30016e8b7000080fa0050
:10223000000006000000fa00d0cfb30060ebb7004a
:10224000080507000080fa00000006003600f800cc
:10225000809fbe00829fbe00849fbe00869fbe00fe
:102260000600fa0085c0a90060cbbf000080fb001b
:10227000100798001e009000e40f50004800320044
:102280009e009000e48f50000d003c009e019000e5
:10229000e18f5100150032001e009000e10f500048
:1022a000700034009e009000e28f50001600320053
:1022b0009e019000e38f510030003200690037002a
:1022c0001e009000e60f5000610032009e0090005a
:1022d000e58f500053003400d00f20009e01900085
:1022e000808f51005d0032005e003700100020003a
:1022f000105b880020c0b30060ebb70028c8bf00a7
:10230000dd040700570037000b0507000000e00060
:1023100002003a00c7ff070052003700105b800040
:10232000640be30004003e00ce04070060c0b3006d
:1023300060ebb7004b003700d60407000000e00058
:1023400002003a00bbff07004600370022b620001b
:102350001200780080007800838220008380400093
:102360000000e8000009780011407800c20407006e
:1023700020c0b30060ebb7003a003700ee0407005e
:102380000000e00002003a00aaff07003500370015
:1023900040c0b30060ebb7000662a8003100370010
:1023a00022b620001200780020079800ae009000ae
:1023b000838220008380400000c2bf0080487800f4
:1023c000ae0090008100e80021079800ae01900067
:1023d000030978000000eb00000f7800105b80001c
:1023e000640be3000200360011002000010f7800aa
:1023f0009e41780061c061004501dd006120200040
:1024000091407800f0cdb30000c060000240700041
:1024100006e2b7000682a80050c0b30060ebb70028
:1024200010003700105b8000640be30004003e00e6
:102430008c04070060c0b30060ebb70009003700f0
:102440000662a80040c0b30060ebb700050037008b
:102450000040eb0060ebb70002003700e0cfb300b4
:1024600060ebb7000080fa004f03be004f02be00d1
:102470004f01be004f00be003600f90000400600cc
:102480000000fa009016800001f02f00010070009b
:1024900090168800cda2a8000080fa000000060077
:1024a0000200fa00004f780091168000f00f200023
:1024b0000080600090168800b1168000f00f2000a8
:1024c00000806000b01688001e80fb00c800dd00a0
:1024d000b016800001007000b01688000080fa007d
:1024e000000006000000fa00a01680004800de0090
:1024f0000080fb000080fa00000006000200fa00e5
:10250000c3c2bf000080fb004600de000080fb006d
:10251000610060000000e0002a003200cfc2bf006e
:102520000080fb004600de000080fb0061006000d0
:10253000e10f50000f003a00eaff0700004f78005b
:10254000d1a2a800cda2a900c3c2bf000080fb0099
:102550004600de000080fb00610060000000e0003b
:10256000f9ff3a00cda2a8001e407800170007002e
:1025700014003700a2b62000120078008000780016
:10258000a3a2200083804000114f78000000e800e3
:10259000000978001e407800c1ff0700d1a2a80002
:1025a000cda2a900c3c2bf000080fb004600de0030
:1025b0000080fb00610060000000e000f9ff3a00cd
:1025c000afff07000080fa00000006000c00fa00d0
:1025d000004f78000000eb00505b880066cbbf0026
:1025e000b603070066cbbf000080fb0040079800e1
:1025f0004e009000e20f500062013200ce009000c9
:10260000e28f500007003c004e0190000200e00005
:102610000b003200ce019000e18f51002b013200ff
:102620007d0137004e009000e30f5000b0003200f3
:10263000ce009000e48f5000910032007601370008
:102640001e4078000081fb00030020002207980054
:1026500033079800a0052000010020002e01900003
:10266000be019000800f5100818f59006a013e0029
:102670002e009000be009000006001005a0037005c
:102680005e003700640137006301370062013700e4
:1026900061013700600137005f0137005e013700dc
:1026a0005d0137005c0137005b0137005a013700dc
:1026b00059013700580137005701370056013700dc
:1026c00055013700540137005301370052013700dc
:1026d00051013700500137004f0137004e013700dc
:1026e0004d0137004c0137004b0137004a013700dc
:1026f00049013700480137004701370046013700dc
:1027000045013700440137004301370042013700db
:1027100041013700400137003f0137003e013700db
:102720003d0137003c0137003b0137003a013700db
:1027300039013700380137003701370036013700db
:1027400035013700340137003301370032013700db
:1027500031013700300137002f0137002e013700db
:102760002d0137002c0137002b0137002a013700db
:1027700029013700280137002701370026013700db
:1027800025013700240137002301370022013700db
:1027900021013700200137001f0137001e013700db
:1027a0001d0137001c0137001b0137001a013700db
:1027b00019013700180137001701370016013700db
:1027c00015013700140137001300370017003700d8
:1027d000180037001c0037001d0037001e003700ae
:1027e000200037002400370010c8bf002aeab700d5
:1027f00050c2b30010e8b7000701370060bc2900e1
:10280000801f7800b0a22000c5f607008f87e9007e
:102810002aeab700000137000040eb0067ebb70081
:1028200010c0b30066ebb700fb00370072fe070074
:10283000f90037000040eb0067ebb70020c0b300a1
:1028400066ebb700f4003700c542a800f20037007d
:10285000c542a900f000370030c0b30066ebb700f6
:10286000ed0037000040eb0067ebb70040c0b3005d
:1028700066ebb700e80037000000fe00e600370016
:1028800072b6200092407800014078000080fb0082
:10289000a3922000030040001e4878008140e80019
:1028a0000149780070b6200031c0b30090cf10000d
:1028b000d9003a002bc9bf000080fb0050598800a6
:1028c00050598000c800dd002cc9bf000080fb000b
:1028d0000080700050598800515980002ac9bf00fb
:1028e00052fd07000040eb0066ebb700ca0037005e
:1028f0001e80fb00610060000000e0000400320068
:10290000e222a9000040eb0002fd070002003700b0
:102910000040eb0019fd07001e80fb006200600014
:102920000000e00004003200e222a90010c0b30061
:10293000f8fc07000200370010c0b3000ffd0700cd
:102940001e80fb00610060000000e00005003a000e
:102950001e80fb00620060000000e00001003a0001
:10296000e222a8001e80fb00640060000000e0007e
:1029700004003200e202a90020c0b300e5fc070019
:102980000200370020c0b300fcfc07001e80fb00e3
:10299000680060000000e00004003200e202a900cc
:1029a00030c0b300dbfc07000200370030c0b300ca
:1029b000f2fc07001e80fb00640060000000e000e5
:1029c00005003a001e80fb00680060000000e00087
:1029d00001003a00e202a8001e80fb0070006000c7
:1029e0000000e00004003200e822a90040c0b3006b
:1029f000c8fc07000200370040c0b300dffc07003e
:102a00001e80fb0001022000010060000000e000c9
:102a100004003200e822a90050c0b300bdfc07004a
:102a20000200370050c0b300d4fc07001e80fb003a
:102a3000700060000000e00006003a001e80fb000d
:102a400001022000010060000000e00001003a00e7
:102a5000e822a8001e80fb000104200001006000a5
:102a60000000e00004003200e802a90060c0b300ea
:102a7000a8fc07000200370060c0b300bffc0700dd
:102a80001e04e00004003d00e802a90070c0b3008d
:102a9000a0fc07000200370070c0b300b7fc0700bd
:102aa0001e80fb0001042000010060000000e00027
:102ab00003003a001e04e00001003500e802a8000f
:102ac0000040eb0066ebb7005300370072b6200001
:102ad00092407800014078000080fb00a392200023
:102ae000030040001e4878008140e800014978005a
:102af00070b6200051c0b30090cf100046003600e1
:102b00000000eb00100798001e009000e50f500039
:102b100019003e001e009000a2922000020040001a
:102b200063ceb30090cf110006003e001e0090005f
:102b3000a19220000100400082c1b300904f11001b
:102b400002003e00acfd07000b0037001e009000a5
:102b500013812000830040001e009000a2922000fc
:102b600002004000904878001e0090000000e8003d
:102b700010079800e4ff37000040eb0066ebb70059
:102b80002500370072b6200092407800014078009e
:102b90000080fb00a3922000030040001e48780044
:102ba0008140e8000149780070b6200011c0b300f0
:102bb00090cf100018003600b092200062ceb30013
:102bc000904f110008003e00b092200083c1b30076
:102bd00090cf110004003600a092200051c0b30035
:102be00090cf10000200360083fd07000a00370076
:102bf0002ac9bf000080fb001281200002014000b2
:102c0000520798002bc9bf00de0090008048780072
:102c10000040eb0066ebb7000080fa000000060001
:102c20003600f800809fbe00829fbe00849fbe00d9
:102c3000869fbe000000fa008880a900cae2a800b2
:102c40002efe0700cae2a9000080fa004f03be0072
:102c50004f02be004f01be004f00be003600f9001b
:102c6000004006001400fa000040eb00004f78001e
:102c7000fb0107000000eb00100798001e00900009
:102c8000e50f500009003e001e0090001281200058
:102c90008200400000c8b300804878001e00900009
:102ca0000000e80010079800f4ff37000040eb0038
:102cb00010e8b700ed01070060c1b300cb010700c9
:102cc000f0c0b300db01070003fd0700017d200019
:102cd000d0f82d000bfc0700cdc2a800cdc2bf006c
:102ce0000080fb004600de000080fb006100600009
:102cf000614060004601dd00112c20009140780009
:102d0000f0cbb30000c0600002407000c1e2b70029
:102d10000000eb00b016880000f02f00901688002d
:102d2000c542a900c142a900e222a800e202a8000f
:102d3000e822a800e802a800de22a900de02a9001d
:102d4000e422a900e402a9008880a9009080a800dc
:102d5000c6e2a900c6c2bf000080fb004700de003b
:102d60000080fb00614060000041d000112c200079
:102d700091407800d0cfb30000c0600002407000e6
:102d8000c1e2b700c1c2bf000080fb000000d1005b
:102d90000080fb0061006000614060004601dd00d2
:102da000612c200091407800f0cbb30000c060009f
:102db00002407000c6e2b700cae2a900cac2bf0062
:102dc0000080fb004700de000080fb0061406000e7
:102dd0004601dd00a12c200091407800f0cbb3002b
:102de00000c0600002407000cae2b700c522a8001f
:102df000cae2a8006000b8003007980041079800b8
:102e00003e019000ce01900070842e001100200041
:102e1000800f5100818f590007003e003e00900056
:102e2000ce00900061004000e0804800300798002c
:102e300041079800f2ff3700cae2a9006000b8001d
:102e400030079800410798003e019000ce019000a5
:102e500070842e0011002000800f5100818f5900d6
:102e600007003e003e009000ce0090006100400050
:102e7000e08048003007980041079800f2ff3700d3
:102e8000cae2a8006000b800300798004107980027
:102e90003e019000ce01900070842e0011002000b1
:102ea000800f5100818f590007003e003e009000c6
:102eb000ce00900061004000e0804800300798009c
:102ec00041079800f2ff3700cae2a9006000b8008d
:102ed00030079800410798003e019000ce01900015
:102ee00070842e0011002000800f5100818f590046
:102ef00007003e003e009000ce00900061004000c0
:102f0000e08048003007980041079800f2ff370042
:102f1000dec2a900dee2a900df02a9009080a900bc
:102f20000000eb00100798001e009000e50f500015
:102f300010003e00ee0047001e0090008080400020
:102f40001e0090001281200002004000904878008e
:102f5000ee0047001e009000008040001040780006
:102f6000560107001e0090000000e80010079800be
:102f7000edff37009080a8000040eb0010e8b7009c
:102f80000000eb00100798001e009000e50f5000b5
:102f9000e2ff3e001e0090006100600061406000a2
:102fa0004601dd00212e200091407800f0cbb300d7
:102fb00000c0600002407000e2e2b7001e00900016
:102fc000620060000000d100c700dd00e2c2bf0067
:102fd0000074a10001407000e2e2b7001e00900002
:102fe000640060004200de0061416000312e20007c
:102ff00091407800e0cfb30000c060000240700054
:10300000e3e2b70000000000000000000000000044
:1030100000000000000000000000000000000000b0
:1030200000000000000000000000000000000000a0
:103030000000000000000000000000000000000090
:103040000000000000000000000000000000000080
:103050000000000000000000000000000000000070
:103060000000000000000000000000000000000060
:103070000000000000000000000000000000000050
:103080000000000000000000000000000000000040
:103090000000000000000000000000000000000030
:1030a0000000000000000000000000000000000020
:1030b0000000000000000000000000000000000010
:1030c0000000000000000000000000000000000000
:1030d00000000000000000000000000000000000f0
:1030e00000000000000000000000000000000000e0
:1030f00000000000000000000000000000000000d0
:1031000000000000000000000000000000000000bf
:1031100000000000000000000000000000000000af
:10312000000000000000000000000000000000009f
:10313000000000000000000000000000000000008f
:103140000000000040002000205b880020c5b30084
:1031500028e8b7002005200020079800ee0047006f
:103160001e009000008040001040780029e8b70061
:103170008080fb002e009000010040002007980096
:1031800040c6b3002ae8b7002e0090004006b00009
:10319000200798004e4090002be8b7000f01070071
:1031a0000000eb00000888008460a900604be2008a
:1031b0000e00320000b62000e1cfb30090cf100027
:1031c0000a00320084c0bf000080fb004300de0024
:1031d0000080fb00610060000000e00003003a0096
:1031e00050c4b300b5000700f0ff370084c0bf0033
:1031f0000080fb004300de000080fb0061006000f7
:103200000000e000010032005901070000b6200074
:10321000e2cfb300904f110006003a00cac2a800e6
:10322000a0002000010020005007980061079800ce
:103230004f010700cac2bf000080fb004600de004d
:103240000080fb0061006000e10f50000d003a00bb
:103250005e009000ee00900061005000e080580099
:103260000001be0052079800630798000080eb0041
:103270008080eb00800f5100818f590001003a00df
:10328000cac2a90000000000000000000000000009
:10329000000000000000000000000000000000002e
:1032a000000000000000000000000000000000001e
:1032b000000000000000000000000000000000000e
:1032c00000000000000000000000000000000000fe
:1032d00000000000000000000000000000000000ee
:1032e00000000000000000000000000000000000de
:1032f00000000000000000000000000000000000ce
:1033000000000000000000000000000000000000bd
:1033100000000000000000000000000000000000ad
:10332000000000000000000000000000000000009d
:10333000000000000000000000000000000000008d
:10334000000000000000000000000000000000007d
:10335000000000000000000000000000000000006d
:10336000000000000000000000000000000000005d
:10337000000000000000000000000000000000004d
:10338000000000000000000000000000000000003d
:10339000000000000000000000000000000000002d
:1033a000000000000000000000000000000000001d
:1033b000000000000000000000000000000000000d
:1033c000000000000040eb0060ebb700e8000700e1
:1033d0001e4078001e4fe800380007001e009000d5
:1033e0000000e80010079800e7fe37000200fa002e
:1033f000004f7800de42a800de62a80007e2a900c4
:103400001e80fb0020108800002021003010880062
:103410000040eb0000e2b7000040eb0002e2b70022
:1034200000202900301088008dc0a8000080fa001c
:10343000000006000200fa00004f78000de2a9002b
:103440001e80fb00a01088000000eb0060108800c8
:103450000de2a8000f42a8000080fa00000006005c
:103460000000fa000080fa00000006000000fa00e8
:10347000a1e2a9000080eb00401588000080fa005e
:10348000000006000000fa00000000000ec2bf00ad
:103490000080fb00610060000000e000fbff3200e4
:1034a0000080fa00000006000000fa009010800082
:1034b0000080fb000080fa00000006000200fa0015
:1034c000004f78000fc2bf000080fb000000d10059
:1034d0000080fb00610060000000e000f9ff3a009e
:1034e0001e80fb00801088000080fa0000000600ab
:1034f0000600fa0006a2a9000682a8006000b80033
:10350000008fbe0006c2bf000080fb004400de004a
:103510000080fb00610060000000e0000c00320051
:1035200010002000010020001e0f40005e974800a0
:10353000106a280011002000be0f1000ae8f180086
:10354000f0ff3a00f10f2000210798000200370039
:103550000000eb00200798002e0090000080fa0089
:10356000000006000600fa000662a8000000000045
:103570006000b800008fbe0008c2bf000080fb00e2
:103580000000d1000080fb00610060000000e0004e
:103590000c003a0010002000010020001e0f400027
:1035a0005e974800106a280011002000be0f10002e
:1035b000ae8f1800f0ff3a00f10f200021079800ad
:1035c0000300370000c2bf000080fb002007980006
:1035d0002e0090000080fa00000006000000fa00b3
:1035e0000602a80010c0b30060ebb7000080fa002c
:1035f000000006000600fa006000b800008fbe0060
:103600000622a80006c2bf000080fb000000d10017
:103610000080fb00610060000000e0000c00320050
:1036200010002000010020001e0f40005e9748009f
:10363000106a280011002000be0f1000ae8f180085
:10364000f0ff3a00f10f2000210798000200370038
:103650000000eb00200798002e0090000080fa0088
:10366000000006000000fa000642a8000000eb007f
:103670000080fa00000006000200fa00004f780007
:103680001e40780002e2b7000000eb000080fa0064
:10369000000006000200fa000000eb00000f7800b6
:1036a00006c2bf000080fb00610060000000e00077
:1036b0001e003a0006c2bf000080fb004200de0090
:1036c0000080fb00610060000000e00017003a008d
:1036d00006c2bf000080fb004300de000080fb004c
:1036e000610060000000e00010003a0006c2bf0068
:1036f0000080fb004400de000080fb0061006000f1
:103700000000e00009003a0009c2bf000080fb0091
:103710004600de000080fb00610060000000e00069
:1037200002003a0010002000000f78001e00780010
:103730000080fa00000006000200fa000000eb0022
:10374000000f780009c2bf000080fb004700de00c8
:103750000080fb000000e00002003a0010002000a2
:10376000000f78001e0078000080fa0000000600bc
:103770000000fa0007e2a9000000eb0040108800fa
:0c37800007e2a8000080fa00000006002c
:020000040000fa
:0200000401f009
:04000000e4fb00001d
:020000040000fa
:0200000401f009
:04000400ff7f00007a
:020000040000fa
:0200000401f009
:04000800ffff0000f6
:020000040000fa
:10000800241c0000241c0000241c0000241c0000e8
:10001800241c0000241c0000241c0000241c0000d8
:10002800241c0000241c00003c0f0000241c0000bd
:10003800241c0000620f0000241c0000241c000087
:10004800241c0000241c0000241c0000241c0000a8
:10005800241c0000241c000026110000241c0000a1
:10006800241c0000241c0000241c0000880f000031
:10007800ae0f0000241c0000241c0000241c0000fb
:10008800241c0000241c0000241c0000241c000068
:10009800241c0000241c0000241c0000241c000058
:1000a800d40f0000fa0f00002010000046100000d6
:1000b80010160000241c0000241c0000241c000052
:1000c800241c0000241c0000241c0000241c000028
:1000d800241c0000241c0000241c0000241c000018
:1000e800241c0000241c0000241c0000241c000008
:0800f800241c0000241c000080
:020000040000fa
:10010800241c0000241c0000241c0000241c0000e7
:10011800241c0000241c0000241c0000241c0000d7
:10012800241c0000241c00003c0f0000241c0000bc
:10013800241c0000620f0000241c0000241c000086
:10014800241c0000241c0000241c0000241c0000a7
:10015800241c0000241c000026110000241c0000a0
:10016800241c0000241c0000241c0000880f000030
:10017800ae0f0000241c0000241c0000241c0000fa
:10018800241c0000241c0000241c0000241c000067
:10019800241c0000241c0000241c0000241c000057
:1001a800d40f0000fa0f00002010000046100000d5
:1001b80010160000241c0000241c0000241c000051
:1001c800241c0000241c0000241c0000241c000027
:1001d800241c0000241c0000241c0000241c000017
:1001e800241c0000241c0000241c0000241c000007
:0801f800241c0000241c00007f
:020000040000fa
:10378c004d540000522000005352000056200000ff
:08379c00545300004e00000030
:020000040000fa
:1037a400600b00000c00000002000000000000009c
:1037b40000000000000000000000000000080000fd
:1037c4002c030000000000004e0b0000120000005b
:1037d40002000000202b2d00233000000100020015
:1037e4000004000008001000000000006c0b000042
:1037f4000800000002000000686a6c00747a4c0043
:10380400000000002c0b0000220000000200000059
:1038140030313200333435003637380039616200d4
:10382400636465006600300031323300343536009d
:103834003738390041424300444546000000000047
:043844000000000080
:020000040000fa
:043848000000fe007e
:00000001FF
