:020000040000fa
:080000000401040000000000ef
:020000040000fa
:100200008401040000000000efb420008079220087
:100210000001880000000000050007000c00070036
:100220007c0f0200000000000040da000000fe0029
:100230004440a900800120000000e00003003200db
:1002400000002000a00188004440a8000000060033
:1002500060432100010020001600370062004000ca
:10026000e0804800910188009001ba0062004000df
:10027000e0804800910188009002ba0062004000ce
:10028000e08048000002eb006028e10005003a0031
:100290008301e90007003300038009000059eb00e7
:1002a000040037006128e100010032000082eb0009
:1002b00005000700910188001001ba000200e0006b
:1002c000e6ff3a00000005009101880080027800f6
:1002d00062004000e08048003559ba008301e9001f
:1002e000080032002559ba008301e90005003200f8
:1002f0000400e000f4ff320015d9ba008301e900e0
:10030000f1ff3a0000000600881f78000204780020
:1003100014000700080040004f04780000000600a9
:100320000000fa00881f7800000478003fb99700a9
:10033000ea81570080007800401820001000070074
:10034000800078000000e000020035000040eb0073
:1003500000f47800010078004f0478000080fa0073
:1003600000000600800178000200e0000300320077
:10037000b15978000201e900fdff3a0000000600d3
:100380006200fa00889fbe008a9fbe000004be0083
:1003900002057800830078006a805700ad000700ee
:1003a000f88f9f0089979f000000eb00909f9f00af
:1003b0001a80fb008005fb000000ea00cf04de008d
:1003c0000904780050022000808f550001003a0097
:1003d0000904e9000800e0000c0034000f909700c9
:1003e000080178008a007800ff8997000300010067
:1003f00080979f008080eb000000e00090003200ba
:100400001f98970008004000909f9f000905450035
:1004100050022000808f5500040032000b00e000e5
:10042000e3ff3a009f989700850037000000eb003b
:10043000f0979f00e0979f00d0979f00c0979f0084
:10044000b0979f00a0979f00b09f9f0009003700c2
:1004500080b22000008050000000d000e1b22000f7
:1004600001004000bf98970090807000b19f9f00ee
:100470000a05e8009a00fb0080b220007700070020
:10048000800078000000e000f1ff3a00a0c2b30055
:100490009a4f10000e003a003fb897000080e90024
:1004a000b0bf9f0010007800a09f9f000000e000f8
:1004b00005003d000000ea00a09f9f003f989700c4
:1004c0000020a000b09f9f000a05e800110037003f
:1004d000a19f9f000b003700af989700f0ff270007
:1004e000808f5000060032006a09b9001a00fb0034
:1004f0000200400001fd2f0001004000a09f9f006e
:100500000a05e8001a00fb005c0007000000e0009c
:10051000f1ff3a00e0c2b3009a4f1000030032002e
:100520000080eb00809f9f001c003700a0c2b3003a
:10053000da4f100007003a003fb897000080e9004a
:10054000b0bf9f0010007800809f9f000a05e80060
:10055000120037000000eb00809f9f000b00370067
:100560008f989700f0ff2700808f50000600320020
:100570006a09b9001a00fb000200400001fd2f00cb
:1005800001004000809f9f000a05e8001a00fb0060
:100590003a0007000000e000f1ff3a009a00fb007b
:1005a00060b420002d0007008040eb000000e00058
:1005b00001003200ba407800817f9f0080c6b300fe
:1005c00080cf500004003a009acf100002003a0099
:1005d00066405000070037008f789700c0c6b30010
:1005e00080cf500005003a009acf100003003a0077
:1005f00065404000807f9f000a05e800a0fb2f00b7
:10060000008447003a01fb0088017800ea80570027
:1006100060f92f000f0040001e0007000000e000fe
:1006200006003a008800780060f92f000f004000b3
:100630009e0107000000e0005dff3d008080eb00b0
:10064000010078004f05be004f04be000080fa0094
:1006500000000600010878000000060090cf10009e
:10066000050032001004e00001003a00000005001f
:10067000d0cf1000fbff3a00000006000003b100dd
:10068000030035009000b10001003c00100005009f
:1006900000000500889fbe008a1f780000047800d3
:1006a0000102780002457800830478000200fb0014
:1006b000cf80de005002b1000180b1003205200081
:1006c000820f5000e08f58006b013e000060010077
:1006d00063013700680137006701370066013700a2
:1006e000650137006401370063013700620137009c
:1006f00061013700600137005f0137005e0137009c
:100700005d0137005c0137005b0137005a0137009b
:10071000590137005801370057013700560137009b
:10072000550137005401370053013700520137009b
:1007300051013700500137004f0137004e0137009b
:100740004d0137004c0137004b0137004a0137009b
:10075000490137004801370047013700460137009b
:10076000450137004401370043013700420137009b
:1007700041013700400137003f0137003e0137009b
:100780003d0137003c013700210137003a013700b5
:100790003901370038013700370137008100370051
:1007a000350137003401370033013700320137009b
:1007b00031013700300137002f0137002e0137009b
:1007c0002d0137002c013700150037001c003700c1
:1007d000290137002801370027013700260137009b
:1007e00017003700240137002301370022013700aa
:1007f00021013700c20037006a003700f5003700da
:100800001d0137001c013700010137001a013700b4
:100810006400370018013700170137006100370006
:100820006e01440012007800808141009480e9004c
:10083000010a78000009e8009149780017013700a3
:1008400028619000c0c6b300804f51000a003a00f2
:100850009400780064805000000a78001000be0008
:100860004f89de00cf91de000002be000203780057
:10087000820378001600370010c7b300804f510084
:1008800003003a00140178006800510005003700a9
:1008900094007800a0c6b300804f510005003a00d4
:1008a00068805000000a78003002be002003be00bd
:1008b000070037000180e900000a78001000780086
:1008c00000027800cfa2de000503780086037800de
:1008d000049cbe000694be00a860900080c6b300d1
:1008e00080cf50000f00320020c6b30080cf5000f0
:1008f00006003a00184078000000fb00cf80de00c0
:1009000001017800820178000a00370040c7b30077
:1009100080cf5000030032006640400080cf50007e
:1009200006003a0018007800cf80de000101780050
:1009300082017800009cbe000294be003800be0018
:100940002801be00e00f5000e08f5800e00f590072
:10095000e08f590004003d006e01440092007800d1
:10096000d0c2b3000c003700081090000018a3009c
:10097000040032006e01440092007800b0c2b3005f
:10098000050037000008a300580032006e01440043
:100990009200780000c2b30080f478000109e800fa
:1009a0005200370028619000c0c6b300804f51004c
:1009b00006003a009400780064805000000a780035
:1009c0001002be006033b8001600370010c7b30035
:1009d000804f510003003a00140178006800510074
:1009e0000500370094007800a0c6b300804f510086
:1009f00005003a0068805000000a78003002be000e
:100a00002003be00070037000180e900000a7800db
:100a10001000780000027800050020000600200089
:100a200007002000049cbe000694be00a860900051
:100a300080c6b30080cf50000f00320020c6b30044
:100a400080cf500006003a00184078000080fb007c
:100a50000100200002002000030020000a003700ef
:100a600040c7b30080cf5000030032006640400012
:100a700080cf500006003a001800780001002000e6
:100a80000200200003002000009cbe000294be0073
:100a9000081090000038a300140032003800be0097
:100aa0002801be00e00f5000e08f5800e00f590011
:100ab000e08f59000d00320080c7b300804f550011
:100ac0000300320080c5b300804f550007003a0094
:100ad0006e0044009000780002c3b30082f47800f6
:100ae0008100e8008af478000108e80078009000ae
:100af00000804400600498008a407800410037007c
:100b0000286090008000fb00c0062000808f50000d
:100b1000230032000a003c0064005000808f500027
:100b20002600320004003c0066005000808f500018
:100b30000b00320021003700a0062000050037001e
:100b400040072000808f50001c0032001b003c003a
:100b500063005000808f50000700320017003700fc
:100b60001480e900000a780010007800485c9000ca
:100b700008487800490037001480e900000a78002e
:100b80001002780068089000cf80de000101780034
:100b900082017800009abe000292be003f0037003a
:100ba0001480e900000a78001001780068089000bd
:100bb000cf80de000089be00380037001480e900d5
:100bc000000a780010007800680c9000080878008f
:100bd000320037001480e900000a78001000780025
:100be000cf80de000101780082017800009cbe0009
:100bf0000294be00780090000080440060049800d9
:100c000081c7b30008007800f60007002300370012
:100c10001480e900000a7800100078006004980051
:100c2000580990000200e00002003d009f0107000b
:100c3000090037008000eb00a30107008000780066
:100c40000000e000030032006800900000805000c7
:100c50000100370058089000100c98000f00370072
:100c60006e0144009200780050c2b30080f1780019
:100c70000109e80009003700ee0044001100780087
:100c8000808144000a4278008008e8000a04e000fd
:100c900001003a0054c2b300844978000000eb0020
:100ca0004f0578004f04be00000006000400fa0063
:100cb000889fbe008a9fbe008c1f780000047800c9
:100cc0000106780070089000f800900001005000c4
:100cd0008808900001005000980890000100500022
:100ce000a808900001005000b808900001005000d2
:100cf000c8089000810550000002220090bf9f00ac
:100d000000032300a0bf9f00081090000028a3004c
:100d100018003a000b00e000160034000b057800c4
:100d20008a047800e20f55000100360029002000f7
:100d30000900e0000c00340058009000c801900049
:100d400009017800ee80570003000100500498006c
:100d50008080eb000000e0009c00320068089000fa
:100d600009004000600c9800090555004240a900a8
:100d7000ebff3c00780190000200e0000c00340022
:100d800058009000c80190008c007800030001001a
:100d9000500498008080eb000000e0008b003200df
:100da00068089000f800900001004000600c980076
:100db000080890000000e0001600340000057800ec
:100dc0008a047800e20f5500010036002900200057
:100dd0000900e0000c00340058009000c8019000a9
:100de00009017800ec8057000300010050049800ce
:100df0008080eb000000e000740032006808900082
:100e000009004000600c9800090555004240a90007
:100e1000ebff3c00180990000200e0000c003400d9
:100e2000e800900058009000c80190000300010005
:100e3000500498008080eb000000e0006300320066
:100e4000680890009808900001004000600c98002d
:100e5000280890000000e00016003400000578002b
:100e60008a047800e20f55000100360029002000b6
:100e70000900e0000c00340058009000c801900008
:100e800009017800ec80570003000100500498002d
:100e90008080eb000000e0004c0032006808900009
:100ea00009004000600c9800090555004240a90067
:100eb000ebff3c00380990000200e0000e00340017
:100ec000e8009000180890008080400058009000d2
:100ed000c801900003000100500498008080eb00de
:100ee0000000e0003900320068089000b808900067
:100ef00001004000600c9800480890000000e000ed
:100f000016003400000578008a047800e20f5500ce
:100f100001003600290020000900e0000c00340028
:100f200058009000c801900009017800ec8057003b
:100f300003000100500498008080eb000000e000f6
:100f4000220032006808900009004000600c980000
:100f5000090555004240a900ebff3c000810900035
:100f60000028a300180032000b00e0001600340037
:100f70000b0578008a047800e20f55000100360066
:100f8000290020000900e0000c0034005800900007
:100f9000c801900009017800ee80570003000100ad
:100fa000500498008080eb000000e0000700320051
:100fb0006808900009004000600c98000905550081
:100fc0004240a900ebff3c008000eb0001007800ec
:100fd0004f0678004f05be004f04be000080fa00a7
:100fe000000006006f02b000889fbe008a9fbe000e
:100ff0008c9fbe008e1f78008006780070b12000a4
:10100000b0b79f0080c5b30080cf5000020032000f
:1010100062b02000b2b79f0083002000c3b79f00da
:10102000f0c6b30080cf50000a0032006940400093
:1010300080cf500005003200a4002000c4b79f00fc
:1010400080c5b30080cf500002003a0000012000ac
:10105000c0b79f008e0120003d04be002d05be00dc
:1010600040c6b30080cf500003003200654040000e
:1010700080cf50000a003a00e00f5400e08f5c007f
:10108000e00f5d00e08f5d0005003d000800be0040
:101090000a01be00950007000205be000004be0064
:1010a000e00f5400e08f5c00e00f5d00e08f5d001a
:1010b00003003a005d0890000000e0000c003200e0
:1010c0007e012000cfb0970001027800cfa2de00a1
:1010d00005037800860378000800be000a01be0000
:1010e000180107003fb2970064407800d0e79f00e6
:1010f0004fb09700cf80de000101780082017800b8
:10110000d0b79f00e1b79f00f2b79f0083bf9f0059
:101110000203be000002be000800be000a01be00bd
:1011200001010700809ebe008296be00e00f5000c5
:10113000e08f5800e00f5900e08f59002200340082
:101140000e00e000200034003d00be002d01be0076
:101150005fb29700efb297007fb397008fbb970005
:10116000fc0007000205be000004be000e07e900f7
:10117000e1fc2f008f804000010647005fb297001e
:10118000efb297007fb397008fbb97000800be00b7
:101190000a01be008c0107001d0010003fb197003e
:1011a000624e7800889ebe008a96be00e00f540012
:1011b000e08f5c00e00f5d00e08f5d000200340016
:1011c0000e00e000e0ff3c00cfb19700e88f510037
:1011d00010003a000d1090000038a3000d003200fe
:1011e000f70f570006003e00e4fc2f000e024200fd
:1011f000e4c07f0000c3b30080cf50000500320080
:101200000e07e90000c3b300e1fc2f008e80400010
:1012100080f07f0078011700920e98006d0090001a
:10122000e3fc2f008f8141008e8041004dfc0700c0
:101230001d0e90005d089000800f560006003d00d6
:101240000c005000800e98000d1090000040a1008e
:10125000801698000f0037000000e0000d003d00f0
:101260000d10900074006000f00f500009003a006b
:101270007d089000fd009000010050008d08900056
:10128000010050000c0750004240a900010034004a
:101290008e0e98004f0778004f06be004f05be0027
:1012a0004f04be006f02b10000000600800078000d
:1012b0001004e000020032005104e000feff3a009a
:1012c00000805000000006000200e000050032002f
:1012d00090cf1000040032000000e8000201e90095
:1012e000fbff3a000000eb00000006006000100069
:1012f000e080180060011900e0811900000006007c
:10130000881f7800000478005001be004000be0035
:101310000000420081804a0002014b0083814b00a3
:10132000009cbe000294be00dc00070003003100f8
:10133000480090000000e800400498004f04780046
:1013400000000600889fbe00000478008004eb00c7
:101350005001be004000be00d00007000100310077
:101360001900200004005000858058000601590033
:1013700087815900009cbe000294be004800900086
:1013800009005000400498004f04be000000060011
:101390001200fa00889fbe008a9fbe008c1f780052
:1013a0000205be000004be00f4b79f0085bf9f0089
:1013b00096bf9f00a7bf9f000000eb00e0b79f0013
:1013c000d0b79f00c0b79f00b0b79f00a0b79f00e5
:1013d0000006eb005fb197006fb097008000d0006f
:1013e0000000e00015003d00e1b79f00010078001b
:1013f0000200e00001003d000000a000ac0007007a
:1014000001003d000000a000af00070001003d000a
:101410000000a000b200070001003d000000a00095
:101420008100070001003d000000a000b20007009d
:101430007c805700b2ff070014003700e1b79f001f
:10144000010078000200e00001003d000000a00063
:101450009700070001003d000000a0009a0007006f
:1014600001003d000000a0009d00070001003d00bc
:101470000000a0006c00070001003d000000a0007b
:101480009d0007007c805700aeff07006fb09700fb
:101490000000e000070035001000200001002000df
:1014a0006011b80008047000898470000a0571009a
:1014b0008b8571000c06e800f0032000800f5600b9
:1014c000c4ff34006fb097000000e00006003d004c
:1014d0007fb297008fba97001fbb9700afbb9700f2
:1014e0007c80570086ff07000802be000a03be008a
:1014f0006fa897000000e00004003a002fb29700a8
:10150000bfb297004fb39700dfb397000400be004f
:101510000601be004f0678004f05be004f04be0016
:101520000080fa0000000600881f780018002000e4
:10153000881f780096ff07008f87e9004f04780026
:1015400000000600801feb0091ff07008f87e90075
:10155000000006000800fa00889fbe008a9fbe00b7
:101560008c1f78006e00070005003d004300070057
:10157000300007000c003d00330007000b0037006f
:10158000e00f5200e08f5a00e00f5b00e08f5b003d
:1015900006003d000400be000601be0053ff070028
:1015a0000205be000004be001c0020002c00070045
:1015b000ddff07000c00e000010032004bff0700d8
:1015c0004f0678004f05be004f04be000080fa00b1
:1015d000000006000800fa00889fbe008a9fbe0037
:1015e0008c1f78004e00070002003d001c00200008
:1015f000220007000f00070001003d001200070055
:1016000017000700cfff07000c00e00001003200c8
:1016100036ff07004f0678004f05be004f04be009e
:101620000080fa000000060090b79f000100d00083
:1016300080b79f00e00f5400e08f5c00e00f5d007a
:10164000e08f5d00000006000800be000a01be0039
:1016500026ff07000205be000004be0000000600d1
:101660000802be000a03be005fb09700efb097000b
:101670007fb197008fb99700000006001bff07009d
:101680000100070000000600b0b79f00c1b79f002f
:10169000d2b79f00e3b79f00000006000400e100fe
:1016a0000588e1000690e1000798e10000000600cf
:1016b000c0b79f000200d000b0b79f00afb0970046
:1016c0000100e00000000600b0b79f000100d0005c
:1016d000a0b79f009fb097000100e0000000060047
:1016e000a0b79f000100d00090b79f008fb0970077
:1016f0000100e0000000060080b79f000804d00051
:101700008984d2000a85d2008b85d2005fb297000f
:10171000efb297007fb397008fbb970000000600e1
:10172000d9ff07000605be000404be000006eb005a
:10173000e00f5000e08f5800e00f5900e08f590093
:1017400000000600889fbe008a9fbe008c9fbe00de
:101750000404b8000506b8008904460060854e0000
:101760000606b8000a054600e0854e000706b800e8
:101770008b054600040eb800890446000a854e0019
:10178000050eb8000a0546008b854e00060eb8000f
:101790008b0546000416b8000a0546008b854e00ee
:1017a0000516b8008b054600041eb8008b054600e0
:1017b0000800be000a01be004f06be004f05be0075
:1017c0004f04be00000006000800fa00889fbe001b
:1017d0008a9fbe00170007000605be000404be0075
:1017e000e00f5200e08f5a00e00f5b00e08f5b00db
:1017f00008003d000400be000601be00bbfe07005d
:101800000205be000004be000f000700b7fe07007f
:10181000080007000802be000a03be000a00070015
:10182000c8ff07004f05be004f04be000080fa004d
:1018300000000600e0b79f00f1b79f0082bf9f0045
:1018400093bf9f00000006006fb09700ffb09700a5
:101850000fb997009fb99700000006000000fa003a
:1018600000c8b30000e8b70000c8b30001e8b70043
:1018700000c8b30002e8b70000c8b30003e8b7002f
:1018800000c8b30004e8b70000c8b30005e8b7001b
:101890000080fa00000006000000fa003acbbf000a
:1018a00006e8b700e0cfb3003aebb7009c030700af
:1018b0000080fa00000006003600f800809fbe009d
:1018c000829fbe00849fbe00869fbe000600fa0075
:1018d00085c0a9003acbbf000080fb00100798002c
:1018e0001e009000e30f5000470032009e00900061
:1018f000e38f50000a003c009e019000e18f5100f0
:10190000130032001e009000e10f500021003c0047
:101910009e0090000100e0000b00320071003700d3
:101920009e019000e58f5100610032001e00900082
:10193000e40f50003d0034009e009000e68f500000
:101940006600320067003700d3ff070065003700ec
:1019500006c8bf000080fb00610060000000e000de
:1019600005003a0010002000e059880020c0b300b4
:101970003aebb700040037000000eb00e0598800a4
:1019800030c0b3003aebb70006c8bf0069030700d8
:1019900054003700a10307000000e00002003a00f5
:1019a000bdff07004f003700e05980003e0be30009
:1019b00004003e005a03070060c0b3003aebb700d2
:1019c000480037006c0307000000e00002003a0006
:1019d000b1ff070043003700c2b3200012007800b7
:1019e0008000780063802000838040000000e800d1
:1019f00000097800114078004e03070020c0b300b2
:101a00003aebb70037003700840307000000e0001e
:101a100002003a00a0ff07003200370040c0b300c8
:101a20003aebb7000662a8002e003700c2b32000d0
:101a30001200780020079800ae009000638020001c
:101a40008380400000c2bf0080487800ae00900054
:101a50008100e80021079800ae019000030978009a
:101a60000000eb00000f7800e05980003e0be3001f
:101a70000200360011002000010f78009e4178001e
:101a800061c061004501dd006120200091407800c7
:101a9000f0cdb30000c060000240700006e2b70065
:101aa0000682a80050c0b3003aebb7000d00370023
:101ab000e05980003e0be30004003e0018030700dd
:101ac00060c0b3003aebb700060037000662a8001a
:101ad00040c0b3003aebb700020037000040eb0013
:101ae0003aebb7000080fa004f03be004f02be0081
:101af0004f01be004f00be003600f9000040060056
:101b00000000fa009016800001f02f000100700024
:101b100090168800cda2a8000080fa000000060000
:101b20000200fa00004f780091168000f00f2000ac
:101b30000080600090168800b1168000f00f200031
:101b400000806000b01688001e80fb00c800dd0029
:101b5000b016800001007000b01688000080fa0006
:101b6000000006000000fa00a01680004800de0019
:101b70000080fb000080fa00000006000200fa006e
:101b8000c3c2bf000080fb004600de000080fb00f7
:101b9000610060000000e0002a003200cfc2bf00f8
:101ba0000080fb004600de000080fb00610060005a
:101bb000e10f50000f003a00eaff0700004f7800e5
:101bc000d1a2a800cda2a900c3c2bf000080fb0023
:101bd0004600de000080fb00610060000000e000c5
:101be000f9ff3a00cda2a8001e80fb0017000700f5
:101bf0001400370042b42000120078008000780002
:101c000063a0200083804000114f78000000e800ae
:101c1000000978001e407800c1ff0700d1a2a8008b
:101c2000cda2a900c3c2bf000080fb004600de00b9
:101c30000080fb00610060000000e000f9ff3a0056
:101c4000afff07000080fa00000006000a00fa005b
:101c5000004f78000000eb00205a880040cbbf0006
:101c60000080fb00300798003e009000e10f50001c
:101c70003b003200be009000e18f500004003c00a9
:101c80003e0190000200e0000500320087003700ae
:101c9000be019000e28f51005f00320083003700e8
:101ca0001e80fb002007980030052000ae00900049
:101cb000808f50001e003200300520002e01900061
:101cc000800f510007003c00ae0190000300e000cf
:101cd0000d0032002e009000e10f50000d00320088
:101ce0007200370040052000ae009000808f500049
:101cf00014003200500520002e019000800f51008a
:101d000012003200690037000040eb0006eab7001d
:101d100066003700a0422900801f780070a02000d4
:101d20007ff907008f87e90006eab7005f003700f8
:101d30000040eb0041ebb70010c0b30040ebb70030
:101d40005a003700c5fe0700580037000040eb007e
:101d500041ebb70020c0b30040ebb70053003700a1
:101d600012b4200092407800014078000080fb000f
:101d700063902000030040001e4878008140e80086
:101d80000149780010b4200051c0b30090cf10007a
:101d9000460036000000eb00100798001e0090007f
:101da000e50f500019003e001e00900062902000d8
:101db0000200400063ceb30090cf110006003e0049
:101dc0001e009000619020000100400082c1b3001d
:101dd000904f110002003e00a0fe07000b003700ec
:101de0001e00900003802000830040001e00900031
:101df0006290200002004000904878001e00900091
:101e00000000e80010079800e4ff37000040eb00f6
:101e100040ebb7002500370012b420009240780054
:101e2000014078000080fb00639020000300400028
:101e30001e4878008140e8000149780010b4200075
:101e400011c0b30090cf1000180036007090200031
:101e500062ceb300904f110008003e007090200049
:101e600083c1b30090cf11000400360060902000c1
:101e700051c0b30090cf10000200360077fe07007b
:101e80000a00370006c9bf000080fb000280200066
:101e9000020140004207980007c9bf00ce00900031
:101ea000804878000040eb0040ebb7000080fa006b
:101eb000000006003600f800809fbe00829fbe0032
:101ec000849fbe00869fbe000000fa008880a900a3
:101ed000cae2a80029ff0700cae2a9000080fa00b0
:101ee0004f03be004f02be004f01be004f00be00b8
:101ef0003600f900004006001400fa0087010700d0
:101f00000000eb00000f7800500020009e0f100032
:101f100006003e00028020009e00410000c8b30081
:101f2000804878001e0fe800f7ff37007e010700a9
:101f300060c1b3005c010700f0c0b3006c01070092
:101f4000cdc2a800cdc2bf000080fb004600de006d
:101f50000080fb0061006000614060004601dd0020
:101f6000112c200091407800f0cbb30000c060003d
:101f700002407000c1e2b7000000eb00b01688001c
:101f800000f02f00901688008880a9009080a8009b
:101f9000c6e2a900c6c2bf000080fb004700de0009
:101fa0000080fb00614060000041d000112c200047
:101fb00091407800d0cfb30000c0600002407000b4
:101fc000c1e2b700c1c2bf000080fb000000d10029
:101fd0000080fb0061006000614060004601dd00a0
:101fe000612c200091407800f0cbb30000c060006d
:101ff00002407000c6e2b700cae2a900cac2bf0030
:102000000080fb004700de000080fb0061406000b4
:102010004601dd00a12c200091407800f0cbb300f8
:1020200000c0600002407000cae2b700c522a800ec
:10203000cae2a8006000b800300798004107980085
:102040003e019000ce01900070842e00110020000f
:10205000800f5100818f590007003e003e00900024
:10206000ce00900061004000e080480030079800fa
:1020700041079800f2ff3700cae2a9006000b800eb
:1020800030079800410798003e019000ce01900073
:1020900070842e0011002000800f5100818f5900a4
:1020a00007003e003e009000ce009000610040001e
:1020b000e08048003007980041079800f2ff3700a1
:1020c000cae2a8006000b8003007980041079800f5
:1020d0003e019000ce01900070842e00110020007f
:1020e000800f5100818f590007003e003e00900094
:1020f000ce00900061004000e0804800300798006a
:1021000041079800f2ff3700cae2a9006000b8005a
:1021100030079800410798003e019000ce019000e2
:1021200070842e0011002000800f5100818f590013
:1021300007003e003e009000ce009000610040008d
:10214000e08048003007980041079800f2ff370010
:10215000dec2a900dee2a900df02a9009080a9008a
:102160000000eb00000f7800500020009e0f1000d0
:1021700009003e006e0047009e00400002802000e3
:102180001e0041001040780080487800fa000700e7
:102190001e0fe800f4ff37009080a8000000eb005d
:1021a000000f7800500020009e0f1000ebff3e0053
:1021b0009e00780061806000614060004601dd00a3
:1021c000212e200091407800f0cbb30000c06000c9
:1021d00002407000e2e2b7001e0178006200610078
:1021e0000000d100c700dd00e2c2bf000074a10002
:1021f00001407000e2e2b7009e0078006480600059
:102200004200de0061416000312e200091407800e4
:10221000e0cfb30000c0600002407000e3e2b7000e
:1022200000000000000000000000000000000000ae
:10223000000000000000000000000000000000009e
:10224000000000000000000000000000000000008e
:10225000000000000000000000000000000000007e
:10226000000000000000000000000000000000006e
:10227000000000000000000000000000000000005e
:10228000000000000000000000000000000000004e
:10229000000000000000000000000000000000003e
:1022a000000000000000000000000000000000002e
:1022b000000000000000000000000000000000001e
:1022c000000000000000000000000000000000000e
:1022d00000000000000000000000000000000000fe
:1022e00000000000000000000000000000000000ee
:1022f00000000000000000000000000000000000de
:1023000000000000000000000000000000000000cd
:1023100000000000000000000000000000000000bd
:1023200000000000000000000000000000000000ad
:10233000000000000000000000000000000000009d
:10234000000000000000000000000000000000008d
:10235000000000000000000000000000000000007d
:1023600040002000f059880020c5b30006e8b700ff
:1023700020052000200798006e0047001e00400046
:102380001040780007e8b7008080fb002e00900026
:10239000010040002007980040c6b30008e8b700dd
:1023a0002e0090004006b000200798004e4090009c
:1023b00009e8b700b80007006000b80030079800cf
:1023c000410798003a4be2000f003200a0b3200012
:1023d000e1cfb30090cf10000b003200660247003f
:1023e0001400be000001be0061004000e080480013
:1023f000008abe0070842e0011002000800f510062
:10240000818f5900efff3600a0b32000e2cfb30068
:10241000904f1100070032003e019000ce01900065
:1024200070842e0011002000800f5100818f590010
:1024300007003600cac2a80080842e0011002000c8
:1024400050079800610798000040eb003aebb70096
:10245000cac2bf000080fb004600de000080fb0017
:1024600061006000e10f50000d003a005e00900036
:10247000ee00900061005000e08058000001be00b6
:1024800052079800630798000080eb008080eb0003
:10249000800f5100818f590001003a00cac2a90083
:1024a0001e0fe8003fff37000200fa00004f7800df
:1024b000de42a800de62a80007e2a9001e80fb0041
:1024c0002010880000202100301088000040eb0020
:1024d00000e2b7000040eb0002e2b7000020290054
:1024e000301088008dc0a8000080fa0000000600af
:1024f0000200fa00004f78000de2a9001e80fb00e8
:10250000a010880000c02000601088000de2a80024
:102510000f42a8000080fa00000006000000fa0048
:102520000080fa00000006000000fa00a1e2a90005
:102530000080eb00401588000080fa0000000600d3
:102540000000fa00000000000ec2bf000080fb0087
:10255000610060000000e000fbff32000080fa0034
:10256000000006000000fa00901080000080fb00d0
:102570000080fa00000006000200fa00004f780018
:102580000fc2bf000080fb000000d1000080fb00f4
:10259000610060000000e000f9ff3a001e80fb00cf
:1025a000801088000080fa00000006000600fa0093
:1025b00006a2a9000682a8006000b800008fbe0035
:1025c00006c2bf000080fb004400de000080fb006c
:1025d000610060000000e0000c00320010002000ec
:1025e000010020001e0f40005e974800106a28007e
:1025f00011002000be0f1000ae8f1800f0ff3a004f
:10260000f10f200021079800020037000000eb00c6
:10261000200798002e0090000080fa0000000600bd
:102620000600fa000662a800000000006000b80082
:10263000008fbe0008c2bf000080fb000000d10078
:102640000080fb00610060000000e0000c003a0028
:1026500010002000010020001e0f40005e9748007f
:10266000106a280011002000be0f1000ae8f180065
:10267000f0ff3a00f10f2000210798000300370017
:1026800000c2bf000080fb00200798002e009000d1
:102690000080fa00000006000000fa000602a80010
:1026a00010c0b3003aebb7000080fa00000006004b
:1026b0000600fa006000b800008fbe000622a800e5
:1026c00006c2bf000080fb000000d1000080fb00bc
:1026d000610060000000e0000c00320010002000eb
:1026e000010020001e0f40005e974800106a28007d
:1026f00011002000be0f1000ae8f1800f0ff3a004e
:10270000f10f200021079800020037000000eb00c5
:10271000200798002e0090000080fa0000000600bc
:102720000000fa000642a8000000eb000080fa005a
:10273000000006000400fa00004f780008c2bf0045
:102740000080fb00610060000000e0000300320038
:10275000f00f200010079800040037001e4078009a
:1027600002e2b7000000eb00100798001e00900086
:102770000080fa00000006000200fa000000eb00f2
:10278000000f780006c2bf000080fb0061006000ff
:102790000000e0001e003a0006c2bf000080fb00ff
:1027a0004200de000080fb00610060000000e000ed
:1027b00017003a0006c2bf000080fb004300de00a5
:1027c0000080fb00610060000000e00010003a00a3
:1027d00006c2bf000080fb004400de000080fb005a
:1027e000610060000000e00009003a0009c2bf007b
:1027f0000080fb004600de000080fb0061006000fe
:102800000000e00002003a0010002000000f7800f5
:102810001e0078000080fa00000006000200fa00a6
:102820000000eb00000f780009c2bf000080fb0031
:102830004700de000080fb000000e00002003a00dc
:1028400010002000000f78001e0078000080fa00c1
:04285000000006007e
:020000040000fa
:0200000401f009
:04000000e4fb00001d
:020000040000fa
:0200000401f009
:04000400ff7f00007a
:020000040000fa
:0200000401f009
:04000800ffff0000f6
:020000040000fa
:100008008814000088140000881400008814000078
:100018008814000088140000881400008814000068
:100028008814000088140000881400008814000058
:100038008814000088140000881400008814000048
:100048008814000088140000881400008814000038
:1000580088140000881400005c0c0000881400005c
:100068008814000088140000881400008814000018
:100078008814000088140000881400008814000008
:1000880088140000881400008814000088140000f8
:1000980088140000881400008814000088140000e8
:1000a80088140000881400008814000088140000d8
:1000b8005a0f0000881400008814000088140000fb
:1000c80088140000881400008814000088140000b8
:1000d80088140000881400008814000088140000a8
:1000e8008814000088140000881400008814000098
:0800f8008814000088140000c8
:020000040000fa
:100108008814000088140000881400008814000077
:100118008814000088140000881400008814000067
:100128008814000088140000881400008814000057
:100138008814000088140000881400008814000047
:100148008814000088140000881400008814000037
:1001580088140000881400005c0c0000881400005b
:100168008814000088140000881400008814000017
:100178008814000088140000881400008814000007
:1001880088140000881400008814000088140000f7
:1001980088140000881400008814000088140000e7
:1001a80088140000881400008814000088140000d7
:1001b8005a0f0000881400008814000088140000fa
:1001c80088140000881400008814000088140000b7
:1001d80088140000881400008814000088140000a7
:1001e8008814000088140000881400008814000097
:0801f8008814000088140000c7
:020000040000fa
:102854004d54000052200000535200005620000046
:08286400545300004e00000077
:020000040000fa
:10286c003a0b00000c000000020000000000000009
:10287c000000000000000000000000000008000044
:10288c000603000000000000280b000012000000ee
:10289c0002000000202b2d0023300000010002005c
:1028ac00000400000800100000000000460b0000af
:1028bc000800000002000000686a6c00747a4c008a
:1028cc0000000000060b00002200000002000000c7
:1028dc00303132003334350036373800396162001c
:1028ec0063646500660030003132330034353600e5
:1028fc00373839004142430044454600000000008f
:04290c0000000000c7
:020000040000fa
:042910000000fe00c5
:00000001FF
